{
	"contracts/QuizFactory.sol": {
		"QuizFactory": {
			"abi": [
				{
					"anonymous": false,
					"inputs": [
						{
							"indexed": true,
							"internalType": "address",
							"name": "quizContract",
							"type": "address"
						},
						{
							"indexed": true,
							"internalType": "address",
							"name": "host",
							"type": "address"
						},
						{
							"indexed": false,
							"internalType": "uint256",
							"name": "prizePool",
							"type": "uint256"
						}
					],
					"name": "QuizCreated",
					"type": "event"
				},
				{
					"inputs": [
						{
							"internalType": "uint256",
							"name": "entryFee",
							"type": "uint256"
						},
						{
							"internalType": "uint256",
							"name": "initialPrizePool",
							"type": "uint256"
						}
					],
					"name": "createQuiz",
					"outputs": [
						{
							"internalType": "address",
							"name": "",
							"type": "address"
						}
					],
					"stateMutability": "payable",
					"type": "function"
				}
			],
			"devdoc": {
				"kind": "dev",
				"methods": {},
				"version": 1
			},
			"evm": {
				"assembly": "    /* \"contracts/QuizFactory.sol\":79:591  contract QuizFactory {... */\n  mstore(0x40, 0x80)\n  callvalue\n  dup1\n  iszero\n  tag_1\n  jumpi\n  0x00\n  dup1\n  revert\ntag_1:\n  pop\n  dataSize(sub_0)\n  dup1\n  dataOffset(sub_0)\n  0x00\n  codecopy\n  0x00\n  return\nstop\n\nsub_0: assembly {\n        /* \"contracts/QuizFactory.sol\":79:591  contract QuizFactory {... */\n      mstore(0x40, 0x80)\n      jumpi(tag_1, lt(calldatasize, 0x04))\n      shr(0xe0, calldataload(0x00))\n      dup1\n      0x42095eaf\n      eq\n      tag_2\n      jumpi\n    tag_1:\n      0x00\n      dup1\n      revert\n        /* \"contracts/QuizFactory.sol\":201:589  function createQuiz(uint256 entryFee, uint256 initialPrizePool) external payable returns (address) {... */\n    tag_2:\n      tag_3\n      0x04\n      dup1\n      calldatasize\n      sub\n      dup2\n      add\n      swap1\n      tag_4\n      swap2\n      swap1\n      tag_5\n      jump\t// in\n    tag_4:\n      tag_6\n      jump\t// in\n    tag_3:\n      mload(0x40)\n      tag_7\n      swap2\n      swap1\n      tag_8\n      jump\t// in\n    tag_7:\n      mload(0x40)\n      dup1\n      swap2\n      sub\n      swap1\n      return\n    tag_6:\n        /* \"contracts/QuizFactory.sol\":291:298  address */\n      0x00\n        /* \"contracts/QuizFactory.sol\":331:347  initialPrizePool */\n      dup2\n        /* \"contracts/QuizFactory.sol\":318:327  msg.value */\n      callvalue\n        /* \"contracts/QuizFactory.sol\":318:347  msg.value >= initialPrizePool */\n      lt\n      iszero\n        /* \"contracts/QuizFactory.sol\":310:383  require(msg.value >= initialPrizePool, \"Insufficient initial prize pool\") */\n      tag_10\n      jumpi\n      mload(0x40)\n      0x08c379a000000000000000000000000000000000000000000000000000000000\n      dup2\n      mstore\n      0x04\n      add\n      tag_11\n      swap1\n      tag_12\n      jump\t// in\n    tag_11:\n      mload(0x40)\n      dup1\n      swap2\n      sub\n      swap1\n      revert\n    tag_10:\n        /* \"contracts/QuizFactory.sol\":402:414  Quiz newQuiz */\n      0x00\n        /* \"contracts/QuizFactory.sol\":426:436  msg.sender */\n      caller\n        /* \"contracts/QuizFactory.sol\":438:446  entryFee */\n      dup5\n        /* \"contracts/QuizFactory.sol\":448:464  initialPrizePool */\n      dup5\n        /* \"contracts/QuizFactory.sol\":417:465  new Quiz(msg.sender, entryFee, initialPrizePool) */\n      mload(0x40)\n      tag_13\n      swap1\n      tag_14\n      jump\t// in\n    tag_13:\n      tag_15\n      swap4\n      swap3\n      swap2\n      swap1\n      tag_16\n      jump\t// in\n    tag_15:\n      mload(0x40)\n      dup1\n      swap2\n      sub\n      swap1\n      0x00\n      create\n      dup1\n      iszero\n      dup1\n      iszero\n      tag_17\n      jumpi\n      returndatasize\n      0x00\n      dup1\n      returndatacopy\n      revert(0x00, returndatasize)\n    tag_17:\n      pop\n        /* \"contracts/QuizFactory.sol\":402:465  Quiz newQuiz = new Quiz(msg.sender, entryFee, initialPrizePool) */\n      swap1\n      pop\n        /* \"contracts/QuizFactory.sol\":519:529  msg.sender */\n      caller\n        /* \"contracts/QuizFactory.sol\":489:548  QuizCreated(address(newQuiz), msg.sender, initialPrizePool) */\n      0xffffffffffffffffffffffffffffffffffffffff\n      and\n        /* \"contracts/QuizFactory.sol\":509:516  newQuiz */\n      dup2\n        /* \"contracts/QuizFactory.sol\":489:548  QuizCreated(address(newQuiz), msg.sender, initialPrizePool) */\n      0xffffffffffffffffffffffffffffffffffffffff\n      and\n      0xc0ad9a4f39aa0b88d6a859af09203509913bd398aed81e3fcd4ac05f023cd901\n        /* \"contracts/QuizFactory.sol\":531:547  initialPrizePool */\n      dup6\n        /* \"contracts/QuizFactory.sol\":489:548  QuizCreated(address(newQuiz), msg.sender, initialPrizePool) */\n      mload(0x40)\n      tag_18\n      swap2\n      swap1\n      tag_19\n      jump\t// in\n    tag_18:\n      mload(0x40)\n      dup1\n      swap2\n      sub\n      swap1\n      log3\n        /* \"contracts/QuizFactory.sol\":574:581  newQuiz */\n      dup1\n        /* \"contracts/QuizFactory.sol\":559:582  return address(newQuiz) */\n      swap2\n      pop\n      pop\n        /* \"contracts/QuizFactory.sol\":201:589  function createQuiz(uint256 entryFee, uint256 initialPrizePool) external payable returns (address) {... */\n      swap3\n      swap2\n      pop\n      pop\n      jump\t// out\n    tag_14:\n      dataSize(sub_0)\n      dup1\n      dataOffset(sub_0)\n      dup4\n      codecopy\n      add\n      swap1\n      jump\t// out\n        /* \"#utility.yul\":88:205   */\n    tag_21:\n        /* \"#utility.yul\":197:198   */\n      0x00\n        /* \"#utility.yul\":194:195   */\n      dup1\n        /* \"#utility.yul\":187:199   */\n      revert\n        /* \"#utility.yul\":334:411   */\n    tag_23:\n        /* \"#utility.yul\":371:378   */\n      0x00\n        /* \"#utility.yul\":400:405   */\n      dup2\n        /* \"#utility.yul\":389:405   */\n      swap1\n      pop\n        /* \"#utility.yul\":334:411   */\n      swap2\n      swap1\n      pop\n      jump\t// out\n        /* \"#utility.yul\":417:539   */\n    tag_24:\n        /* \"#utility.yul\":490:514   */\n      tag_39\n        /* \"#utility.yul\":508:513   */\n      dup2\n        /* \"#utility.yul\":490:514   */\n      tag_23\n      jump\t// in\n    tag_39:\n        /* \"#utility.yul\":483:488   */\n      dup2\n        /* \"#utility.yul\":480:515   */\n      eq\n        /* \"#utility.yul\":470:533   */\n      tag_40\n      jumpi\n        /* \"#utility.yul\":529:530   */\n      0x00\n        /* \"#utility.yul\":526:527   */\n      dup1\n        /* \"#utility.yul\":519:531   */\n      revert\n        /* \"#utility.yul\":470:533   */\n    tag_40:\n        /* \"#utility.yul\":417:539   */\n      pop\n      jump\t// out\n        /* \"#utility.yul\":545:684   */\n    tag_25:\n        /* \"#utility.yul\":591:596   */\n      0x00\n        /* \"#utility.yul\":629:635   */\n      dup2\n        /* \"#utility.yul\":616:636   */\n      calldataload\n        /* \"#utility.yul\":607:636   */\n      swap1\n      pop\n        /* \"#utility.yul\":645:678   */\n      tag_42\n        /* \"#utility.yul\":672:677   */\n      dup2\n        /* \"#utility.yul\":645:678   */\n      tag_24\n      jump\t// in\n    tag_42:\n        /* \"#utility.yul\":545:684   */\n      swap3\n      swap2\n      pop\n      pop\n      jump\t// out\n        /* \"#utility.yul\":690:1164   */\n    tag_5:\n        /* \"#utility.yul\":758:764   */\n      0x00\n        /* \"#utility.yul\":766:772   */\n      dup1\n        /* \"#utility.yul\":815:817   */\n      0x40\n        /* \"#utility.yul\":803:812   */\n      dup4\n        /* \"#utility.yul\":794:801   */\n      dup6\n        /* \"#utility.yul\":790:813   */\n      sub\n        /* \"#utility.yul\":786:818   */\n      slt\n        /* \"#utility.yul\":783:902   */\n      iszero\n      tag_44\n      jumpi\n        /* \"#utility.yul\":821:900   */\n      tag_45\n      tag_21\n      jump\t// in\n    tag_45:\n        /* \"#utility.yul\":783:902   */\n    tag_44:\n        /* \"#utility.yul\":941:942   */\n      0x00\n        /* \"#utility.yul\":966:1019   */\n      tag_46\n        /* \"#utility.yul\":1011:1018   */\n      dup6\n        /* \"#utility.yul\":1002:1008   */\n      dup3\n        /* \"#utility.yul\":991:1000   */\n      dup7\n        /* \"#utility.yul\":987:1009   */\n      add\n        /* \"#utility.yul\":966:1019   */\n      tag_25\n      jump\t// in\n    tag_46:\n        /* \"#utility.yul\":956:1019   */\n      swap3\n      pop\n        /* \"#utility.yul\":912:1029   */\n      pop\n        /* \"#utility.yul\":1068:1070   */\n      0x20\n        /* \"#utility.yul\":1094:1147   */\n      tag_47\n        /* \"#utility.yul\":1139:1146   */\n      dup6\n        /* \"#utility.yul\":1130:1136   */\n      dup3\n        /* \"#utility.yul\":1119:1128   */\n      dup7\n        /* \"#utility.yul\":1115:1137   */\n      add\n        /* \"#utility.yul\":1094:1147   */\n      tag_25\n      jump\t// in\n    tag_47:\n        /* \"#utility.yul\":1084:1147   */\n      swap2\n      pop\n        /* \"#utility.yul\":1039:1157   */\n      pop\n        /* \"#utility.yul\":690:1164   */\n      swap3\n      pop\n      swap3\n      swap1\n      pop\n      jump\t// out\n        /* \"#utility.yul\":1170:1296   */\n    tag_26:\n        /* \"#utility.yul\":1207:1214   */\n      0x00\n        /* \"#utility.yul\":1247:1289   */\n      0xffffffffffffffffffffffffffffffffffffffff\n        /* \"#utility.yul\":1240:1245   */\n      dup3\n        /* \"#utility.yul\":1236:1290   */\n      and\n        /* \"#utility.yul\":1225:1290   */\n      swap1\n      pop\n        /* \"#utility.yul\":1170:1296   */\n      swap2\n      swap1\n      pop\n      jump\t// out\n        /* \"#utility.yul\":1302:1398   */\n    tag_27:\n        /* \"#utility.yul\":1339:1346   */\n      0x00\n        /* \"#utility.yul\":1368:1392   */\n      tag_50\n        /* \"#utility.yul\":1386:1391   */\n      dup3\n        /* \"#utility.yul\":1368:1392   */\n      tag_26\n      jump\t// in\n    tag_50:\n        /* \"#utility.yul\":1357:1392   */\n      swap1\n      pop\n        /* \"#utility.yul\":1302:1398   */\n      swap2\n      swap1\n      pop\n      jump\t// out\n        /* \"#utility.yul\":1404:1522   */\n    tag_28:\n        /* \"#utility.yul\":1491:1515   */\n      tag_52\n        /* \"#utility.yul\":1509:1514   */\n      dup2\n        /* \"#utility.yul\":1491:1515   */\n      tag_27\n      jump\t// in\n    tag_52:\n        /* \"#utility.yul\":1486:1489   */\n      dup3\n        /* \"#utility.yul\":1479:1516   */\n      mstore\n        /* \"#utility.yul\":1404:1522   */\n      pop\n      pop\n      jump\t// out\n        /* \"#utility.yul\":1528:1750   */\n    tag_8:\n        /* \"#utility.yul\":1621:1625   */\n      0x00\n        /* \"#utility.yul\":1659:1661   */\n      0x20\n        /* \"#utility.yul\":1648:1657   */\n      dup3\n        /* \"#utility.yul\":1644:1662   */\n      add\n        /* \"#utility.yul\":1636:1662   */\n      swap1\n      pop\n        /* \"#utility.yul\":1672:1743   */\n      tag_54\n        /* \"#utility.yul\":1740:1741   */\n      0x00\n        /* \"#utility.yul\":1729:1738   */\n      dup4\n        /* \"#utility.yul\":1725:1742   */\n      add\n        /* \"#utility.yul\":1716:1722   */\n      dup5\n        /* \"#utility.yul\":1672:1743   */\n      tag_28\n      jump\t// in\n    tag_54:\n        /* \"#utility.yul\":1528:1750   */\n      swap3\n      swap2\n      pop\n      pop\n      jump\t// out\n        /* \"#utility.yul\":1756:1925   */\n    tag_29:\n        /* \"#utility.yul\":1840:1851   */\n      0x00\n        /* \"#utility.yul\":1874:1880   */\n      dup3\n        /* \"#utility.yul\":1869:1872   */\n      dup3\n        /* \"#utility.yul\":1862:1881   */\n      mstore\n        /* \"#utility.yul\":1914:1918   */\n      0x20\n        /* \"#utility.yul\":1909:1912   */\n      dup3\n        /* \"#utility.yul\":1905:1919   */\n      add\n        /* \"#utility.yul\":1890:1919   */\n      swap1\n      pop\n        /* \"#utility.yul\":1756:1925   */\n      swap3\n      swap2\n      pop\n      pop\n      jump\t// out\n        /* \"#utility.yul\":1931:2112   */\n    tag_30:\n        /* \"#utility.yul\":2071:2104   */\n      0x496e73756666696369656e7420696e697469616c207072697a6520706f6f6c00\n        /* \"#utility.yul\":2067:2068   */\n      0x00\n        /* \"#utility.yul\":2059:2065   */\n      dup3\n        /* \"#utility.yul\":2055:2069   */\n      add\n        /* \"#utility.yul\":2048:2105   */\n      mstore\n        /* \"#utility.yul\":1931:2112   */\n      pop\n      jump\t// out\n        /* \"#utility.yul\":2118:2484   */\n    tag_31:\n        /* \"#utility.yul\":2260:2263   */\n      0x00\n        /* \"#utility.yul\":2281:2348   */\n      tag_58\n        /* \"#utility.yul\":2345:2347   */\n      0x1f\n        /* \"#utility.yul\":2340:2343   */\n      dup4\n        /* \"#utility.yul\":2281:2348   */\n      tag_29\n      jump\t// in\n    tag_58:\n        /* \"#utility.yul\":2274:2348   */\n      swap2\n      pop\n        /* \"#utility.yul\":2357:2450   */\n      tag_59\n        /* \"#utility.yul\":2446:2449   */\n      dup3\n        /* \"#utility.yul\":2357:2450   */\n      tag_30\n      jump\t// in\n    tag_59:\n        /* \"#utility.yul\":2475:2477   */\n      0x20\n        /* \"#utility.yul\":2470:2473   */\n      dup3\n        /* \"#utility.yul\":2466:2478   */\n      add\n        /* \"#utility.yul\":2459:2478   */\n      swap1\n      pop\n        /* \"#utility.yul\":2118:2484   */\n      swap2\n      swap1\n      pop\n      jump\t// out\n        /* \"#utility.yul\":2490:2909   */\n    tag_12:\n        /* \"#utility.yul\":2656:2660   */\n      0x00\n        /* \"#utility.yul\":2694:2696   */\n      0x20\n        /* \"#utility.yul\":2683:2692   */\n      dup3\n        /* \"#utility.yul\":2679:2697   */\n      add\n        /* \"#utility.yul\":2671:2697   */\n      swap1\n      pop\n        /* \"#utility.yul\":2743:2752   */\n      dup2\n        /* \"#utility.yul\":2737:2741   */\n      dup2\n        /* \"#utility.yul\":2733:2753   */\n      sub\n        /* \"#utility.yul\":2729:2730   */\n      0x00\n        /* \"#utility.yul\":2718:2727   */\n      dup4\n        /* \"#utility.yul\":2714:2731   */\n      add\n        /* \"#utility.yul\":2707:2754   */\n      mstore\n        /* \"#utility.yul\":2771:2902   */\n      tag_61\n        /* \"#utility.yul\":2897:2901   */\n      dup2\n        /* \"#utility.yul\":2771:2902   */\n      tag_31\n      jump\t// in\n    tag_61:\n        /* \"#utility.yul\":2763:2902   */\n      swap1\n      pop\n        /* \"#utility.yul\":2490:2909   */\n      swap2\n      swap1\n      pop\n      jump\t// out\n        /* \"#utility.yul\":2915:3033   */\n    tag_32:\n        /* \"#utility.yul\":3002:3026   */\n      tag_63\n        /* \"#utility.yul\":3020:3025   */\n      dup2\n        /* \"#utility.yul\":3002:3026   */\n      tag_23\n      jump\t// in\n    tag_63:\n        /* \"#utility.yul\":2997:3000   */\n      dup3\n        /* \"#utility.yul\":2990:3027   */\n      mstore\n        /* \"#utility.yul\":2915:3033   */\n      pop\n      pop\n      jump\t// out\n        /* \"#utility.yul\":3039:3481   */\n    tag_16:\n        /* \"#utility.yul\":3188:3192   */\n      0x00\n        /* \"#utility.yul\":3226:3228   */\n      0x60\n        /* \"#utility.yul\":3215:3224   */\n      dup3\n        /* \"#utility.yul\":3211:3229   */\n      add\n        /* \"#utility.yul\":3203:3229   */\n      swap1\n      pop\n        /* \"#utility.yul\":3239:3310   */\n      tag_65\n        /* \"#utility.yul\":3307:3308   */\n      0x00\n        /* \"#utility.yul\":3296:3305   */\n      dup4\n        /* \"#utility.yul\":3292:3309   */\n      add\n        /* \"#utility.yul\":3283:3289   */\n      dup7\n        /* \"#utility.yul\":3239:3310   */\n      tag_28\n      jump\t// in\n    tag_65:\n        /* \"#utility.yul\":3320:3392   */\n      tag_66\n        /* \"#utility.yul\":3388:3390   */\n      0x20\n        /* \"#utility.yul\":3377:3386   */\n      dup4\n        /* \"#utility.yul\":3373:3391   */\n      add\n        /* \"#utility.yul\":3364:3370   */\n      dup6\n        /* \"#utility.yul\":3320:3392   */\n      tag_32\n      jump\t// in\n    tag_66:\n        /* \"#utility.yul\":3402:3474   */\n      tag_67\n        /* \"#utility.yul\":3470:3472   */\n      0x40\n        /* \"#utility.yul\":3459:3468   */\n      dup4\n        /* \"#utility.yul\":3455:3473   */\n      add\n        /* \"#utility.yul\":3446:3452   */\n      dup5\n        /* \"#utility.yul\":3402:3474   */\n      tag_32\n      jump\t// in\n    tag_67:\n        /* \"#utility.yul\":3039:3481   */\n      swap5\n      swap4\n      pop\n      pop\n      pop\n      pop\n      jump\t// out\n        /* \"#utility.yul\":3487:3709   */\n    tag_19:\n        /* \"#utility.yul\":3580:3584   */\n      0x00\n        /* \"#utility.yul\":3618:3620   */\n      0x20\n        /* \"#utility.yul\":3607:3616   */\n      dup3\n        /* \"#utility.yul\":3603:3621   */\n      add\n        /* \"#utility.yul\":3595:3621   */\n      swap1\n      pop\n        /* \"#utility.yul\":3631:3702   */\n      tag_69\n        /* \"#utility.yul\":3699:3700   */\n      0x00\n        /* \"#utility.yul\":3688:3697   */\n      dup4\n        /* \"#utility.yul\":3684:3701   */\n      add\n        /* \"#utility.yul\":3675:3681   */\n      dup5\n        /* \"#utility.yul\":3631:3702   */\n      tag_32\n      jump\t// in\n    tag_69:\n        /* \"#utility.yul\":3487:3709   */\n      swap3\n      swap2\n      pop\n      pop\n      jump\t// out\n    stop\n\n    sub_0: assembly {\n            /* \"contracts/Quiz.sol\":58:2817  contract Quiz {... */\n          mstore(0x40, 0x80)\n            /* \"contracts/Quiz.sol\":388:553  constructor(address _host, uint256 _entryFee, uint256 _prizePool) payable {... */\n          mload(0x40)\n          sub(codesize, bytecodeSize)\n          dup1\n          bytecodeSize\n          dup4\n          codecopy\n          dup2\n          dup2\n          add\n          0x40\n          mstore\n          dup2\n          add\n          swap1\n          tag_1\n          swap2\n          swap1\n          tag_2\n          jump\t// in\n        tag_1:\n            /* \"contracts/Quiz.sol\":479:484  _host */\n          dup3\n            /* \"contracts/Quiz.sol\":472:476  host */\n          0x00\n          dup1\n            /* \"contracts/Quiz.sol\":472:484  host = _host */\n          0x0100\n          exp\n          dup2\n          sload\n          dup2\n          0xffffffffffffffffffffffffffffffffffffffff\n          mul\n          not\n          and\n          swap1\n          dup4\n          0xffffffffffffffffffffffffffffffffffffffff\n          and\n          mul\n          or\n          swap1\n          sstore\n          pop\n            /* \"contracts/Quiz.sol\":505:514  _entryFee */\n          dup2\n            /* \"contracts/Quiz.sol\":494:502  entryFee */\n          0x01\n            /* \"contracts/Quiz.sol\":494:514  entryFee = _entryFee */\n          dup2\n          swap1\n          sstore\n          pop\n            /* \"contracts/Quiz.sol\":536:546  _prizePool */\n          dup1\n            /* \"contracts/Quiz.sol\":524:533  prizePool */\n          0x02\n            /* \"contracts/Quiz.sol\":524:546  prizePool = _prizePool */\n          dup2\n          swap1\n          sstore\n          pop\n            /* \"contracts/Quiz.sol\":388:553  constructor(address _host, uint256 _entryFee, uint256 _prizePool) payable {... */\n          pop\n          pop\n          pop\n            /* \"contracts/Quiz.sol\":58:2817  contract Quiz {... */\n          jump(tag_5)\n            /* \"#utility.yul\":88:205   */\n        tag_7:\n            /* \"#utility.yul\":197:198   */\n          0x00\n            /* \"#utility.yul\":194:195   */\n          dup1\n            /* \"#utility.yul\":187:199   */\n          revert\n            /* \"#utility.yul\":334:460   */\n        tag_9:\n            /* \"#utility.yul\":371:378   */\n          0x00\n            /* \"#utility.yul\":411:453   */\n          0xffffffffffffffffffffffffffffffffffffffff\n            /* \"#utility.yul\":404:409   */\n          dup3\n            /* \"#utility.yul\":400:454   */\n          and\n            /* \"#utility.yul\":389:454   */\n          swap1\n          pop\n            /* \"#utility.yul\":334:460   */\n          swap2\n          swap1\n          pop\n          jump\t// out\n            /* \"#utility.yul\":466:562   */\n        tag_10:\n            /* \"#utility.yul\":503:510   */\n          0x00\n            /* \"#utility.yul\":532:556   */\n          tag_22\n            /* \"#utility.yul\":550:555   */\n          dup3\n            /* \"#utility.yul\":532:556   */\n          tag_9\n          jump\t// in\n        tag_22:\n            /* \"#utility.yul\":521:556   */\n          swap1\n          pop\n            /* \"#utility.yul\":466:562   */\n          swap2\n          swap1\n          pop\n          jump\t// out\n            /* \"#utility.yul\":568:690   */\n        tag_11:\n            /* \"#utility.yul\":641:665   */\n          tag_24\n            /* \"#utility.yul\":659:664   */\n          dup2\n            /* \"#utility.yul\":641:665   */\n          tag_10\n          jump\t// in\n        tag_24:\n            /* \"#utility.yul\":634:639   */\n          dup2\n            /* \"#utility.yul\":631:666   */\n          eq\n            /* \"#utility.yul\":621:684   */\n          tag_25\n          jumpi\n            /* \"#utility.yul\":680:681   */\n          0x00\n            /* \"#utility.yul\":677:678   */\n          dup1\n            /* \"#utility.yul\":670:682   */\n          revert\n            /* \"#utility.yul\":621:684   */\n        tag_25:\n            /* \"#utility.yul\":568:690   */\n          pop\n          jump\t// out\n            /* \"#utility.yul\":696:839   */\n        tag_12:\n            /* \"#utility.yul\":753:758   */\n          0x00\n            /* \"#utility.yul\":784:790   */\n          dup2\n            /* \"#utility.yul\":778:791   */\n          mload\n            /* \"#utility.yul\":769:791   */\n          swap1\n          pop\n            /* \"#utility.yul\":800:833   */\n          tag_27\n            /* \"#utility.yul\":827:832   */\n          dup2\n            /* \"#utility.yul\":800:833   */\n          tag_11\n          jump\t// in\n        tag_27:\n            /* \"#utility.yul\":696:839   */\n          swap3\n          swap2\n          pop\n          pop\n          jump\t// out\n            /* \"#utility.yul\":845:922   */\n        tag_13:\n            /* \"#utility.yul\":882:889   */\n          0x00\n            /* \"#utility.yul\":911:916   */\n          dup2\n            /* \"#utility.yul\":900:916   */\n          swap1\n          pop\n            /* \"#utility.yul\":845:922   */\n          swap2\n          swap1\n          pop\n          jump\t// out\n            /* \"#utility.yul\":928:1050   */\n        tag_14:\n            /* \"#utility.yul\":1001:1025   */\n          tag_30\n            /* \"#utility.yul\":1019:1024   */\n          dup2\n            /* \"#utility.yul\":1001:1025   */\n          tag_13\n          jump\t// in\n        tag_30:\n            /* \"#utility.yul\":994:999   */\n          dup2\n            /* \"#utility.yul\":991:1026   */\n          eq\n            /* \"#utility.yul\":981:1044   */\n          tag_31\n          jumpi\n            /* \"#utility.yul\":1040:1041   */\n          0x00\n            /* \"#utility.yul\":1037:1038   */\n          dup1\n            /* \"#utility.yul\":1030:1042   */\n          revert\n            /* \"#utility.yul\":981:1044   */\n        tag_31:\n            /* \"#utility.yul\":928:1050   */\n          pop\n          jump\t// out\n            /* \"#utility.yul\":1056:1199   */\n        tag_15:\n            /* \"#utility.yul\":1113:1118   */\n          0x00\n            /* \"#utility.yul\":1144:1150   */\n          dup2\n            /* \"#utility.yul\":1138:1151   */\n          mload\n            /* \"#utility.yul\":1129:1151   */\n          swap1\n          pop\n            /* \"#utility.yul\":1160:1193   */\n          tag_33\n            /* \"#utility.yul\":1187:1192   */\n          dup2\n            /* \"#utility.yul\":1160:1193   */\n          tag_14\n          jump\t// in\n        tag_33:\n            /* \"#utility.yul\":1056:1199   */\n          swap3\n          swap2\n          pop\n          pop\n          jump\t// out\n            /* \"#utility.yul\":1205:1868   */\n        tag_2:\n            /* \"#utility.yul\":1293:1299   */\n          0x00\n            /* \"#utility.yul\":1301:1307   */\n          dup1\n            /* \"#utility.yul\":1309:1315   */\n          0x00\n            /* \"#utility.yul\":1358:1360   */\n          0x60\n            /* \"#utility.yul\":1346:1355   */\n          dup5\n            /* \"#utility.yul\":1337:1344   */\n          dup7\n            /* \"#utility.yul\":1333:1356   */\n          sub\n            /* \"#utility.yul\":1329:1361   */\n          slt\n            /* \"#utility.yul\":1326:1445   */\n          iszero\n          tag_35\n          jumpi\n            /* \"#utility.yul\":1364:1443   */\n          tag_36\n          tag_7\n          jump\t// in\n        tag_36:\n            /* \"#utility.yul\":1326:1445   */\n        tag_35:\n            /* \"#utility.yul\":1484:1485   */\n          0x00\n            /* \"#utility.yul\":1509:1573   */\n          tag_37\n            /* \"#utility.yul\":1565:1572   */\n          dup7\n            /* \"#utility.yul\":1556:1562   */\n          dup3\n            /* \"#utility.yul\":1545:1554   */\n          dup8\n            /* \"#utility.yul\":1541:1563   */\n          add\n            /* \"#utility.yul\":1509:1573   */\n          tag_12\n          jump\t// in\n        tag_37:\n            /* \"#utility.yul\":1499:1573   */\n          swap4\n          pop\n            /* \"#utility.yul\":1455:1583   */\n          pop\n            /* \"#utility.yul\":1622:1624   */\n          0x20\n            /* \"#utility.yul\":1648:1712   */\n          tag_38\n            /* \"#utility.yul\":1704:1711   */\n          dup7\n            /* \"#utility.yul\":1695:1701   */\n          dup3\n            /* \"#utility.yul\":1684:1693   */\n          dup8\n            /* \"#utility.yul\":1680:1702   */\n          add\n            /* \"#utility.yul\":1648:1712   */\n          tag_15\n          jump\t// in\n        tag_38:\n            /* \"#utility.yul\":1638:1712   */\n          swap3\n          pop\n            /* \"#utility.yul\":1593:1722   */\n          pop\n            /* \"#utility.yul\":1761:1763   */\n          0x40\n            /* \"#utility.yul\":1787:1851   */\n          tag_39\n            /* \"#utility.yul\":1843:1850   */\n          dup7\n            /* \"#utility.yul\":1834:1840   */\n          dup3\n            /* \"#utility.yul\":1823:1832   */\n          dup8\n            /* \"#utility.yul\":1819:1841   */\n          add\n            /* \"#utility.yul\":1787:1851   */\n          tag_15\n          jump\t// in\n        tag_39:\n            /* \"#utility.yul\":1777:1851   */\n          swap2\n          pop\n            /* \"#utility.yul\":1732:1861   */\n          pop\n            /* \"#utility.yul\":1205:1868   */\n          swap3\n          pop\n          swap3\n          pop\n          swap3\n          jump\t// out\n            /* \"contracts/Quiz.sol\":58:2817  contract Quiz {... */\n        tag_5:\n          dataSize(sub_0)\n          dup1\n          dataOffset(sub_0)\n          0x00\n          codecopy\n          0x00\n          return\n        stop\n\n        sub_0: assembly {\n                /* \"contracts/Quiz.sol\":58:2817  contract Quiz {... */\n              mstore(0x40, 0x80)\n              jumpi(tag_1, lt(calldatasize, 0x04))\n              shr(0xe0, calldataload(0x00))\n              dup1\n              0x76dd110f\n              gt\n              tag_10\n              jumpi\n              dup1\n              0x76dd110f\n              eq\n              tag_6\n              jumpi\n              dup1\n              0x7ce52eb6\n              eq\n              tag_7\n              jumpi\n              dup1\n              0xaff0b297\n              eq\n              tag_8\n              jumpi\n              dup1\n              0xf437bc59\n              eq\n              tag_9\n              jumpi\n              jump(tag_1)\n            tag_10:\n              dup1\n              0x072ea61c\n              eq\n              tag_2\n              jumpi\n              dup1\n              0x35c1d349\n              eq\n              tag_3\n              jumpi\n              dup1\n              0x5b796e44\n              eq\n              tag_4\n              jumpi\n              dup1\n              0x719ce73e\n              eq\n              tag_5\n              jumpi\n            tag_1:\n              0x00\n              dup1\n              revert\n                /* \"contracts/Quiz.sol\":103:126  uint256 public entryFee */\n            tag_2:\n              callvalue\n              dup1\n              iszero\n              tag_11\n              jumpi\n              0x00\n              dup1\n              revert\n            tag_11:\n              pop\n              tag_12\n              tag_13\n              jump\t// in\n            tag_12:\n              mload(0x40)\n              tag_14\n              swap2\n              swap1\n              tag_15\n              jump\t// in\n            tag_14:\n              mload(0x40)\n              dup1\n              swap2\n              sub\n              swap1\n              return\n                /* \"contracts/Quiz.sol\":209:238  address[] public participants */\n            tag_3:\n              callvalue\n              dup1\n              iszero\n              tag_16\n              jumpi\n              0x00\n              dup1\n              revert\n            tag_16:\n              pop\n              tag_17\n              0x04\n              dup1\n              calldatasize\n              sub\n              dup2\n              add\n              swap1\n              tag_18\n              swap2\n              swap1\n              tag_19\n              jump\t// in\n            tag_18:\n              tag_20\n              jump\t// in\n            tag_17:\n              mload(0x40)\n              tag_21\n              swap2\n              swap1\n              tag_22\n              jump\t// in\n            tag_21:\n              mload(0x40)\n              dup1\n              swap2\n              sub\n              swap1\n              return\n                /* \"contracts/Quiz.sol\":559:832  function enterQuiz() external payable {... */\n            tag_4:\n              tag_23\n              tag_24\n              jump\t// in\n            tag_23:\n              stop\n                /* \"contracts/Quiz.sol\":132:156  uint256 public prizePool */\n            tag_5:\n              callvalue\n              dup1\n              iszero\n              tag_25\n              jumpi\n              0x00\n              dup1\n              revert\n            tag_25:\n              pop\n              tag_26\n              tag_27\n              jump\t// in\n            tag_26:\n              mload(0x40)\n              tag_28\n              swap2\n              swap1\n              tag_15\n              jump\t// in\n            tag_28:\n              mload(0x40)\n              dup1\n              swap2\n              sub\n              swap1\n              return\n                /* \"contracts/Quiz.sol\":162:203  mapping(address => uint256) public scores */\n            tag_6:\n              callvalue\n              dup1\n              iszero\n              tag_29\n              jumpi\n              0x00\n              dup1\n              revert\n            tag_29:\n              pop\n              tag_30\n              0x04\n              dup1\n              calldatasize\n              sub\n              dup2\n              add\n              swap1\n              tag_31\n              swap2\n              swap1\n              tag_32\n              jump\t// in\n            tag_31:\n              tag_33\n              jump\t// in\n            tag_30:\n              mload(0x40)\n              tag_34\n              swap2\n              swap1\n              tag_15\n              jump\t// in\n            tag_34:\n              mload(0x40)\n              dup1\n              swap2\n              sub\n              swap1\n              return\n                /* \"contracts/Quiz.sol\":1065:2815  function distributePrizes() external {... */\n            tag_7:\n              callvalue\n              dup1\n              iszero\n              tag_35\n              jumpi\n              0x00\n              dup1\n              revert\n            tag_35:\n              pop\n              tag_36\n              tag_37\n              jump\t// in\n            tag_36:\n              stop\n                /* \"contracts/Quiz.sol\":838:1059  function submitScore(uint256 _score) external {... */\n            tag_8:\n              callvalue\n              dup1\n              iszero\n              tag_38\n              jumpi\n              0x00\n              dup1\n              revert\n            tag_38:\n              pop\n              tag_39\n              0x04\n              dup1\n              calldatasize\n              sub\n              dup2\n              add\n              swap1\n              tag_40\n              swap2\n              swap1\n              tag_19\n              jump\t// in\n            tag_40:\n              tag_41\n              jump\t// in\n            tag_39:\n              stop\n                /* \"contracts/Quiz.sol\":78:97  address public host */\n            tag_9:\n              callvalue\n              dup1\n              iszero\n              tag_42\n              jumpi\n              0x00\n              dup1\n              revert\n            tag_42:\n              pop\n              tag_43\n              tag_44\n              jump\t// in\n            tag_43:\n              mload(0x40)\n              tag_45\n              swap2\n              swap1\n              tag_22\n              jump\t// in\n            tag_45:\n              mload(0x40)\n              dup1\n              swap2\n              sub\n              swap1\n              return\n                /* \"contracts/Quiz.sol\":103:126  uint256 public entryFee */\n            tag_13:\n              sload(0x01)\n              dup2\n              jump\t// out\n                /* \"contracts/Quiz.sol\":209:238  address[] public participants */\n            tag_20:\n              0x04\n              dup2\n              dup2\n              sload\n              dup2\n              lt\n              tag_46\n              jumpi\n              0x00\n              dup1\n              revert\n            tag_46:\n              swap1\n              0x00\n              mstore\n              keccak256(0x00, 0x20)\n              add\n              0x00\n              swap2\n              pop\n              sload\n              swap1\n              0x0100\n              exp\n              swap1\n              div\n              0xffffffffffffffffffffffffffffffffffffffff\n              and\n              dup2\n              jump\t// out\n                /* \"contracts/Quiz.sol\":559:832  function enterQuiz() external payable {... */\n            tag_24:\n                /* \"contracts/Quiz.sol\":628:636  entryFee */\n              sload(0x01)\n                /* \"contracts/Quiz.sol\":615:624  msg.value */\n              callvalue\n                /* \"contracts/Quiz.sol\":615:636  msg.value == entryFee */\n              eq\n                /* \"contracts/Quiz.sol\":607:660  require(msg.value == entryFee, \"Incorrect entry fee\") */\n              tag_49\n              jumpi\n              mload(0x40)\n              0x08c379a000000000000000000000000000000000000000000000000000000000\n              dup2\n              mstore\n              0x04\n              add\n              tag_50\n              swap1\n              tag_51\n              jump\t// in\n            tag_50:\n              mload(0x40)\n              dup1\n              swap2\n              sub\n              swap1\n              revert\n            tag_49:\n                /* \"contracts/Quiz.sol\":700:701  0 */\n              0x00\n                /* \"contracts/Quiz.sol\":678:684  scores */\n              0x03\n                /* \"contracts/Quiz.sol\":678:696  scores[msg.sender] */\n              0x00\n                /* \"contracts/Quiz.sol\":685:695  msg.sender */\n              caller\n                /* \"contracts/Quiz.sol\":678:696  scores[msg.sender] */\n              0xffffffffffffffffffffffffffffffffffffffff\n              and\n              0xffffffffffffffffffffffffffffffffffffffff\n              and\n              dup2\n              mstore\n              0x20\n              add\n              swap1\n              dup2\n              mstore\n              0x20\n              add\n              0x00\n              keccak256\n              sload\n                /* \"contracts/Quiz.sol\":678:701  scores[msg.sender] == 0 */\n              eq\n                /* \"contracts/Quiz.sol\":670:737  require(scores[msg.sender] == 0, \"You've already entered the quiz\") */\n              tag_52\n              jumpi\n              mload(0x40)\n              0x08c379a000000000000000000000000000000000000000000000000000000000\n              dup2\n              mstore\n              0x04\n              add\n              tag_53\n              swap1\n              tag_54\n              jump\t// in\n            tag_53:\n              mload(0x40)\n              dup1\n              swap2\n              sub\n              swap1\n              revert\n            tag_52:\n                /* \"contracts/Quiz.sol\":748:760  participants */\n              0x04\n                /* \"contracts/Quiz.sol\":766:776  msg.sender */\n              caller\n                /* \"contracts/Quiz.sol\":748:777  participants.push(msg.sender) */\n              swap1\n              dup1\n              0x01\n              dup2\n              sload\n              add\n              dup1\n              dup3\n              sstore\n              dup1\n              swap2\n              pop\n              pop\n              0x01\n              swap1\n              sub\n              swap1\n              0x00\n              mstore\n              keccak256(0x00, 0x20)\n              add\n              0x00\n              swap1\n              swap2\n              swap1\n              swap2\n              swap1\n              swap2\n              0x0100\n              exp\n              dup2\n              sload\n              dup2\n              0xffffffffffffffffffffffffffffffffffffffff\n              mul\n              not\n              and\n              swap1\n              dup4\n              0xffffffffffffffffffffffffffffffffffffffff\n              and\n              mul\n              or\n              swap1\n              sstore\n              pop\n                /* \"contracts/Quiz.sol\":811:821  msg.sender */\n              caller\n                /* \"contracts/Quiz.sol\":792:825  ParticipantEntered(msg.sender, 0) */\n              0xffffffffffffffffffffffffffffffffffffffff\n              and\n              0x9211e85c505f78a7153ac4ea4ed0458d1f7c324b15adc37a02ffacbe5045b699\n                /* \"contracts/Quiz.sol\":823:824  0 */\n              0x00\n                /* \"contracts/Quiz.sol\":792:825  ParticipantEntered(msg.sender, 0) */\n              mload(0x40)\n              tag_56\n              swap2\n              swap1\n              tag_57\n              jump\t// in\n            tag_56:\n              mload(0x40)\n              dup1\n              swap2\n              sub\n              swap1\n              log2\n                /* \"contracts/Quiz.sol\":559:832  function enterQuiz() external payable {... */\n              jump\t// out\n                /* \"contracts/Quiz.sol\":132:156  uint256 public prizePool */\n            tag_27:\n              sload(0x02)\n              dup2\n              jump\t// out\n                /* \"contracts/Quiz.sol\":162:203  mapping(address => uint256) public scores */\n            tag_33:\n              mstore(0x20, 0x03)\n              dup1\n              0x00\n              mstore\n              keccak256(0x00, 0x40)\n              0x00\n              swap2\n              pop\n              swap1\n              pop\n              sload\n              dup2\n              jump\t// out\n                /* \"contracts/Quiz.sol\":1065:2815  function distributePrizes() external {... */\n            tag_37:\n                /* \"contracts/Quiz.sol\":1134:1138  host */\n              0x00\n              dup1\n              sload\n              swap1\n              0x0100\n              exp\n              swap1\n              div\n              0xffffffffffffffffffffffffffffffffffffffff\n              and\n                /* \"contracts/Quiz.sol\":1120:1138  msg.sender == host */\n              0xffffffffffffffffffffffffffffffffffffffff\n              and\n                /* \"contracts/Quiz.sol\":1120:1130  msg.sender */\n              caller\n                /* \"contracts/Quiz.sol\":1120:1138  msg.sender == host */\n              0xffffffffffffffffffffffffffffffffffffffff\n              and\n              eq\n                /* \"contracts/Quiz.sol\":1112:1178  require(msg.sender == host, \"Only the host can distribute prizes\") */\n              tag_59\n              jumpi\n              mload(0x40)\n              0x08c379a000000000000000000000000000000000000000000000000000000000\n              dup2\n              mstore\n              0x04\n              add\n              tag_60\n              swap1\n              tag_61\n              jump\t// in\n            tag_60:\n              mload(0x40)\n              dup1\n              swap2\n              sub\n              swap1\n              revert\n            tag_59:\n                /* \"contracts/Quiz.sol\":1197:1222  uint256 totalParticipants */\n              0x00\n                /* \"contracts/Quiz.sol\":1225:1237  participants */\n              0x04\n                /* \"contracts/Quiz.sol\":1225:1244  participants.length */\n              dup1\n              sload\n              swap1\n              pop\n                /* \"contracts/Quiz.sol\":1197:1244  uint256 totalParticipants = participants.length */\n              swap1\n              pop\n                /* \"contracts/Quiz.sol\":1282:1283  0 */\n              0x00\n                /* \"contracts/Quiz.sol\":1262:1279  totalParticipants */\n              dup2\n                /* \"contracts/Quiz.sol\":1262:1283  totalParticipants > 0 */\n              gt\n                /* \"contracts/Quiz.sol\":1254:1303  require(totalParticipants > 0, \"No participants\") */\n              tag_62\n              jumpi\n              mload(0x40)\n              0x08c379a000000000000000000000000000000000000000000000000000000000\n              dup2\n              mstore\n              0x04\n              add\n              tag_63\n              swap1\n              tag_64\n              jump\t// in\n            tag_63:\n              mload(0x40)\n              dup1\n              swap2\n              sub\n              swap1\n              revert\n            tag_62:\n                /* \"contracts/Quiz.sol\":1314:1339  address[3] memory winners */\n              tag_65\n              tag_66\n              jump\t// in\n            tag_65:\n                /* \"contracts/Quiz.sol\":1349:1381  uint256[3] memory winningAmounts */\n              tag_67\n              tag_68\n              jump\t// in\n            tag_67:\n                /* \"contracts/Quiz.sol\":1426:1435  uint256 i */\n              0x00\n                /* \"contracts/Quiz.sol\":1421:2280  for (uint256 i = 0; i < 3; i++) {... */\n            tag_69:\n                /* \"contracts/Quiz.sol\":1445:1446  3 */\n              0x03\n                /* \"contracts/Quiz.sol\":1441:1442  i */\n              dup2\n                /* \"contracts/Quiz.sol\":1441:1446  i < 3 */\n              lt\n                /* \"contracts/Quiz.sol\":1421:2280  for (uint256 i = 0; i < 3; i++) {... */\n              iszero\n              tag_70\n              jumpi\n                /* \"contracts/Quiz.sol\":1467:1487  uint256 highestScore */\n              0x00\n                /* \"contracts/Quiz.sol\":1505:1526  address winnerAddress */\n              dup1\n                /* \"contracts/Quiz.sol\":1546:1555  uint256 j */\n              dup1\n                /* \"contracts/Quiz.sol\":1558:1559  0 */\n              0x00\n                /* \"contracts/Quiz.sol\":1546:1559  uint256 j = 0 */\n              swap1\n              pop\n                /* \"contracts/Quiz.sol\":1541:1799  for (uint256 j = 0; j < participants.length; j++) {... */\n            tag_72:\n                /* \"contracts/Quiz.sol\":1565:1577  participants */\n              0x04\n                /* \"contracts/Quiz.sol\":1565:1584  participants.length */\n              dup1\n              sload\n              swap1\n              pop\n                /* \"contracts/Quiz.sol\":1561:1562  j */\n              dup2\n                /* \"contracts/Quiz.sol\":1561:1584  j < participants.length */\n              lt\n                /* \"contracts/Quiz.sol\":1541:1799  for (uint256 j = 0; j < participants.length; j++) {... */\n              iszero\n              tag_73\n              jumpi\n                /* \"contracts/Quiz.sol\":1639:1651  highestScore */\n              dup3\n                /* \"contracts/Quiz.sol\":1613:1619  scores */\n              0x03\n                /* \"contracts/Quiz.sol\":1613:1636  scores[participants[j]] */\n              0x00\n                /* \"contracts/Quiz.sol\":1620:1632  participants */\n              0x04\n                /* \"contracts/Quiz.sol\":1633:1634  j */\n              dup5\n                /* \"contracts/Quiz.sol\":1620:1635  participants[j] */\n              dup2\n              sload\n              dup2\n              lt\n              tag_75\n              jumpi\n              tag_76\n              tag_77\n              jump\t// in\n            tag_76:\n            tag_75:\n              swap1\n              0x00\n              mstore\n              keccak256(0x00, 0x20)\n              add\n              0x00\n              swap1\n              sload\n              swap1\n              0x0100\n              exp\n              swap1\n              div\n              0xffffffffffffffffffffffffffffffffffffffff\n              and\n                /* \"contracts/Quiz.sol\":1613:1636  scores[participants[j]] */\n              0xffffffffffffffffffffffffffffffffffffffff\n              and\n              0xffffffffffffffffffffffffffffffffffffffff\n              and\n              dup2\n              mstore\n              0x20\n              add\n              swap1\n              dup2\n              mstore\n              0x20\n              add\n              0x00\n              keccak256\n              sload\n                /* \"contracts/Quiz.sol\":1613:1651  scores[participants[j]] > highestScore */\n              gt\n                /* \"contracts/Quiz.sol\":1609:1785  if (scores[participants[j]] > highestScore) {... */\n              iszero\n              tag_79\n              jumpi\n                /* \"contracts/Quiz.sol\":1690:1696  scores */\n              0x03\n                /* \"contracts/Quiz.sol\":1690:1713  scores[participants[j]] */\n              0x00\n                /* \"contracts/Quiz.sol\":1697:1709  participants */\n              0x04\n                /* \"contracts/Quiz.sol\":1710:1711  j */\n              dup4\n                /* \"contracts/Quiz.sol\":1697:1712  participants[j] */\n              dup2\n              sload\n              dup2\n              lt\n              tag_80\n              jumpi\n              tag_81\n              tag_77\n              jump\t// in\n            tag_81:\n            tag_80:\n              swap1\n              0x00\n              mstore\n              keccak256(0x00, 0x20)\n              add\n              0x00\n              swap1\n              sload\n              swap1\n              0x0100\n              exp\n              swap1\n              div\n              0xffffffffffffffffffffffffffffffffffffffff\n              and\n                /* \"contracts/Quiz.sol\":1690:1713  scores[participants[j]] */\n              0xffffffffffffffffffffffffffffffffffffffff\n              and\n              0xffffffffffffffffffffffffffffffffffffffff\n              and\n              dup2\n              mstore\n              0x20\n              add\n              swap1\n              dup2\n              mstore\n              0x20\n              add\n              0x00\n              keccak256\n              sload\n                /* \"contracts/Quiz.sol\":1675:1713  highestScore = scores[participants[j]] */\n              swap3\n              pop\n                /* \"contracts/Quiz.sol\":1751:1763  participants */\n              0x04\n                /* \"contracts/Quiz.sol\":1764:1765  j */\n              dup2\n                /* \"contracts/Quiz.sol\":1751:1766  participants[j] */\n              dup2\n              sload\n              dup2\n              lt\n              tag_83\n              jumpi\n              tag_84\n              tag_77\n              jump\t// in\n            tag_84:\n            tag_83:\n              swap1\n              0x00\n              mstore\n              keccak256(0x00, 0x20)\n              add\n              0x00\n              swap1\n              sload\n              swap1\n              0x0100\n              exp\n              swap1\n              div\n              0xffffffffffffffffffffffffffffffffffffffff\n              and\n                /* \"contracts/Quiz.sol\":1735:1766  winnerAddress = participants[j] */\n              swap2\n              pop\n                /* \"contracts/Quiz.sol\":1609:1785  if (scores[participants[j]] > highestScore) {... */\n            tag_79:\n                /* \"contracts/Quiz.sol\":1586:1589  j++ */\n              dup1\n              dup1\n              tag_86\n              swap1\n              tag_87\n              jump\t// in\n            tag_86:\n              swap2\n              pop\n              pop\n                /* \"contracts/Quiz.sol\":1541:1799  for (uint256 j = 0; j < participants.length; j++) {... */\n              jump(tag_72)\n            tag_73:\n              pop\n                /* \"contracts/Quiz.sol\":1826:1839  winnerAddress */\n              dup1\n                /* \"contracts/Quiz.sol\":1813:1820  winners */\n              dup6\n                /* \"contracts/Quiz.sol\":1821:1822  i */\n              dup5\n                /* \"contracts/Quiz.sol\":1813:1823  winners[i] */\n              0x03\n              dup2\n              lt\n              tag_88\n              jumpi\n              tag_89\n              tag_77\n              jump\t// in\n            tag_89:\n            tag_88:\n              0x20\n              mul\n              add\n                /* \"contracts/Quiz.sol\":1813:1839  winners[i] = winnerAddress */\n              swap1\n              0xffffffffffffffffffffffffffffffffffffffff\n              and\n              swap1\n              dup2\n              0xffffffffffffffffffffffffffffffffffffffff\n              and\n              dup2\n              mstore\n              pop\n              pop\n                /* \"contracts/Quiz.sol\":1922:1925  100 */\n              0x64\n                /* \"contracts/Quiz.sol\":1891:1892  0 */\n              0x00\n                /* \"contracts/Quiz.sol\":1886:1887  i */\n              dup5\n                /* \"contracts/Quiz.sol\":1886:1892  i == 0 */\n              eq\n                /* \"contracts/Quiz.sol\":1886:1918  i == 0 ? 50 : (i == 1 ? 30 : 20) */\n              tag_90\n              jumpi\n                /* \"contracts/Quiz.sol\":1906:1907  1 */\n              0x01\n                /* \"contracts/Quiz.sol\":1901:1902  i */\n              dup5\n                /* \"contracts/Quiz.sol\":1901:1907  i == 1 */\n              eq\n                /* \"contracts/Quiz.sol\":1901:1917  i == 1 ? 30 : 20 */\n              tag_91\n              jumpi\n                /* \"contracts/Quiz.sol\":1915:1917  20 */\n              0x14\n                /* \"contracts/Quiz.sol\":1901:1917  i == 1 ? 30 : 20 */\n              jump(tag_92)\n            tag_91:\n                /* \"contracts/Quiz.sol\":1910:1912  30 */\n              0x1e\n                /* \"contracts/Quiz.sol\":1901:1917  i == 1 ? 30 : 20 */\n            tag_92:\n                /* \"contracts/Quiz.sol\":1886:1918  i == 0 ? 50 : (i == 1 ? 30 : 20) */\n              jump(tag_93)\n            tag_90:\n                /* \"contracts/Quiz.sol\":1895:1897  50 */\n              0x32\n                /* \"contracts/Quiz.sol\":1886:1918  i == 0 ? 50 : (i == 1 ? 30 : 20) */\n            tag_93:\n                /* \"contracts/Quiz.sol\":1873:1919  prizePool * (i == 0 ? 50 : (i == 1 ? 30 : 20)) */\n              0xff\n              and\n                /* \"contracts/Quiz.sol\":1873:1882  prizePool */\n              sload(0x02)\n                /* \"contracts/Quiz.sol\":1873:1919  prizePool * (i == 0 ? 50 : (i == 1 ? 30 : 20)) */\n              tag_94\n              swap2\n              swap1\n              tag_95\n              jump\t// in\n            tag_94:\n                /* \"contracts/Quiz.sol\":1873:1925  prizePool * (i == 0 ? 50 : (i == 1 ? 30 : 20)) / 100 */\n              tag_96\n              swap2\n              swap1\n              tag_97\n              jump\t// in\n            tag_96:\n                /* \"contracts/Quiz.sol\":1853:1867  winningAmounts */\n              dup5\n                /* \"contracts/Quiz.sol\":1868:1869  i */\n              dup5\n                /* \"contracts/Quiz.sol\":1853:1870  winningAmounts[i] */\n              0x03\n              dup2\n              lt\n              tag_98\n              jumpi\n              tag_99\n              tag_77\n              jump\t// in\n            tag_99:\n            tag_98:\n              0x20\n              mul\n              add\n                /* \"contracts/Quiz.sol\":1853:1925  winningAmounts[i] = prizePool * (i == 0 ? 50 : (i == 1 ? 30 : 20)) / 100 */\n              dup2\n              dup2\n              mstore\n              pop\n              pop\n                /* \"contracts/Quiz.sol\":1992:2001  uint256 j */\n              0x00\n                /* \"contracts/Quiz.sol\":1987:2270  for (uint256 j = 0; j < participants.length; j++) {... */\n            tag_100:\n                /* \"contracts/Quiz.sol\":2011:2023  participants */\n              0x04\n                /* \"contracts/Quiz.sol\":2011:2030  participants.length */\n              dup1\n              sload\n              swap1\n              pop\n                /* \"contracts/Quiz.sol\":2007:2008  j */\n              dup2\n                /* \"contracts/Quiz.sol\":2007:2030  j < participants.length */\n              lt\n                /* \"contracts/Quiz.sol\":1987:2270  for (uint256 j = 0; j < participants.length; j++) {... */\n              iszero\n              tag_101\n              jumpi\n                /* \"contracts/Quiz.sol\":2078:2091  winnerAddress */\n              dup2\n                /* \"contracts/Quiz.sol\":2059:2091  participants[j] == winnerAddress */\n              0xffffffffffffffffffffffffffffffffffffffff\n              and\n                /* \"contracts/Quiz.sol\":2059:2071  participants */\n              0x04\n                /* \"contracts/Quiz.sol\":2072:2073  j */\n              dup3\n                /* \"contracts/Quiz.sol\":2059:2074  participants[j] */\n              dup2\n              sload\n              dup2\n              lt\n              tag_103\n              jumpi\n              tag_104\n              tag_77\n              jump\t// in\n            tag_104:\n            tag_103:\n              swap1\n              0x00\n              mstore\n              keccak256(0x00, 0x20)\n              add\n              0x00\n              swap1\n              sload\n              swap1\n              0x0100\n              exp\n              swap1\n              div\n              0xffffffffffffffffffffffffffffffffffffffff\n              and\n                /* \"contracts/Quiz.sol\":2059:2091  participants[j] == winnerAddress */\n              0xffffffffffffffffffffffffffffffffffffffff\n              and\n              sub\n                /* \"contracts/Quiz.sol\":2055:2256  if (participants[j] == winnerAddress) {... */\n              tag_106\n              jumpi\n                /* \"contracts/Quiz.sol\":2133:2145  participants */\n              0x04\n                /* \"contracts/Quiz.sol\":2168:2169  1 */\n              0x01\n                /* \"contracts/Quiz.sol\":2146:2158  participants */\n              0x04\n                /* \"contracts/Quiz.sol\":2146:2165  participants.length */\n              dup1\n              sload\n              swap1\n              pop\n                /* \"contracts/Quiz.sol\":2146:2169  participants.length - 1 */\n              tag_107\n              swap2\n              swap1\n              tag_108\n              jump\t// in\n            tag_107:\n                /* \"contracts/Quiz.sol\":2133:2170  participants[participants.length - 1] */\n              dup2\n              sload\n              dup2\n              lt\n              tag_109\n              jumpi\n              tag_110\n              tag_77\n              jump\t// in\n            tag_110:\n            tag_109:\n              swap1\n              0x00\n              mstore\n              keccak256(0x00, 0x20)\n              add\n              0x00\n              swap1\n              sload\n              swap1\n              0x0100\n              exp\n              swap1\n              div\n              0xffffffffffffffffffffffffffffffffffffffff\n              and\n                /* \"contracts/Quiz.sol\":2115:2127  participants */\n              0x04\n                /* \"contracts/Quiz.sol\":2128:2129  j */\n              dup3\n                /* \"contracts/Quiz.sol\":2115:2130  participants[j] */\n              dup2\n              sload\n              dup2\n              lt\n              tag_112\n              jumpi\n              tag_113\n              tag_77\n              jump\t// in\n            tag_113:\n            tag_112:\n              swap1\n              0x00\n              mstore\n              keccak256(0x00, 0x20)\n              add\n              0x00\n                /* \"contracts/Quiz.sol\":2115:2170  participants[j] = participants[participants.length - 1] */\n              0x0100\n              exp\n              dup2\n              sload\n              dup2\n              0xffffffffffffffffffffffffffffffffffffffff\n              mul\n              not\n              and\n              swap1\n              dup4\n              0xffffffffffffffffffffffffffffffffffffffff\n              and\n              mul\n              or\n              swap1\n              sstore\n              pop\n                /* \"contracts/Quiz.sol\":2192:2204  participants */\n              0x04\n                /* \"contracts/Quiz.sol\":2192:2210  participants.pop() */\n              dup1\n              sload\n              dup1\n              tag_115\n              jumpi\n              tag_116\n              tag_117\n              jump\t// in\n            tag_116:\n            tag_115:\n              0x01\n              swap1\n              sub\n              dup2\n              dup2\n              swap1\n              0x00\n              mstore\n              keccak256(0x00, 0x20)\n              add\n              exp(0x0100, 0x00)\n              dup2\n              sload\n              swap1\n              0xffffffffffffffffffffffffffffffffffffffff\n              mul\n              not\n              and\n              swap1\n              sstore\n              swap1\n              sstore\n                /* \"contracts/Quiz.sol\":2232:2237  break */\n              jump(tag_101)\n                /* \"contracts/Quiz.sol\":2055:2256  if (participants[j] == winnerAddress) {... */\n            tag_106:\n                /* \"contracts/Quiz.sol\":2032:2035  j++ */\n              dup1\n              dup1\n              tag_119\n              swap1\n              tag_87\n              jump\t// in\n            tag_119:\n              swap2\n              pop\n              pop\n                /* \"contracts/Quiz.sol\":1987:2270  for (uint256 j = 0; j < participants.length; j++) {... */\n              jump(tag_100)\n            tag_101:\n              pop\n                /* \"contracts/Quiz.sol\":1453:2280  {... */\n              pop\n              pop\n                /* \"contracts/Quiz.sol\":1448:1451  i++ */\n              dup1\n              dup1\n              tag_120\n              swap1\n              tag_87\n              jump\t// in\n            tag_120:\n              swap2\n              pop\n              pop\n                /* \"contracts/Quiz.sol\":1421:2280  for (uint256 i = 0; i < 3; i++) {... */\n              jump(tag_69)\n            tag_70:\n              pop\n                /* \"contracts/Quiz.sol\":2319:2338  uint256 platformFee */\n              0x00\n                /* \"contracts/Quiz.sol\":2357:2360  100 */\n              0x64\n                /* \"contracts/Quiz.sol\":2353:2354  5 */\n              0x05\n                /* \"contracts/Quiz.sol\":2341:2350  prizePool */\n              sload(0x02)\n                /* \"contracts/Quiz.sol\":2341:2354  prizePool * 5 */\n              tag_121\n              swap2\n              swap1\n              tag_95\n              jump\t// in\n            tag_121:\n                /* \"contracts/Quiz.sol\":2341:2360  prizePool * 5 / 100 */\n              tag_122\n              swap2\n              swap1\n              tag_97\n              jump\t// in\n            tag_122:\n                /* \"contracts/Quiz.sol\":2319:2360  uint256 platformFee = prizePool * 5 / 100 */\n              swap1\n              pop\n                /* \"contracts/Quiz.sol\":2386:2390  this */\n              address\n                /* \"contracts/Quiz.sol\":2370:2401  payable(address(this)).transfer */\n              0xffffffffffffffffffffffffffffffffffffffff\n              and\n                /* \"contracts/Quiz.sol\":2370:2414  payable(address(this)).transfer(platformFee) */\n              0x08fc\n                /* \"contracts/Quiz.sol\":2402:2413  platformFee */\n              dup3\n                /* \"contracts/Quiz.sol\":2370:2414  payable(address(this)).transfer(platformFee) */\n              swap1\n              dup2\n              iszero\n              mul\n              swap1\n              mload(0x40)\n              0x00\n              mload(0x40)\n              dup1\n              dup4\n              sub\n              dup2\n              dup6\n              dup9\n              dup9\n              call\n              swap4\n              pop\n              pop\n              pop\n              pop\n              iszero\n              dup1\n              iszero\n              tag_124\n              jumpi\n              returndatasize\n              0x00\n              dup1\n              returndatacopy\n              revert(0x00, returndatasize)\n            tag_124:\n              pop\n                /* \"contracts/Quiz.sol\":2430:2439  uint256 i */\n              0x00\n                /* \"contracts/Quiz.sol\":2425:2595  for (uint256 i = 0; i < 3; i++) {... */\n            tag_125:\n                /* \"contracts/Quiz.sol\":2449:2450  3 */\n              0x03\n                /* \"contracts/Quiz.sol\":2445:2446  i */\n              dup2\n                /* \"contracts/Quiz.sol\":2445:2450  i < 3 */\n              lt\n                /* \"contracts/Quiz.sol\":2425:2595  for (uint256 i = 0; i < 3; i++) {... */\n              iszero\n              tag_126\n              jumpi\n                /* \"contracts/Quiz.sol\":2479:2486  winners */\n              dup4\n                /* \"contracts/Quiz.sol\":2487:2488  i */\n              dup2\n                /* \"contracts/Quiz.sol\":2479:2489  winners[i] */\n              0x03\n              dup2\n              lt\n              tag_128\n              jumpi\n              tag_129\n              tag_77\n              jump\t// in\n            tag_129:\n            tag_128:\n              0x20\n              mul\n              add\n              mload\n                /* \"contracts/Quiz.sol\":2471:2499  payable(winners[i]).transfer */\n              0xffffffffffffffffffffffffffffffffffffffff\n              and\n                /* \"contracts/Quiz.sol\":2471:2518  payable(winners[i]).transfer(winningAmounts[i]) */\n              0x08fc\n                /* \"contracts/Quiz.sol\":2500:2514  winningAmounts */\n              dup5\n                /* \"contracts/Quiz.sol\":2515:2516  i */\n              dup4\n                /* \"contracts/Quiz.sol\":2500:2517  winningAmounts[i] */\n              0x03\n              dup2\n              lt\n              tag_130\n              jumpi\n              tag_131\n              tag_77\n              jump\t// in\n            tag_131:\n            tag_130:\n              0x20\n              mul\n              add\n              mload\n                /* \"contracts/Quiz.sol\":2471:2518  payable(winners[i]).transfer(winningAmounts[i]) */\n              swap1\n              dup2\n              iszero\n              mul\n              swap1\n              mload(0x40)\n              0x00\n              mload(0x40)\n              dup1\n              dup4\n              sub\n              dup2\n              dup6\n              dup9\n              dup9\n              call\n              swap4\n              pop\n              pop\n              pop\n              pop\n              iszero\n              dup1\n              iszero\n              tag_133\n              jumpi\n              returndatasize\n              0x00\n              dup1\n              returndatacopy\n              revert(0x00, returndatasize)\n            tag_133:\n              pop\n                /* \"contracts/Quiz.sol\":2554:2561  winners */\n              dup4\n                /* \"contracts/Quiz.sol\":2562:2563  i */\n              dup2\n                /* \"contracts/Quiz.sol\":2554:2564  winners[i] */\n              0x03\n              dup2\n              lt\n              tag_134\n              jumpi\n              tag_135\n              tag_77\n              jump\t// in\n            tag_135:\n            tag_134:\n              0x20\n              mul\n              add\n              mload\n                /* \"contracts/Quiz.sol\":2537:2584  PrizeDistributed(winners[i], winningAmounts[i]) */\n              0xffffffffffffffffffffffffffffffffffffffff\n              and\n              0xb8e091d87f82e56d22276c9a0088ea5d6068e355383dc08b2721b7b6cb10e845\n                /* \"contracts/Quiz.sol\":2566:2580  winningAmounts */\n              dup5\n                /* \"contracts/Quiz.sol\":2581:2582  i */\n              dup4\n                /* \"contracts/Quiz.sol\":2566:2583  winningAmounts[i] */\n              0x03\n              dup2\n              lt\n              tag_136\n              jumpi\n              tag_137\n              tag_77\n              jump\t// in\n            tag_137:\n            tag_136:\n              0x20\n              mul\n              add\n              mload\n                /* \"contracts/Quiz.sol\":2537:2584  PrizeDistributed(winners[i], winningAmounts[i]) */\n              mload(0x40)\n              tag_138\n              swap2\n              swap1\n              tag_15\n              jump\t// in\n            tag_138:\n              mload(0x40)\n              dup1\n              swap2\n              sub\n              swap1\n              log2\n                /* \"contracts/Quiz.sol\":2452:2455  i++ */\n              dup1\n              dup1\n              tag_139\n              swap1\n              tag_87\n              jump\t// in\n            tag_139:\n              swap2\n              pop\n              pop\n                /* \"contracts/Quiz.sol\":2425:2595  for (uint256 i = 0; i < 3; i++) {... */\n              jump(tag_125)\n            tag_126:\n              pop\n                /* \"contracts/Quiz.sol\":2660:2678  uint256 hostAmount */\n              0x00\n                /* \"contracts/Quiz.sol\":2747:2761  winningAmounts */\n              dup3\n                /* \"contracts/Quiz.sol\":2762:2763  2 */\n              0x02\n                /* \"contracts/Quiz.sol\":2747:2764  winningAmounts[2] */\n              0x03\n              dup2\n              lt\n              tag_140\n              jumpi\n              tag_141\n              tag_77\n              jump\t// in\n            tag_141:\n            tag_140:\n              0x20\n              mul\n              add\n              mload\n                /* \"contracts/Quiz.sol\":2727:2741  winningAmounts */\n              dup4\n                /* \"contracts/Quiz.sol\":2742:2743  1 */\n              0x01\n                /* \"contracts/Quiz.sol\":2727:2744  winningAmounts[1] */\n              0x03\n              dup2\n              lt\n              tag_142\n              jumpi\n              tag_143\n              tag_77\n              jump\t// in\n            tag_143:\n            tag_142:\n              0x20\n              mul\n              add\n              mload\n                /* \"contracts/Quiz.sol\":2707:2721  winningAmounts */\n              dup5\n                /* \"contracts/Quiz.sol\":2722:2723  0 */\n              0x00\n                /* \"contracts/Quiz.sol\":2707:2724  winningAmounts[0] */\n              0x03\n              dup2\n              lt\n              tag_144\n              jumpi\n              tag_145\n              tag_77\n              jump\t// in\n            tag_145:\n            tag_144:\n              0x20\n              mul\n              add\n              mload\n                /* \"contracts/Quiz.sol\":2693:2704  platformFee */\n              dup5\n                /* \"contracts/Quiz.sol\":2681:2690  prizePool */\n              sload(0x02)\n                /* \"contracts/Quiz.sol\":2681:2704  prizePool - platformFee */\n              tag_146\n              swap2\n              swap1\n              tag_108\n              jump\t// in\n            tag_146:\n                /* \"contracts/Quiz.sol\":2681:2724  prizePool - platformFee - winningAmounts[0] */\n              tag_147\n              swap2\n              swap1\n              tag_108\n              jump\t// in\n            tag_147:\n                /* \"contracts/Quiz.sol\":2681:2744  prizePool - platformFee - winningAmounts[0] - winningAmounts[1] */\n              tag_148\n              swap2\n              swap1\n              tag_108\n              jump\t// in\n            tag_148:\n                /* \"contracts/Quiz.sol\":2681:2764  prizePool - platformFee - winningAmounts[0] - winningAmounts[1] - winningAmounts[2] */\n              tag_149\n              swap2\n              swap1\n              tag_108\n              jump\t// in\n            tag_149:\n                /* \"contracts/Quiz.sol\":2660:2764  uint256 hostAmount = prizePool - platformFee - winningAmounts[0] - winningAmounts[1] - winningAmounts[2] */\n              swap1\n              pop\n                /* \"contracts/Quiz.sol\":2782:2786  host */\n              0x00\n              dup1\n              sload\n              swap1\n              0x0100\n              exp\n              swap1\n              div\n              0xffffffffffffffffffffffffffffffffffffffff\n              and\n                /* \"contracts/Quiz.sol\":2774:2796  payable(host).transfer */\n              0xffffffffffffffffffffffffffffffffffffffff\n              and\n                /* \"contracts/Quiz.sol\":2774:2808  payable(host).transfer(hostAmount) */\n              0x08fc\n                /* \"contracts/Quiz.sol\":2797:2807  hostAmount */\n              dup3\n                /* \"contracts/Quiz.sol\":2774:2808  payable(host).transfer(hostAmount) */\n              swap1\n              dup2\n              iszero\n              mul\n              swap1\n              mload(0x40)\n              0x00\n              mload(0x40)\n              dup1\n              dup4\n              sub\n              dup2\n              dup6\n              dup9\n              dup9\n              call\n              swap4\n              pop\n              pop\n              pop\n              pop\n              iszero\n              dup1\n              iszero\n              tag_151\n              jumpi\n              returndatasize\n              0x00\n              dup1\n              returndatacopy\n              revert(0x00, returndatasize)\n            tag_151:\n              pop\n                /* \"contracts/Quiz.sol\":1102:2815  {... */\n              pop\n              pop\n              pop\n              pop\n              pop\n                /* \"contracts/Quiz.sol\":1065:2815  function distributePrizes() external {... */\n              jump\t// out\n                /* \"contracts/Quiz.sol\":838:1059  function submitScore(uint256 _score) external {... */\n            tag_41:\n                /* \"contracts/Quiz.sol\":924:925  0 */\n              0x00\n                /* \"contracts/Quiz.sol\":902:908  scores */\n              0x03\n                /* \"contracts/Quiz.sol\":902:920  scores[msg.sender] */\n              0x00\n                /* \"contracts/Quiz.sol\":909:919  msg.sender */\n              caller\n                /* \"contracts/Quiz.sol\":902:920  scores[msg.sender] */\n              0xffffffffffffffffffffffffffffffffffffffff\n              and\n              0xffffffffffffffffffffffffffffffffffffffff\n              and\n              dup2\n              mstore\n              0x20\n              add\n              swap1\n              dup2\n              mstore\n              0x20\n              add\n              0x00\n              keccak256\n              sload\n                /* \"contracts/Quiz.sol\":902:925  scores[msg.sender] == 0 */\n              eq\n                /* \"contracts/Quiz.sol\":894:953  require(scores[msg.sender] == 0, \"Score already submitted\") */\n              tag_153\n              jumpi\n              mload(0x40)\n              0x08c379a000000000000000000000000000000000000000000000000000000000\n              dup2\n              mstore\n              0x04\n              add\n              tag_154\n              swap1\n              tag_155\n              jump\t// in\n            tag_154:\n              mload(0x40)\n              dup1\n              swap2\n              sub\n              swap1\n              revert\n            tag_153:\n                /* \"contracts/Quiz.sol\":993:999  _score */\n              dup1\n                /* \"contracts/Quiz.sol\":972:978  scores */\n              0x03\n                /* \"contracts/Quiz.sol\":972:990  scores[msg.sender] */\n              0x00\n                /* \"contracts/Quiz.sol\":979:989  msg.sender */\n              caller\n                /* \"contracts/Quiz.sol\":972:990  scores[msg.sender] */\n              0xffffffffffffffffffffffffffffffffffffffff\n              and\n              0xffffffffffffffffffffffffffffffffffffffff\n              and\n              dup2\n              mstore\n              0x20\n              add\n              swap1\n              dup2\n              mstore\n              0x20\n              add\n              0x00\n              keccak256\n                /* \"contracts/Quiz.sol\":972:999  scores[msg.sender] = _score */\n              dup2\n              swap1\n              sstore\n              pop\n                /* \"contracts/Quiz.sol\":1033:1043  msg.sender */\n              caller\n                /* \"contracts/Quiz.sol\":1014:1052  ParticipantEntered(msg.sender, _score) */\n              0xffffffffffffffffffffffffffffffffffffffff\n              and\n              0x9211e85c505f78a7153ac4ea4ed0458d1f7c324b15adc37a02ffacbe5045b699\n                /* \"contracts/Quiz.sol\":1045:1051  _score */\n              dup3\n                /* \"contracts/Quiz.sol\":1014:1052  ParticipantEntered(msg.sender, _score) */\n              mload(0x40)\n              tag_156\n              swap2\n              swap1\n              tag_15\n              jump\t// in\n            tag_156:\n              mload(0x40)\n              dup1\n              swap2\n              sub\n              swap1\n              log2\n                /* \"contracts/Quiz.sol\":838:1059  function submitScore(uint256 _score) external {... */\n              pop\n              jump\t// out\n                /* \"contracts/Quiz.sol\":78:97  address public host */\n            tag_44:\n              0x00\n              dup1\n              sload\n              swap1\n              0x0100\n              exp\n              swap1\n              div\n              0xffffffffffffffffffffffffffffffffffffffff\n              and\n              dup2\n              jump\t// out\n            tag_66:\n              mload(0x40)\n              dup1\n              0x60\n              add\n              0x40\n              mstore\n              dup1\n              0x03\n              swap1\n              0x20\n              dup3\n              mul\n              dup1\n              calldatasize\n              dup4\n              calldatacopy\n              dup1\n              dup3\n              add\n              swap2\n              pop\n              pop\n              swap1\n              pop\n              pop\n              swap1\n              jump\t// out\n            tag_68:\n              mload(0x40)\n              dup1\n              0x60\n              add\n              0x40\n              mstore\n              dup1\n              0x03\n              swap1\n              0x20\n              dup3\n              mul\n              dup1\n              calldatasize\n              dup4\n              calldatacopy\n              dup1\n              dup3\n              add\n              swap2\n              pop\n              pop\n              swap1\n              pop\n              pop\n              swap1\n              jump\t// out\n                /* \"#utility.yul\":7:84   */\n            tag_157:\n                /* \"#utility.yul\":44:51   */\n              0x00\n                /* \"#utility.yul\":73:78   */\n              dup2\n                /* \"#utility.yul\":62:78   */\n              swap1\n              pop\n                /* \"#utility.yul\":7:84   */\n              swap2\n              swap1\n              pop\n              jump\t// out\n                /* \"#utility.yul\":90:208   */\n            tag_158:\n                /* \"#utility.yul\":177:201   */\n              tag_189\n                /* \"#utility.yul\":195:200   */\n              dup2\n                /* \"#utility.yul\":177:201   */\n              tag_157\n              jump\t// in\n            tag_189:\n                /* \"#utility.yul\":172:175   */\n              dup3\n                /* \"#utility.yul\":165:202   */\n              mstore\n                /* \"#utility.yul\":90:208   */\n              pop\n              pop\n              jump\t// out\n                /* \"#utility.yul\":214:436   */\n            tag_15:\n                /* \"#utility.yul\":307:311   */\n              0x00\n                /* \"#utility.yul\":345:347   */\n              0x20\n                /* \"#utility.yul\":334:343   */\n              dup3\n                /* \"#utility.yul\":330:348   */\n              add\n                /* \"#utility.yul\":322:348   */\n              swap1\n              pop\n                /* \"#utility.yul\":358:429   */\n              tag_191\n                /* \"#utility.yul\":426:427   */\n              0x00\n                /* \"#utility.yul\":415:424   */\n              dup4\n                /* \"#utility.yul\":411:428   */\n              add\n                /* \"#utility.yul\":402:408   */\n              dup5\n                /* \"#utility.yul\":358:429   */\n              tag_158\n              jump\t// in\n            tag_191:\n                /* \"#utility.yul\":214:436   */\n              swap3\n              swap2\n              pop\n              pop\n              jump\t// out\n                /* \"#utility.yul\":523:640   */\n            tag_160:\n                /* \"#utility.yul\":632:633   */\n              0x00\n                /* \"#utility.yul\":629:630   */\n              dup1\n                /* \"#utility.yul\":622:634   */\n              revert\n                /* \"#utility.yul\":769:891   */\n            tag_162:\n                /* \"#utility.yul\":842:866   */\n              tag_196\n                /* \"#utility.yul\":860:865   */\n              dup2\n                /* \"#utility.yul\":842:866   */\n              tag_157\n              jump\t// in\n            tag_196:\n                /* \"#utility.yul\":835:840   */\n              dup2\n                /* \"#utility.yul\":832:867   */\n              eq\n                /* \"#utility.yul\":822:885   */\n              tag_197\n              jumpi\n                /* \"#utility.yul\":881:882   */\n              0x00\n                /* \"#utility.yul\":878:879   */\n              dup1\n                /* \"#utility.yul\":871:883   */\n              revert\n                /* \"#utility.yul\":822:885   */\n            tag_197:\n                /* \"#utility.yul\":769:891   */\n              pop\n              jump\t// out\n                /* \"#utility.yul\":897:1036   */\n            tag_163:\n                /* \"#utility.yul\":943:948   */\n              0x00\n                /* \"#utility.yul\":981:987   */\n              dup2\n                /* \"#utility.yul\":968:988   */\n              calldataload\n                /* \"#utility.yul\":959:988   */\n              swap1\n              pop\n                /* \"#utility.yul\":997:1030   */\n              tag_199\n                /* \"#utility.yul\":1024:1029   */\n              dup2\n                /* \"#utility.yul\":997:1030   */\n              tag_162\n              jump\t// in\n            tag_199:\n                /* \"#utility.yul\":897:1036   */\n              swap3\n              swap2\n              pop\n              pop\n              jump\t// out\n                /* \"#utility.yul\":1042:1371   */\n            tag_19:\n                /* \"#utility.yul\":1101:1107   */\n              0x00\n                /* \"#utility.yul\":1150:1152   */\n              0x20\n                /* \"#utility.yul\":1138:1147   */\n              dup3\n                /* \"#utility.yul\":1129:1136   */\n              dup5\n                /* \"#utility.yul\":1125:1148   */\n              sub\n                /* \"#utility.yul\":1121:1153   */\n              slt\n                /* \"#utility.yul\":1118:1237   */\n              iszero\n              tag_201\n              jumpi\n                /* \"#utility.yul\":1156:1235   */\n              tag_202\n              tag_160\n              jump\t// in\n            tag_202:\n                /* \"#utility.yul\":1118:1237   */\n            tag_201:\n                /* \"#utility.yul\":1276:1277   */\n              0x00\n                /* \"#utility.yul\":1301:1354   */\n              tag_203\n                /* \"#utility.yul\":1346:1353   */\n              dup5\n                /* \"#utility.yul\":1337:1343   */\n              dup3\n                /* \"#utility.yul\":1326:1335   */\n              dup6\n                /* \"#utility.yul\":1322:1344   */\n              add\n                /* \"#utility.yul\":1301:1354   */\n              tag_163\n              jump\t// in\n            tag_203:\n                /* \"#utility.yul\":1291:1354   */\n              swap2\n              pop\n                /* \"#utility.yul\":1247:1364   */\n              pop\n                /* \"#utility.yul\":1042:1371   */\n              swap3\n              swap2\n              pop\n              pop\n              jump\t// out\n                /* \"#utility.yul\":1377:1503   */\n            tag_164:\n                /* \"#utility.yul\":1414:1421   */\n              0x00\n                /* \"#utility.yul\":1454:1496   */\n              0xffffffffffffffffffffffffffffffffffffffff\n                /* \"#utility.yul\":1447:1452   */\n              dup3\n                /* \"#utility.yul\":1443:1497   */\n              and\n                /* \"#utility.yul\":1432:1497   */\n              swap1\n              pop\n                /* \"#utility.yul\":1377:1503   */\n              swap2\n              swap1\n              pop\n              jump\t// out\n                /* \"#utility.yul\":1509:1605   */\n            tag_165:\n                /* \"#utility.yul\":1546:1553   */\n              0x00\n                /* \"#utility.yul\":1575:1599   */\n              tag_206\n                /* \"#utility.yul\":1593:1598   */\n              dup3\n                /* \"#utility.yul\":1575:1599   */\n              tag_164\n              jump\t// in\n            tag_206:\n                /* \"#utility.yul\":1564:1599   */\n              swap1\n              pop\n                /* \"#utility.yul\":1509:1605   */\n              swap2\n              swap1\n              pop\n              jump\t// out\n                /* \"#utility.yul\":1611:1729   */\n            tag_166:\n                /* \"#utility.yul\":1698:1722   */\n              tag_208\n                /* \"#utility.yul\":1716:1721   */\n              dup2\n                /* \"#utility.yul\":1698:1722   */\n              tag_165\n              jump\t// in\n            tag_208:\n                /* \"#utility.yul\":1693:1696   */\n              dup3\n                /* \"#utility.yul\":1686:1723   */\n              mstore\n                /* \"#utility.yul\":1611:1729   */\n              pop\n              pop\n              jump\t// out\n                /* \"#utility.yul\":1735:1957   */\n            tag_22:\n                /* \"#utility.yul\":1828:1832   */\n              0x00\n                /* \"#utility.yul\":1866:1868   */\n              0x20\n                /* \"#utility.yul\":1855:1864   */\n              dup3\n                /* \"#utility.yul\":1851:1869   */\n              add\n                /* \"#utility.yul\":1843:1869   */\n              swap1\n              pop\n                /* \"#utility.yul\":1879:1950   */\n              tag_210\n                /* \"#utility.yul\":1947:1948   */\n              0x00\n                /* \"#utility.yul\":1936:1945   */\n              dup4\n                /* \"#utility.yul\":1932:1949   */\n              add\n                /* \"#utility.yul\":1923:1929   */\n              dup5\n                /* \"#utility.yul\":1879:1950   */\n              tag_166\n              jump\t// in\n            tag_210:\n                /* \"#utility.yul\":1735:1957   */\n              swap3\n              swap2\n              pop\n              pop\n              jump\t// out\n                /* \"#utility.yul\":1963:2085   */\n            tag_167:\n                /* \"#utility.yul\":2036:2060   */\n              tag_212\n                /* \"#utility.yul\":2054:2059   */\n              dup2\n                /* \"#utility.yul\":2036:2060   */\n              tag_165\n              jump\t// in\n            tag_212:\n                /* \"#utility.yul\":2029:2034   */\n              dup2\n                /* \"#utility.yul\":2026:2061   */\n              eq\n                /* \"#utility.yul\":2016:2079   */\n              tag_213\n              jumpi\n                /* \"#utility.yul\":2075:2076   */\n              0x00\n                /* \"#utility.yul\":2072:2073   */\n              dup1\n                /* \"#utility.yul\":2065:2077   */\n              revert\n                /* \"#utility.yul\":2016:2079   */\n            tag_213:\n                /* \"#utility.yul\":1963:2085   */\n              pop\n              jump\t// out\n                /* \"#utility.yul\":2091:2230   */\n            tag_168:\n                /* \"#utility.yul\":2137:2142   */\n              0x00\n                /* \"#utility.yul\":2175:2181   */\n              dup2\n                /* \"#utility.yul\":2162:2182   */\n              calldataload\n                /* \"#utility.yul\":2153:2182   */\n              swap1\n              pop\n                /* \"#utility.yul\":2191:2224   */\n              tag_215\n                /* \"#utility.yul\":2218:2223   */\n              dup2\n                /* \"#utility.yul\":2191:2224   */\n              tag_167\n              jump\t// in\n            tag_215:\n                /* \"#utility.yul\":2091:2230   */\n              swap3\n              swap2\n              pop\n              pop\n              jump\t// out\n                /* \"#utility.yul\":2236:2565   */\n            tag_32:\n                /* \"#utility.yul\":2295:2301   */\n              0x00\n                /* \"#utility.yul\":2344:2346   */\n              0x20\n                /* \"#utility.yul\":2332:2341   */\n              dup3\n                /* \"#utility.yul\":2323:2330   */\n              dup5\n                /* \"#utility.yul\":2319:2342   */\n              sub\n                /* \"#utility.yul\":2315:2347   */\n              slt\n                /* \"#utility.yul\":2312:2431   */\n              iszero\n              tag_217\n              jumpi\n                /* \"#utility.yul\":2350:2429   */\n              tag_218\n              tag_160\n              jump\t// in\n            tag_218:\n                /* \"#utility.yul\":2312:2431   */\n            tag_217:\n                /* \"#utility.yul\":2470:2471   */\n              0x00\n                /* \"#utility.yul\":2495:2548   */\n              tag_219\n                /* \"#utility.yul\":2540:2547   */\n              dup5\n                /* \"#utility.yul\":2531:2537   */\n              dup3\n                /* \"#utility.yul\":2520:2529   */\n              dup6\n                /* \"#utility.yul\":2516:2538   */\n              add\n                /* \"#utility.yul\":2495:2548   */\n              tag_168\n              jump\t// in\n            tag_219:\n                /* \"#utility.yul\":2485:2548   */\n              swap2\n              pop\n                /* \"#utility.yul\":2441:2558   */\n              pop\n                /* \"#utility.yul\":2236:2565   */\n              swap3\n              swap2\n              pop\n              pop\n              jump\t// out\n                /* \"#utility.yul\":2571:2740   */\n            tag_169:\n                /* \"#utility.yul\":2655:2666   */\n              0x00\n                /* \"#utility.yul\":2689:2695   */\n              dup3\n                /* \"#utility.yul\":2684:2687   */\n              dup3\n                /* \"#utility.yul\":2677:2696   */\n              mstore\n                /* \"#utility.yul\":2729:2733   */\n              0x20\n                /* \"#utility.yul\":2724:2727   */\n              dup3\n                /* \"#utility.yul\":2720:2734   */\n              add\n                /* \"#utility.yul\":2705:2734   */\n              swap1\n              pop\n                /* \"#utility.yul\":2571:2740   */\n              swap3\n              swap2\n              pop\n              pop\n              jump\t// out\n                /* \"#utility.yul\":2746:2915   */\n            tag_170:\n                /* \"#utility.yul\":2886:2907   */\n              0x496e636f727265637420656e7472792066656500000000000000000000000000\n                /* \"#utility.yul\":2882:2883   */\n              0x00\n                /* \"#utility.yul\":2874:2880   */\n              dup3\n                /* \"#utility.yul\":2870:2884   */\n              add\n                /* \"#utility.yul\":2863:2908   */\n              mstore\n                /* \"#utility.yul\":2746:2915   */\n              pop\n              jump\t// out\n                /* \"#utility.yul\":2921:3287   */\n            tag_171:\n                /* \"#utility.yul\":3063:3066   */\n              0x00\n                /* \"#utility.yul\":3084:3151   */\n              tag_223\n                /* \"#utility.yul\":3148:3150   */\n              0x13\n                /* \"#utility.yul\":3143:3146   */\n              dup4\n                /* \"#utility.yul\":3084:3151   */\n              tag_169\n              jump\t// in\n            tag_223:\n                /* \"#utility.yul\":3077:3151   */\n              swap2\n              pop\n                /* \"#utility.yul\":3160:3253   */\n              tag_224\n                /* \"#utility.yul\":3249:3252   */\n              dup3\n                /* \"#utility.yul\":3160:3253   */\n              tag_170\n              jump\t// in\n            tag_224:\n                /* \"#utility.yul\":3278:3280   */\n              0x20\n                /* \"#utility.yul\":3273:3276   */\n              dup3\n                /* \"#utility.yul\":3269:3281   */\n              add\n                /* \"#utility.yul\":3262:3281   */\n              swap1\n              pop\n                /* \"#utility.yul\":2921:3287   */\n              swap2\n              swap1\n              pop\n              jump\t// out\n                /* \"#utility.yul\":3293:3712   */\n            tag_51:\n                /* \"#utility.yul\":3459:3463   */\n              0x00\n                /* \"#utility.yul\":3497:3499   */\n              0x20\n                /* \"#utility.yul\":3486:3495   */\n              dup3\n                /* \"#utility.yul\":3482:3500   */\n              add\n                /* \"#utility.yul\":3474:3500   */\n              swap1\n              pop\n                /* \"#utility.yul\":3546:3555   */\n              dup2\n                /* \"#utility.yul\":3540:3544   */\n              dup2\n                /* \"#utility.yul\":3536:3556   */\n              sub\n                /* \"#utility.yul\":3532:3533   */\n              0x00\n                /* \"#utility.yul\":3521:3530   */\n              dup4\n                /* \"#utility.yul\":3517:3534   */\n              add\n                /* \"#utility.yul\":3510:3557   */\n              mstore\n                /* \"#utility.yul\":3574:3705   */\n              tag_226\n                /* \"#utility.yul\":3700:3704   */\n              dup2\n                /* \"#utility.yul\":3574:3705   */\n              tag_171\n              jump\t// in\n            tag_226:\n                /* \"#utility.yul\":3566:3705   */\n              swap1\n              pop\n                /* \"#utility.yul\":3293:3712   */\n              swap2\n              swap1\n              pop\n              jump\t// out\n                /* \"#utility.yul\":3718:3899   */\n            tag_172:\n                /* \"#utility.yul\":3858:3891   */\n              0x596f7527766520616c726561647920656e746572656420746865207175697a00\n                /* \"#utility.yul\":3854:3855   */\n              0x00\n                /* \"#utility.yul\":3846:3852   */\n              dup3\n                /* \"#utility.yul\":3842:3856   */\n              add\n                /* \"#utility.yul\":3835:3892   */\n              mstore\n                /* \"#utility.yul\":3718:3899   */\n              pop\n              jump\t// out\n                /* \"#utility.yul\":3905:4271   */\n            tag_173:\n                /* \"#utility.yul\":4047:4050   */\n              0x00\n                /* \"#utility.yul\":4068:4135   */\n              tag_229\n                /* \"#utility.yul\":4132:4134   */\n              0x1f\n                /* \"#utility.yul\":4127:4130   */\n              dup4\n                /* \"#utility.yul\":4068:4135   */\n              tag_169\n              jump\t// in\n            tag_229:\n                /* \"#utility.yul\":4061:4135   */\n              swap2\n              pop\n                /* \"#utility.yul\":4144:4237   */\n              tag_230\n                /* \"#utility.yul\":4233:4236   */\n              dup3\n                /* \"#utility.yul\":4144:4237   */\n              tag_172\n              jump\t// in\n            tag_230:\n                /* \"#utility.yul\":4262:4264   */\n              0x20\n                /* \"#utility.yul\":4257:4260   */\n              dup3\n                /* \"#utility.yul\":4253:4265   */\n              add\n                /* \"#utility.yul\":4246:4265   */\n              swap1\n              pop\n                /* \"#utility.yul\":3905:4271   */\n              swap2\n              swap1\n              pop\n              jump\t// out\n                /* \"#utility.yul\":4277:4696   */\n            tag_54:\n                /* \"#utility.yul\":4443:4447   */\n              0x00\n                /* \"#utility.yul\":4481:4483   */\n              0x20\n                /* \"#utility.yul\":4470:4479   */\n              dup3\n                /* \"#utility.yul\":4466:4484   */\n              add\n                /* \"#utility.yul\":4458:4484   */\n              swap1\n              pop\n                /* \"#utility.yul\":4530:4539   */\n              dup2\n                /* \"#utility.yul\":4524:4528   */\n              dup2\n                /* \"#utility.yul\":4520:4540   */\n              sub\n                /* \"#utility.yul\":4516:4517   */\n              0x00\n                /* \"#utility.yul\":4505:4514   */\n              dup4\n                /* \"#utility.yul\":4501:4518   */\n              add\n                /* \"#utility.yul\":4494:4541   */\n              mstore\n                /* \"#utility.yul\":4558:4689   */\n              tag_232\n                /* \"#utility.yul\":4684:4688   */\n              dup2\n                /* \"#utility.yul\":4558:4689   */\n              tag_173\n              jump\t// in\n            tag_232:\n                /* \"#utility.yul\":4550:4689   */\n              swap1\n              pop\n                /* \"#utility.yul\":4277:4696   */\n              swap2\n              swap1\n              pop\n              jump\t// out\n                /* \"#utility.yul\":4702:4787   */\n            tag_174:\n                /* \"#utility.yul\":4747:4754   */\n              0x00\n                /* \"#utility.yul\":4776:4781   */\n              dup2\n                /* \"#utility.yul\":4765:4781   */\n              swap1\n              pop\n                /* \"#utility.yul\":4702:4787   */\n              swap2\n              swap1\n              pop\n              jump\t// out\n                /* \"#utility.yul\":4793:4853   */\n            tag_175:\n                /* \"#utility.yul\":4821:4824   */\n              0x00\n                /* \"#utility.yul\":4842:4847   */\n              dup2\n                /* \"#utility.yul\":4835:4847   */\n              swap1\n              pop\n                /* \"#utility.yul\":4793:4853   */\n              swap2\n              swap1\n              pop\n              jump\t// out\n                /* \"#utility.yul\":4859:5017   */\n            tag_176:\n                /* \"#utility.yul\":4917:4926   */\n              0x00\n                /* \"#utility.yul\":4950:5011   */\n              tag_236\n                /* \"#utility.yul\":4968:5010   */\n              tag_237\n                /* \"#utility.yul\":4977:5009   */\n              tag_238\n                /* \"#utility.yul\":5003:5008   */\n              dup5\n                /* \"#utility.yul\":4977:5009   */\n              tag_174\n              jump\t// in\n            tag_238:\n                /* \"#utility.yul\":4968:5010   */\n              tag_175\n              jump\t// in\n            tag_237:\n                /* \"#utility.yul\":4950:5011   */\n              tag_157\n              jump\t// in\n            tag_236:\n                /* \"#utility.yul\":4937:5011   */\n              swap1\n              pop\n                /* \"#utility.yul\":4859:5017   */\n              swap2\n              swap1\n              pop\n              jump\t// out\n                /* \"#utility.yul\":5023:5170   */\n            tag_177:\n                /* \"#utility.yul\":5118:5163   */\n              tag_240\n                /* \"#utility.yul\":5157:5162   */\n              dup2\n                /* \"#utility.yul\":5118:5163   */\n              tag_176\n              jump\t// in\n            tag_240:\n                /* \"#utility.yul\":5113:5116   */\n              dup3\n                /* \"#utility.yul\":5106:5164   */\n              mstore\n                /* \"#utility.yul\":5023:5170   */\n              pop\n              pop\n              jump\t// out\n                /* \"#utility.yul\":5176:5414   */\n            tag_57:\n                /* \"#utility.yul\":5277:5281   */\n              0x00\n                /* \"#utility.yul\":5315:5317   */\n              0x20\n                /* \"#utility.yul\":5304:5313   */\n              dup3\n                /* \"#utility.yul\":5300:5318   */\n              add\n                /* \"#utility.yul\":5292:5318   */\n              swap1\n              pop\n                /* \"#utility.yul\":5328:5407   */\n              tag_242\n                /* \"#utility.yul\":5404:5405   */\n              0x00\n                /* \"#utility.yul\":5393:5402   */\n              dup4\n                /* \"#utility.yul\":5389:5406   */\n              add\n                /* \"#utility.yul\":5380:5386   */\n              dup5\n                /* \"#utility.yul\":5328:5407   */\n              tag_177\n              jump\t// in\n            tag_242:\n                /* \"#utility.yul\":5176:5414   */\n              swap3\n              swap2\n              pop\n              pop\n              jump\t// out\n                /* \"#utility.yul\":5420:5642   */\n            tag_178:\n                /* \"#utility.yul\":5560:5594   */\n              0x4f6e6c792074686520686f73742063616e206469737472696275746520707269\n                /* \"#utility.yul\":5556:5557   */\n              0x00\n                /* \"#utility.yul\":5548:5554   */\n              dup3\n                /* \"#utility.yul\":5544:5558   */\n              add\n                /* \"#utility.yul\":5537:5595   */\n              mstore\n                /* \"#utility.yul\":5629:5634   */\n              0x7a65730000000000000000000000000000000000000000000000000000000000\n                /* \"#utility.yul\":5624:5626   */\n              0x20\n                /* \"#utility.yul\":5616:5622   */\n              dup3\n                /* \"#utility.yul\":5612:5627   */\n              add\n                /* \"#utility.yul\":5605:5635   */\n              mstore\n                /* \"#utility.yul\":5420:5642   */\n              pop\n              jump\t// out\n                /* \"#utility.yul\":5648:6014   */\n            tag_179:\n                /* \"#utility.yul\":5790:5793   */\n              0x00\n                /* \"#utility.yul\":5811:5878   */\n              tag_245\n                /* \"#utility.yul\":5875:5877   */\n              0x23\n                /* \"#utility.yul\":5870:5873   */\n              dup4\n                /* \"#utility.yul\":5811:5878   */\n              tag_169\n              jump\t// in\n            tag_245:\n                /* \"#utility.yul\":5804:5878   */\n              swap2\n              pop\n                /* \"#utility.yul\":5887:5980   */\n              tag_246\n                /* \"#utility.yul\":5976:5979   */\n              dup3\n                /* \"#utility.yul\":5887:5980   */\n              tag_178\n              jump\t// in\n            tag_246:\n                /* \"#utility.yul\":6005:6007   */\n              0x40\n                /* \"#utility.yul\":6000:6003   */\n              dup3\n                /* \"#utility.yul\":5996:6008   */\n              add\n                /* \"#utility.yul\":5989:6008   */\n              swap1\n              pop\n                /* \"#utility.yul\":5648:6014   */\n              swap2\n              swap1\n              pop\n              jump\t// out\n                /* \"#utility.yul\":6020:6439   */\n            tag_61:\n                /* \"#utility.yul\":6186:6190   */\n              0x00\n                /* \"#utility.yul\":6224:6226   */\n              0x20\n                /* \"#utility.yul\":6213:6222   */\n              dup3\n                /* \"#utility.yul\":6209:6227   */\n              add\n                /* \"#utility.yul\":6201:6227   */\n              swap1\n              pop\n                /* \"#utility.yul\":6273:6282   */\n              dup2\n                /* \"#utility.yul\":6267:6271   */\n              dup2\n                /* \"#utility.yul\":6263:6283   */\n              sub\n                /* \"#utility.yul\":6259:6260   */\n              0x00\n                /* \"#utility.yul\":6248:6257   */\n              dup4\n                /* \"#utility.yul\":6244:6261   */\n              add\n                /* \"#utility.yul\":6237:6284   */\n              mstore\n                /* \"#utility.yul\":6301:6432   */\n              tag_248\n                /* \"#utility.yul\":6427:6431   */\n              dup2\n                /* \"#utility.yul\":6301:6432   */\n              tag_179\n              jump\t// in\n            tag_248:\n                /* \"#utility.yul\":6293:6432   */\n              swap1\n              pop\n                /* \"#utility.yul\":6020:6439   */\n              swap2\n              swap1\n              pop\n              jump\t// out\n                /* \"#utility.yul\":6445:6610   */\n            tag_180:\n                /* \"#utility.yul\":6585:6602   */\n              0x4e6f207061727469636970616e74730000000000000000000000000000000000\n                /* \"#utility.yul\":6581:6582   */\n              0x00\n                /* \"#utility.yul\":6573:6579   */\n              dup3\n                /* \"#utility.yul\":6569:6583   */\n              add\n                /* \"#utility.yul\":6562:6603   */\n              mstore\n                /* \"#utility.yul\":6445:6610   */\n              pop\n              jump\t// out\n                /* \"#utility.yul\":6616:6982   */\n            tag_181:\n                /* \"#utility.yul\":6758:6761   */\n              0x00\n                /* \"#utility.yul\":6779:6846   */\n              tag_251\n                /* \"#utility.yul\":6843:6845   */\n              0x0f\n                /* \"#utility.yul\":6838:6841   */\n              dup4\n                /* \"#utility.yul\":6779:6846   */\n              tag_169\n              jump\t// in\n            tag_251:\n                /* \"#utility.yul\":6772:6846   */\n              swap2\n              pop\n                /* \"#utility.yul\":6855:6948   */\n              tag_252\n                /* \"#utility.yul\":6944:6947   */\n              dup3\n                /* \"#utility.yul\":6855:6948   */\n              tag_180\n              jump\t// in\n            tag_252:\n                /* \"#utility.yul\":6973:6975   */\n              0x20\n                /* \"#utility.yul\":6968:6971   */\n              dup3\n                /* \"#utility.yul\":6964:6976   */\n              add\n                /* \"#utility.yul\":6957:6976   */\n              swap1\n              pop\n                /* \"#utility.yul\":6616:6982   */\n              swap2\n              swap1\n              pop\n              jump\t// out\n                /* \"#utility.yul\":6988:7407   */\n            tag_64:\n                /* \"#utility.yul\":7154:7158   */\n              0x00\n                /* \"#utility.yul\":7192:7194   */\n              0x20\n                /* \"#utility.yul\":7181:7190   */\n              dup3\n                /* \"#utility.yul\":7177:7195   */\n              add\n                /* \"#utility.yul\":7169:7195   */\n              swap1\n              pop\n                /* \"#utility.yul\":7241:7250   */\n              dup2\n                /* \"#utility.yul\":7235:7239   */\n              dup2\n                /* \"#utility.yul\":7231:7251   */\n              sub\n                /* \"#utility.yul\":7227:7228   */\n              0x00\n                /* \"#utility.yul\":7216:7225   */\n              dup4\n                /* \"#utility.yul\":7212:7229   */\n              add\n                /* \"#utility.yul\":7205:7252   */\n              mstore\n                /* \"#utility.yul\":7269:7400   */\n              tag_254\n                /* \"#utility.yul\":7395:7399   */\n              dup2\n                /* \"#utility.yul\":7269:7400   */\n              tag_181\n              jump\t// in\n            tag_254:\n                /* \"#utility.yul\":7261:7400   */\n              swap1\n              pop\n                /* \"#utility.yul\":6988:7407   */\n              swap2\n              swap1\n              pop\n              jump\t// out\n                /* \"#utility.yul\":7413:7593   */\n            tag_77:\n                /* \"#utility.yul\":7461:7538   */\n              0x4e487b7100000000000000000000000000000000000000000000000000000000\n                /* \"#utility.yul\":7458:7459   */\n              0x00\n                /* \"#utility.yul\":7451:7539   */\n              mstore\n                /* \"#utility.yul\":7558:7562   */\n              0x32\n                /* \"#utility.yul\":7555:7556   */\n              0x04\n                /* \"#utility.yul\":7548:7563   */\n              mstore\n                /* \"#utility.yul\":7582:7586   */\n              0x24\n                /* \"#utility.yul\":7579:7580   */\n              0x00\n                /* \"#utility.yul\":7572:7587   */\n              revert\n                /* \"#utility.yul\":7599:7779   */\n            tag_182:\n                /* \"#utility.yul\":7647:7724   */\n              0x4e487b7100000000000000000000000000000000000000000000000000000000\n                /* \"#utility.yul\":7644:7645   */\n              0x00\n                /* \"#utility.yul\":7637:7725   */\n              mstore\n                /* \"#utility.yul\":7744:7748   */\n              0x11\n                /* \"#utility.yul\":7741:7742   */\n              0x04\n                /* \"#utility.yul\":7734:7749   */\n              mstore\n                /* \"#utility.yul\":7768:7772   */\n              0x24\n                /* \"#utility.yul\":7765:7766   */\n              0x00\n                /* \"#utility.yul\":7758:7773   */\n              revert\n                /* \"#utility.yul\":7785:8018   */\n            tag_87:\n                /* \"#utility.yul\":7824:7827   */\n              0x00\n                /* \"#utility.yul\":7847:7871   */\n              tag_258\n                /* \"#utility.yul\":7865:7870   */\n              dup3\n                /* \"#utility.yul\":7847:7871   */\n              tag_157\n              jump\t// in\n            tag_258:\n                /* \"#utility.yul\":7838:7871   */\n              swap2\n              pop\n                /* \"#utility.yul\":7893:7959   */\n              0xffffffffffffffffffffffffffffffffffffffffffffffffffffffffffffffff\n                /* \"#utility.yul\":7886:7891   */\n              dup3\n                /* \"#utility.yul\":7883:7960   */\n              sub\n                /* \"#utility.yul\":7880:7983   */\n              tag_259\n              jumpi\n                /* \"#utility.yul\":7963:7981   */\n              tag_260\n              tag_182\n              jump\t// in\n            tag_260:\n                /* \"#utility.yul\":7880:7983   */\n            tag_259:\n                /* \"#utility.yul\":8010:8011   */\n              0x01\n                /* \"#utility.yul\":8003:8008   */\n              dup3\n                /* \"#utility.yul\":7999:8012   */\n              add\n                /* \"#utility.yul\":7992:8012   */\n              swap1\n              pop\n                /* \"#utility.yul\":7785:8018   */\n              swap2\n              swap1\n              pop\n              jump\t// out\n                /* \"#utility.yul\":8024:8434   */\n            tag_95:\n                /* \"#utility.yul\":8064:8071   */\n              0x00\n                /* \"#utility.yul\":8087:8107   */\n              tag_262\n                /* \"#utility.yul\":8105:8106   */\n              dup3\n                /* \"#utility.yul\":8087:8107   */\n              tag_157\n              jump\t// in\n            tag_262:\n                /* \"#utility.yul\":8082:8107   */\n              swap2\n              pop\n                /* \"#utility.yul\":8121:8141   */\n              tag_263\n                /* \"#utility.yul\":8139:8140   */\n              dup4\n                /* \"#utility.yul\":8121:8141   */\n              tag_157\n              jump\t// in\n            tag_263:\n                /* \"#utility.yul\":8116:8141   */\n              swap3\n              pop\n                /* \"#utility.yul\":8176:8177   */\n              dup3\n                /* \"#utility.yul\":8173:8174   */\n              dup3\n                /* \"#utility.yul\":8169:8178   */\n              mul\n                /* \"#utility.yul\":8198:8228   */\n              tag_264\n                /* \"#utility.yul\":8216:8227   */\n              dup2\n                /* \"#utility.yul\":8198:8228   */\n              tag_157\n              jump\t// in\n            tag_264:\n                /* \"#utility.yul\":8187:8228   */\n              swap2\n              pop\n                /* \"#utility.yul\":8377:8378   */\n              dup3\n                /* \"#utility.yul\":8368:8375   */\n              dup3\n                /* \"#utility.yul\":8364:8379   */\n              div\n                /* \"#utility.yul\":8361:8362   */\n              dup5\n                /* \"#utility.yul\":8358:8380   */\n              eq\n                /* \"#utility.yul\":8338:8339   */\n              dup4\n                /* \"#utility.yul\":8331:8340   */\n              iszero\n                /* \"#utility.yul\":8311:8394   */\n              or\n                /* \"#utility.yul\":8288:8427   */\n              tag_265\n              jumpi\n                /* \"#utility.yul\":8407:8425   */\n              tag_266\n              tag_182\n              jump\t// in\n            tag_266:\n                /* \"#utility.yul\":8288:8427   */\n            tag_265:\n                /* \"#utility.yul\":8072:8434   */\n              pop\n                /* \"#utility.yul\":8024:8434   */\n              swap3\n              swap2\n              pop\n              pop\n              jump\t// out\n                /* \"#utility.yul\":8440:8620   */\n            tag_183:\n                /* \"#utility.yul\":8488:8565   */\n              0x4e487b7100000000000000000000000000000000000000000000000000000000\n                /* \"#utility.yul\":8485:8486   */\n              0x00\n                /* \"#utility.yul\":8478:8566   */\n              mstore\n                /* \"#utility.yul\":8585:8589   */\n              0x12\n                /* \"#utility.yul\":8582:8583   */\n              0x04\n                /* \"#utility.yul\":8575:8590   */\n              mstore\n                /* \"#utility.yul\":8609:8613   */\n              0x24\n                /* \"#utility.yul\":8606:8607   */\n              0x00\n                /* \"#utility.yul\":8599:8614   */\n              revert\n                /* \"#utility.yul\":8626:8811   */\n            tag_97:\n                /* \"#utility.yul\":8666:8667   */\n              0x00\n                /* \"#utility.yul\":8683:8703   */\n              tag_269\n                /* \"#utility.yul\":8701:8702   */\n              dup3\n                /* \"#utility.yul\":8683:8703   */\n              tag_157\n              jump\t// in\n            tag_269:\n                /* \"#utility.yul\":8678:8703   */\n              swap2\n              pop\n                /* \"#utility.yul\":8717:8737   */\n              tag_270\n                /* \"#utility.yul\":8735:8736   */\n              dup4\n                /* \"#utility.yul\":8717:8737   */\n              tag_157\n              jump\t// in\n            tag_270:\n                /* \"#utility.yul\":8712:8737   */\n              swap3\n              pop\n                /* \"#utility.yul\":8756:8757   */\n              dup3\n                /* \"#utility.yul\":8746:8781   */\n              tag_271\n              jumpi\n                /* \"#utility.yul\":8761:8779   */\n              tag_272\n              tag_183\n              jump\t// in\n            tag_272:\n                /* \"#utility.yul\":8746:8781   */\n            tag_271:\n                /* \"#utility.yul\":8803:8804   */\n              dup3\n                /* \"#utility.yul\":8800:8801   */\n              dup3\n                /* \"#utility.yul\":8796:8805   */\n              div\n                /* \"#utility.yul\":8791:8805   */\n              swap1\n              pop\n                /* \"#utility.yul\":8626:8811   */\n              swap3\n              swap2\n              pop\n              pop\n              jump\t// out\n                /* \"#utility.yul\":8817:9011   */\n            tag_108:\n                /* \"#utility.yul\":8857:8861   */\n              0x00\n                /* \"#utility.yul\":8877:8897   */\n              tag_274\n                /* \"#utility.yul\":8895:8896   */\n              dup3\n                /* \"#utility.yul\":8877:8897   */\n              tag_157\n              jump\t// in\n            tag_274:\n                /* \"#utility.yul\":8872:8897   */\n              swap2\n              pop\n                /* \"#utility.yul\":8911:8931   */\n              tag_275\n                /* \"#utility.yul\":8929:8930   */\n              dup4\n                /* \"#utility.yul\":8911:8931   */\n              tag_157\n              jump\t// in\n            tag_275:\n                /* \"#utility.yul\":8906:8931   */\n              swap3\n              pop\n                /* \"#utility.yul\":8955:8956   */\n              dup3\n                /* \"#utility.yul\":8952:8953   */\n              dup3\n                /* \"#utility.yul\":8948:8957   */\n              sub\n                /* \"#utility.yul\":8940:8957   */\n              swap1\n              pop\n                /* \"#utility.yul\":8979:8980   */\n              dup2\n                /* \"#utility.yul\":8973:8977   */\n              dup2\n                /* \"#utility.yul\":8970:8981   */\n              gt\n                /* \"#utility.yul\":8967:9004   */\n              iszero\n              tag_276\n              jumpi\n                /* \"#utility.yul\":8984:9002   */\n              tag_277\n              tag_182\n              jump\t// in\n            tag_277:\n                /* \"#utility.yul\":8967:9004   */\n            tag_276:\n                /* \"#utility.yul\":8817:9011   */\n              swap3\n              swap2\n              pop\n              pop\n              jump\t// out\n                /* \"#utility.yul\":9017:9197   */\n            tag_117:\n                /* \"#utility.yul\":9065:9142   */\n              0x4e487b7100000000000000000000000000000000000000000000000000000000\n                /* \"#utility.yul\":9062:9063   */\n              0x00\n                /* \"#utility.yul\":9055:9143   */\n              mstore\n                /* \"#utility.yul\":9162:9166   */\n              0x31\n                /* \"#utility.yul\":9159:9160   */\n              0x04\n                /* \"#utility.yul\":9152:9167   */\n              mstore\n                /* \"#utility.yul\":9186:9190   */\n              0x24\n                /* \"#utility.yul\":9183:9184   */\n              0x00\n                /* \"#utility.yul\":9176:9191   */\n              revert\n                /* \"#utility.yul\":9203:9376   */\n            tag_184:\n                /* \"#utility.yul\":9343:9368   */\n              0x53636f726520616c7265616479207375626d6974746564000000000000000000\n                /* \"#utility.yul\":9339:9340   */\n              0x00\n                /* \"#utility.yul\":9331:9337   */\n              dup3\n                /* \"#utility.yul\":9327:9341   */\n              add\n                /* \"#utility.yul\":9320:9369   */\n              mstore\n                /* \"#utility.yul\":9203:9376   */\n              pop\n              jump\t// out\n                /* \"#utility.yul\":9382:9748   */\n            tag_185:\n                /* \"#utility.yul\":9524:9527   */\n              0x00\n                /* \"#utility.yul\":9545:9612   */\n              tag_281\n                /* \"#utility.yul\":9609:9611   */\n              0x17\n                /* \"#utility.yul\":9604:9607   */\n              dup4\n                /* \"#utility.yul\":9545:9612   */\n              tag_169\n              jump\t// in\n            tag_281:\n                /* \"#utility.yul\":9538:9612   */\n              swap2\n              pop\n                /* \"#utility.yul\":9621:9714   */\n              tag_282\n                /* \"#utility.yul\":9710:9713   */\n              dup3\n                /* \"#utility.yul\":9621:9714   */\n              tag_184\n              jump\t// in\n            tag_282:\n                /* \"#utility.yul\":9739:9741   */\n              0x20\n                /* \"#utility.yul\":9734:9737   */\n              dup3\n                /* \"#utility.yul\":9730:9742   */\n              add\n                /* \"#utility.yul\":9723:9742   */\n              swap1\n              pop\n                /* \"#utility.yul\":9382:9748   */\n              swap2\n              swap1\n              pop\n              jump\t// out\n                /* \"#utility.yul\":9754:10173   */\n            tag_155:\n                /* \"#utility.yul\":9920:9924   */\n              0x00\n                /* \"#utility.yul\":9958:9960   */\n              0x20\n                /* \"#utility.yul\":9947:9956   */\n              dup3\n                /* \"#utility.yul\":9943:9961   */\n              add\n                /* \"#utility.yul\":9935:9961   */\n              swap1\n              pop\n                /* \"#utility.yul\":10007:10016   */\n              dup2\n                /* \"#utility.yul\":10001:10005   */\n              dup2\n                /* \"#utility.yul\":9997:10017   */\n              sub\n                /* \"#utility.yul\":9993:9994   */\n              0x00\n                /* \"#utility.yul\":9982:9991   */\n              dup4\n                /* \"#utility.yul\":9978:9995   */\n              add\n                /* \"#utility.yul\":9971:10018   */\n              mstore\n                /* \"#utility.yul\":10035:10166   */\n              tag_284\n                /* \"#utility.yul\":10161:10165   */\n              dup2\n                /* \"#utility.yul\":10035:10166   */\n              tag_185\n              jump\t// in\n            tag_284:\n                /* \"#utility.yul\":10027:10166   */\n              swap1\n              pop\n                /* \"#utility.yul\":9754:10173   */\n              swap2\n              swap1\n              pop\n              jump\t// out\n\n            auxdata: 0xa26469706673582212205ce5f3470cf836695e0c68a62289a329f9a2b8aca37540de11c69d8886bb430c64736f6c63430008140033\n        }\n    }\n\n    auxdata: 0xa2646970667358221220d009d1580128b0416d237f683ee7d80fb457c2c25ff8abe857ab62ac643cf45964736f6c63430008140033\n}\n",
				"bytecode": {
					"linkReferences": {},
					"object": "608060405234801561000f575f80fd5b5061162e8061001d5f395ff3fe60806040526004361061001d575f3560e01c806342095eaf14610021575b5f80fd5b61003b60048036038101906100369190610180565b610051565b60405161004891906101fd565b60405180910390f35b5f81341015610095576040517f08c379a000000000000000000000000000000000000000000000000000000000815260040161008c90610270565b60405180910390fd5b5f3384846040516100a59061013c565b6100b19392919061029d565b604051809103905ff0801580156100ca573d5f803e3d5ffd5b5090503373ffffffffffffffffffffffffffffffffffffffff168173ffffffffffffffffffffffffffffffffffffffff167fc0ad9a4f39aa0b88d6a859af09203509913bd398aed81e3fcd4ac05f023cd9018560405161012a91906102d2565b60405180910390a38091505092915050565b61130d806102ec83390190565b5f80fd5b5f819050919050565b61015f8161014d565b8114610169575f80fd5b50565b5f8135905061017a81610156565b92915050565b5f806040838503121561019657610195610149565b5b5f6101a38582860161016c565b92505060206101b48582860161016c565b9150509250929050565b5f73ffffffffffffffffffffffffffffffffffffffff82169050919050565b5f6101e7826101be565b9050919050565b6101f7816101dd565b82525050565b5f6020820190506102105f8301846101ee565b92915050565b5f82825260208201905092915050565b7f496e73756666696369656e7420696e697469616c207072697a6520706f6f6c005f82015250565b5f61025a601f83610216565b915061026582610226565b602082019050919050565b5f6020820190508181035f8301526102878161024e565b9050919050565b6102978161014d565b82525050565b5f6060820190506102b05f8301866101ee565b6102bd602083018561028e565b6102ca604083018461028e565b949350505050565b5f6020820190506102e55f83018461028e565b9291505056fe60806040526040516200130d3803806200130d83398181016040528101906200002991906200011c565b825f806101000a81548173ffffffffffffffffffffffffffffffffffffffff021916908373ffffffffffffffffffffffffffffffffffffffff160217905550816001819055508060028190555050505062000175565b5f80fd5b5f73ffffffffffffffffffffffffffffffffffffffff82169050919050565b5f620000ae8262000083565b9050919050565b620000c081620000a2565b8114620000cb575f80fd5b50565b5f81519050620000de81620000b5565b92915050565b5f819050919050565b620000f881620000e4565b811462000103575f80fd5b50565b5f815190506200011681620000ed565b92915050565b5f805f606084860312156200013657620001356200007f565b5b5f6200014586828701620000ce565b9350506020620001588682870162000106565b92505060406200016b8682870162000106565b9150509250925092565b61118a80620001835f395ff3fe60806040526004361061007a575f3560e01c806376dd110f1161004d57806376dd110f146101185780637ce52eb614610154578063aff0b2971461016a578063f437bc59146101925761007a565b8063072ea61c1461007e57806335c1d349146100a85780635b796e44146100e4578063719ce73e146100ee575b5f80fd5b348015610089575f80fd5b506100926101bc565b60405161009f9190610bfd565b60405180910390f35b3480156100b3575f80fd5b506100ce60048036038101906100c99190610c44565b6101c2565b6040516100db9190610cae565b60405180910390f35b6100ec6101fd565b005b3480156100f9575f80fd5b50610102610370565b60405161010f9190610bfd565b60405180910390f35b348015610123575f80fd5b5061013e60048036038101906101399190610cf1565b610376565b60405161014b9190610bfd565b60405180910390f35b34801561015f575f80fd5b5061016861038b565b005b348015610175575f80fd5b50610190600480360381019061018b9190610c44565b610a6c565b005b34801561019d575f80fd5b506101a6610b7e565b6040516101b39190610cae565b60405180910390f35b60015481565b600481815481106101d1575f80fd5b905f5260205f20015f915054906101000a900473ffffffffffffffffffffffffffffffffffffffff1681565b6001543414610241576040517f08c379a000000000000000000000000000000000000000000000000000000000815260040161023890610d76565b60405180910390fd5b5f60035f3373ffffffffffffffffffffffffffffffffffffffff1673ffffffffffffffffffffffffffffffffffffffff1681526020019081526020015f2054146102c0576040517f08c379a00000000000000000000000000000000000000000000000000000000081526004016102b790610dde565b60405180910390fd5b600433908060018154018082558091505060019003905f5260205f20015f9091909190916101000a81548173ffffffffffffffffffffffffffffffffffffffff021916908373ffffffffffffffffffffffffffffffffffffffff1602179055503373ffffffffffffffffffffffffffffffffffffffff167f9211e85c505f78a7153ac4ea4ed0458d1f7c324b15adc37a02ffacbe5045b6995f6040516103669190610e3e565b60405180910390a2565b60025481565b6003602052805f5260405f205f915090505481565b5f8054906101000a900473ffffffffffffffffffffffffffffffffffffffff1673ffffffffffffffffffffffffffffffffffffffff163373ffffffffffffffffffffffffffffffffffffffff1614610418576040517f08c379a000000000000000000000000000000000000000000000000000000000815260040161040f90610ec7565b60405180910390fd5b5f60048054905090505f8111610463576040517f08c379a000000000000000000000000000000000000000000000000000000000815260040161045a90610f2f565b60405180910390fd5b61046b610ba1565b610473610bc3565b5f5b6003811015610819575f80805f90505b6004805490508110156105df578260035f600484815481106104aa576104a9610f4d565b5b905f5260205f20015f9054906101000a900473ffffffffffffffffffffffffffffffffffffffff1673ffffffffffffffffffffffffffffffffffffffff1673ffffffffffffffffffffffffffffffffffffffff1681526020019081526020015f205411156105cc5760035f6004838154811061052957610528610f4d565b5b905f5260205f20015f9054906101000a900473ffffffffffffffffffffffffffffffffffffffff1673ffffffffffffffffffffffffffffffffffffffff1673ffffffffffffffffffffffffffffffffffffffff1681526020019081526020015f20549250600481815481106105a1576105a0610f4d565b5b905f5260205f20015f9054906101000a900473ffffffffffffffffffffffffffffffffffffffff1691505b80806105d790610fa7565b915050610485565b50808584600381106105f4576105f3610f4d565b5b602002019073ffffffffffffffffffffffffffffffffffffffff16908173ffffffffffffffffffffffffffffffffffffffff168152505060645f841461064b5760018414610643576014610646565b601e5b61064e565b60325b60ff1660025461065e9190610fee565b610668919061105c565b84846003811061067b5761067a610f4d565b5b6020020181815250505f5b600480549050811015610803578173ffffffffffffffffffffffffffffffffffffffff16600482815481106106be576106bd610f4d565b5b905f5260205f20015f9054906101000a900473ffffffffffffffffffffffffffffffffffffffff1673ffffffffffffffffffffffffffffffffffffffff16036107f05760046001600480549050610715919061108c565b8154811061072657610725610f4d565b5b905f5260205f20015f9054906101000a900473ffffffffffffffffffffffffffffffffffffffff166004828154811061076257610761610f4d565b5b905f5260205f20015f6101000a81548173ffffffffffffffffffffffffffffffffffffffff021916908373ffffffffffffffffffffffffffffffffffffffff16021790555060048054806107b9576107b86110bf565b5b600190038181905f5260205f20015f6101000a81549073ffffffffffffffffffffffffffffffffffffffff02191690559055610803565b80806107fb90610fa7565b915050610686565b505050808061081190610fa7565b915050610475565b505f6064600560025461082c9190610fee565b610836919061105c565b90503073ffffffffffffffffffffffffffffffffffffffff166108fc8290811502906040515f60405180830381858888f1935050505015801561087b573d5f803e3d5ffd5b505f5b60038110156109885783816003811061089a57610899610f4d565b5b602002015173ffffffffffffffffffffffffffffffffffffffff166108fc8483600381106108cb576108ca610f4d565b5b602002015190811502906040515f60405180830381858888f193505050501580156108f8573d5f803e3d5ffd5b5083816003811061090c5761090b610f4d565b5b602002015173ffffffffffffffffffffffffffffffffffffffff167fb8e091d87f82e56d22276c9a0088ea5d6068e355383dc08b2721b7b6cb10e84584836003811061095b5761095a610f4d565b5b602002015160405161096d9190610bfd565b60405180910390a2808061098090610fa7565b91505061087e565b505f8260026003811061099e5761099d610f4d565b5b6020020151836001600381106109b7576109b6610f4d565b5b6020020151845f600381106109cf576109ce610f4d565b5b6020020151846002546109e2919061108c565b6109ec919061108c565b6109f6919061108c565b610a00919061108c565b90505f8054906101000a900473ffffffffffffffffffffffffffffffffffffffff1673ffffffffffffffffffffffffffffffffffffffff166108fc8290811502906040515f60405180830381858888f19350505050158015610a64573d5f803e3d5ffd5b505050505050565b5f60035f3373ffffffffffffffffffffffffffffffffffffffff1673ffffffffffffffffffffffffffffffffffffffff1681526020019081526020015f205414610aeb576040517f08c379a0000000000000000000000000000000000000000000000000000000008152600401610ae290611136565b60405180910390fd5b8060035f3373ffffffffffffffffffffffffffffffffffffffff1673ffffffffffffffffffffffffffffffffffffffff1681526020019081526020015f20819055503373ffffffffffffffffffffffffffffffffffffffff167f9211e85c505f78a7153ac4ea4ed0458d1f7c324b15adc37a02ffacbe5045b69982604051610b739190610bfd565b60405180910390a250565b5f8054906101000a900473ffffffffffffffffffffffffffffffffffffffff1681565b6040518060600160405280600390602082028036833780820191505090505090565b6040518060600160405280600390602082028036833780820191505090505090565b5f819050919050565b610bf781610be5565b82525050565b5f602082019050610c105f830184610bee565b92915050565b5f80fd5b610c2381610be5565b8114610c2d575f80fd5b50565b5f81359050610c3e81610c1a565b92915050565b5f60208284031215610c5957610c58610c16565b5b5f610c6684828501610c30565b91505092915050565b5f73ffffffffffffffffffffffffffffffffffffffff82169050919050565b5f610c9882610c6f565b9050919050565b610ca881610c8e565b82525050565b5f602082019050610cc15f830184610c9f565b92915050565b610cd081610c8e565b8114610cda575f80fd5b50565b5f81359050610ceb81610cc7565b92915050565b5f60208284031215610d0657610d05610c16565b5b5f610d1384828501610cdd565b91505092915050565b5f82825260208201905092915050565b7f496e636f727265637420656e74727920666565000000000000000000000000005f82015250565b5f610d60601383610d1c565b9150610d6b82610d2c565b602082019050919050565b5f6020820190508181035f830152610d8d81610d54565b9050919050565b7f596f7527766520616c726561647920656e746572656420746865207175697a005f82015250565b5f610dc8601f83610d1c565b9150610dd382610d94565b602082019050919050565b5f6020820190508181035f830152610df581610dbc565b9050919050565b5f819050919050565b5f819050919050565b5f610e28610e23610e1e84610dfc565b610e05565b610be5565b9050919050565b610e3881610e0e565b82525050565b5f602082019050610e515f830184610e2f565b92915050565b7f4f6e6c792074686520686f73742063616e2064697374726962757465207072695f8201527f7a65730000000000000000000000000000000000000000000000000000000000602082015250565b5f610eb1602383610d1c565b9150610ebc82610e57565b604082019050919050565b5f6020820190508181035f830152610ede81610ea5565b9050919050565b7f4e6f207061727469636970616e747300000000000000000000000000000000005f82015250565b5f610f19600f83610d1c565b9150610f2482610ee5565b602082019050919050565b5f6020820190508181035f830152610f4681610f0d565b9050919050565b7f4e487b71000000000000000000000000000000000000000000000000000000005f52603260045260245ffd5b7f4e487b71000000000000000000000000000000000000000000000000000000005f52601160045260245ffd5b5f610fb182610be5565b91507fffffffffffffffffffffffffffffffffffffffffffffffffffffffffffffffff8203610fe357610fe2610f7a565b5b600182019050919050565b5f610ff882610be5565b915061100383610be5565b925082820261101181610be5565b9150828204841483151761102857611027610f7a565b5b5092915050565b7f4e487b71000000000000000000000000000000000000000000000000000000005f52601260045260245ffd5b5f61106682610be5565b915061107183610be5565b9250826110815761108061102f565b5b828204905092915050565b5f61109682610be5565b91506110a183610be5565b92508282039050818111156110b9576110b8610f7a565b5b92915050565b7f4e487b71000000000000000000000000000000000000000000000000000000005f52603160045260245ffd5b7f53636f726520616c7265616479207375626d69747465640000000000000000005f82015250565b5f611120601783610d1c565b915061112b826110ec565b602082019050919050565b5f6020820190508181035f83015261114d81611114565b905091905056fea26469706673582212205ce5f3470cf836695e0c68a62289a329f9a2b8aca37540de11c69d8886bb430c64736f6c63430008140033a2646970667358221220d009d1580128b0416d237f683ee7d80fb457c2c25ff8abe857ab62ac643cf45964736f6c63430008140033",
					"opcodes": "PUSH1 0x80 PUSH1 0x40 MSTORE CALLVALUE DUP1 ISZERO PUSH2 0xF JUMPI PUSH0 DUP1 REVERT JUMPDEST POP PUSH2 0x162E DUP1 PUSH2 0x1D PUSH0 CODECOPY PUSH0 RETURN INVALID PUSH1 0x80 PUSH1 0x40 MSTORE PUSH1 0x4 CALLDATASIZE LT PUSH2 0x1D JUMPI PUSH0 CALLDATALOAD PUSH1 0xE0 SHR DUP1 PUSH4 0x42095EAF EQ PUSH2 0x21 JUMPI JUMPDEST PUSH0 DUP1 REVERT JUMPDEST PUSH2 0x3B PUSH1 0x4 DUP1 CALLDATASIZE SUB DUP2 ADD SWAP1 PUSH2 0x36 SWAP2 SWAP1 PUSH2 0x180 JUMP JUMPDEST PUSH2 0x51 JUMP JUMPDEST PUSH1 0x40 MLOAD PUSH2 0x48 SWAP2 SWAP1 PUSH2 0x1FD JUMP JUMPDEST PUSH1 0x40 MLOAD DUP1 SWAP2 SUB SWAP1 RETURN JUMPDEST PUSH0 DUP2 CALLVALUE LT ISZERO PUSH2 0x95 JUMPI PUSH1 0x40 MLOAD PUSH32 0x8C379A000000000000000000000000000000000000000000000000000000000 DUP2 MSTORE PUSH1 0x4 ADD PUSH2 0x8C SWAP1 PUSH2 0x270 JUMP JUMPDEST PUSH1 0x40 MLOAD DUP1 SWAP2 SUB SWAP1 REVERT JUMPDEST PUSH0 CALLER DUP5 DUP5 PUSH1 0x40 MLOAD PUSH2 0xA5 SWAP1 PUSH2 0x13C JUMP JUMPDEST PUSH2 0xB1 SWAP4 SWAP3 SWAP2 SWAP1 PUSH2 0x29D JUMP JUMPDEST PUSH1 0x40 MLOAD DUP1 SWAP2 SUB SWAP1 PUSH0 CREATE DUP1 ISZERO DUP1 ISZERO PUSH2 0xCA JUMPI RETURNDATASIZE PUSH0 DUP1 RETURNDATACOPY RETURNDATASIZE PUSH0 REVERT JUMPDEST POP SWAP1 POP CALLER PUSH20 0xFFFFFFFFFFFFFFFFFFFFFFFFFFFFFFFFFFFFFFFF AND DUP2 PUSH20 0xFFFFFFFFFFFFFFFFFFFFFFFFFFFFFFFFFFFFFFFF AND PUSH32 0xC0AD9A4F39AA0B88D6A859AF09203509913BD398AED81E3FCD4AC05F023CD901 DUP6 PUSH1 0x40 MLOAD PUSH2 0x12A SWAP2 SWAP1 PUSH2 0x2D2 JUMP JUMPDEST PUSH1 0x40 MLOAD DUP1 SWAP2 SUB SWAP1 LOG3 DUP1 SWAP2 POP POP SWAP3 SWAP2 POP POP JUMP JUMPDEST PUSH2 0x130D DUP1 PUSH2 0x2EC DUP4 CODECOPY ADD SWAP1 JUMP JUMPDEST PUSH0 DUP1 REVERT JUMPDEST PUSH0 DUP2 SWAP1 POP SWAP2 SWAP1 POP JUMP JUMPDEST PUSH2 0x15F DUP2 PUSH2 0x14D JUMP JUMPDEST DUP2 EQ PUSH2 0x169 JUMPI PUSH0 DUP1 REVERT JUMPDEST POP JUMP JUMPDEST PUSH0 DUP2 CALLDATALOAD SWAP1 POP PUSH2 0x17A DUP2 PUSH2 0x156 JUMP JUMPDEST SWAP3 SWAP2 POP POP JUMP JUMPDEST PUSH0 DUP1 PUSH1 0x40 DUP4 DUP6 SUB SLT ISZERO PUSH2 0x196 JUMPI PUSH2 0x195 PUSH2 0x149 JUMP JUMPDEST JUMPDEST PUSH0 PUSH2 0x1A3 DUP6 DUP3 DUP7 ADD PUSH2 0x16C JUMP JUMPDEST SWAP3 POP POP PUSH1 0x20 PUSH2 0x1B4 DUP6 DUP3 DUP7 ADD PUSH2 0x16C JUMP JUMPDEST SWAP2 POP POP SWAP3 POP SWAP3 SWAP1 POP JUMP JUMPDEST PUSH0 PUSH20 0xFFFFFFFFFFFFFFFFFFFFFFFFFFFFFFFFFFFFFFFF DUP3 AND SWAP1 POP SWAP2 SWAP1 POP JUMP JUMPDEST PUSH0 PUSH2 0x1E7 DUP3 PUSH2 0x1BE JUMP JUMPDEST SWAP1 POP SWAP2 SWAP1 POP JUMP JUMPDEST PUSH2 0x1F7 DUP2 PUSH2 0x1DD JUMP JUMPDEST DUP3 MSTORE POP POP JUMP JUMPDEST PUSH0 PUSH1 0x20 DUP3 ADD SWAP1 POP PUSH2 0x210 PUSH0 DUP4 ADD DUP5 PUSH2 0x1EE JUMP JUMPDEST SWAP3 SWAP2 POP POP JUMP JUMPDEST PUSH0 DUP3 DUP3 MSTORE PUSH1 0x20 DUP3 ADD SWAP1 POP SWAP3 SWAP2 POP POP JUMP JUMPDEST PUSH32 0x496E73756666696369656E7420696E697469616C207072697A6520706F6F6C00 PUSH0 DUP3 ADD MSTORE POP JUMP JUMPDEST PUSH0 PUSH2 0x25A PUSH1 0x1F DUP4 PUSH2 0x216 JUMP JUMPDEST SWAP2 POP PUSH2 0x265 DUP3 PUSH2 0x226 JUMP JUMPDEST PUSH1 0x20 DUP3 ADD SWAP1 POP SWAP2 SWAP1 POP JUMP JUMPDEST PUSH0 PUSH1 0x20 DUP3 ADD SWAP1 POP DUP2 DUP2 SUB PUSH0 DUP4 ADD MSTORE PUSH2 0x287 DUP2 PUSH2 0x24E JUMP JUMPDEST SWAP1 POP SWAP2 SWAP1 POP JUMP JUMPDEST PUSH2 0x297 DUP2 PUSH2 0x14D JUMP JUMPDEST DUP3 MSTORE POP POP JUMP JUMPDEST PUSH0 PUSH1 0x60 DUP3 ADD SWAP1 POP PUSH2 0x2B0 PUSH0 DUP4 ADD DUP7 PUSH2 0x1EE JUMP JUMPDEST PUSH2 0x2BD PUSH1 0x20 DUP4 ADD DUP6 PUSH2 0x28E JUMP JUMPDEST PUSH2 0x2CA PUSH1 0x40 DUP4 ADD DUP5 PUSH2 0x28E JUMP JUMPDEST SWAP5 SWAP4 POP POP POP POP JUMP JUMPDEST PUSH0 PUSH1 0x20 DUP3 ADD SWAP1 POP PUSH2 0x2E5 PUSH0 DUP4 ADD DUP5 PUSH2 0x28E JUMP JUMPDEST SWAP3 SWAP2 POP POP JUMP INVALID PUSH1 0x80 PUSH1 0x40 MSTORE PUSH1 0x40 MLOAD PUSH3 0x130D CODESIZE SUB DUP1 PUSH3 0x130D DUP4 CODECOPY DUP2 DUP2 ADD PUSH1 0x40 MSTORE DUP2 ADD SWAP1 PUSH3 0x29 SWAP2 SWAP1 PUSH3 0x11C JUMP JUMPDEST DUP3 PUSH0 DUP1 PUSH2 0x100 EXP DUP2 SLOAD DUP2 PUSH20 0xFFFFFFFFFFFFFFFFFFFFFFFFFFFFFFFFFFFFFFFF MUL NOT AND SWAP1 DUP4 PUSH20 0xFFFFFFFFFFFFFFFFFFFFFFFFFFFFFFFFFFFFFFFF AND MUL OR SWAP1 SSTORE POP DUP2 PUSH1 0x1 DUP2 SWAP1 SSTORE POP DUP1 PUSH1 0x2 DUP2 SWAP1 SSTORE POP POP POP POP PUSH3 0x175 JUMP JUMPDEST PUSH0 DUP1 REVERT JUMPDEST PUSH0 PUSH20 0xFFFFFFFFFFFFFFFFFFFFFFFFFFFFFFFFFFFFFFFF DUP3 AND SWAP1 POP SWAP2 SWAP1 POP JUMP JUMPDEST PUSH0 PUSH3 0xAE DUP3 PUSH3 0x83 JUMP JUMPDEST SWAP1 POP SWAP2 SWAP1 POP JUMP JUMPDEST PUSH3 0xC0 DUP2 PUSH3 0xA2 JUMP JUMPDEST DUP2 EQ PUSH3 0xCB JUMPI PUSH0 DUP1 REVERT JUMPDEST POP JUMP JUMPDEST PUSH0 DUP2 MLOAD SWAP1 POP PUSH3 0xDE DUP2 PUSH3 0xB5 JUMP JUMPDEST SWAP3 SWAP2 POP POP JUMP JUMPDEST PUSH0 DUP2 SWAP1 POP SWAP2 SWAP1 POP JUMP JUMPDEST PUSH3 0xF8 DUP2 PUSH3 0xE4 JUMP JUMPDEST DUP2 EQ PUSH3 0x103 JUMPI PUSH0 DUP1 REVERT JUMPDEST POP JUMP JUMPDEST PUSH0 DUP2 MLOAD SWAP1 POP PUSH3 0x116 DUP2 PUSH3 0xED JUMP JUMPDEST SWAP3 SWAP2 POP POP JUMP JUMPDEST PUSH0 DUP1 PUSH0 PUSH1 0x60 DUP5 DUP7 SUB SLT ISZERO PUSH3 0x136 JUMPI PUSH3 0x135 PUSH3 0x7F JUMP JUMPDEST JUMPDEST PUSH0 PUSH3 0x145 DUP7 DUP3 DUP8 ADD PUSH3 0xCE JUMP JUMPDEST SWAP4 POP POP PUSH1 0x20 PUSH3 0x158 DUP7 DUP3 DUP8 ADD PUSH3 0x106 JUMP JUMPDEST SWAP3 POP POP PUSH1 0x40 PUSH3 0x16B DUP7 DUP3 DUP8 ADD PUSH3 0x106 JUMP JUMPDEST SWAP2 POP POP SWAP3 POP SWAP3 POP SWAP3 JUMP JUMPDEST PUSH2 0x118A DUP1 PUSH3 0x183 PUSH0 CODECOPY PUSH0 RETURN INVALID PUSH1 0x80 PUSH1 0x40 MSTORE PUSH1 0x4 CALLDATASIZE LT PUSH2 0x7A JUMPI PUSH0 CALLDATALOAD PUSH1 0xE0 SHR DUP1 PUSH4 0x76DD110F GT PUSH2 0x4D JUMPI DUP1 PUSH4 0x76DD110F EQ PUSH2 0x118 JUMPI DUP1 PUSH4 0x7CE52EB6 EQ PUSH2 0x154 JUMPI DUP1 PUSH4 0xAFF0B297 EQ PUSH2 0x16A JUMPI DUP1 PUSH4 0xF437BC59 EQ PUSH2 0x192 JUMPI PUSH2 0x7A JUMP JUMPDEST DUP1 PUSH4 0x72EA61C EQ PUSH2 0x7E JUMPI DUP1 PUSH4 0x35C1D349 EQ PUSH2 0xA8 JUMPI DUP1 PUSH4 0x5B796E44 EQ PUSH2 0xE4 JUMPI DUP1 PUSH4 0x719CE73E EQ PUSH2 0xEE JUMPI JUMPDEST PUSH0 DUP1 REVERT JUMPDEST CALLVALUE DUP1 ISZERO PUSH2 0x89 JUMPI PUSH0 DUP1 REVERT JUMPDEST POP PUSH2 0x92 PUSH2 0x1BC JUMP JUMPDEST PUSH1 0x40 MLOAD PUSH2 0x9F SWAP2 SWAP1 PUSH2 0xBFD JUMP JUMPDEST PUSH1 0x40 MLOAD DUP1 SWAP2 SUB SWAP1 RETURN JUMPDEST CALLVALUE DUP1 ISZERO PUSH2 0xB3 JUMPI PUSH0 DUP1 REVERT JUMPDEST POP PUSH2 0xCE PUSH1 0x4 DUP1 CALLDATASIZE SUB DUP2 ADD SWAP1 PUSH2 0xC9 SWAP2 SWAP1 PUSH2 0xC44 JUMP JUMPDEST PUSH2 0x1C2 JUMP JUMPDEST PUSH1 0x40 MLOAD PUSH2 0xDB SWAP2 SWAP1 PUSH2 0xCAE JUMP JUMPDEST PUSH1 0x40 MLOAD DUP1 SWAP2 SUB SWAP1 RETURN JUMPDEST PUSH2 0xEC PUSH2 0x1FD JUMP JUMPDEST STOP JUMPDEST CALLVALUE DUP1 ISZERO PUSH2 0xF9 JUMPI PUSH0 DUP1 REVERT JUMPDEST POP PUSH2 0x102 PUSH2 0x370 JUMP JUMPDEST PUSH1 0x40 MLOAD PUSH2 0x10F SWAP2 SWAP1 PUSH2 0xBFD JUMP JUMPDEST PUSH1 0x40 MLOAD DUP1 SWAP2 SUB SWAP1 RETURN JUMPDEST CALLVALUE DUP1 ISZERO PUSH2 0x123 JUMPI PUSH0 DUP1 REVERT JUMPDEST POP PUSH2 0x13E PUSH1 0x4 DUP1 CALLDATASIZE SUB DUP2 ADD SWAP1 PUSH2 0x139 SWAP2 SWAP1 PUSH2 0xCF1 JUMP JUMPDEST PUSH2 0x376 JUMP JUMPDEST PUSH1 0x40 MLOAD PUSH2 0x14B SWAP2 SWAP1 PUSH2 0xBFD JUMP JUMPDEST PUSH1 0x40 MLOAD DUP1 SWAP2 SUB SWAP1 RETURN JUMPDEST CALLVALUE DUP1 ISZERO PUSH2 0x15F JUMPI PUSH0 DUP1 REVERT JUMPDEST POP PUSH2 0x168 PUSH2 0x38B JUMP JUMPDEST STOP JUMPDEST CALLVALUE DUP1 ISZERO PUSH2 0x175 JUMPI PUSH0 DUP1 REVERT JUMPDEST POP PUSH2 0x190 PUSH1 0x4 DUP1 CALLDATASIZE SUB DUP2 ADD SWAP1 PUSH2 0x18B SWAP2 SWAP1 PUSH2 0xC44 JUMP JUMPDEST PUSH2 0xA6C JUMP JUMPDEST STOP JUMPDEST CALLVALUE DUP1 ISZERO PUSH2 0x19D JUMPI PUSH0 DUP1 REVERT JUMPDEST POP PUSH2 0x1A6 PUSH2 0xB7E JUMP JUMPDEST PUSH1 0x40 MLOAD PUSH2 0x1B3 SWAP2 SWAP1 PUSH2 0xCAE JUMP JUMPDEST PUSH1 0x40 MLOAD DUP1 SWAP2 SUB SWAP1 RETURN JUMPDEST PUSH1 0x1 SLOAD DUP2 JUMP JUMPDEST PUSH1 0x4 DUP2 DUP2 SLOAD DUP2 LT PUSH2 0x1D1 JUMPI PUSH0 DUP1 REVERT JUMPDEST SWAP1 PUSH0 MSTORE PUSH1 0x20 PUSH0 KECCAK256 ADD PUSH0 SWAP2 POP SLOAD SWAP1 PUSH2 0x100 EXP SWAP1 DIV PUSH20 0xFFFFFFFFFFFFFFFFFFFFFFFFFFFFFFFFFFFFFFFF AND DUP2 JUMP JUMPDEST PUSH1 0x1 SLOAD CALLVALUE EQ PUSH2 0x241 JUMPI PUSH1 0x40 MLOAD PUSH32 0x8C379A000000000000000000000000000000000000000000000000000000000 DUP2 MSTORE PUSH1 0x4 ADD PUSH2 0x238 SWAP1 PUSH2 0xD76 JUMP JUMPDEST PUSH1 0x40 MLOAD DUP1 SWAP2 SUB SWAP1 REVERT JUMPDEST PUSH0 PUSH1 0x3 PUSH0 CALLER PUSH20 0xFFFFFFFFFFFFFFFFFFFFFFFFFFFFFFFFFFFFFFFF AND PUSH20 0xFFFFFFFFFFFFFFFFFFFFFFFFFFFFFFFFFFFFFFFF AND DUP2 MSTORE PUSH1 0x20 ADD SWAP1 DUP2 MSTORE PUSH1 0x20 ADD PUSH0 KECCAK256 SLOAD EQ PUSH2 0x2C0 JUMPI PUSH1 0x40 MLOAD PUSH32 0x8C379A000000000000000000000000000000000000000000000000000000000 DUP2 MSTORE PUSH1 0x4 ADD PUSH2 0x2B7 SWAP1 PUSH2 0xDDE JUMP JUMPDEST PUSH1 0x40 MLOAD DUP1 SWAP2 SUB SWAP1 REVERT JUMPDEST PUSH1 0x4 CALLER SWAP1 DUP1 PUSH1 0x1 DUP2 SLOAD ADD DUP1 DUP3 SSTORE DUP1 SWAP2 POP POP PUSH1 0x1 SWAP1 SUB SWAP1 PUSH0 MSTORE PUSH1 0x20 PUSH0 KECCAK256 ADD PUSH0 SWAP1 SWAP2 SWAP1 SWAP2 SWAP1 SWAP2 PUSH2 0x100 EXP DUP2 SLOAD DUP2 PUSH20 0xFFFFFFFFFFFFFFFFFFFFFFFFFFFFFFFFFFFFFFFF MUL NOT AND SWAP1 DUP4 PUSH20 0xFFFFFFFFFFFFFFFFFFFFFFFFFFFFFFFFFFFFFFFF AND MUL OR SWAP1 SSTORE POP CALLER PUSH20 0xFFFFFFFFFFFFFFFFFFFFFFFFFFFFFFFFFFFFFFFF AND PUSH32 0x9211E85C505F78A7153AC4EA4ED0458D1F7C324B15ADC37A02FFACBE5045B699 PUSH0 PUSH1 0x40 MLOAD PUSH2 0x366 SWAP2 SWAP1 PUSH2 0xE3E JUMP JUMPDEST PUSH1 0x40 MLOAD DUP1 SWAP2 SUB SWAP1 LOG2 JUMP JUMPDEST PUSH1 0x2 SLOAD DUP2 JUMP JUMPDEST PUSH1 0x3 PUSH1 0x20 MSTORE DUP1 PUSH0 MSTORE PUSH1 0x40 PUSH0 KECCAK256 PUSH0 SWAP2 POP SWAP1 POP SLOAD DUP2 JUMP JUMPDEST PUSH0 DUP1 SLOAD SWAP1 PUSH2 0x100 EXP SWAP1 DIV PUSH20 0xFFFFFFFFFFFFFFFFFFFFFFFFFFFFFFFFFFFFFFFF AND PUSH20 0xFFFFFFFFFFFFFFFFFFFFFFFFFFFFFFFFFFFFFFFF AND CALLER PUSH20 0xFFFFFFFFFFFFFFFFFFFFFFFFFFFFFFFFFFFFFFFF AND EQ PUSH2 0x418 JUMPI PUSH1 0x40 MLOAD PUSH32 0x8C379A000000000000000000000000000000000000000000000000000000000 DUP2 MSTORE PUSH1 0x4 ADD PUSH2 0x40F SWAP1 PUSH2 0xEC7 JUMP JUMPDEST PUSH1 0x40 MLOAD DUP1 SWAP2 SUB SWAP1 REVERT JUMPDEST PUSH0 PUSH1 0x4 DUP1 SLOAD SWAP1 POP SWAP1 POP PUSH0 DUP2 GT PUSH2 0x463 JUMPI PUSH1 0x40 MLOAD PUSH32 0x8C379A000000000000000000000000000000000000000000000000000000000 DUP2 MSTORE PUSH1 0x4 ADD PUSH2 0x45A SWAP1 PUSH2 0xF2F JUMP JUMPDEST PUSH1 0x40 MLOAD DUP1 SWAP2 SUB SWAP1 REVERT JUMPDEST PUSH2 0x46B PUSH2 0xBA1 JUMP JUMPDEST PUSH2 0x473 PUSH2 0xBC3 JUMP JUMPDEST PUSH0 JUMPDEST PUSH1 0x3 DUP2 LT ISZERO PUSH2 0x819 JUMPI PUSH0 DUP1 DUP1 PUSH0 SWAP1 POP JUMPDEST PUSH1 0x4 DUP1 SLOAD SWAP1 POP DUP2 LT ISZERO PUSH2 0x5DF JUMPI DUP3 PUSH1 0x3 PUSH0 PUSH1 0x4 DUP5 DUP2 SLOAD DUP2 LT PUSH2 0x4AA JUMPI PUSH2 0x4A9 PUSH2 0xF4D JUMP JUMPDEST JUMPDEST SWAP1 PUSH0 MSTORE PUSH1 0x20 PUSH0 KECCAK256 ADD PUSH0 SWAP1 SLOAD SWAP1 PUSH2 0x100 EXP SWAP1 DIV PUSH20 0xFFFFFFFFFFFFFFFFFFFFFFFFFFFFFFFFFFFFFFFF AND PUSH20 0xFFFFFFFFFFFFFFFFFFFFFFFFFFFFFFFFFFFFFFFF AND PUSH20 0xFFFFFFFFFFFFFFFFFFFFFFFFFFFFFFFFFFFFFFFF AND DUP2 MSTORE PUSH1 0x20 ADD SWAP1 DUP2 MSTORE PUSH1 0x20 ADD PUSH0 KECCAK256 SLOAD GT ISZERO PUSH2 0x5CC JUMPI PUSH1 0x3 PUSH0 PUSH1 0x4 DUP4 DUP2 SLOAD DUP2 LT PUSH2 0x529 JUMPI PUSH2 0x528 PUSH2 0xF4D JUMP JUMPDEST JUMPDEST SWAP1 PUSH0 MSTORE PUSH1 0x20 PUSH0 KECCAK256 ADD PUSH0 SWAP1 SLOAD SWAP1 PUSH2 0x100 EXP SWAP1 DIV PUSH20 0xFFFFFFFFFFFFFFFFFFFFFFFFFFFFFFFFFFFFFFFF AND PUSH20 0xFFFFFFFFFFFFFFFFFFFFFFFFFFFFFFFFFFFFFFFF AND PUSH20 0xFFFFFFFFFFFFFFFFFFFFFFFFFFFFFFFFFFFFFFFF AND DUP2 MSTORE PUSH1 0x20 ADD SWAP1 DUP2 MSTORE PUSH1 0x20 ADD PUSH0 KECCAK256 SLOAD SWAP3 POP PUSH1 0x4 DUP2 DUP2 SLOAD DUP2 LT PUSH2 0x5A1 JUMPI PUSH2 0x5A0 PUSH2 0xF4D JUMP JUMPDEST JUMPDEST SWAP1 PUSH0 MSTORE PUSH1 0x20 PUSH0 KECCAK256 ADD PUSH0 SWAP1 SLOAD SWAP1 PUSH2 0x100 EXP SWAP1 DIV PUSH20 0xFFFFFFFFFFFFFFFFFFFFFFFFFFFFFFFFFFFFFFFF AND SWAP2 POP JUMPDEST DUP1 DUP1 PUSH2 0x5D7 SWAP1 PUSH2 0xFA7 JUMP JUMPDEST SWAP2 POP POP PUSH2 0x485 JUMP JUMPDEST POP DUP1 DUP6 DUP5 PUSH1 0x3 DUP2 LT PUSH2 0x5F4 JUMPI PUSH2 0x5F3 PUSH2 0xF4D JUMP JUMPDEST JUMPDEST PUSH1 0x20 MUL ADD SWAP1 PUSH20 0xFFFFFFFFFFFFFFFFFFFFFFFFFFFFFFFFFFFFFFFF AND SWAP1 DUP2 PUSH20 0xFFFFFFFFFFFFFFFFFFFFFFFFFFFFFFFFFFFFFFFF AND DUP2 MSTORE POP POP PUSH1 0x64 PUSH0 DUP5 EQ PUSH2 0x64B JUMPI PUSH1 0x1 DUP5 EQ PUSH2 0x643 JUMPI PUSH1 0x14 PUSH2 0x646 JUMP JUMPDEST PUSH1 0x1E JUMPDEST PUSH2 0x64E JUMP JUMPDEST PUSH1 0x32 JUMPDEST PUSH1 0xFF AND PUSH1 0x2 SLOAD PUSH2 0x65E SWAP2 SWAP1 PUSH2 0xFEE JUMP JUMPDEST PUSH2 0x668 SWAP2 SWAP1 PUSH2 0x105C JUMP JUMPDEST DUP5 DUP5 PUSH1 0x3 DUP2 LT PUSH2 0x67B JUMPI PUSH2 0x67A PUSH2 0xF4D JUMP JUMPDEST JUMPDEST PUSH1 0x20 MUL ADD DUP2 DUP2 MSTORE POP POP PUSH0 JUMPDEST PUSH1 0x4 DUP1 SLOAD SWAP1 POP DUP2 LT ISZERO PUSH2 0x803 JUMPI DUP2 PUSH20 0xFFFFFFFFFFFFFFFFFFFFFFFFFFFFFFFFFFFFFFFF AND PUSH1 0x4 DUP3 DUP2 SLOAD DUP2 LT PUSH2 0x6BE JUMPI PUSH2 0x6BD PUSH2 0xF4D JUMP JUMPDEST JUMPDEST SWAP1 PUSH0 MSTORE PUSH1 0x20 PUSH0 KECCAK256 ADD PUSH0 SWAP1 SLOAD SWAP1 PUSH2 0x100 EXP SWAP1 DIV PUSH20 0xFFFFFFFFFFFFFFFFFFFFFFFFFFFFFFFFFFFFFFFF AND PUSH20 0xFFFFFFFFFFFFFFFFFFFFFFFFFFFFFFFFFFFFFFFF AND SUB PUSH2 0x7F0 JUMPI PUSH1 0x4 PUSH1 0x1 PUSH1 0x4 DUP1 SLOAD SWAP1 POP PUSH2 0x715 SWAP2 SWAP1 PUSH2 0x108C JUMP JUMPDEST DUP2 SLOAD DUP2 LT PUSH2 0x726 JUMPI PUSH2 0x725 PUSH2 0xF4D JUMP JUMPDEST JUMPDEST SWAP1 PUSH0 MSTORE PUSH1 0x20 PUSH0 KECCAK256 ADD PUSH0 SWAP1 SLOAD SWAP1 PUSH2 0x100 EXP SWAP1 DIV PUSH20 0xFFFFFFFFFFFFFFFFFFFFFFFFFFFFFFFFFFFFFFFF AND PUSH1 0x4 DUP3 DUP2 SLOAD DUP2 LT PUSH2 0x762 JUMPI PUSH2 0x761 PUSH2 0xF4D JUMP JUMPDEST JUMPDEST SWAP1 PUSH0 MSTORE PUSH1 0x20 PUSH0 KECCAK256 ADD PUSH0 PUSH2 0x100 EXP DUP2 SLOAD DUP2 PUSH20 0xFFFFFFFFFFFFFFFFFFFFFFFFFFFFFFFFFFFFFFFF MUL NOT AND SWAP1 DUP4 PUSH20 0xFFFFFFFFFFFFFFFFFFFFFFFFFFFFFFFFFFFFFFFF AND MUL OR SWAP1 SSTORE POP PUSH1 0x4 DUP1 SLOAD DUP1 PUSH2 0x7B9 JUMPI PUSH2 0x7B8 PUSH2 0x10BF JUMP JUMPDEST JUMPDEST PUSH1 0x1 SWAP1 SUB DUP2 DUP2 SWAP1 PUSH0 MSTORE PUSH1 0x20 PUSH0 KECCAK256 ADD PUSH0 PUSH2 0x100 EXP DUP2 SLOAD SWAP1 PUSH20 0xFFFFFFFFFFFFFFFFFFFFFFFFFFFFFFFFFFFFFFFF MUL NOT AND SWAP1 SSTORE SWAP1 SSTORE PUSH2 0x803 JUMP JUMPDEST DUP1 DUP1 PUSH2 0x7FB SWAP1 PUSH2 0xFA7 JUMP JUMPDEST SWAP2 POP POP PUSH2 0x686 JUMP JUMPDEST POP POP POP DUP1 DUP1 PUSH2 0x811 SWAP1 PUSH2 0xFA7 JUMP JUMPDEST SWAP2 POP POP PUSH2 0x475 JUMP JUMPDEST POP PUSH0 PUSH1 0x64 PUSH1 0x5 PUSH1 0x2 SLOAD PUSH2 0x82C SWAP2 SWAP1 PUSH2 0xFEE JUMP JUMPDEST PUSH2 0x836 SWAP2 SWAP1 PUSH2 0x105C JUMP JUMPDEST SWAP1 POP ADDRESS PUSH20 0xFFFFFFFFFFFFFFFFFFFFFFFFFFFFFFFFFFFFFFFF AND PUSH2 0x8FC DUP3 SWAP1 DUP2 ISZERO MUL SWAP1 PUSH1 0x40 MLOAD PUSH0 PUSH1 0x40 MLOAD DUP1 DUP4 SUB DUP2 DUP6 DUP9 DUP9 CALL SWAP4 POP POP POP POP ISZERO DUP1 ISZERO PUSH2 0x87B JUMPI RETURNDATASIZE PUSH0 DUP1 RETURNDATACOPY RETURNDATASIZE PUSH0 REVERT JUMPDEST POP PUSH0 JUMPDEST PUSH1 0x3 DUP2 LT ISZERO PUSH2 0x988 JUMPI DUP4 DUP2 PUSH1 0x3 DUP2 LT PUSH2 0x89A JUMPI PUSH2 0x899 PUSH2 0xF4D JUMP JUMPDEST JUMPDEST PUSH1 0x20 MUL ADD MLOAD PUSH20 0xFFFFFFFFFFFFFFFFFFFFFFFFFFFFFFFFFFFFFFFF AND PUSH2 0x8FC DUP5 DUP4 PUSH1 0x3 DUP2 LT PUSH2 0x8CB JUMPI PUSH2 0x8CA PUSH2 0xF4D JUMP JUMPDEST JUMPDEST PUSH1 0x20 MUL ADD MLOAD SWAP1 DUP2 ISZERO MUL SWAP1 PUSH1 0x40 MLOAD PUSH0 PUSH1 0x40 MLOAD DUP1 DUP4 SUB DUP2 DUP6 DUP9 DUP9 CALL SWAP4 POP POP POP POP ISZERO DUP1 ISZERO PUSH2 0x8F8 JUMPI RETURNDATASIZE PUSH0 DUP1 RETURNDATACOPY RETURNDATASIZE PUSH0 REVERT JUMPDEST POP DUP4 DUP2 PUSH1 0x3 DUP2 LT PUSH2 0x90C JUMPI PUSH2 0x90B PUSH2 0xF4D JUMP JUMPDEST JUMPDEST PUSH1 0x20 MUL ADD MLOAD PUSH20 0xFFFFFFFFFFFFFFFFFFFFFFFFFFFFFFFFFFFFFFFF AND PUSH32 0xB8E091D87F82E56D22276C9A0088EA5D6068E355383DC08B2721B7B6CB10E845 DUP5 DUP4 PUSH1 0x3 DUP2 LT PUSH2 0x95B JUMPI PUSH2 0x95A PUSH2 0xF4D JUMP JUMPDEST JUMPDEST PUSH1 0x20 MUL ADD MLOAD PUSH1 0x40 MLOAD PUSH2 0x96D SWAP2 SWAP1 PUSH2 0xBFD JUMP JUMPDEST PUSH1 0x40 MLOAD DUP1 SWAP2 SUB SWAP1 LOG2 DUP1 DUP1 PUSH2 0x980 SWAP1 PUSH2 0xFA7 JUMP JUMPDEST SWAP2 POP POP PUSH2 0x87E JUMP JUMPDEST POP PUSH0 DUP3 PUSH1 0x2 PUSH1 0x3 DUP2 LT PUSH2 0x99E JUMPI PUSH2 0x99D PUSH2 0xF4D JUMP JUMPDEST JUMPDEST PUSH1 0x20 MUL ADD MLOAD DUP4 PUSH1 0x1 PUSH1 0x3 DUP2 LT PUSH2 0x9B7 JUMPI PUSH2 0x9B6 PUSH2 0xF4D JUMP JUMPDEST JUMPDEST PUSH1 0x20 MUL ADD MLOAD DUP5 PUSH0 PUSH1 0x3 DUP2 LT PUSH2 0x9CF JUMPI PUSH2 0x9CE PUSH2 0xF4D JUMP JUMPDEST JUMPDEST PUSH1 0x20 MUL ADD MLOAD DUP5 PUSH1 0x2 SLOAD PUSH2 0x9E2 SWAP2 SWAP1 PUSH2 0x108C JUMP JUMPDEST PUSH2 0x9EC SWAP2 SWAP1 PUSH2 0x108C JUMP JUMPDEST PUSH2 0x9F6 SWAP2 SWAP1 PUSH2 0x108C JUMP JUMPDEST PUSH2 0xA00 SWAP2 SWAP1 PUSH2 0x108C JUMP JUMPDEST SWAP1 POP PUSH0 DUP1 SLOAD SWAP1 PUSH2 0x100 EXP SWAP1 DIV PUSH20 0xFFFFFFFFFFFFFFFFFFFFFFFFFFFFFFFFFFFFFFFF AND PUSH20 0xFFFFFFFFFFFFFFFFFFFFFFFFFFFFFFFFFFFFFFFF AND PUSH2 0x8FC DUP3 SWAP1 DUP2 ISZERO MUL SWAP1 PUSH1 0x40 MLOAD PUSH0 PUSH1 0x40 MLOAD DUP1 DUP4 SUB DUP2 DUP6 DUP9 DUP9 CALL SWAP4 POP POP POP POP ISZERO DUP1 ISZERO PUSH2 0xA64 JUMPI RETURNDATASIZE PUSH0 DUP1 RETURNDATACOPY RETURNDATASIZE PUSH0 REVERT JUMPDEST POP POP POP POP POP POP JUMP JUMPDEST PUSH0 PUSH1 0x3 PUSH0 CALLER PUSH20 0xFFFFFFFFFFFFFFFFFFFFFFFFFFFFFFFFFFFFFFFF AND PUSH20 0xFFFFFFFFFFFFFFFFFFFFFFFFFFFFFFFFFFFFFFFF AND DUP2 MSTORE PUSH1 0x20 ADD SWAP1 DUP2 MSTORE PUSH1 0x20 ADD PUSH0 KECCAK256 SLOAD EQ PUSH2 0xAEB JUMPI PUSH1 0x40 MLOAD PUSH32 0x8C379A000000000000000000000000000000000000000000000000000000000 DUP2 MSTORE PUSH1 0x4 ADD PUSH2 0xAE2 SWAP1 PUSH2 0x1136 JUMP JUMPDEST PUSH1 0x40 MLOAD DUP1 SWAP2 SUB SWAP1 REVERT JUMPDEST DUP1 PUSH1 0x3 PUSH0 CALLER PUSH20 0xFFFFFFFFFFFFFFFFFFFFFFFFFFFFFFFFFFFFFFFF AND PUSH20 0xFFFFFFFFFFFFFFFFFFFFFFFFFFFFFFFFFFFFFFFF AND DUP2 MSTORE PUSH1 0x20 ADD SWAP1 DUP2 MSTORE PUSH1 0x20 ADD PUSH0 KECCAK256 DUP2 SWAP1 SSTORE POP CALLER PUSH20 0xFFFFFFFFFFFFFFFFFFFFFFFFFFFFFFFFFFFFFFFF AND PUSH32 0x9211E85C505F78A7153AC4EA4ED0458D1F7C324B15ADC37A02FFACBE5045B699 DUP3 PUSH1 0x40 MLOAD PUSH2 0xB73 SWAP2 SWAP1 PUSH2 0xBFD JUMP JUMPDEST PUSH1 0x40 MLOAD DUP1 SWAP2 SUB SWAP1 LOG2 POP JUMP JUMPDEST PUSH0 DUP1 SLOAD SWAP1 PUSH2 0x100 EXP SWAP1 DIV PUSH20 0xFFFFFFFFFFFFFFFFFFFFFFFFFFFFFFFFFFFFFFFF AND DUP2 JUMP JUMPDEST PUSH1 0x40 MLOAD DUP1 PUSH1 0x60 ADD PUSH1 0x40 MSTORE DUP1 PUSH1 0x3 SWAP1 PUSH1 0x20 DUP3 MUL DUP1 CALLDATASIZE DUP4 CALLDATACOPY DUP1 DUP3 ADD SWAP2 POP POP SWAP1 POP POP SWAP1 JUMP JUMPDEST PUSH1 0x40 MLOAD DUP1 PUSH1 0x60 ADD PUSH1 0x40 MSTORE DUP1 PUSH1 0x3 SWAP1 PUSH1 0x20 DUP3 MUL DUP1 CALLDATASIZE DUP4 CALLDATACOPY DUP1 DUP3 ADD SWAP2 POP POP SWAP1 POP POP SWAP1 JUMP JUMPDEST PUSH0 DUP2 SWAP1 POP SWAP2 SWAP1 POP JUMP JUMPDEST PUSH2 0xBF7 DUP2 PUSH2 0xBE5 JUMP JUMPDEST DUP3 MSTORE POP POP JUMP JUMPDEST PUSH0 PUSH1 0x20 DUP3 ADD SWAP1 POP PUSH2 0xC10 PUSH0 DUP4 ADD DUP5 PUSH2 0xBEE JUMP JUMPDEST SWAP3 SWAP2 POP POP JUMP JUMPDEST PUSH0 DUP1 REVERT JUMPDEST PUSH2 0xC23 DUP2 PUSH2 0xBE5 JUMP JUMPDEST DUP2 EQ PUSH2 0xC2D JUMPI PUSH0 DUP1 REVERT JUMPDEST POP JUMP JUMPDEST PUSH0 DUP2 CALLDATALOAD SWAP1 POP PUSH2 0xC3E DUP2 PUSH2 0xC1A JUMP JUMPDEST SWAP3 SWAP2 POP POP JUMP JUMPDEST PUSH0 PUSH1 0x20 DUP3 DUP5 SUB SLT ISZERO PUSH2 0xC59 JUMPI PUSH2 0xC58 PUSH2 0xC16 JUMP JUMPDEST JUMPDEST PUSH0 PUSH2 0xC66 DUP5 DUP3 DUP6 ADD PUSH2 0xC30 JUMP JUMPDEST SWAP2 POP POP SWAP3 SWAP2 POP POP JUMP JUMPDEST PUSH0 PUSH20 0xFFFFFFFFFFFFFFFFFFFFFFFFFFFFFFFFFFFFFFFF DUP3 AND SWAP1 POP SWAP2 SWAP1 POP JUMP JUMPDEST PUSH0 PUSH2 0xC98 DUP3 PUSH2 0xC6F JUMP JUMPDEST SWAP1 POP SWAP2 SWAP1 POP JUMP JUMPDEST PUSH2 0xCA8 DUP2 PUSH2 0xC8E JUMP JUMPDEST DUP3 MSTORE POP POP JUMP JUMPDEST PUSH0 PUSH1 0x20 DUP3 ADD SWAP1 POP PUSH2 0xCC1 PUSH0 DUP4 ADD DUP5 PUSH2 0xC9F JUMP JUMPDEST SWAP3 SWAP2 POP POP JUMP JUMPDEST PUSH2 0xCD0 DUP2 PUSH2 0xC8E JUMP JUMPDEST DUP2 EQ PUSH2 0xCDA JUMPI PUSH0 DUP1 REVERT JUMPDEST POP JUMP JUMPDEST PUSH0 DUP2 CALLDATALOAD SWAP1 POP PUSH2 0xCEB DUP2 PUSH2 0xCC7 JUMP JUMPDEST SWAP3 SWAP2 POP POP JUMP JUMPDEST PUSH0 PUSH1 0x20 DUP3 DUP5 SUB SLT ISZERO PUSH2 0xD06 JUMPI PUSH2 0xD05 PUSH2 0xC16 JUMP JUMPDEST JUMPDEST PUSH0 PUSH2 0xD13 DUP5 DUP3 DUP6 ADD PUSH2 0xCDD JUMP JUMPDEST SWAP2 POP POP SWAP3 SWAP2 POP POP JUMP JUMPDEST PUSH0 DUP3 DUP3 MSTORE PUSH1 0x20 DUP3 ADD SWAP1 POP SWAP3 SWAP2 POP POP JUMP JUMPDEST PUSH32 0x496E636F727265637420656E7472792066656500000000000000000000000000 PUSH0 DUP3 ADD MSTORE POP JUMP JUMPDEST PUSH0 PUSH2 0xD60 PUSH1 0x13 DUP4 PUSH2 0xD1C JUMP JUMPDEST SWAP2 POP PUSH2 0xD6B DUP3 PUSH2 0xD2C JUMP JUMPDEST PUSH1 0x20 DUP3 ADD SWAP1 POP SWAP2 SWAP1 POP JUMP JUMPDEST PUSH0 PUSH1 0x20 DUP3 ADD SWAP1 POP DUP2 DUP2 SUB PUSH0 DUP4 ADD MSTORE PUSH2 0xD8D DUP2 PUSH2 0xD54 JUMP JUMPDEST SWAP1 POP SWAP2 SWAP1 POP JUMP JUMPDEST PUSH32 0x596F7527766520616C726561647920656E746572656420746865207175697A00 PUSH0 DUP3 ADD MSTORE POP JUMP JUMPDEST PUSH0 PUSH2 0xDC8 PUSH1 0x1F DUP4 PUSH2 0xD1C JUMP JUMPDEST SWAP2 POP PUSH2 0xDD3 DUP3 PUSH2 0xD94 JUMP JUMPDEST PUSH1 0x20 DUP3 ADD SWAP1 POP SWAP2 SWAP1 POP JUMP JUMPDEST PUSH0 PUSH1 0x20 DUP3 ADD SWAP1 POP DUP2 DUP2 SUB PUSH0 DUP4 ADD MSTORE PUSH2 0xDF5 DUP2 PUSH2 0xDBC JUMP JUMPDEST SWAP1 POP SWAP2 SWAP1 POP JUMP JUMPDEST PUSH0 DUP2 SWAP1 POP SWAP2 SWAP1 POP JUMP JUMPDEST PUSH0 DUP2 SWAP1 POP SWAP2 SWAP1 POP JUMP JUMPDEST PUSH0 PUSH2 0xE28 PUSH2 0xE23 PUSH2 0xE1E DUP5 PUSH2 0xDFC JUMP JUMPDEST PUSH2 0xE05 JUMP JUMPDEST PUSH2 0xBE5 JUMP JUMPDEST SWAP1 POP SWAP2 SWAP1 POP JUMP JUMPDEST PUSH2 0xE38 DUP2 PUSH2 0xE0E JUMP JUMPDEST DUP3 MSTORE POP POP JUMP JUMPDEST PUSH0 PUSH1 0x20 DUP3 ADD SWAP1 POP PUSH2 0xE51 PUSH0 DUP4 ADD DUP5 PUSH2 0xE2F JUMP JUMPDEST SWAP3 SWAP2 POP POP JUMP JUMPDEST PUSH32 0x4F6E6C792074686520686F73742063616E206469737472696275746520707269 PUSH0 DUP3 ADD MSTORE PUSH32 0x7A65730000000000000000000000000000000000000000000000000000000000 PUSH1 0x20 DUP3 ADD MSTORE POP JUMP JUMPDEST PUSH0 PUSH2 0xEB1 PUSH1 0x23 DUP4 PUSH2 0xD1C JUMP JUMPDEST SWAP2 POP PUSH2 0xEBC DUP3 PUSH2 0xE57 JUMP JUMPDEST PUSH1 0x40 DUP3 ADD SWAP1 POP SWAP2 SWAP1 POP JUMP JUMPDEST PUSH0 PUSH1 0x20 DUP3 ADD SWAP1 POP DUP2 DUP2 SUB PUSH0 DUP4 ADD MSTORE PUSH2 0xEDE DUP2 PUSH2 0xEA5 JUMP JUMPDEST SWAP1 POP SWAP2 SWAP1 POP JUMP JUMPDEST PUSH32 0x4E6F207061727469636970616E74730000000000000000000000000000000000 PUSH0 DUP3 ADD MSTORE POP JUMP JUMPDEST PUSH0 PUSH2 0xF19 PUSH1 0xF DUP4 PUSH2 0xD1C JUMP JUMPDEST SWAP2 POP PUSH2 0xF24 DUP3 PUSH2 0xEE5 JUMP JUMPDEST PUSH1 0x20 DUP3 ADD SWAP1 POP SWAP2 SWAP1 POP JUMP JUMPDEST PUSH0 PUSH1 0x20 DUP3 ADD SWAP1 POP DUP2 DUP2 SUB PUSH0 DUP4 ADD MSTORE PUSH2 0xF46 DUP2 PUSH2 0xF0D JUMP JUMPDEST SWAP1 POP SWAP2 SWAP1 POP JUMP JUMPDEST PUSH32 0x4E487B7100000000000000000000000000000000000000000000000000000000 PUSH0 MSTORE PUSH1 0x32 PUSH1 0x4 MSTORE PUSH1 0x24 PUSH0 REVERT JUMPDEST PUSH32 0x4E487B7100000000000000000000000000000000000000000000000000000000 PUSH0 MSTORE PUSH1 0x11 PUSH1 0x4 MSTORE PUSH1 0x24 PUSH0 REVERT JUMPDEST PUSH0 PUSH2 0xFB1 DUP3 PUSH2 0xBE5 JUMP JUMPDEST SWAP2 POP PUSH32 0xFFFFFFFFFFFFFFFFFFFFFFFFFFFFFFFFFFFFFFFFFFFFFFFFFFFFFFFFFFFFFFFF DUP3 SUB PUSH2 0xFE3 JUMPI PUSH2 0xFE2 PUSH2 0xF7A JUMP JUMPDEST JUMPDEST PUSH1 0x1 DUP3 ADD SWAP1 POP SWAP2 SWAP1 POP JUMP JUMPDEST PUSH0 PUSH2 0xFF8 DUP3 PUSH2 0xBE5 JUMP JUMPDEST SWAP2 POP PUSH2 0x1003 DUP4 PUSH2 0xBE5 JUMP JUMPDEST SWAP3 POP DUP3 DUP3 MUL PUSH2 0x1011 DUP2 PUSH2 0xBE5 JUMP JUMPDEST SWAP2 POP DUP3 DUP3 DIV DUP5 EQ DUP4 ISZERO OR PUSH2 0x1028 JUMPI PUSH2 0x1027 PUSH2 0xF7A JUMP JUMPDEST JUMPDEST POP SWAP3 SWAP2 POP POP JUMP JUMPDEST PUSH32 0x4E487B7100000000000000000000000000000000000000000000000000000000 PUSH0 MSTORE PUSH1 0x12 PUSH1 0x4 MSTORE PUSH1 0x24 PUSH0 REVERT JUMPDEST PUSH0 PUSH2 0x1066 DUP3 PUSH2 0xBE5 JUMP JUMPDEST SWAP2 POP PUSH2 0x1071 DUP4 PUSH2 0xBE5 JUMP JUMPDEST SWAP3 POP DUP3 PUSH2 0x1081 JUMPI PUSH2 0x1080 PUSH2 0x102F JUMP JUMPDEST JUMPDEST DUP3 DUP3 DIV SWAP1 POP SWAP3 SWAP2 POP POP JUMP JUMPDEST PUSH0 PUSH2 0x1096 DUP3 PUSH2 0xBE5 JUMP JUMPDEST SWAP2 POP PUSH2 0x10A1 DUP4 PUSH2 0xBE5 JUMP JUMPDEST SWAP3 POP DUP3 DUP3 SUB SWAP1 POP DUP2 DUP2 GT ISZERO PUSH2 0x10B9 JUMPI PUSH2 0x10B8 PUSH2 0xF7A JUMP JUMPDEST JUMPDEST SWAP3 SWAP2 POP POP JUMP JUMPDEST PUSH32 0x4E487B7100000000000000000000000000000000000000000000000000000000 PUSH0 MSTORE PUSH1 0x31 PUSH1 0x4 MSTORE PUSH1 0x24 PUSH0 REVERT JUMPDEST PUSH32 0x53636F726520616C7265616479207375626D6974746564000000000000000000 PUSH0 DUP3 ADD MSTORE POP JUMP JUMPDEST PUSH0 PUSH2 0x1120 PUSH1 0x17 DUP4 PUSH2 0xD1C JUMP JUMPDEST SWAP2 POP PUSH2 0x112B DUP3 PUSH2 0x10EC JUMP JUMPDEST PUSH1 0x20 DUP3 ADD SWAP1 POP SWAP2 SWAP1 POP JUMP JUMPDEST PUSH0 PUSH1 0x20 DUP3 ADD SWAP1 POP DUP2 DUP2 SUB PUSH0 DUP4 ADD MSTORE PUSH2 0x114D DUP2 PUSH2 0x1114 JUMP JUMPDEST SWAP1 POP SWAP2 SWAP1 POP JUMP INVALID LOG2 PUSH5 0x6970667358 0x22 SLT KECCAK256 0x5C 0xE5 RETURN SELFBALANCE 0xC 0xF8 CALLDATASIZE PUSH10 0x5E0C68A62289A329F9A2 0xB8 0xAC LOG3 PUSH22 0x40DE11C69D8886BB430C64736F6C63430008140033A2 PUSH5 0x6970667358 0x22 SLT KECCAK256 0xD0 MULMOD 0xD1 PC ADD 0x28 0xB0 COINBASE PUSH14 0x237F683EE7D80FB457C2C25FF8AB 0xE8 JUMPI 0xAB PUSH3 0xAC643C DELEGATECALL MSIZE PUSH5 0x736F6C6343 STOP ADDMOD EQ STOP CALLER "
				},
				"gasEstimates": {
					"creation": {
						"codeDepositCost": "1135600",
						"executionCost": "1178",
						"totalCost": "1136778"
					},
					"external": {
						"createQuiz(uint256,uint256)": "infinite"
					}
				},
				"methodIdentifiers": {
					"createQuiz(uint256,uint256)": "42095eaf"
				}
			},
			"storageLayout": {
				"storage": [],
				"types": null
			},
			"userdoc": {
				"kind": "user",
				"methods": {},
				"version": 1
			}
		}
	}
}