{
	"contracts/QuizPlatform.sol": {
		"QuizPlatform": {
			"abi": [
				{
					"inputs": [],
					"stateMutability": "nonpayable",
					"type": "constructor"
				},
				{
					"anonymous": false,
					"inputs": [
						{
							"indexed": false,
							"internalType": "uint256",
							"name": "newFee",
							"type": "uint256"
						}
					],
					"name": "PlatformFeeChanged",
					"type": "event"
				},
				{
					"inputs": [],
					"name": "owner",
					"outputs": [
						{
							"internalType": "address",
							"name": "",
							"type": "address"
						}
					],
					"stateMutability": "view",
					"type": "function"
				},
				{
					"inputs": [],
					"name": "platformFeePercentage",
					"outputs": [
						{
							"internalType": "uint256",
							"name": "",
							"type": "uint256"
						}
					],
					"stateMutability": "view",
					"type": "function"
				},
				{
					"inputs": [
						{
							"internalType": "uint256",
							"name": "_fee",
							"type": "uint256"
						}
					],
					"name": "setPlatformFee",
					"outputs": [],
					"stateMutability": "nonpayable",
					"type": "function"
				},
				{
					"inputs": [],
					"name": "withdrawFees",
					"outputs": [],
					"stateMutability": "nonpayable",
					"type": "function"
				}
			],
			"devdoc": {
				"kind": "dev",
				"methods": {},
				"version": 1
			},
			"evm": {
				"assembly": "    /* \"contracts/QuizPlatform.sol\":57:836  contract QuizPlatform {... */\n  mstore(0x40, 0x80)\n    /* \"contracts/QuizPlatform.sol\":201:292  constructor() {... */\n  callvalue\n  dup1\n  iszero\n  tag_1\n  jumpi\n  0x00\n  dup1\n  revert\ntag_1:\n  pop\n    /* \"contracts/QuizPlatform.sol\":233:243  msg.sender */\n  caller\n    /* \"contracts/QuizPlatform.sol\":225:230  owner */\n  0x00\n  dup1\n    /* \"contracts/QuizPlatform.sol\":225:243  owner = msg.sender */\n  0x0100\n  exp\n  dup2\n  sload\n  dup2\n  0xffffffffffffffffffffffffffffffffffffffff\n  mul\n  not\n  and\n  swap1\n  dup4\n  0xffffffffffffffffffffffffffffffffffffffff\n  and\n  mul\n  or\n  swap1\n  sstore\n  pop\n    /* \"contracts/QuizPlatform.sol\":277:278  5 */\n  0x05\n    /* \"contracts/QuizPlatform.sol\":253:274  platformFeePercentage */\n  0x01\n    /* \"contracts/QuizPlatform.sol\":253:278  platformFeePercentage = 5 */\n  dup2\n  swap1\n  sstore\n  pop\n    /* \"contracts/QuizPlatform.sol\":57:836  contract QuizPlatform {... */\n  dataSize(sub_0)\n  dup1\n  dataOffset(sub_0)\n  0x00\n  codecopy\n  0x00\n  return\nstop\n\nsub_0: assembly {\n        /* \"contracts/QuizPlatform.sol\":57:836  contract QuizPlatform {... */\n      mstore(0x40, 0x80)\n      callvalue\n      dup1\n      iszero\n      tag_1\n      jumpi\n      0x00\n      dup1\n      revert\n    tag_1:\n      pop\n      jumpi(tag_2, lt(calldatasize, 0x04))\n      shr(0xe0, calldataload(0x00))\n      dup1\n      0x12e8e2c3\n      eq\n      tag_3\n      jumpi\n      dup1\n      0x476343ee\n      eq\n      tag_4\n      jumpi\n      dup1\n      0x8da5cb5b\n      eq\n      tag_5\n      jumpi\n      dup1\n      0xcdd78cfc\n      eq\n      tag_6\n      jumpi\n    tag_2:\n      0x00\n      dup1\n      revert\n        /* \"contracts/QuizPlatform.sol\":422:616  function setPlatformFee(uint256 _fee) external onlyOwner {... */\n    tag_3:\n      tag_7\n      0x04\n      dup1\n      calldatasize\n      sub\n      dup2\n      add\n      swap1\n      tag_8\n      swap2\n      swap1\n      tag_9\n      jump\t// in\n    tag_8:\n      tag_10\n      jump\t// in\n    tag_7:\n      stop\n        /* \"contracts/QuizPlatform.sol\":622:834  function withdrawFees() external onlyOwner {... */\n    tag_4:\n      tag_11\n      tag_12\n      jump\t// in\n    tag_11:\n      stop\n        /* \"contracts/QuizPlatform.sol\":85:105  address public owner */\n    tag_5:\n      tag_13\n      tag_14\n      jump\t// in\n    tag_13:\n      mload(0x40)\n      tag_15\n      swap2\n      swap1\n      tag_16\n      jump\t// in\n    tag_15:\n      mload(0x40)\n      dup1\n      swap2\n      sub\n      swap1\n      return\n        /* \"contracts/QuizPlatform.sol\":111:147  uint256 public platformFeePercentage */\n    tag_6:\n      tag_17\n      tag_18\n      jump\t// in\n    tag_17:\n      mload(0x40)\n      tag_19\n      swap2\n      swap1\n      tag_20\n      jump\t// in\n    tag_19:\n      mload(0x40)\n      dup1\n      swap2\n      sub\n      swap1\n      return\n        /* \"contracts/QuizPlatform.sol\":422:616  function setPlatformFee(uint256 _fee) external onlyOwner {... */\n    tag_10:\n        /* \"contracts/QuizPlatform.sol\":351:356  owner */\n      0x00\n      dup1\n      sload\n      swap1\n      0x0100\n      exp\n      swap1\n      div\n      0xffffffffffffffffffffffffffffffffffffffff\n      and\n        /* \"contracts/QuizPlatform.sol\":337:356  msg.sender == owner */\n      0xffffffffffffffffffffffffffffffffffffffff\n      and\n        /* \"contracts/QuizPlatform.sol\":337:347  msg.sender */\n      caller\n        /* \"contracts/QuizPlatform.sol\":337:356  msg.sender == owner */\n      0xffffffffffffffffffffffffffffffffffffffff\n      and\n      eq\n        /* \"contracts/QuizPlatform.sol\":329:398  require(msg.sender == owner, \"Only the owner can call this function\") */\n      tag_22\n      jumpi\n      mload(0x40)\n      0x08c379a000000000000000000000000000000000000000000000000000000000\n      dup2\n      mstore\n      0x04\n      add\n      tag_23\n      swap1\n      tag_24\n      jump\t// in\n    tag_23:\n      mload(0x40)\n      dup1\n      swap2\n      sub\n      swap1\n      revert\n    tag_22:\n        /* \"contracts/QuizPlatform.sol\":505:507  10 */\n      0x0a\n        /* \"contracts/QuizPlatform.sol\":497:501  _fee */\n      dup2\n        /* \"contracts/QuizPlatform.sol\":497:507  _fee <= 10 */\n      gt\n      iszero\n        /* \"contracts/QuizPlatform.sol\":489:532  require(_fee <= 10, \"Fee can't exceed 10%\") */\n      tag_26\n      jumpi\n      mload(0x40)\n      0x08c379a000000000000000000000000000000000000000000000000000000000\n      dup2\n      mstore\n      0x04\n      add\n      tag_27\n      swap1\n      tag_28\n      jump\t// in\n    tag_27:\n      mload(0x40)\n      dup1\n      swap2\n      sub\n      swap1\n      revert\n    tag_26:\n        /* \"contracts/QuizPlatform.sol\":566:570  _fee */\n      dup1\n        /* \"contracts/QuizPlatform.sol\":542:563  platformFeePercentage */\n      0x01\n        /* \"contracts/QuizPlatform.sol\":542:570  platformFeePercentage = _fee */\n      dup2\n      swap1\n      sstore\n      pop\n        /* \"contracts/QuizPlatform.sol\":585:609  PlatformFeeChanged(_fee) */\n      0x72b05fd7e6e407beabebd17ae121166880efdc19a2a9b08063eafc0c001e470a\n        /* \"contracts/QuizPlatform.sol\":604:608  _fee */\n      dup2\n        /* \"contracts/QuizPlatform.sol\":585:609  PlatformFeeChanged(_fee) */\n      mload(0x40)\n      tag_29\n      swap2\n      swap1\n      tag_20\n      jump\t// in\n    tag_29:\n      mload(0x40)\n      dup1\n      swap2\n      sub\n      swap1\n      log1\n        /* \"contracts/QuizPlatform.sol\":422:616  function setPlatformFee(uint256 _fee) external onlyOwner {... */\n      pop\n      jump\t// out\n        /* \"contracts/QuizPlatform.sol\":622:834  function withdrawFees() external onlyOwner {... */\n    tag_12:\n        /* \"contracts/QuizPlatform.sol\":351:356  owner */\n      0x00\n      dup1\n      sload\n      swap1\n      0x0100\n      exp\n      swap1\n      div\n      0xffffffffffffffffffffffffffffffffffffffff\n      and\n        /* \"contracts/QuizPlatform.sol\":337:356  msg.sender == owner */\n      0xffffffffffffffffffffffffffffffffffffffff\n      and\n        /* \"contracts/QuizPlatform.sol\":337:347  msg.sender */\n      caller\n        /* \"contracts/QuizPlatform.sol\":337:356  msg.sender == owner */\n      0xffffffffffffffffffffffffffffffffffffffff\n      and\n      eq\n        /* \"contracts/QuizPlatform.sol\":329:398  require(msg.sender == owner, \"Only the owner can call this function\") */\n      tag_31\n      jumpi\n      mload(0x40)\n      0x08c379a000000000000000000000000000000000000000000000000000000000\n      dup2\n      mstore\n      0x04\n      add\n      tag_32\n      swap1\n      tag_24\n      jump\t// in\n    tag_32:\n      mload(0x40)\n      dup1\n      swap2\n      sub\n      swap1\n      revert\n    tag_31:\n        /* \"contracts/QuizPlatform.sol\":675:690  uint256 balance */\n      0x00\n        /* \"contracts/QuizPlatform.sol\":693:714  address(this).balance */\n      selfbalance\n        /* \"contracts/QuizPlatform.sol\":675:714  uint256 balance = address(this).balance */\n      swap1\n      pop\n        /* \"contracts/QuizPlatform.sol\":724:741  uint256 feeAmount */\n      0x00\n        /* \"contracts/QuizPlatform.sol\":780:783  100 */\n      0x64\n        /* \"contracts/QuizPlatform.sol\":755:776  platformFeePercentage */\n      sload(0x01)\n        /* \"contracts/QuizPlatform.sol\":745:752  balance */\n      dup4\n        /* \"contracts/QuizPlatform.sol\":745:776  balance * platformFeePercentage */\n      tag_34\n      swap2\n      swap1\n      tag_35\n      jump\t// in\n    tag_34:\n        /* \"contracts/QuizPlatform.sol\":744:783  (balance * platformFeePercentage) / 100 */\n      tag_36\n      swap2\n      swap1\n      tag_37\n      jump\t// in\n    tag_36:\n        /* \"contracts/QuizPlatform.sol\":724:783  uint256 feeAmount = (balance * platformFeePercentage) / 100 */\n      swap1\n      pop\n        /* \"contracts/QuizPlatform.sol\":801:806  owner */\n      0x00\n      dup1\n      sload\n      swap1\n      0x0100\n      exp\n      swap1\n      div\n      0xffffffffffffffffffffffffffffffffffffffff\n      and\n        /* \"contracts/QuizPlatform.sol\":793:816  payable(owner).transfer */\n      0xffffffffffffffffffffffffffffffffffffffff\n      and\n        /* \"contracts/QuizPlatform.sol\":793:827  payable(owner).transfer(feeAmount) */\n      0x08fc\n        /* \"contracts/QuizPlatform.sol\":817:826  feeAmount */\n      dup3\n        /* \"contracts/QuizPlatform.sol\":793:827  payable(owner).transfer(feeAmount) */\n      swap1\n      dup2\n      iszero\n      mul\n      swap1\n      mload(0x40)\n      0x00\n      mload(0x40)\n      dup1\n      dup4\n      sub\n      dup2\n      dup6\n      dup9\n      dup9\n      call\n      swap4\n      pop\n      pop\n      pop\n      pop\n      iszero\n      dup1\n      iszero\n      tag_39\n      jumpi\n      returndatasize\n      0x00\n      dup1\n      returndatacopy\n      revert(0x00, returndatasize)\n    tag_39:\n      pop\n        /* \"contracts/QuizPlatform.sol\":665:834  {... */\n      pop\n      pop\n        /* \"contracts/QuizPlatform.sol\":622:834  function withdrawFees() external onlyOwner {... */\n      jump\t// out\n        /* \"contracts/QuizPlatform.sol\":85:105  address public owner */\n    tag_14:\n      0x00\n      dup1\n      sload\n      swap1\n      0x0100\n      exp\n      swap1\n      div\n      0xffffffffffffffffffffffffffffffffffffffff\n      and\n      dup2\n      jump\t// out\n        /* \"contracts/QuizPlatform.sol\":111:147  uint256 public platformFeePercentage */\n    tag_18:\n      sload(0x01)\n      dup2\n      jump\t// out\n        /* \"#utility.yul\":88:205   */\n    tag_41:\n        /* \"#utility.yul\":197:198   */\n      0x00\n        /* \"#utility.yul\":194:195   */\n      dup1\n        /* \"#utility.yul\":187:199   */\n      revert\n        /* \"#utility.yul\":334:411   */\n    tag_43:\n        /* \"#utility.yul\":371:378   */\n      0x00\n        /* \"#utility.yul\":400:405   */\n      dup2\n        /* \"#utility.yul\":389:405   */\n      swap1\n      pop\n        /* \"#utility.yul\":334:411   */\n      swap2\n      swap1\n      pop\n      jump\t// out\n        /* \"#utility.yul\":417:539   */\n    tag_44:\n        /* \"#utility.yul\":490:514   */\n      tag_63\n        /* \"#utility.yul\":508:513   */\n      dup2\n        /* \"#utility.yul\":490:514   */\n      tag_43\n      jump\t// in\n    tag_63:\n        /* \"#utility.yul\":483:488   */\n      dup2\n        /* \"#utility.yul\":480:515   */\n      eq\n        /* \"#utility.yul\":470:533   */\n      tag_64\n      jumpi\n        /* \"#utility.yul\":529:530   */\n      0x00\n        /* \"#utility.yul\":526:527   */\n      dup1\n        /* \"#utility.yul\":519:531   */\n      revert\n        /* \"#utility.yul\":470:533   */\n    tag_64:\n        /* \"#utility.yul\":417:539   */\n      pop\n      jump\t// out\n        /* \"#utility.yul\":545:684   */\n    tag_45:\n        /* \"#utility.yul\":591:596   */\n      0x00\n        /* \"#utility.yul\":629:635   */\n      dup2\n        /* \"#utility.yul\":616:636   */\n      calldataload\n        /* \"#utility.yul\":607:636   */\n      swap1\n      pop\n        /* \"#utility.yul\":645:678   */\n      tag_66\n        /* \"#utility.yul\":672:677   */\n      dup2\n        /* \"#utility.yul\":645:678   */\n      tag_44\n      jump\t// in\n    tag_66:\n        /* \"#utility.yul\":545:684   */\n      swap3\n      swap2\n      pop\n      pop\n      jump\t// out\n        /* \"#utility.yul\":690:1019   */\n    tag_9:\n        /* \"#utility.yul\":749:755   */\n      0x00\n        /* \"#utility.yul\":798:800   */\n      0x20\n        /* \"#utility.yul\":786:795   */\n      dup3\n        /* \"#utility.yul\":777:784   */\n      dup5\n        /* \"#utility.yul\":773:796   */\n      sub\n        /* \"#utility.yul\":769:801   */\n      slt\n        /* \"#utility.yul\":766:885   */\n      iszero\n      tag_68\n      jumpi\n        /* \"#utility.yul\":804:883   */\n      tag_69\n      tag_41\n      jump\t// in\n    tag_69:\n        /* \"#utility.yul\":766:885   */\n    tag_68:\n        /* \"#utility.yul\":924:925   */\n      0x00\n        /* \"#utility.yul\":949:1002   */\n      tag_70\n        /* \"#utility.yul\":994:1001   */\n      dup5\n        /* \"#utility.yul\":985:991   */\n      dup3\n        /* \"#utility.yul\":974:983   */\n      dup6\n        /* \"#utility.yul\":970:992   */\n      add\n        /* \"#utility.yul\":949:1002   */\n      tag_45\n      jump\t// in\n    tag_70:\n        /* \"#utility.yul\":939:1002   */\n      swap2\n      pop\n        /* \"#utility.yul\":895:1012   */\n      pop\n        /* \"#utility.yul\":690:1019   */\n      swap3\n      swap2\n      pop\n      pop\n      jump\t// out\n        /* \"#utility.yul\":1025:1151   */\n    tag_46:\n        /* \"#utility.yul\":1062:1069   */\n      0x00\n        /* \"#utility.yul\":1102:1144   */\n      0xffffffffffffffffffffffffffffffffffffffff\n        /* \"#utility.yul\":1095:1100   */\n      dup3\n        /* \"#utility.yul\":1091:1145   */\n      and\n        /* \"#utility.yul\":1080:1145   */\n      swap1\n      pop\n        /* \"#utility.yul\":1025:1151   */\n      swap2\n      swap1\n      pop\n      jump\t// out\n        /* \"#utility.yul\":1157:1253   */\n    tag_47:\n        /* \"#utility.yul\":1194:1201   */\n      0x00\n        /* \"#utility.yul\":1223:1247   */\n      tag_73\n        /* \"#utility.yul\":1241:1246   */\n      dup3\n        /* \"#utility.yul\":1223:1247   */\n      tag_46\n      jump\t// in\n    tag_73:\n        /* \"#utility.yul\":1212:1247   */\n      swap1\n      pop\n        /* \"#utility.yul\":1157:1253   */\n      swap2\n      swap1\n      pop\n      jump\t// out\n        /* \"#utility.yul\":1259:1377   */\n    tag_48:\n        /* \"#utility.yul\":1346:1370   */\n      tag_75\n        /* \"#utility.yul\":1364:1369   */\n      dup2\n        /* \"#utility.yul\":1346:1370   */\n      tag_47\n      jump\t// in\n    tag_75:\n        /* \"#utility.yul\":1341:1344   */\n      dup3\n        /* \"#utility.yul\":1334:1371   */\n      mstore\n        /* \"#utility.yul\":1259:1377   */\n      pop\n      pop\n      jump\t// out\n        /* \"#utility.yul\":1383:1605   */\n    tag_16:\n        /* \"#utility.yul\":1476:1480   */\n      0x00\n        /* \"#utility.yul\":1514:1516   */\n      0x20\n        /* \"#utility.yul\":1503:1512   */\n      dup3\n        /* \"#utility.yul\":1499:1517   */\n      add\n        /* \"#utility.yul\":1491:1517   */\n      swap1\n      pop\n        /* \"#utility.yul\":1527:1598   */\n      tag_77\n        /* \"#utility.yul\":1595:1596   */\n      0x00\n        /* \"#utility.yul\":1584:1593   */\n      dup4\n        /* \"#utility.yul\":1580:1597   */\n      add\n        /* \"#utility.yul\":1571:1577   */\n      dup5\n        /* \"#utility.yul\":1527:1598   */\n      tag_48\n      jump\t// in\n    tag_77:\n        /* \"#utility.yul\":1383:1605   */\n      swap3\n      swap2\n      pop\n      pop\n      jump\t// out\n        /* \"#utility.yul\":1611:1729   */\n    tag_49:\n        /* \"#utility.yul\":1698:1722   */\n      tag_79\n        /* \"#utility.yul\":1716:1721   */\n      dup2\n        /* \"#utility.yul\":1698:1722   */\n      tag_43\n      jump\t// in\n    tag_79:\n        /* \"#utility.yul\":1693:1696   */\n      dup3\n        /* \"#utility.yul\":1686:1723   */\n      mstore\n        /* \"#utility.yul\":1611:1729   */\n      pop\n      pop\n      jump\t// out\n        /* \"#utility.yul\":1735:1957   */\n    tag_20:\n        /* \"#utility.yul\":1828:1832   */\n      0x00\n        /* \"#utility.yul\":1866:1868   */\n      0x20\n        /* \"#utility.yul\":1855:1864   */\n      dup3\n        /* \"#utility.yul\":1851:1869   */\n      add\n        /* \"#utility.yul\":1843:1869   */\n      swap1\n      pop\n        /* \"#utility.yul\":1879:1950   */\n      tag_81\n        /* \"#utility.yul\":1947:1948   */\n      0x00\n        /* \"#utility.yul\":1936:1945   */\n      dup4\n        /* \"#utility.yul\":1932:1949   */\n      add\n        /* \"#utility.yul\":1923:1929   */\n      dup5\n        /* \"#utility.yul\":1879:1950   */\n      tag_49\n      jump\t// in\n    tag_81:\n        /* \"#utility.yul\":1735:1957   */\n      swap3\n      swap2\n      pop\n      pop\n      jump\t// out\n        /* \"#utility.yul\":1963:2132   */\n    tag_50:\n        /* \"#utility.yul\":2047:2058   */\n      0x00\n        /* \"#utility.yul\":2081:2087   */\n      dup3\n        /* \"#utility.yul\":2076:2079   */\n      dup3\n        /* \"#utility.yul\":2069:2088   */\n      mstore\n        /* \"#utility.yul\":2121:2125   */\n      0x20\n        /* \"#utility.yul\":2116:2119   */\n      dup3\n        /* \"#utility.yul\":2112:2126   */\n      add\n        /* \"#utility.yul\":2097:2126   */\n      swap1\n      pop\n        /* \"#utility.yul\":1963:2132   */\n      swap3\n      swap2\n      pop\n      pop\n      jump\t// out\n        /* \"#utility.yul\":2138:2362   */\n    tag_51:\n        /* \"#utility.yul\":2278:2312   */\n      0x4f6e6c7920746865206f776e65722063616e2063616c6c20746869732066756e\n        /* \"#utility.yul\":2274:2275   */\n      0x00\n        /* \"#utility.yul\":2266:2272   */\n      dup3\n        /* \"#utility.yul\":2262:2276   */\n      add\n        /* \"#utility.yul\":2255:2313   */\n      mstore\n        /* \"#utility.yul\":2347:2354   */\n      0x6374696f6e000000000000000000000000000000000000000000000000000000\n        /* \"#utility.yul\":2342:2344   */\n      0x20\n        /* \"#utility.yul\":2334:2340   */\n      dup3\n        /* \"#utility.yul\":2330:2345   */\n      add\n        /* \"#utility.yul\":2323:2355   */\n      mstore\n        /* \"#utility.yul\":2138:2362   */\n      pop\n      jump\t// out\n        /* \"#utility.yul\":2368:2734   */\n    tag_52:\n        /* \"#utility.yul\":2510:2513   */\n      0x00\n        /* \"#utility.yul\":2531:2598   */\n      tag_85\n        /* \"#utility.yul\":2595:2597   */\n      0x25\n        /* \"#utility.yul\":2590:2593   */\n      dup4\n        /* \"#utility.yul\":2531:2598   */\n      tag_50\n      jump\t// in\n    tag_85:\n        /* \"#utility.yul\":2524:2598   */\n      swap2\n      pop\n        /* \"#utility.yul\":2607:2700   */\n      tag_86\n        /* \"#utility.yul\":2696:2699   */\n      dup3\n        /* \"#utility.yul\":2607:2700   */\n      tag_51\n      jump\t// in\n    tag_86:\n        /* \"#utility.yul\":2725:2727   */\n      0x40\n        /* \"#utility.yul\":2720:2723   */\n      dup3\n        /* \"#utility.yul\":2716:2728   */\n      add\n        /* \"#utility.yul\":2709:2728   */\n      swap1\n      pop\n        /* \"#utility.yul\":2368:2734   */\n      swap2\n      swap1\n      pop\n      jump\t// out\n        /* \"#utility.yul\":2740:3159   */\n    tag_24:\n        /* \"#utility.yul\":2906:2910   */\n      0x00\n        /* \"#utility.yul\":2944:2946   */\n      0x20\n        /* \"#utility.yul\":2933:2942   */\n      dup3\n        /* \"#utility.yul\":2929:2947   */\n      add\n        /* \"#utility.yul\":2921:2947   */\n      swap1\n      pop\n        /* \"#utility.yul\":2993:3002   */\n      dup2\n        /* \"#utility.yul\":2987:2991   */\n      dup2\n        /* \"#utility.yul\":2983:3003   */\n      sub\n        /* \"#utility.yul\":2979:2980   */\n      0x00\n        /* \"#utility.yul\":2968:2977   */\n      dup4\n        /* \"#utility.yul\":2964:2981   */\n      add\n        /* \"#utility.yul\":2957:3004   */\n      mstore\n        /* \"#utility.yul\":3021:3152   */\n      tag_88\n        /* \"#utility.yul\":3147:3151   */\n      dup2\n        /* \"#utility.yul\":3021:3152   */\n      tag_52\n      jump\t// in\n    tag_88:\n        /* \"#utility.yul\":3013:3152   */\n      swap1\n      pop\n        /* \"#utility.yul\":2740:3159   */\n      swap2\n      swap1\n      pop\n      jump\t// out\n        /* \"#utility.yul\":3165:3335   */\n    tag_53:\n        /* \"#utility.yul\":3305:3327   */\n      0x4665652063616e27742065786365656420313025000000000000000000000000\n        /* \"#utility.yul\":3301:3302   */\n      0x00\n        /* \"#utility.yul\":3293:3299   */\n      dup3\n        /* \"#utility.yul\":3289:3303   */\n      add\n        /* \"#utility.yul\":3282:3328   */\n      mstore\n        /* \"#utility.yul\":3165:3335   */\n      pop\n      jump\t// out\n        /* \"#utility.yul\":3341:3707   */\n    tag_54:\n        /* \"#utility.yul\":3483:3486   */\n      0x00\n        /* \"#utility.yul\":3504:3571   */\n      tag_91\n        /* \"#utility.yul\":3568:3570   */\n      0x14\n        /* \"#utility.yul\":3563:3566   */\n      dup4\n        /* \"#utility.yul\":3504:3571   */\n      tag_50\n      jump\t// in\n    tag_91:\n        /* \"#utility.yul\":3497:3571   */\n      swap2\n      pop\n        /* \"#utility.yul\":3580:3673   */\n      tag_92\n        /* \"#utility.yul\":3669:3672   */\n      dup3\n        /* \"#utility.yul\":3580:3673   */\n      tag_53\n      jump\t// in\n    tag_92:\n        /* \"#utility.yul\":3698:3700   */\n      0x20\n        /* \"#utility.yul\":3693:3696   */\n      dup3\n        /* \"#utility.yul\":3689:3701   */\n      add\n        /* \"#utility.yul\":3682:3701   */\n      swap1\n      pop\n        /* \"#utility.yul\":3341:3707   */\n      swap2\n      swap1\n      pop\n      jump\t// out\n        /* \"#utility.yul\":3713:4132   */\n    tag_28:\n        /* \"#utility.yul\":3879:3883   */\n      0x00\n        /* \"#utility.yul\":3917:3919   */\n      0x20\n        /* \"#utility.yul\":3906:3915   */\n      dup3\n        /* \"#utility.yul\":3902:3920   */\n      add\n        /* \"#utility.yul\":3894:3920   */\n      swap1\n      pop\n        /* \"#utility.yul\":3966:3975   */\n      dup2\n        /* \"#utility.yul\":3960:3964   */\n      dup2\n        /* \"#utility.yul\":3956:3976   */\n      sub\n        /* \"#utility.yul\":3952:3953   */\n      0x00\n        /* \"#utility.yul\":3941:3950   */\n      dup4\n        /* \"#utility.yul\":3937:3954   */\n      add\n        /* \"#utility.yul\":3930:3977   */\n      mstore\n        /* \"#utility.yul\":3994:4125   */\n      tag_94\n        /* \"#utility.yul\":4120:4124   */\n      dup2\n        /* \"#utility.yul\":3994:4125   */\n      tag_54\n      jump\t// in\n    tag_94:\n        /* \"#utility.yul\":3986:4125   */\n      swap1\n      pop\n        /* \"#utility.yul\":3713:4132   */\n      swap2\n      swap1\n      pop\n      jump\t// out\n        /* \"#utility.yul\":4138:4318   */\n    tag_55:\n        /* \"#utility.yul\":4186:4263   */\n      0x4e487b7100000000000000000000000000000000000000000000000000000000\n        /* \"#utility.yul\":4183:4184   */\n      0x00\n        /* \"#utility.yul\":4176:4264   */\n      mstore\n        /* \"#utility.yul\":4283:4287   */\n      0x11\n        /* \"#utility.yul\":4280:4281   */\n      0x04\n        /* \"#utility.yul\":4273:4288   */\n      mstore\n        /* \"#utility.yul\":4307:4311   */\n      0x24\n        /* \"#utility.yul\":4304:4305   */\n      0x00\n        /* \"#utility.yul\":4297:4312   */\n      revert\n        /* \"#utility.yul\":4324:4734   */\n    tag_35:\n        /* \"#utility.yul\":4364:4371   */\n      0x00\n        /* \"#utility.yul\":4387:4407   */\n      tag_97\n        /* \"#utility.yul\":4405:4406   */\n      dup3\n        /* \"#utility.yul\":4387:4407   */\n      tag_43\n      jump\t// in\n    tag_97:\n        /* \"#utility.yul\":4382:4407   */\n      swap2\n      pop\n        /* \"#utility.yul\":4421:4441   */\n      tag_98\n        /* \"#utility.yul\":4439:4440   */\n      dup4\n        /* \"#utility.yul\":4421:4441   */\n      tag_43\n      jump\t// in\n    tag_98:\n        /* \"#utility.yul\":4416:4441   */\n      swap3\n      pop\n        /* \"#utility.yul\":4476:4477   */\n      dup3\n        /* \"#utility.yul\":4473:4474   */\n      dup3\n        /* \"#utility.yul\":4469:4478   */\n      mul\n        /* \"#utility.yul\":4498:4528   */\n      tag_99\n        /* \"#utility.yul\":4516:4527   */\n      dup2\n        /* \"#utility.yul\":4498:4528   */\n      tag_43\n      jump\t// in\n    tag_99:\n        /* \"#utility.yul\":4487:4528   */\n      swap2\n      pop\n        /* \"#utility.yul\":4677:4678   */\n      dup3\n        /* \"#utility.yul\":4668:4675   */\n      dup3\n        /* \"#utility.yul\":4664:4679   */\n      div\n        /* \"#utility.yul\":4661:4662   */\n      dup5\n        /* \"#utility.yul\":4658:4680   */\n      eq\n        /* \"#utility.yul\":4638:4639   */\n      dup4\n        /* \"#utility.yul\":4631:4640   */\n      iszero\n        /* \"#utility.yul\":4611:4694   */\n      or\n        /* \"#utility.yul\":4588:4727   */\n      tag_100\n      jumpi\n        /* \"#utility.yul\":4707:4725   */\n      tag_101\n      tag_55\n      jump\t// in\n    tag_101:\n        /* \"#utility.yul\":4588:4727   */\n    tag_100:\n        /* \"#utility.yul\":4372:4734   */\n      pop\n        /* \"#utility.yul\":4324:4734   */\n      swap3\n      swap2\n      pop\n      pop\n      jump\t// out\n        /* \"#utility.yul\":4740:4920   */\n    tag_56:\n        /* \"#utility.yul\":4788:4865   */\n      0x4e487b7100000000000000000000000000000000000000000000000000000000\n        /* \"#utility.yul\":4785:4786   */\n      0x00\n        /* \"#utility.yul\":4778:4866   */\n      mstore\n        /* \"#utility.yul\":4885:4889   */\n      0x12\n        /* \"#utility.yul\":4882:4883   */\n      0x04\n        /* \"#utility.yul\":4875:4890   */\n      mstore\n        /* \"#utility.yul\":4909:4913   */\n      0x24\n        /* \"#utility.yul\":4906:4907   */\n      0x00\n        /* \"#utility.yul\":4899:4914   */\n      revert\n        /* \"#utility.yul\":4926:5111   */\n    tag_37:\n        /* \"#utility.yul\":4966:4967   */\n      0x00\n        /* \"#utility.yul\":4983:5003   */\n      tag_104\n        /* \"#utility.yul\":5001:5002   */\n      dup3\n        /* \"#utility.yul\":4983:5003   */\n      tag_43\n      jump\t// in\n    tag_104:\n        /* \"#utility.yul\":4978:5003   */\n      swap2\n      pop\n        /* \"#utility.yul\":5017:5037   */\n      tag_105\n        /* \"#utility.yul\":5035:5036   */\n      dup4\n        /* \"#utility.yul\":5017:5037   */\n      tag_43\n      jump\t// in\n    tag_105:\n        /* \"#utility.yul\":5012:5037   */\n      swap3\n      pop\n        /* \"#utility.yul\":5056:5057   */\n      dup3\n        /* \"#utility.yul\":5046:5081   */\n      tag_106\n      jumpi\n        /* \"#utility.yul\":5061:5079   */\n      tag_107\n      tag_56\n      jump\t// in\n    tag_107:\n        /* \"#utility.yul\":5046:5081   */\n    tag_106:\n        /* \"#utility.yul\":5103:5104   */\n      dup3\n        /* \"#utility.yul\":5100:5101   */\n      dup3\n        /* \"#utility.yul\":5096:5105   */\n      div\n        /* \"#utility.yul\":5091:5105   */\n      swap1\n      pop\n        /* \"#utility.yul\":4926:5111   */\n      swap3\n      swap2\n      pop\n      pop\n      jump\t// out\n\n    auxdata: 0xa2646970667358221220d39f23d99340e60f9c4fd3cbf9200b7c440af194a20dfba8665eac1cb0460d3a64736f6c63430008140033\n}\n",
				"bytecode": {
					"linkReferences": {},
					"object": "608060405234801561000f575f80fd5b50335f806101000a81548173ffffffffffffffffffffffffffffffffffffffff021916908373ffffffffffffffffffffffffffffffffffffffff16021790555060056001819055506105e9806100645f395ff3fe608060405234801561000f575f80fd5b506004361061004a575f3560e01c806312e8e2c31461004e578063476343ee1461006a5780638da5cb5b14610074578063cdd78cfc14610092575b5f80fd5b61006860048036038101906100639190610337565b6100b0565b005b6100726101c2565b005b61007c6102d7565b60405161008991906103a1565b60405180910390f35b61009a6102fa565b6040516100a791906103c9565b60405180910390f35b5f8054906101000a900473ffffffffffffffffffffffffffffffffffffffff1673ffffffffffffffffffffffffffffffffffffffff163373ffffffffffffffffffffffffffffffffffffffff161461013d576040517f08c379a000000000000000000000000000000000000000000000000000000000815260040161013490610462565b60405180910390fd5b600a811115610181576040517f08c379a0000000000000000000000000000000000000000000000000000000008152600401610178906104ca565b60405180910390fd5b806001819055507f72b05fd7e6e407beabebd17ae121166880efdc19a2a9b08063eafc0c001e470a816040516101b791906103c9565b60405180910390a150565b5f8054906101000a900473ffffffffffffffffffffffffffffffffffffffff1673ffffffffffffffffffffffffffffffffffffffff163373ffffffffffffffffffffffffffffffffffffffff161461024f576040517f08c379a000000000000000000000000000000000000000000000000000000000815260040161024690610462565b60405180910390fd5b5f4790505f6064600154836102649190610515565b61026e9190610583565b90505f8054906101000a900473ffffffffffffffffffffffffffffffffffffffff1673ffffffffffffffffffffffffffffffffffffffff166108fc8290811502906040515f60405180830381858888f193505050501580156102d2573d5f803e3d5ffd5b505050565b5f8054906101000a900473ffffffffffffffffffffffffffffffffffffffff1681565b60015481565b5f80fd5b5f819050919050565b61031681610304565b8114610320575f80fd5b50565b5f813590506103318161030d565b92915050565b5f6020828403121561034c5761034b610300565b5b5f61035984828501610323565b91505092915050565b5f73ffffffffffffffffffffffffffffffffffffffff82169050919050565b5f61038b82610362565b9050919050565b61039b81610381565b82525050565b5f6020820190506103b45f830184610392565b92915050565b6103c381610304565b82525050565b5f6020820190506103dc5f8301846103ba565b92915050565b5f82825260208201905092915050565b7f4f6e6c7920746865206f776e65722063616e2063616c6c20746869732066756e5f8201527f6374696f6e000000000000000000000000000000000000000000000000000000602082015250565b5f61044c6025836103e2565b9150610457826103f2565b604082019050919050565b5f6020820190508181035f83015261047981610440565b9050919050565b7f4665652063616e277420657863656564203130250000000000000000000000005f82015250565b5f6104b46014836103e2565b91506104bf82610480565b602082019050919050565b5f6020820190508181035f8301526104e1816104a8565b9050919050565b7f4e487b71000000000000000000000000000000000000000000000000000000005f52601160045260245ffd5b5f61051f82610304565b915061052a83610304565b925082820261053881610304565b9150828204841483151761054f5761054e6104e8565b5b5092915050565b7f4e487b71000000000000000000000000000000000000000000000000000000005f52601260045260245ffd5b5f61058d82610304565b915061059883610304565b9250826105a8576105a7610556565b5b82820490509291505056fea2646970667358221220d39f23d99340e60f9c4fd3cbf9200b7c440af194a20dfba8665eac1cb0460d3a64736f6c63430008140033",
					"opcodes": "PUSH1 0x80 PUSH1 0x40 MSTORE CALLVALUE DUP1 ISZERO PUSH2 0xF JUMPI PUSH0 DUP1 REVERT JUMPDEST POP CALLER PUSH0 DUP1 PUSH2 0x100 EXP DUP2 SLOAD DUP2 PUSH20 0xFFFFFFFFFFFFFFFFFFFFFFFFFFFFFFFFFFFFFFFF MUL NOT AND SWAP1 DUP4 PUSH20 0xFFFFFFFFFFFFFFFFFFFFFFFFFFFFFFFFFFFFFFFF AND MUL OR SWAP1 SSTORE POP PUSH1 0x5 PUSH1 0x1 DUP2 SWAP1 SSTORE POP PUSH2 0x5E9 DUP1 PUSH2 0x64 PUSH0 CODECOPY PUSH0 RETURN INVALID PUSH1 0x80 PUSH1 0x40 MSTORE CALLVALUE DUP1 ISZERO PUSH2 0xF JUMPI PUSH0 DUP1 REVERT JUMPDEST POP PUSH1 0x4 CALLDATASIZE LT PUSH2 0x4A JUMPI PUSH0 CALLDATALOAD PUSH1 0xE0 SHR DUP1 PUSH4 0x12E8E2C3 EQ PUSH2 0x4E JUMPI DUP1 PUSH4 0x476343EE EQ PUSH2 0x6A JUMPI DUP1 PUSH4 0x8DA5CB5B EQ PUSH2 0x74 JUMPI DUP1 PUSH4 0xCDD78CFC EQ PUSH2 0x92 JUMPI JUMPDEST PUSH0 DUP1 REVERT JUMPDEST PUSH2 0x68 PUSH1 0x4 DUP1 CALLDATASIZE SUB DUP2 ADD SWAP1 PUSH2 0x63 SWAP2 SWAP1 PUSH2 0x337 JUMP JUMPDEST PUSH2 0xB0 JUMP JUMPDEST STOP JUMPDEST PUSH2 0x72 PUSH2 0x1C2 JUMP JUMPDEST STOP JUMPDEST PUSH2 0x7C PUSH2 0x2D7 JUMP JUMPDEST PUSH1 0x40 MLOAD PUSH2 0x89 SWAP2 SWAP1 PUSH2 0x3A1 JUMP JUMPDEST PUSH1 0x40 MLOAD DUP1 SWAP2 SUB SWAP1 RETURN JUMPDEST PUSH2 0x9A PUSH2 0x2FA JUMP JUMPDEST PUSH1 0x40 MLOAD PUSH2 0xA7 SWAP2 SWAP1 PUSH2 0x3C9 JUMP JUMPDEST PUSH1 0x40 MLOAD DUP1 SWAP2 SUB SWAP1 RETURN JUMPDEST PUSH0 DUP1 SLOAD SWAP1 PUSH2 0x100 EXP SWAP1 DIV PUSH20 0xFFFFFFFFFFFFFFFFFFFFFFFFFFFFFFFFFFFFFFFF AND PUSH20 0xFFFFFFFFFFFFFFFFFFFFFFFFFFFFFFFFFFFFFFFF AND CALLER PUSH20 0xFFFFFFFFFFFFFFFFFFFFFFFFFFFFFFFFFFFFFFFF AND EQ PUSH2 0x13D JUMPI PUSH1 0x40 MLOAD PUSH32 0x8C379A000000000000000000000000000000000000000000000000000000000 DUP2 MSTORE PUSH1 0x4 ADD PUSH2 0x134 SWAP1 PUSH2 0x462 JUMP JUMPDEST PUSH1 0x40 MLOAD DUP1 SWAP2 SUB SWAP1 REVERT JUMPDEST PUSH1 0xA DUP2 GT ISZERO PUSH2 0x181 JUMPI PUSH1 0x40 MLOAD PUSH32 0x8C379A000000000000000000000000000000000000000000000000000000000 DUP2 MSTORE PUSH1 0x4 ADD PUSH2 0x178 SWAP1 PUSH2 0x4CA JUMP JUMPDEST PUSH1 0x40 MLOAD DUP1 SWAP2 SUB SWAP1 REVERT JUMPDEST DUP1 PUSH1 0x1 DUP2 SWAP1 SSTORE POP PUSH32 0x72B05FD7E6E407BEABEBD17AE121166880EFDC19A2A9B08063EAFC0C001E470A DUP2 PUSH1 0x40 MLOAD PUSH2 0x1B7 SWAP2 SWAP1 PUSH2 0x3C9 JUMP JUMPDEST PUSH1 0x40 MLOAD DUP1 SWAP2 SUB SWAP1 LOG1 POP JUMP JUMPDEST PUSH0 DUP1 SLOAD SWAP1 PUSH2 0x100 EXP SWAP1 DIV PUSH20 0xFFFFFFFFFFFFFFFFFFFFFFFFFFFFFFFFFFFFFFFF AND PUSH20 0xFFFFFFFFFFFFFFFFFFFFFFFFFFFFFFFFFFFFFFFF AND CALLER PUSH20 0xFFFFFFFFFFFFFFFFFFFFFFFFFFFFFFFFFFFFFFFF AND EQ PUSH2 0x24F JUMPI PUSH1 0x40 MLOAD PUSH32 0x8C379A000000000000000000000000000000000000000000000000000000000 DUP2 MSTORE PUSH1 0x4 ADD PUSH2 0x246 SWAP1 PUSH2 0x462 JUMP JUMPDEST PUSH1 0x40 MLOAD DUP1 SWAP2 SUB SWAP1 REVERT JUMPDEST PUSH0 SELFBALANCE SWAP1 POP PUSH0 PUSH1 0x64 PUSH1 0x1 SLOAD DUP4 PUSH2 0x264 SWAP2 SWAP1 PUSH2 0x515 JUMP JUMPDEST PUSH2 0x26E SWAP2 SWAP1 PUSH2 0x583 JUMP JUMPDEST SWAP1 POP PUSH0 DUP1 SLOAD SWAP1 PUSH2 0x100 EXP SWAP1 DIV PUSH20 0xFFFFFFFFFFFFFFFFFFFFFFFFFFFFFFFFFFFFFFFF AND PUSH20 0xFFFFFFFFFFFFFFFFFFFFFFFFFFFFFFFFFFFFFFFF AND PUSH2 0x8FC DUP3 SWAP1 DUP2 ISZERO MUL SWAP1 PUSH1 0x40 MLOAD PUSH0 PUSH1 0x40 MLOAD DUP1 DUP4 SUB DUP2 DUP6 DUP9 DUP9 CALL SWAP4 POP POP POP POP ISZERO DUP1 ISZERO PUSH2 0x2D2 JUMPI RETURNDATASIZE PUSH0 DUP1 RETURNDATACOPY RETURNDATASIZE PUSH0 REVERT JUMPDEST POP POP POP JUMP JUMPDEST PUSH0 DUP1 SLOAD SWAP1 PUSH2 0x100 EXP SWAP1 DIV PUSH20 0xFFFFFFFFFFFFFFFFFFFFFFFFFFFFFFFFFFFFFFFF AND DUP2 JUMP JUMPDEST PUSH1 0x1 SLOAD DUP2 JUMP JUMPDEST PUSH0 DUP1 REVERT JUMPDEST PUSH0 DUP2 SWAP1 POP SWAP2 SWAP1 POP JUMP JUMPDEST PUSH2 0x316 DUP2 PUSH2 0x304 JUMP JUMPDEST DUP2 EQ PUSH2 0x320 JUMPI PUSH0 DUP1 REVERT JUMPDEST POP JUMP JUMPDEST PUSH0 DUP2 CALLDATALOAD SWAP1 POP PUSH2 0x331 DUP2 PUSH2 0x30D JUMP JUMPDEST SWAP3 SWAP2 POP POP JUMP JUMPDEST PUSH0 PUSH1 0x20 DUP3 DUP5 SUB SLT ISZERO PUSH2 0x34C JUMPI PUSH2 0x34B PUSH2 0x300 JUMP JUMPDEST JUMPDEST PUSH0 PUSH2 0x359 DUP5 DUP3 DUP6 ADD PUSH2 0x323 JUMP JUMPDEST SWAP2 POP POP SWAP3 SWAP2 POP POP JUMP JUMPDEST PUSH0 PUSH20 0xFFFFFFFFFFFFFFFFFFFFFFFFFFFFFFFFFFFFFFFF DUP3 AND SWAP1 POP SWAP2 SWAP1 POP JUMP JUMPDEST PUSH0 PUSH2 0x38B DUP3 PUSH2 0x362 JUMP JUMPDEST SWAP1 POP SWAP2 SWAP1 POP JUMP JUMPDEST PUSH2 0x39B DUP2 PUSH2 0x381 JUMP JUMPDEST DUP3 MSTORE POP POP JUMP JUMPDEST PUSH0 PUSH1 0x20 DUP3 ADD SWAP1 POP PUSH2 0x3B4 PUSH0 DUP4 ADD DUP5 PUSH2 0x392 JUMP JUMPDEST SWAP3 SWAP2 POP POP JUMP JUMPDEST PUSH2 0x3C3 DUP2 PUSH2 0x304 JUMP JUMPDEST DUP3 MSTORE POP POP JUMP JUMPDEST PUSH0 PUSH1 0x20 DUP3 ADD SWAP1 POP PUSH2 0x3DC PUSH0 DUP4 ADD DUP5 PUSH2 0x3BA JUMP JUMPDEST SWAP3 SWAP2 POP POP JUMP JUMPDEST PUSH0 DUP3 DUP3 MSTORE PUSH1 0x20 DUP3 ADD SWAP1 POP SWAP3 SWAP2 POP POP JUMP JUMPDEST PUSH32 0x4F6E6C7920746865206F776E65722063616E2063616C6C20746869732066756E PUSH0 DUP3 ADD MSTORE PUSH32 0x6374696F6E000000000000000000000000000000000000000000000000000000 PUSH1 0x20 DUP3 ADD MSTORE POP JUMP JUMPDEST PUSH0 PUSH2 0x44C PUSH1 0x25 DUP4 PUSH2 0x3E2 JUMP JUMPDEST SWAP2 POP PUSH2 0x457 DUP3 PUSH2 0x3F2 JUMP JUMPDEST PUSH1 0x40 DUP3 ADD SWAP1 POP SWAP2 SWAP1 POP JUMP JUMPDEST PUSH0 PUSH1 0x20 DUP3 ADD SWAP1 POP DUP2 DUP2 SUB PUSH0 DUP4 ADD MSTORE PUSH2 0x479 DUP2 PUSH2 0x440 JUMP JUMPDEST SWAP1 POP SWAP2 SWAP1 POP JUMP JUMPDEST PUSH32 0x4665652063616E27742065786365656420313025000000000000000000000000 PUSH0 DUP3 ADD MSTORE POP JUMP JUMPDEST PUSH0 PUSH2 0x4B4 PUSH1 0x14 DUP4 PUSH2 0x3E2 JUMP JUMPDEST SWAP2 POP PUSH2 0x4BF DUP3 PUSH2 0x480 JUMP JUMPDEST PUSH1 0x20 DUP3 ADD SWAP1 POP SWAP2 SWAP1 POP JUMP JUMPDEST PUSH0 PUSH1 0x20 DUP3 ADD SWAP1 POP DUP2 DUP2 SUB PUSH0 DUP4 ADD MSTORE PUSH2 0x4E1 DUP2 PUSH2 0x4A8 JUMP JUMPDEST SWAP1 POP SWAP2 SWAP1 POP JUMP JUMPDEST PUSH32 0x4E487B7100000000000000000000000000000000000000000000000000000000 PUSH0 MSTORE PUSH1 0x11 PUSH1 0x4 MSTORE PUSH1 0x24 PUSH0 REVERT JUMPDEST PUSH0 PUSH2 0x51F DUP3 PUSH2 0x304 JUMP JUMPDEST SWAP2 POP PUSH2 0x52A DUP4 PUSH2 0x304 JUMP JUMPDEST SWAP3 POP DUP3 DUP3 MUL PUSH2 0x538 DUP2 PUSH2 0x304 JUMP JUMPDEST SWAP2 POP DUP3 DUP3 DIV DUP5 EQ DUP4 ISZERO OR PUSH2 0x54F JUMPI PUSH2 0x54E PUSH2 0x4E8 JUMP JUMPDEST JUMPDEST POP SWAP3 SWAP2 POP POP JUMP JUMPDEST PUSH32 0x4E487B7100000000000000000000000000000000000000000000000000000000 PUSH0 MSTORE PUSH1 0x12 PUSH1 0x4 MSTORE PUSH1 0x24 PUSH0 REVERT JUMPDEST PUSH0 PUSH2 0x58D DUP3 PUSH2 0x304 JUMP JUMPDEST SWAP2 POP PUSH2 0x598 DUP4 PUSH2 0x304 JUMP JUMPDEST SWAP3 POP DUP3 PUSH2 0x5A8 JUMPI PUSH2 0x5A7 PUSH2 0x556 JUMP JUMPDEST JUMPDEST DUP3 DUP3 DIV SWAP1 POP SWAP3 SWAP2 POP POP JUMP INVALID LOG2 PUSH5 0x6970667358 0x22 SLT KECCAK256 0xD3 SWAP16 0x23 0xD9 SWAP4 BLOCKHASH 0xE6 0xF SWAP13 0x4F 0xD3 0xCB 0xF9 KECCAK256 SIGNEXTEND PUSH29 0x440AF194A20DFBA8665EAC1CB0460D3A64736F6C634300081400330000 "
				},
				"gasEstimates": {
					"creation": {
						"codeDepositCost": "302600",
						"executionCost": "46720",
						"totalCost": "349320"
					},
					"external": {
						"owner()": "2527",
						"platformFeePercentage()": "2469",
						"setPlatformFee(uint256)": "infinite",
						"withdrawFees()": "infinite"
					}
				},
				"methodIdentifiers": {
					"owner()": "8da5cb5b",
					"platformFeePercentage()": "cdd78cfc",
					"setPlatformFee(uint256)": "12e8e2c3",
					"withdrawFees()": "476343ee"
				}
			},
			"storageLayout": {
				"storage": [
					{
						"astId": 3,
						"contract": "contracts/QuizPlatform.sol:QuizPlatform",
						"label": "owner",
						"offset": 0,
						"slot": "0",
						"type": "t_address"
					},
					{
						"astId": 5,
						"contract": "contracts/QuizPlatform.sol:QuizPlatform",
						"label": "platformFeePercentage",
						"offset": 0,
						"slot": "1",
						"type": "t_uint256"
					}
				],
				"types": {
					"t_address": {
						"encoding": "inplace",
						"label": "address",
						"numberOfBytes": "20"
					},
					"t_uint256": {
						"encoding": "inplace",
						"label": "uint256",
						"numberOfBytes": "32"
					}
				}
			},
			"userdoc": {
				"kind": "user",
				"methods": {},
				"version": 1
			}
		}
	}
}