{
	"contracts/Entry.sol": {
		"Entry": {
			"abi": [
				{
					"inputs": [],
					"stateMutability": "nonpayable",
					"type": "constructor"
				},
				{
					"inputs": [],
					"name": "Raffle__NotEnoughETHEntered",
					"type": "error"
				},
				{
					"anonymous": false,
					"inputs": [
						{
							"indexed": true,
							"internalType": "address",
							"name": "participant",
							"type": "address"
						},
						{
							"indexed": false,
							"internalType": "uint256",
							"name": "feeAmount",
							"type": "uint256"
						}
					],
					"name": "FeeEntry",
					"type": "event"
				},
				{
					"anonymous": false,
					"inputs": [
						{
							"indexed": true,
							"internalType": "address",
							"name": "host",
							"type": "address"
						},
						{
							"indexed": false,
							"internalType": "address[]",
							"name": "participants",
							"type": "address[]"
						},
						{
							"indexed": false,
							"internalType": "uint256[]",
							"name": "amounts",
							"type": "uint256[]"
						}
					],
					"name": "PrizeDistributed",
					"type": "event"
				},
				{
					"anonymous": false,
					"inputs": [
						{
							"indexed": false,
							"internalType": "uint256",
							"name": "newPrizePool",
							"type": "uint256"
						}
					],
					"name": "PrizeIncreased",
					"type": "event"
				},
				{
					"anonymous": false,
					"inputs": [
						{
							"indexed": false,
							"internalType": "uint256",
							"name": "prizePool",
							"type": "uint256"
						}
					],
					"name": "PrizePoolSet",
					"type": "event"
				},
				{
					"inputs": [
						{
							"internalType": "address[]",
							"name": "participants",
							"type": "address[]"
						},
						{
							"internalType": "uint256[]",
							"name": "ratios",
							"type": "uint256[]"
						}
					],
					"name": "distributePrize",
					"outputs": [],
					"stateMutability": "nonpayable",
					"type": "function"
				},
				{
					"inputs": [],
					"name": "getEntryFee",
					"outputs": [
						{
							"internalType": "uint256",
							"name": "",
							"type": "uint256"
						}
					],
					"stateMutability": "view",
					"type": "function"
				},
				{
					"inputs": [
						{
							"internalType": "uint256",
							"name": "index",
							"type": "uint256"
						}
					],
					"name": "getMemoAtIndex",
					"outputs": [
						{
							"internalType": "string",
							"name": "",
							"type": "string"
						},
						{
							"internalType": "uint256",
							"name": "",
							"type": "uint256"
						},
						{
							"internalType": "address",
							"name": "",
							"type": "address"
						}
					],
					"stateMutability": "view",
					"type": "function"
				},
				{
					"inputs": [
						{
							"internalType": "string",
							"name": "searchName",
							"type": "string"
						}
					],
					"name": "getMemoDetailsByName",
					"outputs": [
						{
							"internalType": "uint256",
							"name": "",
							"type": "uint256"
						},
						{
							"internalType": "address",
							"name": "",
							"type": "address"
						}
					],
					"stateMutability": "view",
					"type": "function"
				},
				{
					"inputs": [],
					"name": "getMemosLength",
					"outputs": [
						{
							"internalType": "uint256",
							"name": "",
							"type": "uint256"
						}
					],
					"stateMutability": "view",
					"type": "function"
				},
				{
					"inputs": [],
					"name": "getPrizePool",
					"outputs": [
						{
							"internalType": "uint256",
							"name": "",
							"type": "uint256"
						}
					],
					"stateMutability": "view",
					"type": "function"
				},
				{
					"inputs": [],
					"name": "getTotalEntryFees",
					"outputs": [
						{
							"internalType": "uint256",
							"name": "",
							"type": "uint256"
						}
					],
					"stateMutability": "view",
					"type": "function"
				},
				{
					"inputs": [],
					"name": "owner",
					"outputs": [
						{
							"internalType": "address payable",
							"name": "",
							"type": "address"
						}
					],
					"stateMutability": "view",
					"type": "function"
				},
				{
					"inputs": [
						{
							"internalType": "string",
							"name": "name",
							"type": "string"
						}
					],
					"name": "payEntryFee",
					"outputs": [],
					"stateMutability": "payable",
					"type": "function"
				},
				{
					"inputs": [],
					"name": "prizePool",
					"outputs": [
						{
							"internalType": "uint256",
							"name": "",
							"type": "uint256"
						}
					],
					"stateMutability": "view",
					"type": "function"
				},
				{
					"inputs": [
						{
							"internalType": "uint256",
							"name": "newEntryFee",
							"type": "uint256"
						}
					],
					"name": "setEntryFee",
					"outputs": [],
					"stateMutability": "nonpayable",
					"type": "function"
				},
				{
					"inputs": [
						{
							"internalType": "uint256",
							"name": "newPrizePool",
							"type": "uint256"
						}
					],
					"name": "setPrizePool",
					"outputs": [],
					"stateMutability": "nonpayable",
					"type": "function"
				},
				{
					"inputs": [],
					"name": "totalEntryFees",
					"outputs": [
						{
							"internalType": "uint256",
							"name": "",
							"type": "uint256"
						}
					],
					"stateMutability": "view",
					"type": "function"
				}
			],
			"devdoc": {
				"kind": "dev",
				"methods": {},
				"version": 1
			},
			"evm": {
				"assembly": "    /* \"contracts/Entry.sol\":155:4152  contract Entry {... */\n  mstore(0x40, 0x80)\n    /* \"contracts/Entry.sol\":880:938  constructor() {... */\n  callvalue\n  dup1\n  iszero\n  tag_1\n  jumpi\n  0x00\n  dup1\n  revert\ntag_1:\n  pop\n    /* \"contracts/Entry.sol\":920:930  msg.sender */\n  caller\n    /* \"contracts/Entry.sol\":904:909  owner */\n  0x05\n  0x00\n    /* \"contracts/Entry.sol\":904:931  owner = payable(msg.sender) */\n  0x0100\n  exp\n  dup2\n  sload\n  dup2\n  0xffffffffffffffffffffffffffffffffffffffff\n  mul\n  not\n  and\n  swap1\n  dup4\n  0xffffffffffffffffffffffffffffffffffffffff\n  and\n  mul\n  or\n  swap1\n  sstore\n  pop\n    /* \"contracts/Entry.sol\":155:4152  contract Entry {... */\n  dataSize(sub_0)\n  dup1\n  dataOffset(sub_0)\n  0x00\n  codecopy\n  0x00\n  return\nstop\n\nsub_0: assembly {\n        /* \"contracts/Entry.sol\":155:4152  contract Entry {... */\n      mstore(0x40, 0x80)\n      jumpi(tag_1, lt(calldatasize, 0x04))\n      shr(0xe0, calldataload(0x00))\n      dup1\n      0x884bf67c\n      gt\n      tag_15\n      jumpi\n      dup1\n      0xc81c7a53\n      gt\n      tag_16\n      jumpi\n      dup1\n      0xc81c7a53\n      eq\n      tag_11\n      jumpi\n      dup1\n      0xda0be86c\n      eq\n      tag_12\n      jumpi\n      dup1\n      0xe586a4f0\n      eq\n      tag_13\n      jumpi\n      dup1\n      0xeb770d0c\n      eq\n      tag_14\n      jumpi\n      jump(tag_1)\n    tag_16:\n      dup1\n      0x884bf67c\n      eq\n      tag_8\n      jumpi\n      dup1\n      0x89881253\n      eq\n      tag_9\n      jumpi\n      dup1\n      0x8da5cb5b\n      eq\n      tag_10\n      jumpi\n      jump(tag_1)\n    tag_15:\n      dup1\n      0x47e8c560\n      eq\n      tag_2\n      jumpi\n      dup1\n      0x64043cda\n      eq\n      tag_3\n      jumpi\n      dup1\n      0x669115bf\n      eq\n      tag_4\n      jumpi\n      dup1\n      0x6a4966b8\n      eq\n      tag_5\n      jumpi\n      dup1\n      0x719ce73e\n      eq\n      tag_6\n      jumpi\n      dup1\n      0x7b3888a7\n      eq\n      tag_7\n      jumpi\n    tag_1:\n      0x00\n      dup1\n      revert\n        /* \"contracts/Entry.sol\":1894:3029  function distributePrize(address[] memory participants, uint256[] memory ratios) external onlyOwner {... */\n    tag_2:\n      callvalue\n      dup1\n      iszero\n      tag_17\n      jumpi\n      0x00\n      dup1\n      revert\n    tag_17:\n      pop\n      tag_18\n      0x04\n      dup1\n      calldatasize\n      sub\n      dup2\n      add\n      swap1\n      tag_19\n      swap2\n      swap1\n      tag_20\n      jump\t// in\n    tag_19:\n      tag_21\n      jump\t// in\n    tag_18:\n      stop\n        /* \"contracts/Entry.sol\":3401:3857  function getMemoDetailsByName(string memory searchName) external view returns (uint256, address) {... */\n    tag_3:\n      callvalue\n      dup1\n      iszero\n      tag_22\n      jumpi\n      0x00\n      dup1\n      revert\n    tag_22:\n      pop\n      tag_23\n      0x04\n      dup1\n      calldatasize\n      sub\n      dup2\n      add\n      swap1\n      tag_24\n      swap2\n      swap1\n      tag_25\n      jump\t// in\n    tag_24:\n      tag_26\n      jump\t// in\n    tag_23:\n      mload(0x40)\n      tag_27\n      swap3\n      swap2\n      swap1\n      tag_28\n      jump\t// in\n    tag_27:\n      mload(0x40)\n      dup1\n      swap2\n      sub\n      swap1\n      return\n        /* \"contracts/Entry.sol\":3136:3395  function getMemoAtIndex(uint256 index) external view returns (string memory, uint256, address) {... */\n    tag_4:\n      callvalue\n      dup1\n      iszero\n      tag_29\n      jumpi\n      0x00\n      dup1\n      revert\n    tag_29:\n      pop\n      tag_30\n      0x04\n      dup1\n      calldatasize\n      sub\n      dup2\n      add\n      swap1\n      tag_31\n      swap2\n      swap1\n      tag_32\n      jump\t// in\n    tag_31:\n      tag_33\n      jump\t// in\n    tag_30:\n      mload(0x40)\n      tag_34\n      swap4\n      swap3\n      swap2\n      swap1\n      tag_35\n      jump\t// in\n    tag_34:\n      mload(0x40)\n      dup1\n      swap2\n      sub\n      swap1\n      return\n        /* \"contracts/Entry.sol\":1050:1192  function setPrizePool(uint256 newPrizePool) external onlyOwner {... */\n    tag_5:\n      callvalue\n      dup1\n      iszero\n      tag_36\n      jumpi\n      0x00\n      dup1\n      revert\n    tag_36:\n      pop\n      tag_37\n      0x04\n      dup1\n      calldatasize\n      sub\n      dup2\n      add\n      swap1\n      tag_38\n      swap2\n      swap1\n      tag_32\n      jump\t// in\n    tag_38:\n      tag_39\n      jump\t// in\n    tag_37:\n      stop\n        /* \"contracts/Entry.sol\":239:263  uint256 public prizePool */\n    tag_6:\n      callvalue\n      dup1\n      iszero\n      tag_40\n      jumpi\n      0x00\n      dup1\n      revert\n    tag_40:\n      pop\n      tag_41\n      tag_42\n      jump\t// in\n    tag_41:\n      mload(0x40)\n      tag_43\n      swap2\n      swap1\n      tag_44\n      jump\t// in\n    tag_43:\n      mload(0x40)\n      dup1\n      swap2\n      sub\n      swap1\n      return\n        /* \"contracts/Entry.sol\":4051:4150  function getTotalEntryFees() external view returns (uint256) {... */\n    tag_7:\n      callvalue\n      dup1\n      iszero\n      tag_45\n      jumpi\n      0x00\n      dup1\n      revert\n    tag_45:\n      pop\n      tag_46\n      tag_47\n      jump\t// in\n    tag_46:\n      mload(0x40)\n      tag_48\n      swap2\n      swap1\n      tag_44\n      jump\t// in\n    tag_48:\n      mload(0x40)\n      dup1\n      swap2\n      sub\n      swap1\n      return\n        /* \"contracts/Entry.sol\":3956:4045  function getPrizePool() external view returns (uint256) {... */\n    tag_8:\n      callvalue\n      dup1\n      iszero\n      tag_49\n      jumpi\n      0x00\n      dup1\n      revert\n    tag_49:\n      pop\n      tag_50\n      tag_51\n      jump\t// in\n    tag_50:\n      mload(0x40)\n      tag_52\n      swap2\n      swap1\n      tag_44\n      jump\t// in\n    tag_52:\n      mload(0x40)\n      dup1\n      swap2\n      sub\n      swap1\n      return\n        /* \"contracts/Entry.sol\":3036:3130  function getMemosLength() external view returns (uint256) {... */\n    tag_9:\n      callvalue\n      dup1\n      iszero\n      tag_53\n      jumpi\n      0x00\n      dup1\n      revert\n    tag_53:\n      pop\n      tag_54\n      tag_55\n      jump\t// in\n    tag_54:\n      mload(0x40)\n      tag_56\n      swap2\n      swap1\n      tag_44\n      jump\t// in\n    tag_56:\n      mload(0x40)\n      dup1\n      swap2\n      sub\n      swap1\n      return\n        /* \"contracts/Entry.sol\":725:753  address payable public owner */\n    tag_10:\n      callvalue\n      dup1\n      iszero\n      tag_57\n      jumpi\n      0x00\n      dup1\n      revert\n    tag_57:\n      pop\n      tag_58\n      tag_59\n      jump\t// in\n    tag_58:\n      mload(0x40)\n      tag_60\n      swap2\n      swap1\n      tag_61\n      jump\t// in\n    tag_60:\n      mload(0x40)\n      dup1\n      swap2\n      sub\n      swap1\n      return\n        /* \"contracts/Entry.sol\":1198:1892  function payEntryFee(string memory name) public payable {... */\n    tag_11:\n      tag_62\n      0x04\n      dup1\n      calldatasize\n      sub\n      dup2\n      add\n      swap1\n      tag_63\n      swap2\n      swap1\n      tag_25\n      jump\t// in\n    tag_63:\n      tag_64\n      jump\t// in\n    tag_62:\n      stop\n        /* \"contracts/Entry.sol\":269:298  uint256 public totalEntryFees */\n    tag_12:\n      callvalue\n      dup1\n      iszero\n      tag_65\n      jumpi\n      0x00\n      dup1\n      revert\n    tag_65:\n      pop\n      tag_66\n      tag_67\n      jump\t// in\n    tag_66:\n      mload(0x40)\n      tag_68\n      swap2\n      swap1\n      tag_44\n      jump\t// in\n    tag_68:\n      mload(0x40)\n      dup1\n      swap2\n      sub\n      swap1\n      return\n        /* \"contracts/Entry.sol\":3863:3950  function getEntryFee() external view returns (uint256) {... */\n    tag_13:\n      callvalue\n      dup1\n      iszero\n      tag_69\n      jumpi\n      0x00\n      dup1\n      revert\n    tag_69:\n      pop\n      tag_70\n      tag_71\n      jump\t// in\n    tag_70:\n      mload(0x40)\n      tag_72\n      swap2\n      swap1\n      tag_44\n      jump\t// in\n    tag_72:\n      mload(0x40)\n      dup1\n      swap2\n      sub\n      swap1\n      return\n        /* \"contracts/Entry.sol\":944:1044  function setEntryFee(uint256 newEntryFee) external onlyOwner {... */\n    tag_14:\n      callvalue\n      dup1\n      iszero\n      tag_73\n      jumpi\n      0x00\n      dup1\n      revert\n    tag_73:\n      pop\n      tag_74\n      0x04\n      dup1\n      calldatasize\n      sub\n      dup2\n      add\n      swap1\n      tag_75\n      swap2\n      swap1\n      tag_32\n      jump\t// in\n    tag_75:\n      tag_76\n      jump\t// in\n    tag_74:\n      stop\n        /* \"contracts/Entry.sol\":1894:3029  function distributePrize(address[] memory participants, uint256[] memory ratios) external onlyOwner {... */\n    tag_21:\n        /* \"contracts/Entry.sol\":813:818  owner */\n      0x05\n      0x00\n      swap1\n      sload\n      swap1\n      0x0100\n      exp\n      swap1\n      div\n      0xffffffffffffffffffffffffffffffffffffffff\n      and\n        /* \"contracts/Entry.sol\":799:818  msg.sender == owner */\n      0xffffffffffffffffffffffffffffffffffffffff\n      and\n        /* \"contracts/Entry.sol\":799:809  msg.sender */\n      caller\n        /* \"contracts/Entry.sol\":799:818  msg.sender == owner */\n      0xffffffffffffffffffffffffffffffffffffffff\n      and\n      eq\n        /* \"contracts/Entry.sol\":791:856  require(msg.sender == owner, \"Only owner can call this function\") */\n      tag_78\n      jumpi\n      mload(0x40)\n      0x08c379a000000000000000000000000000000000000000000000000000000000\n      dup2\n      mstore\n      0x04\n      add\n      tag_79\n      swap1\n      tag_80\n      jump\t// in\n    tag_79:\n      mload(0x40)\n      dup1\n      swap2\n      sub\n      swap1\n      revert\n    tag_78:\n        /* \"contracts/Entry.sol\":2031:2032  3 */\n      0x03\n        /* \"contracts/Entry.sol\":2008:2020  participants */\n      dup3\n        /* \"contracts/Entry.sol\":2008:2027  participants.length */\n      mload\n        /* \"contracts/Entry.sol\":2008:2032  participants.length == 3 */\n      eq\n        /* \"contracts/Entry.sol\":2000:2072  require(participants.length == 3, \"Must provide exactly 3 participants\") */\n      tag_82\n      jumpi\n      mload(0x40)\n      0x08c379a000000000000000000000000000000000000000000000000000000000\n      dup2\n      mstore\n      0x04\n      add\n      tag_83\n      swap1\n      tag_84\n      jump\t// in\n    tag_83:\n      mload(0x40)\n      dup1\n      swap2\n      sub\n      swap1\n      revert\n    tag_82:\n        /* \"contracts/Entry.sol\":2103:2104  4 */\n      0x04\n        /* \"contracts/Entry.sol\":2086:2092  ratios */\n      dup2\n        /* \"contracts/Entry.sol\":2086:2099  ratios.length */\n      mload\n        /* \"contracts/Entry.sol\":2086:2104  ratios.length == 4 */\n      eq\n        /* \"contracts/Entry.sol\":2078:2130  require(ratios.length == 4, \"Must provide 4 ratios\") */\n      tag_85\n      jumpi\n      mload(0x40)\n      0x08c379a000000000000000000000000000000000000000000000000000000000\n      dup2\n      mstore\n      0x04\n      add\n      tag_86\n      swap1\n      tag_87\n      jump\t// in\n    tag_86:\n      mload(0x40)\n      dup1\n      swap2\n      sub\n      swap1\n      revert\n    tag_85:\n        /* \"contracts/Entry.sol\":2178:2201  uint256 totalPercentage */\n      0x00\n        /* \"contracts/Entry.sol\":2216:2225  uint256 i */\n      dup1\n        /* \"contracts/Entry.sol\":2211:2320  for (uint256 i = 0; i < ratios.length; i++) {... */\n    tag_88:\n        /* \"contracts/Entry.sol\":2235:2241  ratios */\n      dup3\n        /* \"contracts/Entry.sol\":2235:2248  ratios.length */\n      mload\n        /* \"contracts/Entry.sol\":2231:2232  i */\n      dup2\n        /* \"contracts/Entry.sol\":2231:2248  i < ratios.length */\n      lt\n        /* \"contracts/Entry.sol\":2211:2320  for (uint256 i = 0; i < ratios.length; i++) {... */\n      iszero\n      tag_89\n      jumpi\n        /* \"contracts/Entry.sol\":2283:2313  totalPercentage.add(ratios[i]) */\n      tag_91\n        /* \"contracts/Entry.sol\":2303:2309  ratios */\n      dup4\n        /* \"contracts/Entry.sol\":2310:2311  i */\n      dup3\n        /* \"contracts/Entry.sol\":2303:2312  ratios[i] */\n      dup2\n      mload\n      dup2\n      lt\n      tag_92\n      jumpi\n      tag_93\n      tag_94\n      jump\t// in\n    tag_93:\n    tag_92:\n      0x20\n      mul\n      0x20\n      add\n      add\n      mload\n        /* \"contracts/Entry.sol\":2283:2298  totalPercentage */\n      dup4\n        /* \"contracts/Entry.sol\":2283:2302  totalPercentage.add */\n      tag_95\n      swap1\n        /* \"contracts/Entry.sol\":2283:2313  totalPercentage.add(ratios[i]) */\n      swap2\n      swap1\n      0xffffffff\n      and\n      jump\t// in\n    tag_91:\n        /* \"contracts/Entry.sol\":2265:2313  totalPercentage = totalPercentage.add(ratios[i]) */\n      swap2\n      pop\n        /* \"contracts/Entry.sol\":2250:2253  i++ */\n      dup1\n      dup1\n      0x01\n      add\n      swap2\n      pop\n      pop\n        /* \"contracts/Entry.sol\":2211:2320  for (uint256 i = 0; i < ratios.length; i++) {... */\n      jump(tag_88)\n    tag_89:\n      pop\n        /* \"contracts/Entry.sol\":2330:2347  uint256 hostShare */\n      0x00\n        /* \"contracts/Entry.sol\":2350:2383  prizePool.mul(ratios[0]).div(100) */\n      tag_96\n        /* \"contracts/Entry.sol\":2379:2382  100 */\n      0x64\n        /* \"contracts/Entry.sol\":2350:2374  prizePool.mul(ratios[0]) */\n      tag_97\n        /* \"contracts/Entry.sol\":2364:2370  ratios */\n      dup6\n        /* \"contracts/Entry.sol\":2371:2372  0 */\n      0x00\n        /* \"contracts/Entry.sol\":2364:2373  ratios[0] */\n      dup2\n      mload\n      dup2\n      lt\n      tag_98\n      jumpi\n      tag_99\n      tag_94\n      jump\t// in\n    tag_99:\n    tag_98:\n      0x20\n      mul\n      0x20\n      add\n      add\n      mload\n        /* \"contracts/Entry.sol\":2350:2359  prizePool */\n      sload(0x01)\n        /* \"contracts/Entry.sol\":2350:2363  prizePool.mul */\n      tag_100\n      swap1\n        /* \"contracts/Entry.sol\":2350:2374  prizePool.mul(ratios[0]) */\n      swap2\n      swap1\n      0xffffffff\n      and\n      jump\t// in\n    tag_97:\n        /* \"contracts/Entry.sol\":2350:2378  prizePool.mul(ratios[0]).div */\n      tag_101\n      swap1\n        /* \"contracts/Entry.sol\":2350:2383  prizePool.mul(ratios[0]).div(100) */\n      swap2\n      swap1\n      0xffffffff\n      and\n      jump\t// in\n    tag_96:\n        /* \"contracts/Entry.sol\":2330:2383  uint256 hostShare = prizePool.mul(ratios[0]).div(100) */\n      swap1\n      pop\n        /* \"contracts/Entry.sol\":2389:2413  uint256 participantShare */\n      0x00\n        /* \"contracts/Entry.sol\":2416:2449  prizePool.mul(ratios[1]).div(100) */\n      tag_102\n        /* \"contracts/Entry.sol\":2445:2448  100 */\n      0x64\n        /* \"contracts/Entry.sol\":2416:2440  prizePool.mul(ratios[1]) */\n      tag_103\n        /* \"contracts/Entry.sol\":2430:2436  ratios */\n      dup7\n        /* \"contracts/Entry.sol\":2437:2438  1 */\n      0x01\n        /* \"contracts/Entry.sol\":2430:2439  ratios[1] */\n      dup2\n      mload\n      dup2\n      lt\n      tag_104\n      jumpi\n      tag_105\n      tag_94\n      jump\t// in\n    tag_105:\n    tag_104:\n      0x20\n      mul\n      0x20\n      add\n      add\n      mload\n        /* \"contracts/Entry.sol\":2416:2425  prizePool */\n      sload(0x01)\n        /* \"contracts/Entry.sol\":2416:2429  prizePool.mul */\n      tag_100\n      swap1\n        /* \"contracts/Entry.sol\":2416:2440  prizePool.mul(ratios[1]) */\n      swap2\n      swap1\n      0xffffffff\n      and\n      jump\t// in\n    tag_103:\n        /* \"contracts/Entry.sol\":2416:2444  prizePool.mul(ratios[1]).div */\n      tag_101\n      swap1\n        /* \"contracts/Entry.sol\":2416:2449  prizePool.mul(ratios[1]).div(100) */\n      swap2\n      swap1\n      0xffffffff\n      and\n      jump\t// in\n    tag_102:\n        /* \"contracts/Entry.sol\":2389:2449  uint256 participantShare = prizePool.mul(ratios[1]).div(100) */\n      swap1\n      pop\n        /* \"contracts/Entry.sol\":2456:2461  owner */\n      0x05\n      0x00\n      swap1\n      sload\n      swap1\n      0x0100\n      exp\n      swap1\n      div\n      0xffffffffffffffffffffffffffffffffffffffff\n      and\n        /* \"contracts/Entry.sol\":2456:2470  owner.transfer */\n      0xffffffffffffffffffffffffffffffffffffffff\n      and\n        /* \"contracts/Entry.sol\":2456:2481  owner.transfer(hostShare) */\n      0x08fc\n        /* \"contracts/Entry.sol\":2471:2480  hostShare */\n      dup4\n        /* \"contracts/Entry.sol\":2456:2481  owner.transfer(hostShare) */\n      swap1\n      dup2\n      iszero\n      mul\n      swap1\n      mload(0x40)\n      0x00\n      mload(0x40)\n      dup1\n      dup4\n      sub\n      dup2\n      dup6\n      dup9\n      dup9\n      call\n      swap4\n      pop\n      pop\n      pop\n      pop\n      iszero\n      dup1\n      iszero\n      tag_107\n      jumpi\n      returndatasize\n      0x00\n      dup1\n      returndatacopy\n      revert(0x00, returndatasize)\n    tag_107:\n      pop\n        /* \"contracts/Entry.sol\":2488:2512  address[] memory winners */\n      0x00\n        /* \"contracts/Entry.sol\":2529:2530  3 */\n      0x03\n        /* \"contracts/Entry.sol\":2515:2531  new address[](3) */\n      0xffffffffffffffff\n      dup2\n      gt\n      iszero\n      tag_108\n      jumpi\n      tag_109\n      tag_110\n      jump\t// in\n    tag_109:\n    tag_108:\n      mload(0x40)\n      swap1\n      dup1\n      dup3\n      mstore\n      dup1\n      0x20\n      mul\n      0x20\n      add\n      dup3\n      add\n      0x40\n      mstore\n      dup1\n      iszero\n      tag_111\n      jumpi\n      dup2\n      0x20\n      add\n      0x20\n      dup3\n      mul\n      dup1\n      calldatasize\n      dup4\n      calldatacopy\n      dup1\n      dup3\n      add\n      swap2\n      pop\n      pop\n      swap1\n      pop\n    tag_111:\n      pop\n        /* \"contracts/Entry.sol\":2488:2531  address[] memory winners = new address[](3) */\n      swap1\n      pop\n        /* \"contracts/Entry.sol\":2537:2561  uint256[] memory amounts */\n      0x00\n        /* \"contracts/Entry.sol\":2578:2579  3 */\n      0x03\n        /* \"contracts/Entry.sol\":2564:2580  new uint256[](3) */\n      0xffffffffffffffff\n      dup2\n      gt\n      iszero\n      tag_112\n      jumpi\n      tag_113\n      tag_110\n      jump\t// in\n    tag_113:\n    tag_112:\n      mload(0x40)\n      swap1\n      dup1\n      dup3\n      mstore\n      dup1\n      0x20\n      mul\n      0x20\n      add\n      dup3\n      add\n      0x40\n      mstore\n      dup1\n      iszero\n      tag_114\n      jumpi\n      dup2\n      0x20\n      add\n      0x20\n      dup3\n      mul\n      dup1\n      calldatasize\n      dup4\n      calldatacopy\n      dup1\n      dup3\n      add\n      swap2\n      pop\n      pop\n      swap1\n      pop\n    tag_114:\n      pop\n        /* \"contracts/Entry.sol\":2537:2580  uint256[] memory amounts = new uint256[](3) */\n      swap1\n      pop\n        /* \"contracts/Entry.sol\":2600:2612  participants */\n      dup7\n        /* \"contracts/Entry.sol\":2613:2614  0 */\n      0x00\n        /* \"contracts/Entry.sol\":2600:2615  participants[0] */\n      dup2\n      mload\n      dup2\n      lt\n      tag_115\n      jumpi\n      tag_116\n      tag_94\n      jump\t// in\n    tag_116:\n    tag_115:\n      0x20\n      mul\n      0x20\n      add\n      add\n      mload\n        /* \"contracts/Entry.sol\":2587:2594  winners */\n      dup3\n        /* \"contracts/Entry.sol\":2595:2596  0 */\n      0x00\n        /* \"contracts/Entry.sol\":2587:2597  winners[0] */\n      dup2\n      mload\n      dup2\n      lt\n      tag_117\n      jumpi\n      tag_118\n      tag_94\n      jump\t// in\n    tag_118:\n    tag_117:\n      0x20\n      mul\n      0x20\n      add\n      add\n        /* \"contracts/Entry.sol\":2587:2615  winners[0] = participants[0] */\n      swap1\n      0xffffffffffffffffffffffffffffffffffffffff\n      and\n      swap1\n      dup2\n      0xffffffffffffffffffffffffffffffffffffffff\n      and\n      dup2\n      mstore\n      pop\n      pop\n        /* \"contracts/Entry.sol\":2634:2674  participantShare.mul(ratios[2]).div(100) */\n      tag_119\n        /* \"contracts/Entry.sol\":2670:2673  100 */\n      0x64\n        /* \"contracts/Entry.sol\":2634:2665  participantShare.mul(ratios[2]) */\n      tag_120\n        /* \"contracts/Entry.sol\":2655:2661  ratios */\n      dup9\n        /* \"contracts/Entry.sol\":2662:2663  2 */\n      0x02\n        /* \"contracts/Entry.sol\":2655:2664  ratios[2] */\n      dup2\n      mload\n      dup2\n      lt\n      tag_121\n      jumpi\n      tag_122\n      tag_94\n      jump\t// in\n    tag_122:\n    tag_121:\n      0x20\n      mul\n      0x20\n      add\n      add\n      mload\n        /* \"contracts/Entry.sol\":2634:2650  participantShare */\n      dup7\n        /* \"contracts/Entry.sol\":2634:2654  participantShare.mul */\n      tag_100\n      swap1\n        /* \"contracts/Entry.sol\":2634:2665  participantShare.mul(ratios[2]) */\n      swap2\n      swap1\n      0xffffffff\n      and\n      jump\t// in\n    tag_120:\n        /* \"contracts/Entry.sol\":2634:2669  participantShare.mul(ratios[2]).div */\n      tag_101\n      swap1\n        /* \"contracts/Entry.sol\":2634:2674  participantShare.mul(ratios[2]).div(100) */\n      swap2\n      swap1\n      0xffffffff\n      and\n      jump\t// in\n    tag_119:\n        /* \"contracts/Entry.sol\":2621:2628  amounts */\n      dup2\n        /* \"contracts/Entry.sol\":2629:2630  0 */\n      0x00\n        /* \"contracts/Entry.sol\":2621:2631  amounts[0] */\n      dup2\n      mload\n      dup2\n      lt\n      tag_123\n      jumpi\n      tag_124\n      tag_94\n      jump\t// in\n    tag_124:\n    tag_123:\n      0x20\n      mul\n      0x20\n      add\n      add\n        /* \"contracts/Entry.sol\":2621:2674  amounts[0] = participantShare.mul(ratios[2]).div(100) */\n      dup2\n      dup2\n      mstore\n      pop\n      pop\n        /* \"contracts/Entry.sol\":2693:2705  participants */\n      dup7\n        /* \"contracts/Entry.sol\":2706:2707  1 */\n      0x01\n        /* \"contracts/Entry.sol\":2693:2708  participants[1] */\n      dup2\n      mload\n      dup2\n      lt\n      tag_125\n      jumpi\n      tag_126\n      tag_94\n      jump\t// in\n    tag_126:\n    tag_125:\n      0x20\n      mul\n      0x20\n      add\n      add\n      mload\n        /* \"contracts/Entry.sol\":2680:2687  winners */\n      dup3\n        /* \"contracts/Entry.sol\":2688:2689  1 */\n      0x01\n        /* \"contracts/Entry.sol\":2680:2690  winners[1] */\n      dup2\n      mload\n      dup2\n      lt\n      tag_127\n      jumpi\n      tag_128\n      tag_94\n      jump\t// in\n    tag_128:\n    tag_127:\n      0x20\n      mul\n      0x20\n      add\n      add\n        /* \"contracts/Entry.sol\":2680:2708  winners[1] = participants[1] */\n      swap1\n      0xffffffffffffffffffffffffffffffffffffffff\n      and\n      swap1\n      dup2\n      0xffffffffffffffffffffffffffffffffffffffff\n      and\n      dup2\n      mstore\n      pop\n      pop\n        /* \"contracts/Entry.sol\":2727:2767  participantShare.mul(ratios[3]).div(100) */\n      tag_129\n        /* \"contracts/Entry.sol\":2763:2766  100 */\n      0x64\n        /* \"contracts/Entry.sol\":2727:2758  participantShare.mul(ratios[3]) */\n      tag_130\n        /* \"contracts/Entry.sol\":2748:2754  ratios */\n      dup9\n        /* \"contracts/Entry.sol\":2755:2756  3 */\n      0x03\n        /* \"contracts/Entry.sol\":2748:2757  ratios[3] */\n      dup2\n      mload\n      dup2\n      lt\n      tag_131\n      jumpi\n      tag_132\n      tag_94\n      jump\t// in\n    tag_132:\n    tag_131:\n      0x20\n      mul\n      0x20\n      add\n      add\n      mload\n        /* \"contracts/Entry.sol\":2727:2743  participantShare */\n      dup7\n        /* \"contracts/Entry.sol\":2727:2747  participantShare.mul */\n      tag_100\n      swap1\n        /* \"contracts/Entry.sol\":2727:2758  participantShare.mul(ratios[3]) */\n      swap2\n      swap1\n      0xffffffff\n      and\n      jump\t// in\n    tag_130:\n        /* \"contracts/Entry.sol\":2727:2762  participantShare.mul(ratios[3]).div */\n      tag_101\n      swap1\n        /* \"contracts/Entry.sol\":2727:2767  participantShare.mul(ratios[3]).div(100) */\n      swap2\n      swap1\n      0xffffffff\n      and\n      jump\t// in\n    tag_129:\n        /* \"contracts/Entry.sol\":2714:2721  amounts */\n      dup2\n        /* \"contracts/Entry.sol\":2722:2723  1 */\n      0x01\n        /* \"contracts/Entry.sol\":2714:2724  amounts[1] */\n      dup2\n      mload\n      dup2\n      lt\n      tag_133\n      jumpi\n      tag_134\n      tag_94\n      jump\t// in\n    tag_134:\n    tag_133:\n      0x20\n      mul\n      0x20\n      add\n      add\n        /* \"contracts/Entry.sol\":2714:2767  amounts[1] = participantShare.mul(ratios[3]).div(100) */\n      dup2\n      dup2\n      mstore\n      pop\n      pop\n        /* \"contracts/Entry.sol\":2786:2798  participants */\n      dup7\n        /* \"contracts/Entry.sol\":2799:2800  2 */\n      0x02\n        /* \"contracts/Entry.sol\":2786:2801  participants[2] */\n      dup2\n      mload\n      dup2\n      lt\n      tag_135\n      jumpi\n      tag_136\n      tag_94\n      jump\t// in\n    tag_136:\n    tag_135:\n      0x20\n      mul\n      0x20\n      add\n      add\n      mload\n        /* \"contracts/Entry.sol\":2773:2780  winners */\n      dup3\n        /* \"contracts/Entry.sol\":2781:2782  2 */\n      0x02\n        /* \"contracts/Entry.sol\":2773:2783  winners[2] */\n      dup2\n      mload\n      dup2\n      lt\n      tag_137\n      jumpi\n      tag_138\n      tag_94\n      jump\t// in\n    tag_138:\n    tag_137:\n      0x20\n      mul\n      0x20\n      add\n      add\n        /* \"contracts/Entry.sol\":2773:2801  winners[2] = participants[2] */\n      swap1\n      0xffffffffffffffffffffffffffffffffffffffff\n      and\n      swap1\n      dup2\n      0xffffffffffffffffffffffffffffffffffffffff\n      and\n      dup2\n      mstore\n      pop\n      pop\n        /* \"contracts/Entry.sol\":2820:2878  participantShare.mul(100 - ratios[2] - ratios[3]).div(100) */\n      tag_139\n        /* \"contracts/Entry.sol\":2874:2877  100 */\n      0x64\n        /* \"contracts/Entry.sol\":2820:2869  participantShare.mul(100 - ratios[2] - ratios[3]) */\n      tag_140\n        /* \"contracts/Entry.sol\":2859:2865  ratios */\n      dup9\n        /* \"contracts/Entry.sol\":2866:2867  3 */\n      0x03\n        /* \"contracts/Entry.sol\":2859:2868  ratios[3] */\n      dup2\n      mload\n      dup2\n      lt\n      tag_141\n      jumpi\n      tag_142\n      tag_94\n      jump\t// in\n    tag_142:\n    tag_141:\n      0x20\n      mul\n      0x20\n      add\n      add\n      mload\n        /* \"contracts/Entry.sol\":2847:2853  ratios */\n      dup10\n        /* \"contracts/Entry.sol\":2854:2855  2 */\n      0x02\n        /* \"contracts/Entry.sol\":2847:2856  ratios[2] */\n      dup2\n      mload\n      dup2\n      lt\n      tag_143\n      jumpi\n      tag_144\n      tag_94\n      jump\t// in\n    tag_144:\n    tag_143:\n      0x20\n      mul\n      0x20\n      add\n      add\n      mload\n        /* \"contracts/Entry.sol\":2841:2844  100 */\n      0x64\n        /* \"contracts/Entry.sol\":2841:2856  100 - ratios[2] */\n      tag_145\n      swap2\n      swap1\n      tag_146\n      jump\t// in\n    tag_145:\n        /* \"contracts/Entry.sol\":2841:2868  100 - ratios[2] - ratios[3] */\n      tag_147\n      swap2\n      swap1\n      tag_146\n      jump\t// in\n    tag_147:\n        /* \"contracts/Entry.sol\":2820:2836  participantShare */\n      dup7\n        /* \"contracts/Entry.sol\":2820:2840  participantShare.mul */\n      tag_100\n      swap1\n        /* \"contracts/Entry.sol\":2820:2869  participantShare.mul(100 - ratios[2] - ratios[3]) */\n      swap2\n      swap1\n      0xffffffff\n      and\n      jump\t// in\n    tag_140:\n        /* \"contracts/Entry.sol\":2820:2873  participantShare.mul(100 - ratios[2] - ratios[3]).div */\n      tag_101\n      swap1\n        /* \"contracts/Entry.sol\":2820:2878  participantShare.mul(100 - ratios[2] - ratios[3]).div(100) */\n      swap2\n      swap1\n      0xffffffff\n      and\n      jump\t// in\n    tag_139:\n        /* \"contracts/Entry.sol\":2807:2814  amounts */\n      dup2\n        /* \"contracts/Entry.sol\":2815:2816  2 */\n      0x02\n        /* \"contracts/Entry.sol\":2807:2817  amounts[2] */\n      dup2\n      mload\n      dup2\n      lt\n      tag_148\n      jumpi\n      tag_149\n      tag_94\n      jump\t// in\n    tag_149:\n    tag_148:\n      0x20\n      mul\n      0x20\n      add\n      add\n        /* \"contracts/Entry.sol\":2807:2878  amounts[2] = participantShare.mul(100 - ratios[2] - ratios[3]).div(100) */\n      dup2\n      dup2\n      mstore\n      pop\n      pop\n        /* \"contracts/Entry.sol\":2890:2899  uint256 i */\n      0x00\n        /* \"contracts/Entry.sol\":2885:2974  for (uint256 i = 0; i < 3; i++) {... */\n    tag_150:\n        /* \"contracts/Entry.sol\":2909:2910  3 */\n      0x03\n        /* \"contracts/Entry.sol\":2905:2906  i */\n      dup2\n        /* \"contracts/Entry.sol\":2905:2910  i < 3 */\n      lt\n        /* \"contracts/Entry.sol\":2885:2974  for (uint256 i = 0; i < 3; i++) {... */\n      iszero\n      tag_151\n      jumpi\n        /* \"contracts/Entry.sol\":2935:2942  winners */\n      dup3\n        /* \"contracts/Entry.sol\":2943:2944  i */\n      dup2\n        /* \"contracts/Entry.sol\":2935:2945  winners[i] */\n      dup2\n      mload\n      dup2\n      lt\n      tag_153\n      jumpi\n      tag_154\n      tag_94\n      jump\t// in\n    tag_154:\n    tag_153:\n      0x20\n      mul\n      0x20\n      add\n      add\n      mload\n        /* \"contracts/Entry.sol\":2927:2955  payable(winners[i]).transfer */\n      0xffffffffffffffffffffffffffffffffffffffff\n      and\n        /* \"contracts/Entry.sol\":2927:2967  payable(winners[i]).transfer(amounts[i]) */\n      0x08fc\n        /* \"contracts/Entry.sol\":2956:2963  amounts */\n      dup4\n        /* \"contracts/Entry.sol\":2964:2965  i */\n      dup4\n        /* \"contracts/Entry.sol\":2956:2966  amounts[i] */\n      dup2\n      mload\n      dup2\n      lt\n      tag_155\n      jumpi\n      tag_156\n      tag_94\n      jump\t// in\n    tag_156:\n    tag_155:\n      0x20\n      mul\n      0x20\n      add\n      add\n      mload\n        /* \"contracts/Entry.sol\":2927:2967  payable(winners[i]).transfer(amounts[i]) */\n      swap1\n      dup2\n      iszero\n      mul\n      swap1\n      mload(0x40)\n      0x00\n      mload(0x40)\n      dup1\n      dup4\n      sub\n      dup2\n      dup6\n      dup9\n      dup9\n      call\n      swap4\n      pop\n      pop\n      pop\n      pop\n      iszero\n      dup1\n      iszero\n      tag_158\n      jumpi\n      returndatasize\n      0x00\n      dup1\n      returndatacopy\n      revert(0x00, returndatasize)\n    tag_158:\n      pop\n        /* \"contracts/Entry.sol\":2912:2915  i++ */\n      dup1\n      dup1\n      0x01\n      add\n      swap2\n      pop\n      pop\n        /* \"contracts/Entry.sol\":2885:2974  for (uint256 i = 0; i < 3; i++) {... */\n      jump(tag_150)\n    tag_151:\n      pop\n        /* \"contracts/Entry.sol\":3002:3007  owner */\n      0x05\n      0x00\n      swap1\n      sload\n      swap1\n      0x0100\n      exp\n      swap1\n      div\n      0xffffffffffffffffffffffffffffffffffffffff\n      and\n        /* \"contracts/Entry.sol\":2985:3026  PrizeDistributed(owner, winners, amounts) */\n      0xffffffffffffffffffffffffffffffffffffffff\n      and\n      0xacea6060a5ae248721515200efc5c427ae94f53cdb0141c7dae477ac058589aa\n        /* \"contracts/Entry.sol\":3009:3016  winners */\n      dup4\n        /* \"contracts/Entry.sol\":3018:3025  amounts */\n      dup4\n        /* \"contracts/Entry.sol\":2985:3026  PrizeDistributed(owner, winners, amounts) */\n      mload(0x40)\n      tag_159\n      swap3\n      swap2\n      swap1\n      tag_160\n      jump\t// in\n    tag_159:\n      mload(0x40)\n      dup1\n      swap2\n      sub\n      swap1\n      log2\n        /* \"contracts/Entry.sol\":1994:3029  {... */\n      pop\n      pop\n      pop\n      pop\n      pop\n        /* \"contracts/Entry.sol\":1894:3029  function distributePrize(address[] memory participants, uint256[] memory ratios) external onlyOwner {... */\n      pop\n      pop\n      jump\t// out\n        /* \"contracts/Entry.sol\":3401:3857  function getMemoDetailsByName(string memory searchName) external view returns (uint256, address) {... */\n    tag_26:\n        /* \"contracts/Entry.sol\":3480:3487  uint256 */\n      0x00\n        /* \"contracts/Entry.sol\":3489:3496  address */\n      dup1\n        /* \"contracts/Entry.sol\":3516:3524  enrolled */\n      0x04\n        /* \"contracts/Entry.sol\":3525:3535  searchName */\n      dup4\n        /* \"contracts/Entry.sol\":3516:3536  enrolled[searchName] */\n      mload(0x40)\n      tag_162\n      swap2\n      swap1\n      tag_163\n      jump\t// in\n    tag_162:\n      swap1\n      dup2\n      mstore\n      0x20\n      add\n      mload(0x40)\n      dup1\n      swap2\n      sub\n      swap1\n      keccak256\n      0x00\n      swap1\n      sload\n      swap1\n      0x0100\n      exp\n      swap1\n      div\n      0xff\n      and\n        /* \"contracts/Entry.sol\":3508:3555  require(enrolled[searchName], \"Name not found\") */\n      tag_164\n      jumpi\n      mload(0x40)\n      0x08c379a000000000000000000000000000000000000000000000000000000000\n      dup2\n      mstore\n      0x04\n      add\n      tag_165\n      swap1\n      tag_166\n      jump\t// in\n    tag_165:\n      mload(0x40)\n      dup1\n      swap2\n      sub\n      swap1\n      revert\n    tag_164:\n        /* \"contracts/Entry.sol\":3575:3584  uint256 i */\n      0x00\n        /* \"contracts/Entry.sol\":3570:3781  for (uint256 i = 0; i < memos.length; i++) {... */\n    tag_167:\n        /* \"contracts/Entry.sol\":3594:3599  memos */\n      0x03\n        /* \"contracts/Entry.sol\":3594:3606  memos.length */\n      dup1\n      sload\n      swap1\n      pop\n        /* \"contracts/Entry.sol\":3590:3591  i */\n      dup2\n        /* \"contracts/Entry.sol\":3590:3606  i < memos.length */\n      lt\n        /* \"contracts/Entry.sol\":3570:3781  for (uint256 i = 0; i < memos.length; i++) {... */\n      iszero\n      tag_168\n      jumpi\n        /* \"contracts/Entry.sol\":3682:3692  searchName */\n      dup4\n        /* \"contracts/Entry.sol\":3666:3694  keccak256(bytes(searchName)) */\n      dup1\n      mload\n      swap1\n      0x20\n      add\n      keccak256\n        /* \"contracts/Entry.sol\":3647:3652  memos */\n      0x03\n        /* \"contracts/Entry.sol\":3653:3654  i */\n      dup3\n        /* \"contracts/Entry.sol\":3647:3655  memos[i] */\n      dup2\n      sload\n      dup2\n      lt\n      tag_170\n      jumpi\n      tag_171\n      tag_94\n      jump\t// in\n    tag_171:\n    tag_170:\n      swap1\n      0x00\n      mstore\n      keccak256(0x00, 0x20)\n      swap1\n      0x03\n      mul\n      add\n        /* \"contracts/Entry.sol\":3647:3660  memos[i].name */\n      0x00\n      add\n        /* \"contracts/Entry.sol\":3631:3662  keccak256(bytes(memos[i].name)) */\n      mload(0x40)\n      tag_173\n      swap2\n      swap1\n      tag_174\n      jump\t// in\n    tag_173:\n      mload(0x40)\n      dup1\n      swap2\n      sub\n      swap1\n      keccak256\n        /* \"contracts/Entry.sol\":3631:3694  keccak256(bytes(memos[i].name)) == keccak256(bytes(searchName)) */\n      sub\n        /* \"contracts/Entry.sol\":3627:3771  if (keccak256(bytes(memos[i].name)) == keccak256(bytes(searchName))) {... */\n      tag_175\n      jumpi\n        /* \"contracts/Entry.sol\":3722:3727  memos */\n      0x03\n        /* \"contracts/Entry.sol\":3728:3729  i */\n      dup2\n        /* \"contracts/Entry.sol\":3722:3730  memos[i] */\n      dup2\n      sload\n      dup2\n      lt\n      tag_176\n      jumpi\n      tag_177\n      tag_94\n      jump\t// in\n    tag_177:\n    tag_176:\n      swap1\n      0x00\n      mstore\n      keccak256(0x00, 0x20)\n      swap1\n      0x03\n      mul\n      add\n        /* \"contracts/Entry.sol\":3722:3740  memos[i].timestamp */\n      0x01\n      add\n      sload\n        /* \"contracts/Entry.sol\":3742:3747  memos */\n      0x03\n        /* \"contracts/Entry.sol\":3748:3749  i */\n      dup3\n        /* \"contracts/Entry.sol\":3742:3750  memos[i] */\n      dup2\n      sload\n      dup2\n      lt\n      tag_179\n      jumpi\n      tag_180\n      tag_94\n      jump\t// in\n    tag_180:\n    tag_179:\n      swap1\n      0x00\n      mstore\n      keccak256(0x00, 0x20)\n      swap1\n      0x03\n      mul\n      add\n        /* \"contracts/Entry.sol\":3742:3755  memos[i].from */\n      0x02\n      add\n      0x00\n      swap1\n      sload\n      swap1\n      0x0100\n      exp\n      swap1\n      div\n      0xffffffffffffffffffffffffffffffffffffffff\n      and\n        /* \"contracts/Entry.sol\":3714:3756  return (memos[i].timestamp, memos[i].from) */\n      swap3\n      pop\n      swap3\n      pop\n      pop\n      jump(tag_161)\n        /* \"contracts/Entry.sol\":3627:3771  if (keccak256(bytes(memos[i].name)) == keccak256(bytes(searchName))) {... */\n    tag_175:\n        /* \"contracts/Entry.sol\":3608:3611  i++ */\n      dup1\n      dup1\n      0x01\n      add\n      swap2\n      pop\n      pop\n        /* \"contracts/Entry.sol\":3570:3781  for (uint256 i = 0; i < memos.length; i++) {... */\n      jump(tag_167)\n    tag_168:\n      pop\n        /* \"contracts/Entry.sol\":3795:3850  revert(\"Record not found for the provided search name\") */\n      mload(0x40)\n      0x08c379a000000000000000000000000000000000000000000000000000000000\n      dup2\n      mstore\n      0x04\n      add\n      tag_182\n      swap1\n      tag_183\n      jump\t// in\n    tag_182:\n      mload(0x40)\n      dup1\n      swap2\n      sub\n      swap1\n      revert\n        /* \"contracts/Entry.sol\":3401:3857  function getMemoDetailsByName(string memory searchName) external view returns (uint256, address) {... */\n    tag_161:\n      swap2\n      pop\n      swap2\n      jump\t// out\n        /* \"contracts/Entry.sol\":3136:3395  function getMemoAtIndex(uint256 index) external view returns (string memory, uint256, address) {... */\n    tag_33:\n        /* \"contracts/Entry.sol\":3198:3211  string memory */\n      0x60\n        /* \"contracts/Entry.sol\":3213:3220  uint256 */\n      0x00\n        /* \"contracts/Entry.sol\":3222:3229  address */\n      dup1\n        /* \"contracts/Entry.sol\":3257:3262  memos */\n      0x03\n        /* \"contracts/Entry.sol\":3257:3269  memos.length */\n      dup1\n      sload\n      swap1\n      pop\n        /* \"contracts/Entry.sol\":3249:3254  index */\n      dup5\n        /* \"contracts/Entry.sol\":3249:3269  index < memos.length */\n      lt\n        /* \"contracts/Entry.sol\":3241:3292  require(index < memos.length, \"Index out of range\") */\n      tag_185\n      jumpi\n      mload(0x40)\n      0x08c379a000000000000000000000000000000000000000000000000000000000\n      dup2\n      mstore\n      0x04\n      add\n      tag_186\n      swap1\n      tag_187\n      jump\t// in\n    tag_186:\n      mload(0x40)\n      dup1\n      swap2\n      sub\n      swap1\n      revert\n    tag_185:\n        /* \"contracts/Entry.sol\":3302:3318  Memo memory memo */\n      0x00\n        /* \"contracts/Entry.sol\":3321:3326  memos */\n      0x03\n        /* \"contracts/Entry.sol\":3327:3332  index */\n      dup6\n        /* \"contracts/Entry.sol\":3321:3333  memos[index] */\n      dup2\n      sload\n      dup2\n      lt\n      tag_188\n      jumpi\n      tag_189\n      tag_94\n      jump\t// in\n    tag_189:\n    tag_188:\n      swap1\n      0x00\n      mstore\n      keccak256(0x00, 0x20)\n      swap1\n      0x03\n      mul\n      add\n        /* \"contracts/Entry.sol\":3302:3333  Memo memory memo = memos[index] */\n      mload(0x40)\n      dup1\n      0x60\n      add\n      0x40\n      mstore\n      swap1\n      dup2\n      0x00\n      dup3\n      add\n      dup1\n      sload\n      tag_191\n      swap1\n      tag_192\n      jump\t// in\n    tag_191:\n      dup1\n      0x1f\n      add\n      0x20\n      dup1\n      swap2\n      div\n      mul\n      0x20\n      add\n      mload(0x40)\n      swap1\n      dup2\n      add\n      0x40\n      mstore\n      dup1\n      swap3\n      swap2\n      swap1\n      dup2\n      dup2\n      mstore\n      0x20\n      add\n      dup3\n      dup1\n      sload\n      tag_193\n      swap1\n      tag_192\n      jump\t// in\n    tag_193:\n      dup1\n      iszero\n      tag_194\n      jumpi\n      dup1\n      0x1f\n      lt\n      tag_195\n      jumpi\n      0x0100\n      dup1\n      dup4\n      sload\n      div\n      mul\n      dup4\n      mstore\n      swap2\n      0x20\n      add\n      swap2\n      jump(tag_194)\n    tag_195:\n      dup3\n      add\n      swap2\n      swap1\n      0x00\n      mstore\n      keccak256(0x00, 0x20)\n      swap1\n    tag_196:\n      dup2\n      sload\n      dup2\n      mstore\n      swap1\n      0x01\n      add\n      swap1\n      0x20\n      add\n      dup1\n      dup4\n      gt\n      tag_196\n      jumpi\n      dup3\n      swap1\n      sub\n      0x1f\n      and\n      dup3\n      add\n      swap2\n    tag_194:\n      pop\n      pop\n      pop\n      pop\n      pop\n      dup2\n      mstore\n      0x20\n      add\n      0x01\n      dup3\n      add\n      sload\n      dup2\n      mstore\n      0x20\n      add\n      0x02\n      dup3\n      add\n      0x00\n      swap1\n      sload\n      swap1\n      0x0100\n      exp\n      swap1\n      div\n      0xffffffffffffffffffffffffffffffffffffffff\n      and\n      0xffffffffffffffffffffffffffffffffffffffff\n      and\n      0xffffffffffffffffffffffffffffffffffffffff\n      and\n      dup2\n      mstore\n      pop\n      pop\n      swap1\n      pop\n        /* \"contracts/Entry.sol\":3351:3355  memo */\n      dup1\n        /* \"contracts/Entry.sol\":3351:3360  memo.name */\n      0x00\n      add\n      mload\n        /* \"contracts/Entry.sol\":3362:3366  memo */\n      dup2\n        /* \"contracts/Entry.sol\":3362:3376  memo.timestamp */\n      0x20\n      add\n      mload\n        /* \"contracts/Entry.sol\":3378:3382  memo */\n      dup3\n        /* \"contracts/Entry.sol\":3378:3387  memo.from */\n      0x40\n      add\n      mload\n        /* \"contracts/Entry.sol\":3343:3388  return (memo.name, memo.timestamp, memo.from) */\n      swap4\n      pop\n      swap4\n      pop\n      swap4\n      pop\n      pop\n        /* \"contracts/Entry.sol\":3136:3395  function getMemoAtIndex(uint256 index) external view returns (string memory, uint256, address) {... */\n      swap2\n      swap4\n      swap1\n      swap3\n      pop\n      jump\t// out\n        /* \"contracts/Entry.sol\":1050:1192  function setPrizePool(uint256 newPrizePool) external onlyOwner {... */\n    tag_39:\n        /* \"contracts/Entry.sol\":813:818  owner */\n      0x05\n      0x00\n      swap1\n      sload\n      swap1\n      0x0100\n      exp\n      swap1\n      div\n      0xffffffffffffffffffffffffffffffffffffffff\n      and\n        /* \"contracts/Entry.sol\":799:818  msg.sender == owner */\n      0xffffffffffffffffffffffffffffffffffffffff\n      and\n        /* \"contracts/Entry.sol\":799:809  msg.sender */\n      caller\n        /* \"contracts/Entry.sol\":799:818  msg.sender == owner */\n      0xffffffffffffffffffffffffffffffffffffffff\n      and\n      eq\n        /* \"contracts/Entry.sol\":791:856  require(msg.sender == owner, \"Only owner can call this function\") */\n      tag_198\n      jumpi\n      mload(0x40)\n      0x08c379a000000000000000000000000000000000000000000000000000000000\n      dup2\n      mstore\n      0x04\n      add\n      tag_199\n      swap1\n      tag_80\n      jump\t// in\n    tag_199:\n      mload(0x40)\n      dup1\n      swap2\n      sub\n      swap1\n      revert\n    tag_198:\n        /* \"contracts/Entry.sol\":1135:1147  newPrizePool */\n      dup1\n        /* \"contracts/Entry.sol\":1123:1132  prizePool */\n      0x01\n        /* \"contracts/Entry.sol\":1123:1147  prizePool = newPrizePool */\n      dup2\n      swap1\n      sstore\n      pop\n        /* \"contracts/Entry.sol\":1162:1185  PrizePoolSet(prizePool) */\n      0x109cd21dc4e5e640485f5e7e7d11e3facf5b1ce3b4f327ef4751ee24a0af62ac\n        /* \"contracts/Entry.sol\":1175:1184  prizePool */\n      sload(0x01)\n        /* \"contracts/Entry.sol\":1162:1185  PrizePoolSet(prizePool) */\n      mload(0x40)\n      tag_201\n      swap2\n      swap1\n      tag_44\n      jump\t// in\n    tag_201:\n      mload(0x40)\n      dup1\n      swap2\n      sub\n      swap1\n      log1\n        /* \"contracts/Entry.sol\":1050:1192  function setPrizePool(uint256 newPrizePool) external onlyOwner {... */\n      pop\n      jump\t// out\n        /* \"contracts/Entry.sol\":239:263  uint256 public prizePool */\n    tag_42:\n      sload(0x01)\n      dup2\n      jump\t// out\n        /* \"contracts/Entry.sol\":4051:4150  function getTotalEntryFees() external view returns (uint256) {... */\n    tag_47:\n        /* \"contracts/Entry.sol\":4103:4110  uint256 */\n      0x00\n        /* \"contracts/Entry.sol\":4129:4143  totalEntryFees */\n      sload(0x02)\n        /* \"contracts/Entry.sol\":4122:4143  return totalEntryFees */\n      swap1\n      pop\n        /* \"contracts/Entry.sol\":4051:4150  function getTotalEntryFees() external view returns (uint256) {... */\n      swap1\n      jump\t// out\n        /* \"contracts/Entry.sol\":3956:4045  function getPrizePool() external view returns (uint256) {... */\n    tag_51:\n        /* \"contracts/Entry.sol\":4003:4010  uint256 */\n      0x00\n        /* \"contracts/Entry.sol\":4029:4038  prizePool */\n      sload(0x01)\n        /* \"contracts/Entry.sol\":4022:4038  return prizePool */\n      swap1\n      pop\n        /* \"contracts/Entry.sol\":3956:4045  function getPrizePool() external view returns (uint256) {... */\n      swap1\n      jump\t// out\n        /* \"contracts/Entry.sol\":3036:3130  function getMemosLength() external view returns (uint256) {... */\n    tag_55:\n        /* \"contracts/Entry.sol\":3085:3092  uint256 */\n      0x00\n        /* \"contracts/Entry.sol\":3111:3116  memos */\n      0x03\n        /* \"contracts/Entry.sol\":3111:3123  memos.length */\n      dup1\n      sload\n      swap1\n      pop\n        /* \"contracts/Entry.sol\":3104:3123  return memos.length */\n      swap1\n      pop\n        /* \"contracts/Entry.sol\":3036:3130  function getMemosLength() external view returns (uint256) {... */\n      swap1\n      jump\t// out\n        /* \"contracts/Entry.sol\":725:753  address payable public owner */\n    tag_59:\n      0x05\n      0x00\n      swap1\n      sload\n      swap1\n      0x0100\n      exp\n      swap1\n      div\n      0xffffffffffffffffffffffffffffffffffffffff\n      and\n      dup2\n      jump\t// out\n        /* \"contracts/Entry.sol\":1198:1892  function payEntryFee(string memory name) public payable {... */\n    tag_64:\n        /* \"contracts/Entry.sol\":1273:1281  enrolled */\n      0x04\n        /* \"contracts/Entry.sol\":1282:1286  name */\n      dup2\n        /* \"contracts/Entry.sol\":1273:1287  enrolled[name] */\n      mload(0x40)\n      tag_206\n      swap2\n      swap1\n      tag_163\n      jump\t// in\n    tag_206:\n      swap1\n      dup2\n      mstore\n      0x20\n      add\n      mload(0x40)\n      dup1\n      swap2\n      sub\n      swap1\n      keccak256\n      0x00\n      swap1\n      sload\n      swap1\n      0x0100\n      exp\n      swap1\n      div\n      0xff\n      and\n        /* \"contracts/Entry.sol\":1272:1287  !enrolled[name] */\n      iszero\n        /* \"contracts/Entry.sol\":1264:1323  require(!enrolled[name], \"Participant is already enrolled\") */\n      tag_207\n      jumpi\n      mload(0x40)\n      0x08c379a000000000000000000000000000000000000000000000000000000000\n      dup2\n      mstore\n      0x04\n      add\n      tag_208\n      swap1\n      tag_209\n      jump\t// in\n    tag_208:\n      mload(0x40)\n      dup1\n      swap2\n      sub\n      swap1\n      revert\n    tag_207:\n        /* \"contracts/Entry.sol\":1423:1432  msg.value */\n      callvalue\n        /* \"contracts/Entry.sol\":1419:1420  1 */\n      0x01\n        /* \"contracts/Entry.sol\":1408:1416  entryFee */\n      sload(0x00)\n        /* \"contracts/Entry.sol\":1408:1420  entryFee - 1 */\n      tag_210\n      swap2\n      swap1\n      tag_146\n      jump\t// in\n    tag_210:\n        /* \"contracts/Entry.sol\":1408:1432  entryFee - 1 < msg.value */\n      lt\n        /* \"contracts/Entry.sol\":1408:1456  entryFee - 1 < msg.value && msg.value < entryFee */\n      dup1\n      iszero\n      tag_211\n      jumpi\n      pop\n        /* \"contracts/Entry.sol\":1448:1456  entryFee */\n      sload(0x00)\n        /* \"contracts/Entry.sol\":1436:1445  msg.value */\n      callvalue\n        /* \"contracts/Entry.sol\":1436:1456  msg.value < entryFee */\n      lt\n        /* \"contracts/Entry.sol\":1408:1456  entryFee - 1 < msg.value && msg.value < entryFee */\n    tag_211:\n        /* \"contracts/Entry.sol\":1404:1518  if (entryFee - 1 < msg.value && msg.value < entryFee){... */\n      iszero\n      tag_212\n      jumpi\n        /* \"contracts/Entry.sol\":1478:1507  Raffle__NotEnoughETHEntered() */\n      mload(0x40)\n      0xbd4e069500000000000000000000000000000000000000000000000000000000\n      dup2\n      mstore\n      0x04\n      add\n      mload(0x40)\n      dup1\n      swap2\n      sub\n      swap1\n      revert\n        /* \"contracts/Entry.sol\":1404:1518  if (entryFee - 1 < msg.value && msg.value < entryFee){... */\n    tag_212:\n        /* \"contracts/Entry.sol\":1527:1532  owner */\n      0x05\n      0x00\n      swap1\n      sload\n      swap1\n      0x0100\n      exp\n      swap1\n      div\n      0xffffffffffffffffffffffffffffffffffffffff\n      and\n        /* \"contracts/Entry.sol\":1527:1541  owner.transfer */\n      0xffffffffffffffffffffffffffffffffffffffff\n      and\n        /* \"contracts/Entry.sol\":1527:1552  owner.transfer(msg.value) */\n      0x08fc\n        /* \"contracts/Entry.sol\":1542:1551  msg.value */\n      callvalue\n        /* \"contracts/Entry.sol\":1527:1552  owner.transfer(msg.value) */\n      swap1\n      dup2\n      iszero\n      mul\n      swap1\n      mload(0x40)\n      0x00\n      mload(0x40)\n      dup1\n      dup4\n      sub\n      dup2\n      dup6\n      dup9\n      dup9\n      call\n      swap4\n      pop\n      pop\n      pop\n      pop\n      iszero\n      dup1\n      iszero\n      tag_214\n      jumpi\n      returndatasize\n      0x00\n      dup1\n      returndatacopy\n      revert(0x00, returndatasize)\n    tag_214:\n      pop\n        /* \"contracts/Entry.sol\":1562:1567  memos */\n      0x03\n        /* \"contracts/Entry.sol\":1573:1612  Memo(name, block.timestamp, msg.sender) */\n      mload(0x40)\n      dup1\n      0x60\n      add\n      0x40\n      mstore\n      dup1\n        /* \"contracts/Entry.sol\":1578:1582  name */\n      dup4\n        /* \"contracts/Entry.sol\":1573:1612  Memo(name, block.timestamp, msg.sender) */\n      dup2\n      mstore\n      0x20\n      add\n        /* \"contracts/Entry.sol\":1584:1599  block.timestamp */\n      timestamp\n        /* \"contracts/Entry.sol\":1573:1612  Memo(name, block.timestamp, msg.sender) */\n      dup2\n      mstore\n      0x20\n      add\n        /* \"contracts/Entry.sol\":1601:1611  msg.sender */\n      caller\n        /* \"contracts/Entry.sol\":1573:1612  Memo(name, block.timestamp, msg.sender) */\n      0xffffffffffffffffffffffffffffffffffffffff\n      and\n      dup2\n      mstore\n      pop\n        /* \"contracts/Entry.sol\":1562:1613  memos.push(Memo(name, block.timestamp, msg.sender)) */\n      swap1\n      dup1\n      0x01\n      dup2\n      sload\n      add\n      dup1\n      dup3\n      sstore\n      dup1\n      swap2\n      pop\n      pop\n      0x01\n      swap1\n      sub\n      swap1\n      0x00\n      mstore\n      keccak256(0x00, 0x20)\n      swap1\n      0x03\n      mul\n      add\n      0x00\n      swap1\n      swap2\n      swap1\n      swap2\n      swap1\n      swap2\n      pop\n      0x00\n      dup3\n      add\n      mload\n      dup2\n      0x00\n      add\n      swap1\n      dup2\n      tag_216\n      swap2\n      swap1\n      tag_217\n      jump\t// in\n    tag_216:\n      pop\n      0x20\n      dup3\n      add\n      mload\n      dup2\n      0x01\n      add\n      sstore\n      0x40\n      dup3\n      add\n      mload\n      dup2\n      0x02\n      add\n      exp(0x0100, 0x00)\n      dup2\n      sload\n      dup2\n      0xffffffffffffffffffffffffffffffffffffffff\n      mul\n      not\n      and\n      swap1\n      dup4\n      0xffffffffffffffffffffffffffffffffffffffff\n      and\n      mul\n      or\n      swap1\n      sstore\n      pop\n      pop\n      pop\n        /* \"contracts/Entry.sol\":1637:1647  msg.sender */\n      caller\n        /* \"contracts/Entry.sol\":1628:1659  FeeEntry(msg.sender, msg.value) */\n      0xffffffffffffffffffffffffffffffffffffffff\n      and\n      0xe13346e29c870b2b0d2aa3f5335a9cecd4044e700a0902f6543cea1c76d024ca\n        /* \"contracts/Entry.sol\":1649:1658  msg.value */\n      callvalue\n        /* \"contracts/Entry.sol\":1628:1659  FeeEntry(msg.sender, msg.value) */\n      mload(0x40)\n      tag_218\n      swap2\n      swap1\n      tag_44\n      jump\t// in\n    tag_218:\n      mload(0x40)\n      dup1\n      swap2\n      sub\n      swap1\n      log2\n        /* \"contracts/Entry.sol\":1687:1716  totalEntryFees.add(msg.value) */\n      tag_219\n        /* \"contracts/Entry.sol\":1706:1715  msg.value */\n      callvalue\n        /* \"contracts/Entry.sol\":1687:1701  totalEntryFees */\n      sload(0x02)\n        /* \"contracts/Entry.sol\":1687:1705  totalEntryFees.add */\n      tag_95\n      swap1\n        /* \"contracts/Entry.sol\":1687:1716  totalEntryFees.add(msg.value) */\n      swap2\n      swap1\n      0xffffffff\n      and\n      jump\t// in\n    tag_219:\n        /* \"contracts/Entry.sol\":1670:1684  totalEntryFees */\n      0x02\n        /* \"contracts/Entry.sol\":1670:1716  totalEntryFees = totalEntryFees.add(msg.value) */\n      dup2\n      swap1\n      sstore\n      pop\n        /* \"contracts/Entry.sol\":1748:1757  prizePool */\n      sload(0x01)\n        /* \"contracts/Entry.sol\":1731:1745  totalEntryFees */\n      sload(0x02)\n        /* \"contracts/Entry.sol\":1731:1757  totalEntryFees > prizePool */\n      gt\n        /* \"contracts/Entry.sol\":1727:1854  if (totalEntryFees > prizePool) {... */\n      iszero\n      tag_220\n      jumpi\n        /* \"contracts/Entry.sol\":1785:1799  totalEntryFees */\n      sload(0x02)\n        /* \"contracts/Entry.sol\":1773:1782  prizePool */\n      0x01\n        /* \"contracts/Entry.sol\":1773:1799  prizePool = totalEntryFees */\n      dup2\n      swap1\n      sstore\n      pop\n        /* \"contracts/Entry.sol\":1818:1843  PrizeIncreased(prizePool) */\n      0x149086bfe57530c105768f33bd15ee9884e9b0f1d22a75fb8ac70ad894341073\n        /* \"contracts/Entry.sol\":1833:1842  prizePool */\n      sload(0x01)\n        /* \"contracts/Entry.sol\":1818:1843  PrizeIncreased(prizePool) */\n      mload(0x40)\n      tag_221\n      swap2\n      swap1\n      tag_44\n      jump\t// in\n    tag_221:\n      mload(0x40)\n      dup1\n      swap2\n      sub\n      swap1\n      log1\n        /* \"contracts/Entry.sol\":1727:1854  if (totalEntryFees > prizePool) {... */\n    tag_220:\n        /* \"contracts/Entry.sol\":1881:1885  true */\n      0x01\n        /* \"contracts/Entry.sol\":1864:1872  enrolled */\n      0x04\n        /* \"contracts/Entry.sol\":1873:1877  name */\n      dup3\n        /* \"contracts/Entry.sol\":1864:1878  enrolled[name] */\n      mload(0x40)\n      tag_222\n      swap2\n      swap1\n      tag_163\n      jump\t// in\n    tag_222:\n      swap1\n      dup2\n      mstore\n      0x20\n      add\n      mload(0x40)\n      dup1\n      swap2\n      sub\n      swap1\n      keccak256\n      0x00\n        /* \"contracts/Entry.sol\":1864:1885  enrolled[name] = true */\n      0x0100\n      exp\n      dup2\n      sload\n      dup2\n      0xff\n      mul\n      not\n      and\n      swap1\n      dup4\n      iszero\n      iszero\n      mul\n      or\n      swap1\n      sstore\n      pop\n        /* \"contracts/Entry.sol\":1198:1892  function payEntryFee(string memory name) public payable {... */\n      pop\n      jump\t// out\n        /* \"contracts/Entry.sol\":269:298  uint256 public totalEntryFees */\n    tag_67:\n      sload(0x02)\n      dup2\n      jump\t// out\n        /* \"contracts/Entry.sol\":3863:3950  function getEntryFee() external view returns (uint256) {... */\n    tag_71:\n        /* \"contracts/Entry.sol\":3909:3916  uint256 */\n      0x00\n        /* \"contracts/Entry.sol\":3935:3943  entryFee */\n      dup1\n      sload\n        /* \"contracts/Entry.sol\":3928:3943  return entryFee */\n      swap1\n      pop\n        /* \"contracts/Entry.sol\":3863:3950  function getEntryFee() external view returns (uint256) {... */\n      swap1\n      jump\t// out\n        /* \"contracts/Entry.sol\":944:1044  function setEntryFee(uint256 newEntryFee) external onlyOwner {... */\n    tag_76:\n        /* \"contracts/Entry.sol\":813:818  owner */\n      0x05\n      0x00\n      swap1\n      sload\n      swap1\n      0x0100\n      exp\n      swap1\n      div\n      0xffffffffffffffffffffffffffffffffffffffff\n      and\n        /* \"contracts/Entry.sol\":799:818  msg.sender == owner */\n      0xffffffffffffffffffffffffffffffffffffffff\n      and\n        /* \"contracts/Entry.sol\":799:809  msg.sender */\n      caller\n        /* \"contracts/Entry.sol\":799:818  msg.sender == owner */\n      0xffffffffffffffffffffffffffffffffffffffff\n      and\n      eq\n        /* \"contracts/Entry.sol\":791:856  require(msg.sender == owner, \"Only owner can call this function\") */\n      tag_225\n      jumpi\n      mload(0x40)\n      0x08c379a000000000000000000000000000000000000000000000000000000000\n      dup2\n      mstore\n      0x04\n      add\n      tag_226\n      swap1\n      tag_80\n      jump\t// in\n    tag_226:\n      mload(0x40)\n      dup1\n      swap2\n      sub\n      swap1\n      revert\n    tag_225:\n        /* \"contracts/Entry.sol\":1026:1037  newEntryFee */\n      dup1\n        /* \"contracts/Entry.sol\":1015:1023  entryFee */\n      0x00\n        /* \"contracts/Entry.sol\":1015:1037  entryFee = newEntryFee */\n      dup2\n      swap1\n      sstore\n      pop\n        /* \"contracts/Entry.sol\":944:1044  function setEntryFee(uint256 newEntryFee) external onlyOwner {... */\n      pop\n      jump\t// out\n        /* \"@openzeppelin/contracts/utils/math/SafeMath.sol\":2755:2851  function add(uint256 a, uint256 b) internal pure returns (uint256) {... */\n    tag_95:\n        /* \"@openzeppelin/contracts/utils/math/SafeMath.sol\":2813:2820  uint256 */\n      0x00\n        /* \"@openzeppelin/contracts/utils/math/SafeMath.sol\":2843:2844  b */\n      dup2\n        /* \"@openzeppelin/contracts/utils/math/SafeMath.sol\":2839:2840  a */\n      dup4\n        /* \"@openzeppelin/contracts/utils/math/SafeMath.sol\":2839:2844  a + b */\n      tag_229\n      swap2\n      swap1\n      tag_230\n      jump\t// in\n    tag_229:\n        /* \"@openzeppelin/contracts/utils/math/SafeMath.sol\":2832:2844  return a + b */\n      swap1\n      pop\n        /* \"@openzeppelin/contracts/utils/math/SafeMath.sol\":2755:2851  function add(uint256 a, uint256 b) internal pure returns (uint256) {... */\n      swap3\n      swap2\n      pop\n      pop\n      jump\t// out\n        /* \"@openzeppelin/contracts/utils/math/SafeMath.sol\":3465:3561  function mul(uint256 a, uint256 b) internal pure returns (uint256) {... */\n    tag_100:\n        /* \"@openzeppelin/contracts/utils/math/SafeMath.sol\":3523:3530  uint256 */\n      0x00\n        /* \"@openzeppelin/contracts/utils/math/SafeMath.sol\":3553:3554  b */\n      dup2\n        /* \"@openzeppelin/contracts/utils/math/SafeMath.sol\":3549:3550  a */\n      dup4\n        /* \"@openzeppelin/contracts/utils/math/SafeMath.sol\":3549:3554  a * b */\n      tag_232\n      swap2\n      swap1\n      tag_233\n      jump\t// in\n    tag_232:\n        /* \"@openzeppelin/contracts/utils/math/SafeMath.sol\":3542:3554  return a * b */\n      swap1\n      pop\n        /* \"@openzeppelin/contracts/utils/math/SafeMath.sol\":3465:3561  function mul(uint256 a, uint256 b) internal pure returns (uint256) {... */\n      swap3\n      swap2\n      pop\n      pop\n      jump\t// out\n        /* \"@openzeppelin/contracts/utils/math/SafeMath.sol\":3850:3946  function div(uint256 a, uint256 b) internal pure returns (uint256) {... */\n    tag_101:\n        /* \"@openzeppelin/contracts/utils/math/SafeMath.sol\":3908:3915  uint256 */\n      0x00\n        /* \"@openzeppelin/contracts/utils/math/SafeMath.sol\":3938:3939  b */\n      dup2\n        /* \"@openzeppelin/contracts/utils/math/SafeMath.sol\":3934:3935  a */\n      dup4\n        /* \"@openzeppelin/contracts/utils/math/SafeMath.sol\":3934:3939  a / b */\n      tag_235\n      swap2\n      swap1\n      tag_236\n      jump\t// in\n    tag_235:\n        /* \"@openzeppelin/contracts/utils/math/SafeMath.sol\":3927:3939  return a / b */\n      swap1\n      pop\n        /* \"@openzeppelin/contracts/utils/math/SafeMath.sol\":3850:3946  function div(uint256 a, uint256 b) internal pure returns (uint256) {... */\n      swap3\n      swap2\n      pop\n      pop\n      jump\t// out\n        /* \"#utility.yul\":7:82   */\n    tag_237:\n        /* \"#utility.yul\":40:46   */\n      0x00\n        /* \"#utility.yul\":73:75   */\n      0x40\n        /* \"#utility.yul\":67:76   */\n      mload\n        /* \"#utility.yul\":57:76   */\n      swap1\n      pop\n        /* \"#utility.yul\":7:82   */\n      swap1\n      jump\t// out\n        /* \"#utility.yul\":88:205   */\n    tag_238:\n        /* \"#utility.yul\":197:198   */\n      0x00\n        /* \"#utility.yul\":194:195   */\n      dup1\n        /* \"#utility.yul\":187:199   */\n      revert\n        /* \"#utility.yul\":211:328   */\n    tag_239:\n        /* \"#utility.yul\":320:321   */\n      0x00\n        /* \"#utility.yul\":317:318   */\n      dup1\n        /* \"#utility.yul\":310:322   */\n      revert\n        /* \"#utility.yul\":334:451   */\n    tag_240:\n        /* \"#utility.yul\":443:444   */\n      0x00\n        /* \"#utility.yul\":440:441   */\n      dup1\n        /* \"#utility.yul\":433:445   */\n      revert\n        /* \"#utility.yul\":457:559   */\n    tag_241:\n        /* \"#utility.yul\":498:504   */\n      0x00\n        /* \"#utility.yul\":549:551   */\n      0x1f\n        /* \"#utility.yul\":545:552   */\n      not\n        /* \"#utility.yul\":540:542   */\n      0x1f\n        /* \"#utility.yul\":533:538   */\n      dup4\n        /* \"#utility.yul\":529:543   */\n      add\n        /* \"#utility.yul\":525:553   */\n      and\n        /* \"#utility.yul\":515:553   */\n      swap1\n      pop\n        /* \"#utility.yul\":457:559   */\n      swap2\n      swap1\n      pop\n      jump\t// out\n        /* \"#utility.yul\":565:745   */\n    tag_110:\n        /* \"#utility.yul\":613:690   */\n      0x4e487b7100000000000000000000000000000000000000000000000000000000\n        /* \"#utility.yul\":610:611   */\n      0x00\n        /* \"#utility.yul\":603:691   */\n      mstore\n        /* \"#utility.yul\":710:714   */\n      0x41\n        /* \"#utility.yul\":707:708   */\n      0x04\n        /* \"#utility.yul\":700:715   */\n      mstore\n        /* \"#utility.yul\":734:738   */\n      0x24\n        /* \"#utility.yul\":731:732   */\n      0x00\n        /* \"#utility.yul\":724:739   */\n      revert\n        /* \"#utility.yul\":751:1032   */\n    tag_242:\n        /* \"#utility.yul\":834:861   */\n      tag_330\n        /* \"#utility.yul\":856:860   */\n      dup3\n        /* \"#utility.yul\":834:861   */\n      tag_241\n      jump\t// in\n    tag_330:\n        /* \"#utility.yul\":826:832   */\n      dup2\n        /* \"#utility.yul\":822:862   */\n      add\n        /* \"#utility.yul\":964:970   */\n      dup2\n        /* \"#utility.yul\":952:962   */\n      dup2\n        /* \"#utility.yul\":949:971   */\n      lt\n        /* \"#utility.yul\":928:946   */\n      0xffffffffffffffff\n        /* \"#utility.yul\":916:926   */\n      dup3\n        /* \"#utility.yul\":913:947   */\n      gt\n        /* \"#utility.yul\":910:972   */\n      or\n        /* \"#utility.yul\":907:995   */\n      iszero\n      tag_331\n      jumpi\n        /* \"#utility.yul\":975:993   */\n      tag_332\n      tag_110\n      jump\t// in\n    tag_332:\n        /* \"#utility.yul\":907:995   */\n    tag_331:\n        /* \"#utility.yul\":1015:1025   */\n      dup1\n        /* \"#utility.yul\":1011:1013   */\n      0x40\n        /* \"#utility.yul\":1004:1026   */\n      mstore\n        /* \"#utility.yul\":794:1032   */\n      pop\n        /* \"#utility.yul\":751:1032   */\n      pop\n      pop\n      jump\t// out\n        /* \"#utility.yul\":1038:1167   */\n    tag_243:\n        /* \"#utility.yul\":1072:1078   */\n      0x00\n        /* \"#utility.yul\":1099:1119   */\n      tag_334\n      tag_237\n      jump\t// in\n    tag_334:\n        /* \"#utility.yul\":1089:1119   */\n      swap1\n      pop\n        /* \"#utility.yul\":1128:1161   */\n      tag_335\n        /* \"#utility.yul\":1156:1160   */\n      dup3\n        /* \"#utility.yul\":1148:1154   */\n      dup3\n        /* \"#utility.yul\":1128:1161   */\n      tag_242\n      jump\t// in\n    tag_335:\n        /* \"#utility.yul\":1038:1167   */\n      swap2\n      swap1\n      pop\n      jump\t// out\n        /* \"#utility.yul\":1173:1484   */\n    tag_244:\n        /* \"#utility.yul\":1250:1254   */\n      0x00\n        /* \"#utility.yul\":1340:1358   */\n      0xffffffffffffffff\n        /* \"#utility.yul\":1332:1338   */\n      dup3\n        /* \"#utility.yul\":1329:1359   */\n      gt\n        /* \"#utility.yul\":1326:1382   */\n      iszero\n      tag_337\n      jumpi\n        /* \"#utility.yul\":1362:1380   */\n      tag_338\n      tag_110\n      jump\t// in\n    tag_338:\n        /* \"#utility.yul\":1326:1382   */\n    tag_337:\n        /* \"#utility.yul\":1412:1416   */\n      0x20\n        /* \"#utility.yul\":1404:1410   */\n      dup3\n        /* \"#utility.yul\":1400:1417   */\n      mul\n        /* \"#utility.yul\":1392:1417   */\n      swap1\n      pop\n        /* \"#utility.yul\":1472:1476   */\n      0x20\n        /* \"#utility.yul\":1466:1470   */\n      dup2\n        /* \"#utility.yul\":1462:1477   */\n      add\n        /* \"#utility.yul\":1454:1477   */\n      swap1\n      pop\n        /* \"#utility.yul\":1173:1484   */\n      swap2\n      swap1\n      pop\n      jump\t// out\n        /* \"#utility.yul\":1490:1607   */\n    tag_245:\n        /* \"#utility.yul\":1599:1600   */\n      0x00\n        /* \"#utility.yul\":1596:1597   */\n      dup1\n        /* \"#utility.yul\":1589:1601   */\n      revert\n        /* \"#utility.yul\":1613:1739   */\n    tag_246:\n        /* \"#utility.yul\":1650:1657   */\n      0x00\n        /* \"#utility.yul\":1690:1732   */\n      0xffffffffffffffffffffffffffffffffffffffff\n        /* \"#utility.yul\":1683:1688   */\n      dup3\n        /* \"#utility.yul\":1679:1733   */\n      and\n        /* \"#utility.yul\":1668:1733   */\n      swap1\n      pop\n        /* \"#utility.yul\":1613:1739   */\n      swap2\n      swap1\n      pop\n      jump\t// out\n        /* \"#utility.yul\":1745:1841   */\n    tag_247:\n        /* \"#utility.yul\":1782:1789   */\n      0x00\n        /* \"#utility.yul\":1811:1835   */\n      tag_342\n        /* \"#utility.yul\":1829:1834   */\n      dup3\n        /* \"#utility.yul\":1811:1835   */\n      tag_246\n      jump\t// in\n    tag_342:\n        /* \"#utility.yul\":1800:1835   */\n      swap1\n      pop\n        /* \"#utility.yul\":1745:1841   */\n      swap2\n      swap1\n      pop\n      jump\t// out\n        /* \"#utility.yul\":1847:1969   */\n    tag_248:\n        /* \"#utility.yul\":1920:1944   */\n      tag_344\n        /* \"#utility.yul\":1938:1943   */\n      dup2\n        /* \"#utility.yul\":1920:1944   */\n      tag_247\n      jump\t// in\n    tag_344:\n        /* \"#utility.yul\":1913:1918   */\n      dup2\n        /* \"#utility.yul\":1910:1945   */\n      eq\n        /* \"#utility.yul\":1900:1963   */\n      tag_345\n      jumpi\n        /* \"#utility.yul\":1959:1960   */\n      0x00\n        /* \"#utility.yul\":1956:1957   */\n      dup1\n        /* \"#utility.yul\":1949:1961   */\n      revert\n        /* \"#utility.yul\":1900:1963   */\n    tag_345:\n        /* \"#utility.yul\":1847:1969   */\n      pop\n      jump\t// out\n        /* \"#utility.yul\":1975:2114   */\n    tag_249:\n        /* \"#utility.yul\":2021:2026   */\n      0x00\n        /* \"#utility.yul\":2059:2065   */\n      dup2\n        /* \"#utility.yul\":2046:2066   */\n      calldataload\n        /* \"#utility.yul\":2037:2066   */\n      swap1\n      pop\n        /* \"#utility.yul\":2075:2108   */\n      tag_347\n        /* \"#utility.yul\":2102:2107   */\n      dup2\n        /* \"#utility.yul\":2075:2108   */\n      tag_248\n      jump\t// in\n    tag_347:\n        /* \"#utility.yul\":1975:2114   */\n      swap3\n      swap2\n      pop\n      pop\n      jump\t// out\n        /* \"#utility.yul\":2137:2847   */\n    tag_250:\n        /* \"#utility.yul\":2233:2238   */\n      0x00\n        /* \"#utility.yul\":2258:2339   */\n      tag_349\n        /* \"#utility.yul\":2274:2338   */\n      tag_350\n        /* \"#utility.yul\":2331:2337   */\n      dup5\n        /* \"#utility.yul\":2274:2338   */\n      tag_244\n      jump\t// in\n    tag_350:\n        /* \"#utility.yul\":2258:2339   */\n      tag_243\n      jump\t// in\n    tag_349:\n        /* \"#utility.yul\":2249:2339   */\n      swap1\n      pop\n        /* \"#utility.yul\":2359:2364   */\n      dup1\n        /* \"#utility.yul\":2388:2394   */\n      dup4\n        /* \"#utility.yul\":2381:2386   */\n      dup3\n        /* \"#utility.yul\":2374:2395   */\n      mstore\n        /* \"#utility.yul\":2422:2426   */\n      0x20\n        /* \"#utility.yul\":2415:2420   */\n      dup3\n        /* \"#utility.yul\":2411:2427   */\n      add\n        /* \"#utility.yul\":2404:2427   */\n      swap1\n      pop\n        /* \"#utility.yul\":2475:2479   */\n      0x20\n        /* \"#utility.yul\":2467:2473   */\n      dup5\n        /* \"#utility.yul\":2463:2480   */\n      mul\n        /* \"#utility.yul\":2455:2461   */\n      dup4\n        /* \"#utility.yul\":2451:2481   */\n      add\n        /* \"#utility.yul\":2504:2507   */\n      dup6\n        /* \"#utility.yul\":2496:2502   */\n      dup2\n        /* \"#utility.yul\":2493:2508   */\n      gt\n        /* \"#utility.yul\":2490:2612   */\n      iszero\n      tag_351\n      jumpi\n        /* \"#utility.yul\":2523:2602   */\n      tag_352\n      tag_245\n      jump\t// in\n    tag_352:\n        /* \"#utility.yul\":2490:2612   */\n    tag_351:\n        /* \"#utility.yul\":2638:2644   */\n      dup4\n        /* \"#utility.yul\":2621:2841   */\n    tag_353:\n        /* \"#utility.yul\":2655:2661   */\n      dup2\n        /* \"#utility.yul\":2650:2653   */\n      dup2\n        /* \"#utility.yul\":2647:2662   */\n      lt\n        /* \"#utility.yul\":2621:2841   */\n      iszero\n      tag_355\n      jumpi\n        /* \"#utility.yul\":2730:2733   */\n      dup1\n        /* \"#utility.yul\":2759:2796   */\n      tag_356\n        /* \"#utility.yul\":2792:2795   */\n      dup9\n        /* \"#utility.yul\":2780:2790   */\n      dup3\n        /* \"#utility.yul\":2759:2796   */\n      tag_249\n      jump\t// in\n    tag_356:\n        /* \"#utility.yul\":2754:2757   */\n      dup5\n        /* \"#utility.yul\":2747:2797   */\n      mstore\n        /* \"#utility.yul\":2826:2830   */\n      0x20\n        /* \"#utility.yul\":2821:2824   */\n      dup5\n        /* \"#utility.yul\":2817:2831   */\n      add\n        /* \"#utility.yul\":2810:2831   */\n      swap4\n      pop\n        /* \"#utility.yul\":2697:2841   */\n      pop\n        /* \"#utility.yul\":2681:2685   */\n      0x20\n        /* \"#utility.yul\":2676:2679   */\n      dup2\n        /* \"#utility.yul\":2672:2686   */\n      add\n        /* \"#utility.yul\":2665:2686   */\n      swap1\n      pop\n        /* \"#utility.yul\":2621:2841   */\n      jump(tag_353)\n    tag_355:\n        /* \"#utility.yul\":2625:2646   */\n      pop\n        /* \"#utility.yul\":2239:2847   */\n      pop\n      pop\n        /* \"#utility.yul\":2137:2847   */\n      swap4\n      swap3\n      pop\n      pop\n      pop\n      jump\t// out\n        /* \"#utility.yul\":2870:3240   */\n    tag_251:\n        /* \"#utility.yul\":2941:2946   */\n      0x00\n        /* \"#utility.yul\":2990:2993   */\n      dup3\n        /* \"#utility.yul\":2983:2987   */\n      0x1f\n        /* \"#utility.yul\":2975:2981   */\n      dup4\n        /* \"#utility.yul\":2971:2988   */\n      add\n        /* \"#utility.yul\":2967:2994   */\n      slt\n        /* \"#utility.yul\":2957:3079   */\n      tag_358\n      jumpi\n        /* \"#utility.yul\":2998:3077   */\n      tag_359\n      tag_240\n      jump\t// in\n    tag_359:\n        /* \"#utility.yul\":2957:3079   */\n    tag_358:\n        /* \"#utility.yul\":3115:3121   */\n      dup2\n        /* \"#utility.yul\":3102:3122   */\n      calldataload\n        /* \"#utility.yul\":3140:3234   */\n      tag_360\n        /* \"#utility.yul\":3230:3233   */\n      dup5\n        /* \"#utility.yul\":3222:3228   */\n      dup3\n        /* \"#utility.yul\":3215:3219   */\n      0x20\n        /* \"#utility.yul\":3207:3213   */\n      dup7\n        /* \"#utility.yul\":3203:3220   */\n      add\n        /* \"#utility.yul\":3140:3234   */\n      tag_250\n      jump\t// in\n    tag_360:\n        /* \"#utility.yul\":3131:3234   */\n      swap2\n      pop\n        /* \"#utility.yul\":2947:3240   */\n      pop\n        /* \"#utility.yul\":2870:3240   */\n      swap3\n      swap2\n      pop\n      pop\n      jump\t// out\n        /* \"#utility.yul\":3246:3557   */\n    tag_252:\n        /* \"#utility.yul\":3323:3327   */\n      0x00\n        /* \"#utility.yul\":3413:3431   */\n      0xffffffffffffffff\n        /* \"#utility.yul\":3405:3411   */\n      dup3\n        /* \"#utility.yul\":3402:3432   */\n      gt\n        /* \"#utility.yul\":3399:3455   */\n      iszero\n      tag_362\n      jumpi\n        /* \"#utility.yul\":3435:3453   */\n      tag_363\n      tag_110\n      jump\t// in\n    tag_363:\n        /* \"#utility.yul\":3399:3455   */\n    tag_362:\n        /* \"#utility.yul\":3485:3489   */\n      0x20\n        /* \"#utility.yul\":3477:3483   */\n      dup3\n        /* \"#utility.yul\":3473:3490   */\n      mul\n        /* \"#utility.yul\":3465:3490   */\n      swap1\n      pop\n        /* \"#utility.yul\":3545:3549   */\n      0x20\n        /* \"#utility.yul\":3539:3543   */\n      dup2\n        /* \"#utility.yul\":3535:3550   */\n      add\n        /* \"#utility.yul\":3527:3550   */\n      swap1\n      pop\n        /* \"#utility.yul\":3246:3557   */\n      swap2\n      swap1\n      pop\n      jump\t// out\n        /* \"#utility.yul\":3563:3640   */\n    tag_253:\n        /* \"#utility.yul\":3600:3607   */\n      0x00\n        /* \"#utility.yul\":3629:3634   */\n      dup2\n        /* \"#utility.yul\":3618:3634   */\n      swap1\n      pop\n        /* \"#utility.yul\":3563:3640   */\n      swap2\n      swap1\n      pop\n      jump\t// out\n        /* \"#utility.yul\":3646:3768   */\n    tag_254:\n        /* \"#utility.yul\":3719:3743   */\n      tag_366\n        /* \"#utility.yul\":3737:3742   */\n      dup2\n        /* \"#utility.yul\":3719:3743   */\n      tag_253\n      jump\t// in\n    tag_366:\n        /* \"#utility.yul\":3712:3717   */\n      dup2\n        /* \"#utility.yul\":3709:3744   */\n      eq\n        /* \"#utility.yul\":3699:3762   */\n      tag_367\n      jumpi\n        /* \"#utility.yul\":3758:3759   */\n      0x00\n        /* \"#utility.yul\":3755:3756   */\n      dup1\n        /* \"#utility.yul\":3748:3760   */\n      revert\n        /* \"#utility.yul\":3699:3762   */\n    tag_367:\n        /* \"#utility.yul\":3646:3768   */\n      pop\n      jump\t// out\n        /* \"#utility.yul\":3774:3913   */\n    tag_255:\n        /* \"#utility.yul\":3820:3825   */\n      0x00\n        /* \"#utility.yul\":3858:3864   */\n      dup2\n        /* \"#utility.yul\":3845:3865   */\n      calldataload\n        /* \"#utility.yul\":3836:3865   */\n      swap1\n      pop\n        /* \"#utility.yul\":3874:3907   */\n      tag_369\n        /* \"#utility.yul\":3901:3906   */\n      dup2\n        /* \"#utility.yul\":3874:3907   */\n      tag_254\n      jump\t// in\n    tag_369:\n        /* \"#utility.yul\":3774:3913   */\n      swap3\n      swap2\n      pop\n      pop\n      jump\t// out\n        /* \"#utility.yul\":3936:4646   */\n    tag_256:\n        /* \"#utility.yul\":4032:4037   */\n      0x00\n        /* \"#utility.yul\":4057:4138   */\n      tag_371\n        /* \"#utility.yul\":4073:4137   */\n      tag_372\n        /* \"#utility.yul\":4130:4136   */\n      dup5\n        /* \"#utility.yul\":4073:4137   */\n      tag_252\n      jump\t// in\n    tag_372:\n        /* \"#utility.yul\":4057:4138   */\n      tag_243\n      jump\t// in\n    tag_371:\n        /* \"#utility.yul\":4048:4138   */\n      swap1\n      pop\n        /* \"#utility.yul\":4158:4163   */\n      dup1\n        /* \"#utility.yul\":4187:4193   */\n      dup4\n        /* \"#utility.yul\":4180:4185   */\n      dup3\n        /* \"#utility.yul\":4173:4194   */\n      mstore\n        /* \"#utility.yul\":4221:4225   */\n      0x20\n        /* \"#utility.yul\":4214:4219   */\n      dup3\n        /* \"#utility.yul\":4210:4226   */\n      add\n        /* \"#utility.yul\":4203:4226   */\n      swap1\n      pop\n        /* \"#utility.yul\":4274:4278   */\n      0x20\n        /* \"#utility.yul\":4266:4272   */\n      dup5\n        /* \"#utility.yul\":4262:4279   */\n      mul\n        /* \"#utility.yul\":4254:4260   */\n      dup4\n        /* \"#utility.yul\":4250:4280   */\n      add\n        /* \"#utility.yul\":4303:4306   */\n      dup6\n        /* \"#utility.yul\":4295:4301   */\n      dup2\n        /* \"#utility.yul\":4292:4307   */\n      gt\n        /* \"#utility.yul\":4289:4411   */\n      iszero\n      tag_373\n      jumpi\n        /* \"#utility.yul\":4322:4401   */\n      tag_374\n      tag_245\n      jump\t// in\n    tag_374:\n        /* \"#utility.yul\":4289:4411   */\n    tag_373:\n        /* \"#utility.yul\":4437:4443   */\n      dup4\n        /* \"#utility.yul\":4420:4640   */\n    tag_375:\n        /* \"#utility.yul\":4454:4460   */\n      dup2\n        /* \"#utility.yul\":4449:4452   */\n      dup2\n        /* \"#utility.yul\":4446:4461   */\n      lt\n        /* \"#utility.yul\":4420:4640   */\n      iszero\n      tag_377\n      jumpi\n        /* \"#utility.yul\":4529:4532   */\n      dup1\n        /* \"#utility.yul\":4558:4595   */\n      tag_378\n        /* \"#utility.yul\":4591:4594   */\n      dup9\n        /* \"#utility.yul\":4579:4589   */\n      dup3\n        /* \"#utility.yul\":4558:4595   */\n      tag_255\n      jump\t// in\n    tag_378:\n        /* \"#utility.yul\":4553:4556   */\n      dup5\n        /* \"#utility.yul\":4546:4596   */\n      mstore\n        /* \"#utility.yul\":4625:4629   */\n      0x20\n        /* \"#utility.yul\":4620:4623   */\n      dup5\n        /* \"#utility.yul\":4616:4630   */\n      add\n        /* \"#utility.yul\":4609:4630   */\n      swap4\n      pop\n        /* \"#utility.yul\":4496:4640   */\n      pop\n        /* \"#utility.yul\":4480:4484   */\n      0x20\n        /* \"#utility.yul\":4475:4478   */\n      dup2\n        /* \"#utility.yul\":4471:4485   */\n      add\n        /* \"#utility.yul\":4464:4485   */\n      swap1\n      pop\n        /* \"#utility.yul\":4420:4640   */\n      jump(tag_375)\n    tag_377:\n        /* \"#utility.yul\":4424:4445   */\n      pop\n        /* \"#utility.yul\":4038:4646   */\n      pop\n      pop\n        /* \"#utility.yul\":3936:4646   */\n      swap4\n      swap3\n      pop\n      pop\n      pop\n      jump\t// out\n        /* \"#utility.yul\":4669:5039   */\n    tag_257:\n        /* \"#utility.yul\":4740:4745   */\n      0x00\n        /* \"#utility.yul\":4789:4792   */\n      dup3\n        /* \"#utility.yul\":4782:4786   */\n      0x1f\n        /* \"#utility.yul\":4774:4780   */\n      dup4\n        /* \"#utility.yul\":4770:4787   */\n      add\n        /* \"#utility.yul\":4766:4793   */\n      slt\n        /* \"#utility.yul\":4756:4878   */\n      tag_380\n      jumpi\n        /* \"#utility.yul\":4797:4876   */\n      tag_381\n      tag_240\n      jump\t// in\n    tag_381:\n        /* \"#utility.yul\":4756:4878   */\n    tag_380:\n        /* \"#utility.yul\":4914:4920   */\n      dup2\n        /* \"#utility.yul\":4901:4921   */\n      calldataload\n        /* \"#utility.yul\":4939:5033   */\n      tag_382\n        /* \"#utility.yul\":5029:5032   */\n      dup5\n        /* \"#utility.yul\":5021:5027   */\n      dup3\n        /* \"#utility.yul\":5014:5018   */\n      0x20\n        /* \"#utility.yul\":5006:5012   */\n      dup7\n        /* \"#utility.yul\":5002:5019   */\n      add\n        /* \"#utility.yul\":4939:5033   */\n      tag_256\n      jump\t// in\n    tag_382:\n        /* \"#utility.yul\":4930:5033   */\n      swap2\n      pop\n        /* \"#utility.yul\":4746:5039   */\n      pop\n        /* \"#utility.yul\":4669:5039   */\n      swap3\n      swap2\n      pop\n      pop\n      jump\t// out\n        /* \"#utility.yul\":5045:5939   */\n    tag_20:\n        /* \"#utility.yul\":5163:5169   */\n      0x00\n        /* \"#utility.yul\":5171:5177   */\n      dup1\n        /* \"#utility.yul\":5220:5222   */\n      0x40\n        /* \"#utility.yul\":5208:5217   */\n      dup4\n        /* \"#utility.yul\":5199:5206   */\n      dup6\n        /* \"#utility.yul\":5195:5218   */\n      sub\n        /* \"#utility.yul\":5191:5223   */\n      slt\n        /* \"#utility.yul\":5188:5307   */\n      iszero\n      tag_384\n      jumpi\n        /* \"#utility.yul\":5226:5305   */\n      tag_385\n      tag_238\n      jump\t// in\n    tag_385:\n        /* \"#utility.yul\":5188:5307   */\n    tag_384:\n        /* \"#utility.yul\":5374:5375   */\n      0x00\n        /* \"#utility.yul\":5363:5372   */\n      dup4\n        /* \"#utility.yul\":5359:5376   */\n      add\n        /* \"#utility.yul\":5346:5377   */\n      calldataload\n        /* \"#utility.yul\":5404:5422   */\n      0xffffffffffffffff\n        /* \"#utility.yul\":5396:5402   */\n      dup2\n        /* \"#utility.yul\":5393:5423   */\n      gt\n        /* \"#utility.yul\":5390:5507   */\n      iszero\n      tag_386\n      jumpi\n        /* \"#utility.yul\":5426:5505   */\n      tag_387\n      tag_239\n      jump\t// in\n    tag_387:\n        /* \"#utility.yul\":5390:5507   */\n    tag_386:\n        /* \"#utility.yul\":5531:5609   */\n      tag_388\n        /* \"#utility.yul\":5601:5608   */\n      dup6\n        /* \"#utility.yul\":5592:5598   */\n      dup3\n        /* \"#utility.yul\":5581:5590   */\n      dup7\n        /* \"#utility.yul\":5577:5599   */\n      add\n        /* \"#utility.yul\":5531:5609   */\n      tag_251\n      jump\t// in\n    tag_388:\n        /* \"#utility.yul\":5521:5609   */\n      swap3\n      pop\n        /* \"#utility.yul\":5317:5619   */\n      pop\n        /* \"#utility.yul\":5686:5688   */\n      0x20\n        /* \"#utility.yul\":5675:5684   */\n      dup4\n        /* \"#utility.yul\":5671:5689   */\n      add\n        /* \"#utility.yul\":5658:5690   */\n      calldataload\n        /* \"#utility.yul\":5717:5735   */\n      0xffffffffffffffff\n        /* \"#utility.yul\":5709:5715   */\n      dup2\n        /* \"#utility.yul\":5706:5736   */\n      gt\n        /* \"#utility.yul\":5703:5820   */\n      iszero\n      tag_389\n      jumpi\n        /* \"#utility.yul\":5739:5818   */\n      tag_390\n      tag_239\n      jump\t// in\n    tag_390:\n        /* \"#utility.yul\":5703:5820   */\n    tag_389:\n        /* \"#utility.yul\":5844:5922   */\n      tag_391\n        /* \"#utility.yul\":5914:5921   */\n      dup6\n        /* \"#utility.yul\":5905:5911   */\n      dup3\n        /* \"#utility.yul\":5894:5903   */\n      dup7\n        /* \"#utility.yul\":5890:5912   */\n      add\n        /* \"#utility.yul\":5844:5922   */\n      tag_257\n      jump\t// in\n    tag_391:\n        /* \"#utility.yul\":5834:5922   */\n      swap2\n      pop\n        /* \"#utility.yul\":5629:5932   */\n      pop\n        /* \"#utility.yul\":5045:5939   */\n      swap3\n      pop\n      swap3\n      swap1\n      pop\n      jump\t// out\n        /* \"#utility.yul\":5945:6062   */\n    tag_258:\n        /* \"#utility.yul\":6054:6055   */\n      0x00\n        /* \"#utility.yul\":6051:6052   */\n      dup1\n        /* \"#utility.yul\":6044:6056   */\n      revert\n        /* \"#utility.yul\":6068:6376   */\n    tag_259:\n        /* \"#utility.yul\":6130:6134   */\n      0x00\n        /* \"#utility.yul\":6220:6238   */\n      0xffffffffffffffff\n        /* \"#utility.yul\":6212:6218   */\n      dup3\n        /* \"#utility.yul\":6209:6239   */\n      gt\n        /* \"#utility.yul\":6206:6262   */\n      iszero\n      tag_394\n      jumpi\n        /* \"#utility.yul\":6242:6260   */\n      tag_395\n      tag_110\n      jump\t// in\n    tag_395:\n        /* \"#utility.yul\":6206:6262   */\n    tag_394:\n        /* \"#utility.yul\":6280:6309   */\n      tag_396\n        /* \"#utility.yul\":6302:6308   */\n      dup3\n        /* \"#utility.yul\":6280:6309   */\n      tag_241\n      jump\t// in\n    tag_396:\n        /* \"#utility.yul\":6272:6309   */\n      swap1\n      pop\n        /* \"#utility.yul\":6364:6368   */\n      0x20\n        /* \"#utility.yul\":6358:6362   */\n      dup2\n        /* \"#utility.yul\":6354:6369   */\n      add\n        /* \"#utility.yul\":6346:6369   */\n      swap1\n      pop\n        /* \"#utility.yul\":6068:6376   */\n      swap2\n      swap1\n      pop\n      jump\t// out\n        /* \"#utility.yul\":6382:6530   */\n    tag_260:\n        /* \"#utility.yul\":6480:6486   */\n      dup3\n        /* \"#utility.yul\":6475:6478   */\n      dup2\n        /* \"#utility.yul\":6470:6473   */\n      dup4\n        /* \"#utility.yul\":6457:6487   */\n      calldatacopy\n        /* \"#utility.yul\":6521:6522   */\n      0x00\n        /* \"#utility.yul\":6512:6518   */\n      dup4\n        /* \"#utility.yul\":6507:6510   */\n      dup4\n        /* \"#utility.yul\":6503:6519   */\n      add\n        /* \"#utility.yul\":6496:6523   */\n      mstore\n        /* \"#utility.yul\":6382:6530   */\n      pop\n      pop\n      pop\n      jump\t// out\n        /* \"#utility.yul\":6536:6961   */\n    tag_261:\n        /* \"#utility.yul\":6614:6619   */\n      0x00\n        /* \"#utility.yul\":6639:6705   */\n      tag_399\n        /* \"#utility.yul\":6655:6704   */\n      tag_400\n        /* \"#utility.yul\":6697:6703   */\n      dup5\n        /* \"#utility.yul\":6655:6704   */\n      tag_259\n      jump\t// in\n    tag_400:\n        /* \"#utility.yul\":6639:6705   */\n      tag_243\n      jump\t// in\n    tag_399:\n        /* \"#utility.yul\":6630:6705   */\n      swap1\n      pop\n        /* \"#utility.yul\":6728:6734   */\n      dup3\n        /* \"#utility.yul\":6721:6726   */\n      dup2\n        /* \"#utility.yul\":6714:6735   */\n      mstore\n        /* \"#utility.yul\":6766:6770   */\n      0x20\n        /* \"#utility.yul\":6759:6764   */\n      dup2\n        /* \"#utility.yul\":6755:6771   */\n      add\n        /* \"#utility.yul\":6804:6807   */\n      dup5\n        /* \"#utility.yul\":6795:6801   */\n      dup5\n        /* \"#utility.yul\":6790:6793   */\n      dup5\n        /* \"#utility.yul\":6786:6802   */\n      add\n        /* \"#utility.yul\":6783:6808   */\n      gt\n        /* \"#utility.yul\":6780:6892   */\n      iszero\n      tag_401\n      jumpi\n        /* \"#utility.yul\":6811:6890   */\n      tag_402\n      tag_258\n      jump\t// in\n    tag_402:\n        /* \"#utility.yul\":6780:6892   */\n    tag_401:\n        /* \"#utility.yul\":6901:6955   */\n      tag_403\n        /* \"#utility.yul\":6948:6954   */\n      dup5\n        /* \"#utility.yul\":6943:6946   */\n      dup3\n        /* \"#utility.yul\":6938:6941   */\n      dup6\n        /* \"#utility.yul\":6901:6955   */\n      tag_260\n      jump\t// in\n    tag_403:\n        /* \"#utility.yul\":6620:6961   */\n      pop\n        /* \"#utility.yul\":6536:6961   */\n      swap4\n      swap3\n      pop\n      pop\n      pop\n      jump\t// out\n        /* \"#utility.yul\":6981:7321   */\n    tag_262:\n        /* \"#utility.yul\":7037:7042   */\n      0x00\n        /* \"#utility.yul\":7086:7089   */\n      dup3\n        /* \"#utility.yul\":7079:7083   */\n      0x1f\n        /* \"#utility.yul\":7071:7077   */\n      dup4\n        /* \"#utility.yul\":7067:7084   */\n      add\n        /* \"#utility.yul\":7063:7090   */\n      slt\n        /* \"#utility.yul\":7053:7175   */\n      tag_405\n      jumpi\n        /* \"#utility.yul\":7094:7173   */\n      tag_406\n      tag_240\n      jump\t// in\n    tag_406:\n        /* \"#utility.yul\":7053:7175   */\n    tag_405:\n        /* \"#utility.yul\":7211:7217   */\n      dup2\n        /* \"#utility.yul\":7198:7218   */\n      calldataload\n        /* \"#utility.yul\":7236:7315   */\n      tag_407\n        /* \"#utility.yul\":7311:7314   */\n      dup5\n        /* \"#utility.yul\":7303:7309   */\n      dup3\n        /* \"#utility.yul\":7296:7300   */\n      0x20\n        /* \"#utility.yul\":7288:7294   */\n      dup7\n        /* \"#utility.yul\":7284:7301   */\n      add\n        /* \"#utility.yul\":7236:7315   */\n      tag_261\n      jump\t// in\n    tag_407:\n        /* \"#utility.yul\":7227:7315   */\n      swap2\n      pop\n        /* \"#utility.yul\":7043:7321   */\n      pop\n        /* \"#utility.yul\":6981:7321   */\n      swap3\n      swap2\n      pop\n      pop\n      jump\t// out\n        /* \"#utility.yul\":7327:7836   */\n    tag_25:\n        /* \"#utility.yul\":7396:7402   */\n      0x00\n        /* \"#utility.yul\":7445:7447   */\n      0x20\n        /* \"#utility.yul\":7433:7442   */\n      dup3\n        /* \"#utility.yul\":7424:7431   */\n      dup5\n        /* \"#utility.yul\":7420:7443   */\n      sub\n        /* \"#utility.yul\":7416:7448   */\n      slt\n        /* \"#utility.yul\":7413:7532   */\n      iszero\n      tag_409\n      jumpi\n        /* \"#utility.yul\":7451:7530   */\n      tag_410\n      tag_238\n      jump\t// in\n    tag_410:\n        /* \"#utility.yul\":7413:7532   */\n    tag_409:\n        /* \"#utility.yul\":7599:7600   */\n      0x00\n        /* \"#utility.yul\":7588:7597   */\n      dup3\n        /* \"#utility.yul\":7584:7601   */\n      add\n        /* \"#utility.yul\":7571:7602   */\n      calldataload\n        /* \"#utility.yul\":7629:7647   */\n      0xffffffffffffffff\n        /* \"#utility.yul\":7621:7627   */\n      dup2\n        /* \"#utility.yul\":7618:7648   */\n      gt\n        /* \"#utility.yul\":7615:7732   */\n      iszero\n      tag_411\n      jumpi\n        /* \"#utility.yul\":7651:7730   */\n      tag_412\n      tag_239\n      jump\t// in\n    tag_412:\n        /* \"#utility.yul\":7615:7732   */\n    tag_411:\n        /* \"#utility.yul\":7756:7819   */\n      tag_413\n        /* \"#utility.yul\":7811:7818   */\n      dup5\n        /* \"#utility.yul\":7802:7808   */\n      dup3\n        /* \"#utility.yul\":7791:7800   */\n      dup6\n        /* \"#utility.yul\":7787:7809   */\n      add\n        /* \"#utility.yul\":7756:7819   */\n      tag_262\n      jump\t// in\n    tag_413:\n        /* \"#utility.yul\":7746:7819   */\n      swap2\n      pop\n        /* \"#utility.yul\":7542:7829   */\n      pop\n        /* \"#utility.yul\":7327:7836   */\n      swap3\n      swap2\n      pop\n      pop\n      jump\t// out\n        /* \"#utility.yul\":7842:7960   */\n    tag_263:\n        /* \"#utility.yul\":7929:7953   */\n      tag_415\n        /* \"#utility.yul\":7947:7952   */\n      dup2\n        /* \"#utility.yul\":7929:7953   */\n      tag_253\n      jump\t// in\n    tag_415:\n        /* \"#utility.yul\":7924:7927   */\n      dup3\n        /* \"#utility.yul\":7917:7954   */\n      mstore\n        /* \"#utility.yul\":7842:7960   */\n      pop\n      pop\n      jump\t// out\n        /* \"#utility.yul\":7966:8084   */\n    tag_264:\n        /* \"#utility.yul\":8053:8077   */\n      tag_417\n        /* \"#utility.yul\":8071:8076   */\n      dup2\n        /* \"#utility.yul\":8053:8077   */\n      tag_247\n      jump\t// in\n    tag_417:\n        /* \"#utility.yul\":8048:8051   */\n      dup3\n        /* \"#utility.yul\":8041:8078   */\n      mstore\n        /* \"#utility.yul\":7966:8084   */\n      pop\n      pop\n      jump\t// out\n        /* \"#utility.yul\":8090:8422   */\n    tag_28:\n        /* \"#utility.yul\":8211:8215   */\n      0x00\n        /* \"#utility.yul\":8249:8251   */\n      0x40\n        /* \"#utility.yul\":8238:8247   */\n      dup3\n        /* \"#utility.yul\":8234:8252   */\n      add\n        /* \"#utility.yul\":8226:8252   */\n      swap1\n      pop\n        /* \"#utility.yul\":8262:8333   */\n      tag_419\n        /* \"#utility.yul\":8330:8331   */\n      0x00\n        /* \"#utility.yul\":8319:8328   */\n      dup4\n        /* \"#utility.yul\":8315:8332   */\n      add\n        /* \"#utility.yul\":8306:8312   */\n      dup6\n        /* \"#utility.yul\":8262:8333   */\n      tag_263\n      jump\t// in\n    tag_419:\n        /* \"#utility.yul\":8343:8415   */\n      tag_420\n        /* \"#utility.yul\":8411:8413   */\n      0x20\n        /* \"#utility.yul\":8400:8409   */\n      dup4\n        /* \"#utility.yul\":8396:8414   */\n      add\n        /* \"#utility.yul\":8387:8393   */\n      dup5\n        /* \"#utility.yul\":8343:8415   */\n      tag_264\n      jump\t// in\n    tag_420:\n        /* \"#utility.yul\":8090:8422   */\n      swap4\n      swap3\n      pop\n      pop\n      pop\n      jump\t// out\n        /* \"#utility.yul\":8428:8757   */\n    tag_32:\n        /* \"#utility.yul\":8487:8493   */\n      0x00\n        /* \"#utility.yul\":8536:8538   */\n      0x20\n        /* \"#utility.yul\":8524:8533   */\n      dup3\n        /* \"#utility.yul\":8515:8522   */\n      dup5\n        /* \"#utility.yul\":8511:8534   */\n      sub\n        /* \"#utility.yul\":8507:8539   */\n      slt\n        /* \"#utility.yul\":8504:8623   */\n      iszero\n      tag_422\n      jumpi\n        /* \"#utility.yul\":8542:8621   */\n      tag_423\n      tag_238\n      jump\t// in\n    tag_423:\n        /* \"#utility.yul\":8504:8623   */\n    tag_422:\n        /* \"#utility.yul\":8662:8663   */\n      0x00\n        /* \"#utility.yul\":8687:8740   */\n      tag_424\n        /* \"#utility.yul\":8732:8739   */\n      dup5\n        /* \"#utility.yul\":8723:8729   */\n      dup3\n        /* \"#utility.yul\":8712:8721   */\n      dup6\n        /* \"#utility.yul\":8708:8730   */\n      add\n        /* \"#utility.yul\":8687:8740   */\n      tag_255\n      jump\t// in\n    tag_424:\n        /* \"#utility.yul\":8677:8740   */\n      swap2\n      pop\n        /* \"#utility.yul\":8633:8750   */\n      pop\n        /* \"#utility.yul\":8428:8757   */\n      swap3\n      swap2\n      pop\n      pop\n      jump\t// out\n        /* \"#utility.yul\":8763:8862   */\n    tag_265:\n        /* \"#utility.yul\":8815:8821   */\n      0x00\n        /* \"#utility.yul\":8849:8854   */\n      dup2\n        /* \"#utility.yul\":8843:8855   */\n      mload\n        /* \"#utility.yul\":8833:8855   */\n      swap1\n      pop\n        /* \"#utility.yul\":8763:8862   */\n      swap2\n      swap1\n      pop\n      jump\t// out\n        /* \"#utility.yul\":8868:9037   */\n    tag_266:\n        /* \"#utility.yul\":8952:8963   */\n      0x00\n        /* \"#utility.yul\":8986:8992   */\n      dup3\n        /* \"#utility.yul\":8981:8984   */\n      dup3\n        /* \"#utility.yul\":8974:8993   */\n      mstore\n        /* \"#utility.yul\":9026:9030   */\n      0x20\n        /* \"#utility.yul\":9021:9024   */\n      dup3\n        /* \"#utility.yul\":9017:9031   */\n      add\n        /* \"#utility.yul\":9002:9031   */\n      swap1\n      pop\n        /* \"#utility.yul\":8868:9037   */\n      swap3\n      swap2\n      pop\n      pop\n      jump\t// out\n        /* \"#utility.yul\":9043:9182   */\n    tag_267:\n        /* \"#utility.yul\":9132:9138   */\n      dup3\n        /* \"#utility.yul\":9127:9130   */\n      dup2\n        /* \"#utility.yul\":9122:9125   */\n      dup4\n        /* \"#utility.yul\":9116:9139   */\n      mcopy\n        /* \"#utility.yul\":9173:9174   */\n      0x00\n        /* \"#utility.yul\":9164:9170   */\n      dup4\n        /* \"#utility.yul\":9159:9162   */\n      dup4\n        /* \"#utility.yul\":9155:9171   */\n      add\n        /* \"#utility.yul\":9148:9175   */\n      mstore\n        /* \"#utility.yul\":9043:9182   */\n      pop\n      pop\n      pop\n      jump\t// out\n        /* \"#utility.yul\":9188:9565   */\n    tag_268:\n        /* \"#utility.yul\":9276:9279   */\n      0x00\n        /* \"#utility.yul\":9304:9343   */\n      tag_429\n        /* \"#utility.yul\":9337:9342   */\n      dup3\n        /* \"#utility.yul\":9304:9343   */\n      tag_265\n      jump\t// in\n    tag_429:\n        /* \"#utility.yul\":9359:9430   */\n      tag_430\n        /* \"#utility.yul\":9423:9429   */\n      dup2\n        /* \"#utility.yul\":9418:9421   */\n      dup6\n        /* \"#utility.yul\":9359:9430   */\n      tag_266\n      jump\t// in\n    tag_430:\n        /* \"#utility.yul\":9352:9430   */\n      swap4\n      pop\n        /* \"#utility.yul\":9439:9504   */\n      tag_431\n        /* \"#utility.yul\":9497:9503   */\n      dup2\n        /* \"#utility.yul\":9492:9495   */\n      dup6\n        /* \"#utility.yul\":9485:9489   */\n      0x20\n        /* \"#utility.yul\":9478:9483   */\n      dup7\n        /* \"#utility.yul\":9474:9490   */\n      add\n        /* \"#utility.yul\":9439:9504   */\n      tag_267\n      jump\t// in\n    tag_431:\n        /* \"#utility.yul\":9529:9558   */\n      tag_432\n        /* \"#utility.yul\":9551:9557   */\n      dup2\n        /* \"#utility.yul\":9529:9558   */\n      tag_241\n      jump\t// in\n    tag_432:\n        /* \"#utility.yul\":9524:9527   */\n      dup5\n        /* \"#utility.yul\":9520:9559   */\n      add\n        /* \"#utility.yul\":9513:9559   */\n      swap2\n      pop\n        /* \"#utility.yul\":9280:9565   */\n      pop\n        /* \"#utility.yul\":9188:9565   */\n      swap3\n      swap2\n      pop\n      pop\n      jump\t// out\n        /* \"#utility.yul\":9571:10104   */\n    tag_35:\n        /* \"#utility.yul\":9740:9744   */\n      0x00\n        /* \"#utility.yul\":9778:9780   */\n      0x60\n        /* \"#utility.yul\":9767:9776   */\n      dup3\n        /* \"#utility.yul\":9763:9781   */\n      add\n        /* \"#utility.yul\":9755:9781   */\n      swap1\n      pop\n        /* \"#utility.yul\":9827:9836   */\n      dup2\n        /* \"#utility.yul\":9821:9825   */\n      dup2\n        /* \"#utility.yul\":9817:9837   */\n      sub\n        /* \"#utility.yul\":9813:9814   */\n      0x00\n        /* \"#utility.yul\":9802:9811   */\n      dup4\n        /* \"#utility.yul\":9798:9815   */\n      add\n        /* \"#utility.yul\":9791:9838   */\n      mstore\n        /* \"#utility.yul\":9855:9933   */\n      tag_434\n        /* \"#utility.yul\":9928:9932   */\n      dup2\n        /* \"#utility.yul\":9919:9925   */\n      dup7\n        /* \"#utility.yul\":9855:9933   */\n      tag_268\n      jump\t// in\n    tag_434:\n        /* \"#utility.yul\":9847:9933   */\n      swap1\n      pop\n        /* \"#utility.yul\":9943:10015   */\n      tag_435\n        /* \"#utility.yul\":10011:10013   */\n      0x20\n        /* \"#utility.yul\":10000:10009   */\n      dup4\n        /* \"#utility.yul\":9996:10014   */\n      add\n        /* \"#utility.yul\":9987:9993   */\n      dup6\n        /* \"#utility.yul\":9943:10015   */\n      tag_263\n      jump\t// in\n    tag_435:\n        /* \"#utility.yul\":10025:10097   */\n      tag_436\n        /* \"#utility.yul\":10093:10095   */\n      0x40\n        /* \"#utility.yul\":10082:10091   */\n      dup4\n        /* \"#utility.yul\":10078:10096   */\n      add\n        /* \"#utility.yul\":10069:10075   */\n      dup5\n        /* \"#utility.yul\":10025:10097   */\n      tag_264\n      jump\t// in\n    tag_436:\n        /* \"#utility.yul\":9571:10104   */\n      swap5\n      swap4\n      pop\n      pop\n      pop\n      pop\n      jump\t// out\n        /* \"#utility.yul\":10110:10332   */\n    tag_44:\n        /* \"#utility.yul\":10203:10207   */\n      0x00\n        /* \"#utility.yul\":10241:10243   */\n      0x20\n        /* \"#utility.yul\":10230:10239   */\n      dup3\n        /* \"#utility.yul\":10226:10244   */\n      add\n        /* \"#utility.yul\":10218:10244   */\n      swap1\n      pop\n        /* \"#utility.yul\":10254:10325   */\n      tag_438\n        /* \"#utility.yul\":10322:10323   */\n      0x00\n        /* \"#utility.yul\":10311:10320   */\n      dup4\n        /* \"#utility.yul\":10307:10324   */\n      add\n        /* \"#utility.yul\":10298:10304   */\n      dup5\n        /* \"#utility.yul\":10254:10325   */\n      tag_263\n      jump\t// in\n    tag_438:\n        /* \"#utility.yul\":10110:10332   */\n      swap3\n      swap2\n      pop\n      pop\n      jump\t// out\n        /* \"#utility.yul\":10338:10442   */\n    tag_269:\n        /* \"#utility.yul\":10383:10390   */\n      0x00\n        /* \"#utility.yul\":10412:10436   */\n      tag_440\n        /* \"#utility.yul\":10430:10435   */\n      dup3\n        /* \"#utility.yul\":10412:10436   */\n      tag_246\n      jump\t// in\n    tag_440:\n        /* \"#utility.yul\":10401:10436   */\n      swap1\n      pop\n        /* \"#utility.yul\":10338:10442   */\n      swap2\n      swap1\n      pop\n      jump\t// out\n        /* \"#utility.yul\":10448:10590   */\n    tag_270:\n        /* \"#utility.yul\":10551:10583   */\n      tag_442\n        /* \"#utility.yul\":10577:10582   */\n      dup2\n        /* \"#utility.yul\":10551:10583   */\n      tag_269\n      jump\t// in\n    tag_442:\n        /* \"#utility.yul\":10546:10549   */\n      dup3\n        /* \"#utility.yul\":10539:10584   */\n      mstore\n        /* \"#utility.yul\":10448:10590   */\n      pop\n      pop\n      jump\t// out\n        /* \"#utility.yul\":10596:10850   */\n    tag_61:\n        /* \"#utility.yul\":10705:10709   */\n      0x00\n        /* \"#utility.yul\":10743:10745   */\n      0x20\n        /* \"#utility.yul\":10732:10741   */\n      dup3\n        /* \"#utility.yul\":10728:10746   */\n      add\n        /* \"#utility.yul\":10720:10746   */\n      swap1\n      pop\n        /* \"#utility.yul\":10756:10843   */\n      tag_444\n        /* \"#utility.yul\":10840:10841   */\n      0x00\n        /* \"#utility.yul\":10829:10838   */\n      dup4\n        /* \"#utility.yul\":10825:10842   */\n      add\n        /* \"#utility.yul\":10816:10822   */\n      dup5\n        /* \"#utility.yul\":10756:10843   */\n      tag_270\n      jump\t// in\n    tag_444:\n        /* \"#utility.yul\":10596:10850   */\n      swap3\n      swap2\n      pop\n      pop\n      jump\t// out\n        /* \"#utility.yul\":10856:11076   */\n    tag_271:\n        /* \"#utility.yul\":10996:11030   */\n      0x4f6e6c79206f776e65722063616e2063616c6c20746869732066756e6374696f\n        /* \"#utility.yul\":10992:10993   */\n      0x00\n        /* \"#utility.yul\":10984:10990   */\n      dup3\n        /* \"#utility.yul\":10980:10994   */\n      add\n        /* \"#utility.yul\":10973:11031   */\n      mstore\n        /* \"#utility.yul\":11065:11068   */\n      0x6e00000000000000000000000000000000000000000000000000000000000000\n        /* \"#utility.yul\":11060:11062   */\n      0x20\n        /* \"#utility.yul\":11052:11058   */\n      dup3\n        /* \"#utility.yul\":11048:11063   */\n      add\n        /* \"#utility.yul\":11041:11069   */\n      mstore\n        /* \"#utility.yul\":10856:11076   */\n      pop\n      jump\t// out\n        /* \"#utility.yul\":11082:11448   */\n    tag_272:\n        /* \"#utility.yul\":11224:11227   */\n      0x00\n        /* \"#utility.yul\":11245:11312   */\n      tag_447\n        /* \"#utility.yul\":11309:11311   */\n      0x21\n        /* \"#utility.yul\":11304:11307   */\n      dup4\n        /* \"#utility.yul\":11245:11312   */\n      tag_266\n      jump\t// in\n    tag_447:\n        /* \"#utility.yul\":11238:11312   */\n      swap2\n      pop\n        /* \"#utility.yul\":11321:11414   */\n      tag_448\n        /* \"#utility.yul\":11410:11413   */\n      dup3\n        /* \"#utility.yul\":11321:11414   */\n      tag_271\n      jump\t// in\n    tag_448:\n        /* \"#utility.yul\":11439:11441   */\n      0x40\n        /* \"#utility.yul\":11434:11437   */\n      dup3\n        /* \"#utility.yul\":11430:11442   */\n      add\n        /* \"#utility.yul\":11423:11442   */\n      swap1\n      pop\n        /* \"#utility.yul\":11082:11448   */\n      swap2\n      swap1\n      pop\n      jump\t// out\n        /* \"#utility.yul\":11454:11873   */\n    tag_80:\n        /* \"#utility.yul\":11620:11624   */\n      0x00\n        /* \"#utility.yul\":11658:11660   */\n      0x20\n        /* \"#utility.yul\":11647:11656   */\n      dup3\n        /* \"#utility.yul\":11643:11661   */\n      add\n        /* \"#utility.yul\":11635:11661   */\n      swap1\n      pop\n        /* \"#utility.yul\":11707:11716   */\n      dup2\n        /* \"#utility.yul\":11701:11705   */\n      dup2\n        /* \"#utility.yul\":11697:11717   */\n      sub\n        /* \"#utility.yul\":11693:11694   */\n      0x00\n        /* \"#utility.yul\":11682:11691   */\n      dup4\n        /* \"#utility.yul\":11678:11695   */\n      add\n        /* \"#utility.yul\":11671:11718   */\n      mstore\n        /* \"#utility.yul\":11735:11866   */\n      tag_450\n        /* \"#utility.yul\":11861:11865   */\n      dup2\n        /* \"#utility.yul\":11735:11866   */\n      tag_272\n      jump\t// in\n    tag_450:\n        /* \"#utility.yul\":11727:11866   */\n      swap1\n      pop\n        /* \"#utility.yul\":11454:11873   */\n      swap2\n      swap1\n      pop\n      jump\t// out\n        /* \"#utility.yul\":11879:12101   */\n    tag_273:\n        /* \"#utility.yul\":12019:12053   */\n      0x4d7573742070726f766964652065786163746c79203320706172746963697061\n        /* \"#utility.yul\":12015:12016   */\n      0x00\n        /* \"#utility.yul\":12007:12013   */\n      dup3\n        /* \"#utility.yul\":12003:12017   */\n      add\n        /* \"#utility.yul\":11996:12054   */\n      mstore\n        /* \"#utility.yul\":12088:12093   */\n      0x6e74730000000000000000000000000000000000000000000000000000000000\n        /* \"#utility.yul\":12083:12085   */\n      0x20\n        /* \"#utility.yul\":12075:12081   */\n      dup3\n        /* \"#utility.yul\":12071:12086   */\n      add\n        /* \"#utility.yul\":12064:12094   */\n      mstore\n        /* \"#utility.yul\":11879:12101   */\n      pop\n      jump\t// out\n        /* \"#utility.yul\":12107:12473   */\n    tag_274:\n        /* \"#utility.yul\":12249:12252   */\n      0x00\n        /* \"#utility.yul\":12270:12337   */\n      tag_453\n        /* \"#utility.yul\":12334:12336   */\n      0x23\n        /* \"#utility.yul\":12329:12332   */\n      dup4\n        /* \"#utility.yul\":12270:12337   */\n      tag_266\n      jump\t// in\n    tag_453:\n        /* \"#utility.yul\":12263:12337   */\n      swap2\n      pop\n        /* \"#utility.yul\":12346:12439   */\n      tag_454\n        /* \"#utility.yul\":12435:12438   */\n      dup3\n        /* \"#utility.yul\":12346:12439   */\n      tag_273\n      jump\t// in\n    tag_454:\n        /* \"#utility.yul\":12464:12466   */\n      0x40\n        /* \"#utility.yul\":12459:12462   */\n      dup3\n        /* \"#utility.yul\":12455:12467   */\n      add\n        /* \"#utility.yul\":12448:12467   */\n      swap1\n      pop\n        /* \"#utility.yul\":12107:12473   */\n      swap2\n      swap1\n      pop\n      jump\t// out\n        /* \"#utility.yul\":12479:12898   */\n    tag_84:\n        /* \"#utility.yul\":12645:12649   */\n      0x00\n        /* \"#utility.yul\":12683:12685   */\n      0x20\n        /* \"#utility.yul\":12672:12681   */\n      dup3\n        /* \"#utility.yul\":12668:12686   */\n      add\n        /* \"#utility.yul\":12660:12686   */\n      swap1\n      pop\n        /* \"#utility.yul\":12732:12741   */\n      dup2\n        /* \"#utility.yul\":12726:12730   */\n      dup2\n        /* \"#utility.yul\":12722:12742   */\n      sub\n        /* \"#utility.yul\":12718:12719   */\n      0x00\n        /* \"#utility.yul\":12707:12716   */\n      dup4\n        /* \"#utility.yul\":12703:12720   */\n      add\n        /* \"#utility.yul\":12696:12743   */\n      mstore\n        /* \"#utility.yul\":12760:12891   */\n      tag_456\n        /* \"#utility.yul\":12886:12890   */\n      dup2\n        /* \"#utility.yul\":12760:12891   */\n      tag_274\n      jump\t// in\n    tag_456:\n        /* \"#utility.yul\":12752:12891   */\n      swap1\n      pop\n        /* \"#utility.yul\":12479:12898   */\n      swap2\n      swap1\n      pop\n      jump\t// out\n        /* \"#utility.yul\":12904:13075   */\n    tag_275:\n        /* \"#utility.yul\":13044:13067   */\n      0x4d7573742070726f76696465203420726174696f730000000000000000000000\n        /* \"#utility.yul\":13040:13041   */\n      0x00\n        /* \"#utility.yul\":13032:13038   */\n      dup3\n        /* \"#utility.yul\":13028:13042   */\n      add\n        /* \"#utility.yul\":13021:13068   */\n      mstore\n        /* \"#utility.yul\":12904:13075   */\n      pop\n      jump\t// out\n        /* \"#utility.yul\":13081:13447   */\n    tag_276:\n        /* \"#utility.yul\":13223:13226   */\n      0x00\n        /* \"#utility.yul\":13244:13311   */\n      tag_459\n        /* \"#utility.yul\":13308:13310   */\n      0x15\n        /* \"#utility.yul\":13303:13306   */\n      dup4\n        /* \"#utility.yul\":13244:13311   */\n      tag_266\n      jump\t// in\n    tag_459:\n        /* \"#utility.yul\":13237:13311   */\n      swap2\n      pop\n        /* \"#utility.yul\":13320:13413   */\n      tag_460\n        /* \"#utility.yul\":13409:13412   */\n      dup3\n        /* \"#utility.yul\":13320:13413   */\n      tag_275\n      jump\t// in\n    tag_460:\n        /* \"#utility.yul\":13438:13440   */\n      0x20\n        /* \"#utility.yul\":13433:13436   */\n      dup3\n        /* \"#utility.yul\":13429:13441   */\n      add\n        /* \"#utility.yul\":13422:13441   */\n      swap1\n      pop\n        /* \"#utility.yul\":13081:13447   */\n      swap2\n      swap1\n      pop\n      jump\t// out\n        /* \"#utility.yul\":13453:13872   */\n    tag_87:\n        /* \"#utility.yul\":13619:13623   */\n      0x00\n        /* \"#utility.yul\":13657:13659   */\n      0x20\n        /* \"#utility.yul\":13646:13655   */\n      dup3\n        /* \"#utility.yul\":13642:13660   */\n      add\n        /* \"#utility.yul\":13634:13660   */\n      swap1\n      pop\n        /* \"#utility.yul\":13706:13715   */\n      dup2\n        /* \"#utility.yul\":13700:13704   */\n      dup2\n        /* \"#utility.yul\":13696:13716   */\n      sub\n        /* \"#utility.yul\":13692:13693   */\n      0x00\n        /* \"#utility.yul\":13681:13690   */\n      dup4\n        /* \"#utility.yul\":13677:13694   */\n      add\n        /* \"#utility.yul\":13670:13717   */\n      mstore\n        /* \"#utility.yul\":13734:13865   */\n      tag_462\n        /* \"#utility.yul\":13860:13864   */\n      dup2\n        /* \"#utility.yul\":13734:13865   */\n      tag_276\n      jump\t// in\n    tag_462:\n        /* \"#utility.yul\":13726:13865   */\n      swap1\n      pop\n        /* \"#utility.yul\":13453:13872   */\n      swap2\n      swap1\n      pop\n      jump\t// out\n        /* \"#utility.yul\":13878:14058   */\n    tag_94:\n        /* \"#utility.yul\":13926:14003   */\n      0x4e487b7100000000000000000000000000000000000000000000000000000000\n        /* \"#utility.yul\":13923:13924   */\n      0x00\n        /* \"#utility.yul\":13916:14004   */\n      mstore\n        /* \"#utility.yul\":14023:14027   */\n      0x32\n        /* \"#utility.yul\":14020:14021   */\n      0x04\n        /* \"#utility.yul\":14013:14028   */\n      mstore\n        /* \"#utility.yul\":14047:14051   */\n      0x24\n        /* \"#utility.yul\":14044:14045   */\n      0x00\n        /* \"#utility.yul\":14037:14052   */\n      revert\n        /* \"#utility.yul\":14064:14244   */\n    tag_277:\n        /* \"#utility.yul\":14112:14189   */\n      0x4e487b7100000000000000000000000000000000000000000000000000000000\n        /* \"#utility.yul\":14109:14110   */\n      0x00\n        /* \"#utility.yul\":14102:14190   */\n      mstore\n        /* \"#utility.yul\":14209:14213   */\n      0x11\n        /* \"#utility.yul\":14206:14207   */\n      0x04\n        /* \"#utility.yul\":14199:14214   */\n      mstore\n        /* \"#utility.yul\":14233:14237   */\n      0x24\n        /* \"#utility.yul\":14230:14231   */\n      0x00\n        /* \"#utility.yul\":14223:14238   */\n      revert\n        /* \"#utility.yul\":14250:14444   */\n    tag_146:\n        /* \"#utility.yul\":14290:14294   */\n      0x00\n        /* \"#utility.yul\":14310:14330   */\n      tag_466\n        /* \"#utility.yul\":14328:14329   */\n      dup3\n        /* \"#utility.yul\":14310:14330   */\n      tag_253\n      jump\t// in\n    tag_466:\n        /* \"#utility.yul\":14305:14330   */\n      swap2\n      pop\n        /* \"#utility.yul\":14344:14364   */\n      tag_467\n        /* \"#utility.yul\":14362:14363   */\n      dup4\n        /* \"#utility.yul\":14344:14364   */\n      tag_253\n      jump\t// in\n    tag_467:\n        /* \"#utility.yul\":14339:14364   */\n      swap3\n      pop\n        /* \"#utility.yul\":14388:14389   */\n      dup3\n        /* \"#utility.yul\":14385:14386   */\n      dup3\n        /* \"#utility.yul\":14381:14390   */\n      sub\n        /* \"#utility.yul\":14373:14390   */\n      swap1\n      pop\n        /* \"#utility.yul\":14412:14413   */\n      dup2\n        /* \"#utility.yul\":14406:14410   */\n      dup2\n        /* \"#utility.yul\":14403:14414   */\n      gt\n        /* \"#utility.yul\":14400:14437   */\n      iszero\n      tag_468\n      jumpi\n        /* \"#utility.yul\":14417:14435   */\n      tag_469\n      tag_277\n      jump\t// in\n    tag_469:\n        /* \"#utility.yul\":14400:14437   */\n    tag_468:\n        /* \"#utility.yul\":14250:14444   */\n      swap3\n      swap2\n      pop\n      pop\n      jump\t// out\n        /* \"#utility.yul\":14450:14564   */\n    tag_278:\n        /* \"#utility.yul\":14517:14523   */\n      0x00\n        /* \"#utility.yul\":14551:14556   */\n      dup2\n        /* \"#utility.yul\":14545:14557   */\n      mload\n        /* \"#utility.yul\":14535:14557   */\n      swap1\n      pop\n        /* \"#utility.yul\":14450:14564   */\n      swap2\n      swap1\n      pop\n      jump\t// out\n        /* \"#utility.yul\":14570:14754   */\n    tag_279:\n        /* \"#utility.yul\":14669:14680   */\n      0x00\n        /* \"#utility.yul\":14703:14709   */\n      dup3\n        /* \"#utility.yul\":14698:14701   */\n      dup3\n        /* \"#utility.yul\":14691:14710   */\n      mstore\n        /* \"#utility.yul\":14743:14747   */\n      0x20\n        /* \"#utility.yul\":14738:14741   */\n      dup3\n        /* \"#utility.yul\":14734:14748   */\n      add\n        /* \"#utility.yul\":14719:14748   */\n      swap1\n      pop\n        /* \"#utility.yul\":14570:14754   */\n      swap3\n      swap2\n      pop\n      pop\n      jump\t// out\n        /* \"#utility.yul\":14760:14892   */\n    tag_280:\n        /* \"#utility.yul\":14827:14831   */\n      0x00\n        /* \"#utility.yul\":14850:14853   */\n      dup2\n        /* \"#utility.yul\":14842:14853   */\n      swap1\n      pop\n        /* \"#utility.yul\":14880:14884   */\n      0x20\n        /* \"#utility.yul\":14875:14878   */\n      dup3\n        /* \"#utility.yul\":14871:14885   */\n      add\n        /* \"#utility.yul\":14863:14885   */\n      swap1\n      pop\n        /* \"#utility.yul\":14760:14892   */\n      swap2\n      swap1\n      pop\n      jump\t// out\n        /* \"#utility.yul\":14898:15006   */\n    tag_281:\n        /* \"#utility.yul\":14975:14999   */\n      tag_474\n        /* \"#utility.yul\":14993:14998   */\n      dup2\n        /* \"#utility.yul\":14975:14999   */\n      tag_247\n      jump\t// in\n    tag_474:\n        /* \"#utility.yul\":14970:14973   */\n      dup3\n        /* \"#utility.yul\":14963:15000   */\n      mstore\n        /* \"#utility.yul\":14898:15006   */\n      pop\n      pop\n      jump\t// out\n        /* \"#utility.yul\":15012:15191   */\n    tag_282:\n        /* \"#utility.yul\":15081:15091   */\n      0x00\n        /* \"#utility.yul\":15102:15148   */\n      tag_476\n        /* \"#utility.yul\":15144:15147   */\n      dup4\n        /* \"#utility.yul\":15136:15142   */\n      dup4\n        /* \"#utility.yul\":15102:15148   */\n      tag_281\n      jump\t// in\n    tag_476:\n        /* \"#utility.yul\":15180:15184   */\n      0x20\n        /* \"#utility.yul\":15175:15178   */\n      dup4\n        /* \"#utility.yul\":15171:15185   */\n      add\n        /* \"#utility.yul\":15157:15185   */\n      swap1\n      pop\n        /* \"#utility.yul\":15012:15191   */\n      swap3\n      swap2\n      pop\n      pop\n      jump\t// out\n        /* \"#utility.yul\":15197:15310   */\n    tag_283:\n        /* \"#utility.yul\":15267:15271   */\n      0x00\n        /* \"#utility.yul\":15299:15303   */\n      0x20\n        /* \"#utility.yul\":15294:15297   */\n      dup3\n        /* \"#utility.yul\":15290:15304   */\n      add\n        /* \"#utility.yul\":15282:15304   */\n      swap1\n      pop\n        /* \"#utility.yul\":15197:15310   */\n      swap2\n      swap1\n      pop\n      jump\t// out\n        /* \"#utility.yul\":15346:16078   */\n    tag_284:\n        /* \"#utility.yul\":15465:15468   */\n      0x00\n        /* \"#utility.yul\":15494:15548   */\n      tag_479\n        /* \"#utility.yul\":15542:15547   */\n      dup3\n        /* \"#utility.yul\":15494:15548   */\n      tag_278\n      jump\t// in\n    tag_479:\n        /* \"#utility.yul\":15564:15650   */\n      tag_480\n        /* \"#utility.yul\":15643:15649   */\n      dup2\n        /* \"#utility.yul\":15638:15641   */\n      dup6\n        /* \"#utility.yul\":15564:15650   */\n      tag_279\n      jump\t// in\n    tag_480:\n        /* \"#utility.yul\":15557:15650   */\n      swap4\n      pop\n        /* \"#utility.yul\":15674:15730   */\n      tag_481\n        /* \"#utility.yul\":15724:15729   */\n      dup4\n        /* \"#utility.yul\":15674:15730   */\n      tag_280\n      jump\t// in\n    tag_481:\n        /* \"#utility.yul\":15753:15760   */\n      dup1\n        /* \"#utility.yul\":15784:15785   */\n      0x00\n        /* \"#utility.yul\":15769:16053   */\n    tag_482:\n        /* \"#utility.yul\":15794:15800   */\n      dup4\n        /* \"#utility.yul\":15791:15792   */\n      dup2\n        /* \"#utility.yul\":15788:15801   */\n      lt\n        /* \"#utility.yul\":15769:16053   */\n      iszero\n      tag_484\n      jumpi\n        /* \"#utility.yul\":15870:15876   */\n      dup2\n        /* \"#utility.yul\":15864:15877   */\n      mload\n        /* \"#utility.yul\":15897:15960   */\n      tag_485\n        /* \"#utility.yul\":15956:15959   */\n      dup9\n        /* \"#utility.yul\":15941:15954   */\n      dup3\n        /* \"#utility.yul\":15897:15960   */\n      tag_282\n      jump\t// in\n    tag_485:\n        /* \"#utility.yul\":15890:15960   */\n      swap8\n      pop\n        /* \"#utility.yul\":15983:16043   */\n      tag_486\n        /* \"#utility.yul\":16036:16042   */\n      dup4\n        /* \"#utility.yul\":15983:16043   */\n      tag_283\n      jump\t// in\n    tag_486:\n        /* \"#utility.yul\":15973:16043   */\n      swap3\n      pop\n        /* \"#utility.yul\":15829:16053   */\n      pop\n        /* \"#utility.yul\":15816:15817   */\n      0x01\n        /* \"#utility.yul\":15813:15814   */\n      dup2\n        /* \"#utility.yul\":15809:15818   */\n      add\n        /* \"#utility.yul\":15804:15818   */\n      swap1\n      pop\n        /* \"#utility.yul\":15769:16053   */\n      jump(tag_482)\n    tag_484:\n        /* \"#utility.yul\":15773:15787   */\n      pop\n        /* \"#utility.yul\":16069:16072   */\n      dup6\n        /* \"#utility.yul\":16062:16072   */\n      swap4\n      pop\n        /* \"#utility.yul\":15470:16078   */\n      pop\n      pop\n      pop\n        /* \"#utility.yul\":15346:16078   */\n      swap3\n      swap2\n      pop\n      pop\n      jump\t// out\n        /* \"#utility.yul\":16084:16198   */\n    tag_285:\n        /* \"#utility.yul\":16151:16157   */\n      0x00\n        /* \"#utility.yul\":16185:16190   */\n      dup2\n        /* \"#utility.yul\":16179:16191   */\n      mload\n        /* \"#utility.yul\":16169:16191   */\n      swap1\n      pop\n        /* \"#utility.yul\":16084:16198   */\n      swap2\n      swap1\n      pop\n      jump\t// out\n        /* \"#utility.yul\":16204:16388   */\n    tag_286:\n        /* \"#utility.yul\":16303:16314   */\n      0x00\n        /* \"#utility.yul\":16337:16343   */\n      dup3\n        /* \"#utility.yul\":16332:16335   */\n      dup3\n        /* \"#utility.yul\":16325:16344   */\n      mstore\n        /* \"#utility.yul\":16377:16381   */\n      0x20\n        /* \"#utility.yul\":16372:16375   */\n      dup3\n        /* \"#utility.yul\":16368:16382   */\n      add\n        /* \"#utility.yul\":16353:16382   */\n      swap1\n      pop\n        /* \"#utility.yul\":16204:16388   */\n      swap3\n      swap2\n      pop\n      pop\n      jump\t// out\n        /* \"#utility.yul\":16394:16526   */\n    tag_287:\n        /* \"#utility.yul\":16461:16465   */\n      0x00\n        /* \"#utility.yul\":16484:16487   */\n      dup2\n        /* \"#utility.yul\":16476:16487   */\n      swap1\n      pop\n        /* \"#utility.yul\":16514:16518   */\n      0x20\n        /* \"#utility.yul\":16509:16512   */\n      dup3\n        /* \"#utility.yul\":16505:16519   */\n      add\n        /* \"#utility.yul\":16497:16519   */\n      swap1\n      pop\n        /* \"#utility.yul\":16394:16526   */\n      swap2\n      swap1\n      pop\n      jump\t// out\n        /* \"#utility.yul\":16532:16640   */\n    tag_288:\n        /* \"#utility.yul\":16609:16633   */\n      tag_491\n        /* \"#utility.yul\":16627:16632   */\n      dup2\n        /* \"#utility.yul\":16609:16633   */\n      tag_253\n      jump\t// in\n    tag_491:\n        /* \"#utility.yul\":16604:16607   */\n      dup3\n        /* \"#utility.yul\":16597:16634   */\n      mstore\n        /* \"#utility.yul\":16532:16640   */\n      pop\n      pop\n      jump\t// out\n        /* \"#utility.yul\":16646:16825   */\n    tag_289:\n        /* \"#utility.yul\":16715:16725   */\n      0x00\n        /* \"#utility.yul\":16736:16782   */\n      tag_493\n        /* \"#utility.yul\":16778:16781   */\n      dup4\n        /* \"#utility.yul\":16770:16776   */\n      dup4\n        /* \"#utility.yul\":16736:16782   */\n      tag_288\n      jump\t// in\n    tag_493:\n        /* \"#utility.yul\":16814:16818   */\n      0x20\n        /* \"#utility.yul\":16809:16812   */\n      dup4\n        /* \"#utility.yul\":16805:16819   */\n      add\n        /* \"#utility.yul\":16791:16819   */\n      swap1\n      pop\n        /* \"#utility.yul\":16646:16825   */\n      swap3\n      swap2\n      pop\n      pop\n      jump\t// out\n        /* \"#utility.yul\":16831:16944   */\n    tag_290:\n        /* \"#utility.yul\":16901:16905   */\n      0x00\n        /* \"#utility.yul\":16933:16937   */\n      0x20\n        /* \"#utility.yul\":16928:16931   */\n      dup3\n        /* \"#utility.yul\":16924:16938   */\n      add\n        /* \"#utility.yul\":16916:16938   */\n      swap1\n      pop\n        /* \"#utility.yul\":16831:16944   */\n      swap2\n      swap1\n      pop\n      jump\t// out\n        /* \"#utility.yul\":16980:17712   */\n    tag_291:\n        /* \"#utility.yul\":17099:17102   */\n      0x00\n        /* \"#utility.yul\":17128:17182   */\n      tag_496\n        /* \"#utility.yul\":17176:17181   */\n      dup3\n        /* \"#utility.yul\":17128:17182   */\n      tag_285\n      jump\t// in\n    tag_496:\n        /* \"#utility.yul\":17198:17284   */\n      tag_497\n        /* \"#utility.yul\":17277:17283   */\n      dup2\n        /* \"#utility.yul\":17272:17275   */\n      dup6\n        /* \"#utility.yul\":17198:17284   */\n      tag_286\n      jump\t// in\n    tag_497:\n        /* \"#utility.yul\":17191:17284   */\n      swap4\n      pop\n        /* \"#utility.yul\":17308:17364   */\n      tag_498\n        /* \"#utility.yul\":17358:17363   */\n      dup4\n        /* \"#utility.yul\":17308:17364   */\n      tag_287\n      jump\t// in\n    tag_498:\n        /* \"#utility.yul\":17387:17394   */\n      dup1\n        /* \"#utility.yul\":17418:17419   */\n      0x00\n        /* \"#utility.yul\":17403:17687   */\n    tag_499:\n        /* \"#utility.yul\":17428:17434   */\n      dup4\n        /* \"#utility.yul\":17425:17426   */\n      dup2\n        /* \"#utility.yul\":17422:17435   */\n      lt\n        /* \"#utility.yul\":17403:17687   */\n      iszero\n      tag_501\n      jumpi\n        /* \"#utility.yul\":17504:17510   */\n      dup2\n        /* \"#utility.yul\":17498:17511   */\n      mload\n        /* \"#utility.yul\":17531:17594   */\n      tag_502\n        /* \"#utility.yul\":17590:17593   */\n      dup9\n        /* \"#utility.yul\":17575:17588   */\n      dup3\n        /* \"#utility.yul\":17531:17594   */\n      tag_289\n      jump\t// in\n    tag_502:\n        /* \"#utility.yul\":17524:17594   */\n      swap8\n      pop\n        /* \"#utility.yul\":17617:17677   */\n      tag_503\n        /* \"#utility.yul\":17670:17676   */\n      dup4\n        /* \"#utility.yul\":17617:17677   */\n      tag_290\n      jump\t// in\n    tag_503:\n        /* \"#utility.yul\":17607:17677   */\n      swap3\n      pop\n        /* \"#utility.yul\":17463:17687   */\n      pop\n        /* \"#utility.yul\":17450:17451   */\n      0x01\n        /* \"#utility.yul\":17447:17448   */\n      dup2\n        /* \"#utility.yul\":17443:17452   */\n      add\n        /* \"#utility.yul\":17438:17452   */\n      swap1\n      pop\n        /* \"#utility.yul\":17403:17687   */\n      jump(tag_499)\n    tag_501:\n        /* \"#utility.yul\":17407:17421   */\n      pop\n        /* \"#utility.yul\":17703:17706   */\n      dup6\n        /* \"#utility.yul\":17696:17706   */\n      swap4\n      pop\n        /* \"#utility.yul\":17104:17712   */\n      pop\n      pop\n      pop\n        /* \"#utility.yul\":16980:17712   */\n      swap3\n      swap2\n      pop\n      pop\n      jump\t// out\n        /* \"#utility.yul\":17718:18352   */\n    tag_160:\n        /* \"#utility.yul\":17939:17943   */\n      0x00\n        /* \"#utility.yul\":17977:17979   */\n      0x40\n        /* \"#utility.yul\":17966:17975   */\n      dup3\n        /* \"#utility.yul\":17962:17980   */\n      add\n        /* \"#utility.yul\":17954:17980   */\n      swap1\n      pop\n        /* \"#utility.yul\":18026:18035   */\n      dup2\n        /* \"#utility.yul\":18020:18024   */\n      dup2\n        /* \"#utility.yul\":18016:18036   */\n      sub\n        /* \"#utility.yul\":18012:18013   */\n      0x00\n        /* \"#utility.yul\":18001:18010   */\n      dup4\n        /* \"#utility.yul\":17997:18014   */\n      add\n        /* \"#utility.yul\":17990:18037   */\n      mstore\n        /* \"#utility.yul\":18054:18162   */\n      tag_505\n        /* \"#utility.yul\":18157:18161   */\n      dup2\n        /* \"#utility.yul\":18148:18154   */\n      dup6\n        /* \"#utility.yul\":18054:18162   */\n      tag_284\n      jump\t// in\n    tag_505:\n        /* \"#utility.yul\":18046:18162   */\n      swap1\n      pop\n        /* \"#utility.yul\":18209:18218   */\n      dup2\n        /* \"#utility.yul\":18203:18207   */\n      dup2\n        /* \"#utility.yul\":18199:18219   */\n      sub\n        /* \"#utility.yul\":18194:18196   */\n      0x20\n        /* \"#utility.yul\":18183:18192   */\n      dup4\n        /* \"#utility.yul\":18179:18197   */\n      add\n        /* \"#utility.yul\":18172:18220   */\n      mstore\n        /* \"#utility.yul\":18237:18345   */\n      tag_506\n        /* \"#utility.yul\":18340:18344   */\n      dup2\n        /* \"#utility.yul\":18331:18337   */\n      dup5\n        /* \"#utility.yul\":18237:18345   */\n      tag_291\n      jump\t// in\n    tag_506:\n        /* \"#utility.yul\":18229:18345   */\n      swap1\n      pop\n        /* \"#utility.yul\":17718:18352   */\n      swap4\n      swap3\n      pop\n      pop\n      pop\n      jump\t// out\n        /* \"#utility.yul\":18358:18506   */\n    tag_292:\n        /* \"#utility.yul\":18460:18471   */\n      0x00\n        /* \"#utility.yul\":18497:18500   */\n      dup2\n        /* \"#utility.yul\":18482:18500   */\n      swap1\n      pop\n        /* \"#utility.yul\":18358:18506   */\n      swap3\n      swap2\n      pop\n      pop\n      jump\t// out\n        /* \"#utility.yul\":18512:18902   */\n    tag_293:\n        /* \"#utility.yul\":18618:18621   */\n      0x00\n        /* \"#utility.yul\":18646:18685   */\n      tag_509\n        /* \"#utility.yul\":18679:18684   */\n      dup3\n        /* \"#utility.yul\":18646:18685   */\n      tag_265\n      jump\t// in\n    tag_509:\n        /* \"#utility.yul\":18701:18790   */\n      tag_510\n        /* \"#utility.yul\":18783:18789   */\n      dup2\n        /* \"#utility.yul\":18778:18781   */\n      dup6\n        /* \"#utility.yul\":18701:18790   */\n      tag_292\n      jump\t// in\n    tag_510:\n        /* \"#utility.yul\":18694:18790   */\n      swap4\n      pop\n        /* \"#utility.yul\":18799:18864   */\n      tag_511\n        /* \"#utility.yul\":18857:18863   */\n      dup2\n        /* \"#utility.yul\":18852:18855   */\n      dup6\n        /* \"#utility.yul\":18845:18849   */\n      0x20\n        /* \"#utility.yul\":18838:18843   */\n      dup7\n        /* \"#utility.yul\":18834:18850   */\n      add\n        /* \"#utility.yul\":18799:18864   */\n      tag_267\n      jump\t// in\n    tag_511:\n        /* \"#utility.yul\":18889:18895   */\n      dup1\n        /* \"#utility.yul\":18884:18887   */\n      dup5\n        /* \"#utility.yul\":18880:18896   */\n      add\n        /* \"#utility.yul\":18873:18896   */\n      swap2\n      pop\n        /* \"#utility.yul\":18622:18902   */\n      pop\n        /* \"#utility.yul\":18512:18902   */\n      swap3\n      swap2\n      pop\n      pop\n      jump\t// out\n        /* \"#utility.yul\":18908:19183   */\n    tag_163:\n        /* \"#utility.yul\":19040:19043   */\n      0x00\n        /* \"#utility.yul\":19062:19157   */\n      tag_513\n        /* \"#utility.yul\":19153:19156   */\n      dup3\n        /* \"#utility.yul\":19144:19150   */\n      dup5\n        /* \"#utility.yul\":19062:19157   */\n      tag_293\n      jump\t// in\n    tag_513:\n        /* \"#utility.yul\":19055:19157   */\n      swap2\n      pop\n        /* \"#utility.yul\":19174:19177   */\n      dup2\n        /* \"#utility.yul\":19167:19177   */\n      swap1\n      pop\n        /* \"#utility.yul\":18908:19183   */\n      swap3\n      swap2\n      pop\n      pop\n      jump\t// out\n        /* \"#utility.yul\":19189:19353   */\n    tag_294:\n        /* \"#utility.yul\":19329:19345   */\n      0x4e616d65206e6f7420666f756e64000000000000000000000000000000000000\n        /* \"#utility.yul\":19325:19326   */\n      0x00\n        /* \"#utility.yul\":19317:19323   */\n      dup3\n        /* \"#utility.yul\":19313:19327   */\n      add\n        /* \"#utility.yul\":19306:19346   */\n      mstore\n        /* \"#utility.yul\":19189:19353   */\n      pop\n      jump\t// out\n        /* \"#utility.yul\":19359:19725   */\n    tag_295:\n        /* \"#utility.yul\":19501:19504   */\n      0x00\n        /* \"#utility.yul\":19522:19589   */\n      tag_516\n        /* \"#utility.yul\":19586:19588   */\n      0x0e\n        /* \"#utility.yul\":19581:19584   */\n      dup4\n        /* \"#utility.yul\":19522:19589   */\n      tag_266\n      jump\t// in\n    tag_516:\n        /* \"#utility.yul\":19515:19589   */\n      swap2\n      pop\n        /* \"#utility.yul\":19598:19691   */\n      tag_517\n        /* \"#utility.yul\":19687:19690   */\n      dup3\n        /* \"#utility.yul\":19598:19691   */\n      tag_294\n      jump\t// in\n    tag_517:\n        /* \"#utility.yul\":19716:19718   */\n      0x20\n        /* \"#utility.yul\":19711:19714   */\n      dup3\n        /* \"#utility.yul\":19707:19719   */\n      add\n        /* \"#utility.yul\":19700:19719   */\n      swap1\n      pop\n        /* \"#utility.yul\":19359:19725   */\n      swap2\n      swap1\n      pop\n      jump\t// out\n        /* \"#utility.yul\":19731:20150   */\n    tag_166:\n        /* \"#utility.yul\":19897:19901   */\n      0x00\n        /* \"#utility.yul\":19935:19937   */\n      0x20\n        /* \"#utility.yul\":19924:19933   */\n      dup3\n        /* \"#utility.yul\":19920:19938   */\n      add\n        /* \"#utility.yul\":19912:19938   */\n      swap1\n      pop\n        /* \"#utility.yul\":19984:19993   */\n      dup2\n        /* \"#utility.yul\":19978:19982   */\n      dup2\n        /* \"#utility.yul\":19974:19994   */\n      sub\n        /* \"#utility.yul\":19970:19971   */\n      0x00\n        /* \"#utility.yul\":19959:19968   */\n      dup4\n        /* \"#utility.yul\":19955:19972   */\n      add\n        /* \"#utility.yul\":19948:19995   */\n      mstore\n        /* \"#utility.yul\":20012:20143   */\n      tag_519\n        /* \"#utility.yul\":20138:20142   */\n      dup2\n        /* \"#utility.yul\":20012:20143   */\n      tag_295\n      jump\t// in\n    tag_519:\n        /* \"#utility.yul\":20004:20143   */\n      swap1\n      pop\n        /* \"#utility.yul\":19731:20150   */\n      swap2\n      swap1\n      pop\n      jump\t// out\n        /* \"#utility.yul\":20156:20336   */\n    tag_296:\n        /* \"#utility.yul\":20204:20281   */\n      0x4e487b7100000000000000000000000000000000000000000000000000000000\n        /* \"#utility.yul\":20201:20202   */\n      0x00\n        /* \"#utility.yul\":20194:20282   */\n      mstore\n        /* \"#utility.yul\":20301:20305   */\n      0x22\n        /* \"#utility.yul\":20298:20299   */\n      0x04\n        /* \"#utility.yul\":20291:20306   */\n      mstore\n        /* \"#utility.yul\":20325:20329   */\n      0x24\n        /* \"#utility.yul\":20322:20323   */\n      0x00\n        /* \"#utility.yul\":20315:20330   */\n      revert\n        /* \"#utility.yul\":20342:20662   */\n    tag_192:\n        /* \"#utility.yul\":20386:20392   */\n      0x00\n        /* \"#utility.yul\":20423:20424   */\n      0x02\n        /* \"#utility.yul\":20417:20421   */\n      dup3\n        /* \"#utility.yul\":20413:20425   */\n      div\n        /* \"#utility.yul\":20403:20425   */\n      swap1\n      pop\n        /* \"#utility.yul\":20470:20471   */\n      0x01\n        /* \"#utility.yul\":20464:20468   */\n      dup3\n        /* \"#utility.yul\":20460:20472   */\n      and\n        /* \"#utility.yul\":20491:20509   */\n      dup1\n        /* \"#utility.yul\":20481:20562   */\n      tag_522\n      jumpi\n        /* \"#utility.yul\":20547:20551   */\n      0x7f\n        /* \"#utility.yul\":20539:20545   */\n      dup3\n        /* \"#utility.yul\":20535:20552   */\n      and\n        /* \"#utility.yul\":20525:20552   */\n      swap2\n      pop\n        /* \"#utility.yul\":20481:20562   */\n    tag_522:\n        /* \"#utility.yul\":20609:20611   */\n      0x20\n        /* \"#utility.yul\":20601:20607   */\n      dup3\n        /* \"#utility.yul\":20598:20612   */\n      lt\n        /* \"#utility.yul\":20578:20596   */\n      dup2\n        /* \"#utility.yul\":20575:20613   */\n      sub\n        /* \"#utility.yul\":20572:20656   */\n      tag_523\n      jumpi\n        /* \"#utility.yul\":20628:20646   */\n      tag_524\n      tag_296\n      jump\t// in\n    tag_524:\n        /* \"#utility.yul\":20572:20656   */\n    tag_523:\n        /* \"#utility.yul\":20393:20662   */\n      pop\n        /* \"#utility.yul\":20342:20662   */\n      swap2\n      swap1\n      pop\n      jump\t// out\n        /* \"#utility.yul\":20668:20815   */\n    tag_297:\n        /* \"#utility.yul\":20769:20780   */\n      0x00\n        /* \"#utility.yul\":20806:20809   */\n      dup2\n        /* \"#utility.yul\":20791:20809   */\n      swap1\n      pop\n        /* \"#utility.yul\":20668:20815   */\n      swap3\n      swap2\n      pop\n      pop\n      jump\t// out\n        /* \"#utility.yul\":20821:20965   */\n    tag_298:\n        /* \"#utility.yul\":20873:20877   */\n      0x00\n        /* \"#utility.yul\":20896:20899   */\n      dup2\n        /* \"#utility.yul\":20888:20899   */\n      swap1\n      pop\n        /* \"#utility.yul\":20919:20922   */\n      dup2\n        /* \"#utility.yul\":20916:20917   */\n      0x00\n        /* \"#utility.yul\":20909:20923   */\n      mstore\n        /* \"#utility.yul\":20953:20957   */\n      0x20\n        /* \"#utility.yul\":20950:20951   */\n      0x00\n        /* \"#utility.yul\":20940:20958   */\n      keccak256\n        /* \"#utility.yul\":20932:20958   */\n      swap1\n      pop\n        /* \"#utility.yul\":20821:20965   */\n      swap2\n      swap1\n      pop\n      jump\t// out\n        /* \"#utility.yul\":20993:21871   */\n    tag_299:\n        /* \"#utility.yul\":21098:21101   */\n      0x00\n        /* \"#utility.yul\":21135:21140   */\n      dup2\n        /* \"#utility.yul\":21129:21141   */\n      sload\n        /* \"#utility.yul\":21164:21200   */\n      tag_528\n        /* \"#utility.yul\":21190:21199   */\n      dup2\n        /* \"#utility.yul\":21164:21200   */\n      tag_192\n      jump\t// in\n    tag_528:\n        /* \"#utility.yul\":21216:21304   */\n      tag_529\n        /* \"#utility.yul\":21297:21303   */\n      dup2\n        /* \"#utility.yul\":21292:21295   */\n      dup7\n        /* \"#utility.yul\":21216:21304   */\n      tag_297\n      jump\t// in\n    tag_529:\n        /* \"#utility.yul\":21209:21304   */\n      swap5\n      pop\n        /* \"#utility.yul\":21335:21336   */\n      0x01\n        /* \"#utility.yul\":21324:21333   */\n      dup3\n        /* \"#utility.yul\":21320:21337   */\n      and\n        /* \"#utility.yul\":21351:21352   */\n      0x00\n        /* \"#utility.yul\":21346:21512   */\n      dup2\n      eq\n      tag_531\n      jumpi\n        /* \"#utility.yul\":21526:21527   */\n      0x01\n        /* \"#utility.yul\":21521:21865   */\n      dup2\n      eq\n      tag_532\n      jumpi\n        /* \"#utility.yul\":21313:21865   */\n      jump(tag_530)\n        /* \"#utility.yul\":21346:21512   */\n    tag_531:\n        /* \"#utility.yul\":21430:21434   */\n      0xff\n        /* \"#utility.yul\":21426:21435   */\n      not\n        /* \"#utility.yul\":21415:21424   */\n      dup4\n        /* \"#utility.yul\":21411:21436   */\n      and\n        /* \"#utility.yul\":21406:21409   */\n      dup7\n        /* \"#utility.yul\":21399:21437   */\n      mstore\n        /* \"#utility.yul\":21492:21498   */\n      dup2\n        /* \"#utility.yul\":21485:21499   */\n      iszero\n        /* \"#utility.yul\":21478:21500   */\n      iszero\n        /* \"#utility.yul\":21470:21476   */\n      dup3\n        /* \"#utility.yul\":21466:21501   */\n      mul\n        /* \"#utility.yul\":21461:21464   */\n      dup7\n        /* \"#utility.yul\":21457:21502   */\n      add\n        /* \"#utility.yul\":21450:21502   */\n      swap4\n      pop\n        /* \"#utility.yul\":21346:21512   */\n      jump(tag_530)\n        /* \"#utility.yul\":21521:21865   */\n    tag_532:\n        /* \"#utility.yul\":21588:21629   */\n      tag_533\n        /* \"#utility.yul\":21623:21628   */\n      dup6\n        /* \"#utility.yul\":21588:21629   */\n      tag_298\n      jump\t// in\n    tag_533:\n        /* \"#utility.yul\":21651:21652   */\n      0x00\n        /* \"#utility.yul\":21665:21819   */\n    tag_534:\n        /* \"#utility.yul\":21679:21685   */\n      dup4\n        /* \"#utility.yul\":21676:21677   */\n      dup2\n        /* \"#utility.yul\":21673:21686   */\n      lt\n        /* \"#utility.yul\":21665:21819   */\n      iszero\n      tag_536\n      jumpi\n        /* \"#utility.yul\":21753:21760   */\n      dup2\n        /* \"#utility.yul\":21747:21761   */\n      sload\n        /* \"#utility.yul\":21743:21744   */\n      dup2\n        /* \"#utility.yul\":21738:21741   */\n      dup10\n        /* \"#utility.yul\":21734:21745   */\n      add\n        /* \"#utility.yul\":21727:21762   */\n      mstore\n        /* \"#utility.yul\":21803:21804   */\n      0x01\n        /* \"#utility.yul\":21794:21801   */\n      dup3\n        /* \"#utility.yul\":21790:21805   */\n      add\n        /* \"#utility.yul\":21779:21805   */\n      swap2\n      pop\n        /* \"#utility.yul\":21701:21705   */\n      0x20\n        /* \"#utility.yul\":21698:21699   */\n      dup2\n        /* \"#utility.yul\":21694:21706   */\n      add\n        /* \"#utility.yul\":21689:21706   */\n      swap1\n      pop\n        /* \"#utility.yul\":21665:21819   */\n      jump(tag_534)\n    tag_536:\n        /* \"#utility.yul\":21848:21854   */\n      dup4\n        /* \"#utility.yul\":21843:21846   */\n      dup9\n        /* \"#utility.yul\":21839:21855   */\n      add\n        /* \"#utility.yul\":21832:21855   */\n      swap6\n      pop\n        /* \"#utility.yul\":21528:21865   */\n      pop\n      pop\n        /* \"#utility.yul\":21313:21865   */\n    tag_530:\n      pop\n        /* \"#utility.yul\":21102:21871   */\n      pop\n      pop\n        /* \"#utility.yul\":20993:21871   */\n      swap3\n      swap2\n      pop\n      pop\n      jump\t// out\n        /* \"#utility.yul\":21877:22150   */\n    tag_174:\n        /* \"#utility.yul\":22008:22011   */\n      0x00\n        /* \"#utility.yul\":22030:22124   */\n      tag_538\n        /* \"#utility.yul\":22120:22123   */\n      dup3\n        /* \"#utility.yul\":22111:22117   */\n      dup5\n        /* \"#utility.yul\":22030:22124   */\n      tag_299\n      jump\t// in\n    tag_538:\n        /* \"#utility.yul\":22023:22124   */\n      swap2\n      pop\n        /* \"#utility.yul\":22141:22144   */\n      dup2\n        /* \"#utility.yul\":22134:22144   */\n      swap1\n      pop\n        /* \"#utility.yul\":21877:22150   */\n      swap3\n      swap2\n      pop\n      pop\n      jump\t// out\n        /* \"#utility.yul\":22156:22388   */\n    tag_300:\n        /* \"#utility.yul\":22296:22330   */\n      0x5265636f7264206e6f7420666f756e6420666f72207468652070726f76696465\n        /* \"#utility.yul\":22292:22293   */\n      0x00\n        /* \"#utility.yul\":22284:22290   */\n      dup3\n        /* \"#utility.yul\":22280:22294   */\n      add\n        /* \"#utility.yul\":22273:22331   */\n      mstore\n        /* \"#utility.yul\":22365:22380   */\n      0x6420736561726368206e616d6500000000000000000000000000000000000000\n        /* \"#utility.yul\":22360:22362   */\n      0x20\n        /* \"#utility.yul\":22352:22358   */\n      dup3\n        /* \"#utility.yul\":22348:22363   */\n      add\n        /* \"#utility.yul\":22341:22381   */\n      mstore\n        /* \"#utility.yul\":22156:22388   */\n      pop\n      jump\t// out\n        /* \"#utility.yul\":22394:22760   */\n    tag_301:\n        /* \"#utility.yul\":22536:22539   */\n      0x00\n        /* \"#utility.yul\":22557:22624   */\n      tag_541\n        /* \"#utility.yul\":22621:22623   */\n      0x2d\n        /* \"#utility.yul\":22616:22619   */\n      dup4\n        /* \"#utility.yul\":22557:22624   */\n      tag_266\n      jump\t// in\n    tag_541:\n        /* \"#utility.yul\":22550:22624   */\n      swap2\n      pop\n        /* \"#utility.yul\":22633:22726   */\n      tag_542\n        /* \"#utility.yul\":22722:22725   */\n      dup3\n        /* \"#utility.yul\":22633:22726   */\n      tag_300\n      jump\t// in\n    tag_542:\n        /* \"#utility.yul\":22751:22753   */\n      0x40\n        /* \"#utility.yul\":22746:22749   */\n      dup3\n        /* \"#utility.yul\":22742:22754   */\n      add\n        /* \"#utility.yul\":22735:22754   */\n      swap1\n      pop\n        /* \"#utility.yul\":22394:22760   */\n      swap2\n      swap1\n      pop\n      jump\t// out\n        /* \"#utility.yul\":22766:23185   */\n    tag_183:\n        /* \"#utility.yul\":22932:22936   */\n      0x00\n        /* \"#utility.yul\":22970:22972   */\n      0x20\n        /* \"#utility.yul\":22959:22968   */\n      dup3\n        /* \"#utility.yul\":22955:22973   */\n      add\n        /* \"#utility.yul\":22947:22973   */\n      swap1\n      pop\n        /* \"#utility.yul\":23019:23028   */\n      dup2\n        /* \"#utility.yul\":23013:23017   */\n      dup2\n        /* \"#utility.yul\":23009:23029   */\n      sub\n        /* \"#utility.yul\":23005:23006   */\n      0x00\n        /* \"#utility.yul\":22994:23003   */\n      dup4\n        /* \"#utility.yul\":22990:23007   */\n      add\n        /* \"#utility.yul\":22983:23030   */\n      mstore\n        /* \"#utility.yul\":23047:23178   */\n      tag_544\n        /* \"#utility.yul\":23173:23177   */\n      dup2\n        /* \"#utility.yul\":23047:23178   */\n      tag_301\n      jump\t// in\n    tag_544:\n        /* \"#utility.yul\":23039:23178   */\n      swap1\n      pop\n        /* \"#utility.yul\":22766:23185   */\n      swap2\n      swap1\n      pop\n      jump\t// out\n        /* \"#utility.yul\":23191:23359   */\n    tag_302:\n        /* \"#utility.yul\":23331:23351   */\n      0x496e646578206f7574206f662072616e67650000000000000000000000000000\n        /* \"#utility.yul\":23327:23328   */\n      0x00\n        /* \"#utility.yul\":23319:23325   */\n      dup3\n        /* \"#utility.yul\":23315:23329   */\n      add\n        /* \"#utility.yul\":23308:23352   */\n      mstore\n        /* \"#utility.yul\":23191:23359   */\n      pop\n      jump\t// out\n        /* \"#utility.yul\":23365:23731   */\n    tag_303:\n        /* \"#utility.yul\":23507:23510   */\n      0x00\n        /* \"#utility.yul\":23528:23595   */\n      tag_547\n        /* \"#utility.yul\":23592:23594   */\n      0x12\n        /* \"#utility.yul\":23587:23590   */\n      dup4\n        /* \"#utility.yul\":23528:23595   */\n      tag_266\n      jump\t// in\n    tag_547:\n        /* \"#utility.yul\":23521:23595   */\n      swap2\n      pop\n        /* \"#utility.yul\":23604:23697   */\n      tag_548\n        /* \"#utility.yul\":23693:23696   */\n      dup3\n        /* \"#utility.yul\":23604:23697   */\n      tag_302\n      jump\t// in\n    tag_548:\n        /* \"#utility.yul\":23722:23724   */\n      0x20\n        /* \"#utility.yul\":23717:23720   */\n      dup3\n        /* \"#utility.yul\":23713:23725   */\n      add\n        /* \"#utility.yul\":23706:23725   */\n      swap1\n      pop\n        /* \"#utility.yul\":23365:23731   */\n      swap2\n      swap1\n      pop\n      jump\t// out\n        /* \"#utility.yul\":23737:24156   */\n    tag_187:\n        /* \"#utility.yul\":23903:23907   */\n      0x00\n        /* \"#utility.yul\":23941:23943   */\n      0x20\n        /* \"#utility.yul\":23930:23939   */\n      dup3\n        /* \"#utility.yul\":23926:23944   */\n      add\n        /* \"#utility.yul\":23918:23944   */\n      swap1\n      pop\n        /* \"#utility.yul\":23990:23999   */\n      dup2\n        /* \"#utility.yul\":23984:23988   */\n      dup2\n        /* \"#utility.yul\":23980:24000   */\n      sub\n        /* \"#utility.yul\":23976:23977   */\n      0x00\n        /* \"#utility.yul\":23965:23974   */\n      dup4\n        /* \"#utility.yul\":23961:23978   */\n      add\n        /* \"#utility.yul\":23954:24001   */\n      mstore\n        /* \"#utility.yul\":24018:24149   */\n      tag_550\n        /* \"#utility.yul\":24144:24148   */\n      dup2\n        /* \"#utility.yul\":24018:24149   */\n      tag_303\n      jump\t// in\n    tag_550:\n        /* \"#utility.yul\":24010:24149   */\n      swap1\n      pop\n        /* \"#utility.yul\":23737:24156   */\n      swap2\n      swap1\n      pop\n      jump\t// out\n        /* \"#utility.yul\":24162:24343   */\n    tag_304:\n        /* \"#utility.yul\":24302:24335   */\n      0x5061727469636970616e7420697320616c726561647920656e726f6c6c656400\n        /* \"#utility.yul\":24298:24299   */\n      0x00\n        /* \"#utility.yul\":24290:24296   */\n      dup3\n        /* \"#utility.yul\":24286:24300   */\n      add\n        /* \"#utility.yul\":24279:24336   */\n      mstore\n        /* \"#utility.yul\":24162:24343   */\n      pop\n      jump\t// out\n        /* \"#utility.yul\":24349:24715   */\n    tag_305:\n        /* \"#utility.yul\":24491:24494   */\n      0x00\n        /* \"#utility.yul\":24512:24579   */\n      tag_553\n        /* \"#utility.yul\":24576:24578   */\n      0x1f\n        /* \"#utility.yul\":24571:24574   */\n      dup4\n        /* \"#utility.yul\":24512:24579   */\n      tag_266\n      jump\t// in\n    tag_553:\n        /* \"#utility.yul\":24505:24579   */\n      swap2\n      pop\n        /* \"#utility.yul\":24588:24681   */\n      tag_554\n        /* \"#utility.yul\":24677:24680   */\n      dup3\n        /* \"#utility.yul\":24588:24681   */\n      tag_304\n      jump\t// in\n    tag_554:\n        /* \"#utility.yul\":24706:24708   */\n      0x20\n        /* \"#utility.yul\":24701:24704   */\n      dup3\n        /* \"#utility.yul\":24697:24709   */\n      add\n        /* \"#utility.yul\":24690:24709   */\n      swap1\n      pop\n        /* \"#utility.yul\":24349:24715   */\n      swap2\n      swap1\n      pop\n      jump\t// out\n        /* \"#utility.yul\":24721:25140   */\n    tag_209:\n        /* \"#utility.yul\":24887:24891   */\n      0x00\n        /* \"#utility.yul\":24925:24927   */\n      0x20\n        /* \"#utility.yul\":24914:24923   */\n      dup3\n        /* \"#utility.yul\":24910:24928   */\n      add\n        /* \"#utility.yul\":24902:24928   */\n      swap1\n      pop\n        /* \"#utility.yul\":24974:24983   */\n      dup2\n        /* \"#utility.yul\":24968:24972   */\n      dup2\n        /* \"#utility.yul\":24964:24984   */\n      sub\n        /* \"#utility.yul\":24960:24961   */\n      0x00\n        /* \"#utility.yul\":24949:24958   */\n      dup4\n        /* \"#utility.yul\":24945:24962   */\n      add\n        /* \"#utility.yul\":24938:24985   */\n      mstore\n        /* \"#utility.yul\":25002:25133   */\n      tag_556\n        /* \"#utility.yul\":25128:25132   */\n      dup2\n        /* \"#utility.yul\":25002:25133   */\n      tag_305\n      jump\t// in\n    tag_556:\n        /* \"#utility.yul\":24994:25133   */\n      swap1\n      pop\n        /* \"#utility.yul\":24721:25140   */\n      swap2\n      swap1\n      pop\n      jump\t// out\n        /* \"#utility.yul\":25146:25287   */\n    tag_306:\n        /* \"#utility.yul\":25195:25199   */\n      0x00\n        /* \"#utility.yul\":25218:25221   */\n      dup2\n        /* \"#utility.yul\":25210:25221   */\n      swap1\n      pop\n        /* \"#utility.yul\":25241:25244   */\n      dup2\n        /* \"#utility.yul\":25238:25239   */\n      0x00\n        /* \"#utility.yul\":25231:25245   */\n      mstore\n        /* \"#utility.yul\":25275:25279   */\n      0x20\n        /* \"#utility.yul\":25272:25273   */\n      0x00\n        /* \"#utility.yul\":25262:25280   */\n      keccak256\n        /* \"#utility.yul\":25254:25280   */\n      swap1\n      pop\n        /* \"#utility.yul\":25146:25287   */\n      swap2\n      swap1\n      pop\n      jump\t// out\n        /* \"#utility.yul\":25293:25386   */\n    tag_307:\n        /* \"#utility.yul\":25330:25336   */\n      0x00\n        /* \"#utility.yul\":25377:25379   */\n      0x20\n        /* \"#utility.yul\":25372:25374   */\n      0x1f\n        /* \"#utility.yul\":25365:25370   */\n      dup4\n        /* \"#utility.yul\":25361:25375   */\n      add\n        /* \"#utility.yul\":25357:25380   */\n      div\n        /* \"#utility.yul\":25347:25380   */\n      swap1\n      pop\n        /* \"#utility.yul\":25293:25386   */\n      swap2\n      swap1\n      pop\n      jump\t// out\n        /* \"#utility.yul\":25392:25499   */\n    tag_308:\n        /* \"#utility.yul\":25436:25444   */\n      0x00\n        /* \"#utility.yul\":25486:25491   */\n      dup3\n        /* \"#utility.yul\":25480:25484   */\n      dup3\n        /* \"#utility.yul\":25476:25492   */\n      shl\n        /* \"#utility.yul\":25455:25492   */\n      swap1\n      pop\n        /* \"#utility.yul\":25392:25499   */\n      swap3\n      swap2\n      pop\n      pop\n      jump\t// out\n        /* \"#utility.yul\":25505:25898   */\n    tag_309:\n        /* \"#utility.yul\":25574:25580   */\n      0x00\n        /* \"#utility.yul\":25624:25625   */\n      0x08\n        /* \"#utility.yul\":25612:25622   */\n      dup4\n        /* \"#utility.yul\":25608:25626   */\n      mul\n        /* \"#utility.yul\":25647:25744   */\n      tag_561\n        /* \"#utility.yul\":25677:25743   */\n      0xffffffffffffffffffffffffffffffffffffffffffffffffffffffffffffffff\n        /* \"#utility.yul\":25666:25675   */\n      dup3\n        /* \"#utility.yul\":25647:25744   */\n      tag_308\n      jump\t// in\n    tag_561:\n        /* \"#utility.yul\":25765:25804   */\n      tag_562\n        /* \"#utility.yul\":25795:25803   */\n      dup7\n        /* \"#utility.yul\":25784:25793   */\n      dup4\n        /* \"#utility.yul\":25765:25804   */\n      tag_308\n      jump\t// in\n    tag_562:\n        /* \"#utility.yul\":25753:25804   */\n      swap6\n      pop\n        /* \"#utility.yul\":25837:25841   */\n      dup1\n        /* \"#utility.yul\":25833:25842   */\n      not\n        /* \"#utility.yul\":25826:25831   */\n      dup5\n        /* \"#utility.yul\":25822:25843   */\n      and\n        /* \"#utility.yul\":25813:25843   */\n      swap4\n      pop\n        /* \"#utility.yul\":25886:25890   */\n      dup1\n        /* \"#utility.yul\":25876:25884   */\n      dup7\n        /* \"#utility.yul\":25872:25891   */\n      and\n        /* \"#utility.yul\":25865:25870   */\n      dup5\n        /* \"#utility.yul\":25862:25892   */\n      or\n        /* \"#utility.yul\":25852:25892   */\n      swap3\n      pop\n        /* \"#utility.yul\":25581:25898   */\n      pop\n      pop\n        /* \"#utility.yul\":25505:25898   */\n      swap4\n      swap3\n      pop\n      pop\n      pop\n      jump\t// out\n        /* \"#utility.yul\":25904:25964   */\n    tag_310:\n        /* \"#utility.yul\":25932:25935   */\n      0x00\n        /* \"#utility.yul\":25953:25958   */\n      dup2\n        /* \"#utility.yul\":25946:25958   */\n      swap1\n      pop\n        /* \"#utility.yul\":25904:25964   */\n      swap2\n      swap1\n      pop\n      jump\t// out\n        /* \"#utility.yul\":25970:26112   */\n    tag_311:\n        /* \"#utility.yul\":26020:26029   */\n      0x00\n        /* \"#utility.yul\":26053:26106   */\n      tag_565\n        /* \"#utility.yul\":26071:26105   */\n      tag_566\n        /* \"#utility.yul\":26080:26104   */\n      tag_567\n        /* \"#utility.yul\":26098:26103   */\n      dup5\n        /* \"#utility.yul\":26080:26104   */\n      tag_253\n      jump\t// in\n    tag_567:\n        /* \"#utility.yul\":26071:26105   */\n      tag_310\n      jump\t// in\n    tag_566:\n        /* \"#utility.yul\":26053:26106   */\n      tag_253\n      jump\t// in\n    tag_565:\n        /* \"#utility.yul\":26040:26106   */\n      swap1\n      pop\n        /* \"#utility.yul\":25970:26112   */\n      swap2\n      swap1\n      pop\n      jump\t// out\n        /* \"#utility.yul\":26118:26193   */\n    tag_312:\n        /* \"#utility.yul\":26161:26164   */\n      0x00\n        /* \"#utility.yul\":26182:26187   */\n      dup2\n        /* \"#utility.yul\":26175:26187   */\n      swap1\n      pop\n        /* \"#utility.yul\":26118:26193   */\n      swap2\n      swap1\n      pop\n      jump\t// out\n        /* \"#utility.yul\":26199:26468   */\n    tag_313:\n        /* \"#utility.yul\":26309:26348   */\n      tag_570\n        /* \"#utility.yul\":26340:26347   */\n      dup4\n        /* \"#utility.yul\":26309:26348   */\n      tag_311\n      jump\t// in\n    tag_570:\n        /* \"#utility.yul\":26370:26461   */\n      tag_571\n        /* \"#utility.yul\":26419:26460   */\n      tag_572\n        /* \"#utility.yul\":26443:26459   */\n      dup3\n        /* \"#utility.yul\":26419:26460   */\n      tag_312\n      jump\t// in\n    tag_572:\n        /* \"#utility.yul\":26411:26417   */\n      dup5\n        /* \"#utility.yul\":26404:26408   */\n      dup5\n        /* \"#utility.yul\":26398:26409   */\n      sload\n        /* \"#utility.yul\":26370:26461   */\n      tag_309\n      jump\t// in\n    tag_571:\n        /* \"#utility.yul\":26364:26368   */\n      dup3\n        /* \"#utility.yul\":26357:26462   */\n      sstore\n        /* \"#utility.yul\":26275:26468   */\n      pop\n        /* \"#utility.yul\":26199:26468   */\n      pop\n      pop\n      pop\n      jump\t// out\n        /* \"#utility.yul\":26474:26547   */\n    tag_314:\n        /* \"#utility.yul\":26519:26522   */\n      0x00\n        /* \"#utility.yul\":26474:26547   */\n      swap1\n      jump\t// out\n        /* \"#utility.yul\":26553:26742   */\n    tag_315:\n        /* \"#utility.yul\":26630:26662   */\n      tag_575\n      tag_314\n      jump\t// in\n    tag_575:\n        /* \"#utility.yul\":26671:26736   */\n      tag_576\n        /* \"#utility.yul\":26729:26735   */\n      dup2\n        /* \"#utility.yul\":26721:26727   */\n      dup5\n        /* \"#utility.yul\":26715:26719   */\n      dup5\n        /* \"#utility.yul\":26671:26736   */\n      tag_313\n      jump\t// in\n    tag_576:\n        /* \"#utility.yul\":26606:26742   */\n      pop\n        /* \"#utility.yul\":26553:26742   */\n      pop\n      pop\n      jump\t// out\n        /* \"#utility.yul\":26748:26934   */\n    tag_316:\n        /* \"#utility.yul\":26808:26928   */\n    tag_578:\n        /* \"#utility.yul\":26825:26828   */\n      dup2\n        /* \"#utility.yul\":26818:26823   */\n      dup2\n        /* \"#utility.yul\":26815:26829   */\n      lt\n        /* \"#utility.yul\":26808:26928   */\n      iszero\n      tag_580\n      jumpi\n        /* \"#utility.yul\":26879:26918   */\n      tag_581\n        /* \"#utility.yul\":26916:26917   */\n      0x00\n        /* \"#utility.yul\":26909:26914   */\n      dup3\n        /* \"#utility.yul\":26879:26918   */\n      tag_315\n      jump\t// in\n    tag_581:\n        /* \"#utility.yul\":26852:26853   */\n      0x01\n        /* \"#utility.yul\":26845:26850   */\n      dup2\n        /* \"#utility.yul\":26841:26854   */\n      add\n        /* \"#utility.yul\":26832:26854   */\n      swap1\n      pop\n        /* \"#utility.yul\":26808:26928   */\n      jump(tag_578)\n    tag_580:\n        /* \"#utility.yul\":26748:26934   */\n      pop\n      pop\n      jump\t// out\n        /* \"#utility.yul\":26940:27483   */\n    tag_317:\n        /* \"#utility.yul\":27041:27043   */\n      0x1f\n        /* \"#utility.yul\":27036:27039   */\n      dup3\n        /* \"#utility.yul\":27033:27044   */\n      gt\n        /* \"#utility.yul\":27030:27476   */\n      iszero\n      tag_583\n      jumpi\n        /* \"#utility.yul\":27075:27113   */\n      tag_584\n        /* \"#utility.yul\":27107:27112   */\n      dup2\n        /* \"#utility.yul\":27075:27113   */\n      tag_306\n      jump\t// in\n    tag_584:\n        /* \"#utility.yul\":27159:27188   */\n      tag_585\n        /* \"#utility.yul\":27177:27187   */\n      dup5\n        /* \"#utility.yul\":27159:27188   */\n      tag_307\n      jump\t// in\n    tag_585:\n        /* \"#utility.yul\":27149:27157   */\n      dup2\n        /* \"#utility.yul\":27145:27189   */\n      add\n        /* \"#utility.yul\":27342:27344   */\n      0x20\n        /* \"#utility.yul\":27330:27340   */\n      dup6\n        /* \"#utility.yul\":27327:27345   */\n      lt\n        /* \"#utility.yul\":27324:27373   */\n      iszero\n      tag_586\n      jumpi\n        /* \"#utility.yul\":27363:27371   */\n      dup2\n        /* \"#utility.yul\":27348:27371   */\n      swap1\n      pop\n        /* \"#utility.yul\":27324:27373   */\n    tag_586:\n        /* \"#utility.yul\":27386:27466   */\n      tag_587\n        /* \"#utility.yul\":27442:27464   */\n      tag_588\n        /* \"#utility.yul\":27460:27463   */\n      dup6\n        /* \"#utility.yul\":27442:27464   */\n      tag_307\n      jump\t// in\n    tag_588:\n        /* \"#utility.yul\":27432:27440   */\n      dup4\n        /* \"#utility.yul\":27428:27465   */\n      add\n        /* \"#utility.yul\":27415:27426   */\n      dup3\n        /* \"#utility.yul\":27386:27466   */\n      tag_316\n      jump\t// in\n    tag_587:\n        /* \"#utility.yul\":27045:27476   */\n      pop\n      pop\n        /* \"#utility.yul\":27030:27476   */\n    tag_583:\n        /* \"#utility.yul\":26940:27483   */\n      pop\n      pop\n      pop\n      jump\t// out\n        /* \"#utility.yul\":27489:27606   */\n    tag_318:\n        /* \"#utility.yul\":27543:27551   */\n      0x00\n        /* \"#utility.yul\":27593:27598   */\n      dup3\n        /* \"#utility.yul\":27587:27591   */\n      dup3\n        /* \"#utility.yul\":27583:27599   */\n      shr\n        /* \"#utility.yul\":27562:27599   */\n      swap1\n      pop\n        /* \"#utility.yul\":27489:27606   */\n      swap3\n      swap2\n      pop\n      pop\n      jump\t// out\n        /* \"#utility.yul\":27612:27781   */\n    tag_319:\n        /* \"#utility.yul\":27656:27662   */\n      0x00\n        /* \"#utility.yul\":27689:27740   */\n      tag_591\n        /* \"#utility.yul\":27737:27738   */\n      0x00\n        /* \"#utility.yul\":27733:27739   */\n      not\n        /* \"#utility.yul\":27725:27730   */\n      dup5\n        /* \"#utility.yul\":27722:27723   */\n      0x08\n        /* \"#utility.yul\":27718:27731   */\n      mul\n        /* \"#utility.yul\":27689:27740   */\n      tag_318\n      jump\t// in\n    tag_591:\n        /* \"#utility.yul\":27685:27741   */\n      not\n        /* \"#utility.yul\":27770:27774   */\n      dup1\n        /* \"#utility.yul\":27764:27768   */\n      dup4\n        /* \"#utility.yul\":27760:27775   */\n      and\n        /* \"#utility.yul\":27750:27775   */\n      swap2\n      pop\n        /* \"#utility.yul\":27663:27781   */\n      pop\n        /* \"#utility.yul\":27612:27781   */\n      swap3\n      swap2\n      pop\n      pop\n      jump\t// out\n        /* \"#utility.yul\":27786:28081   */\n    tag_320:\n        /* \"#utility.yul\":27862:27866   */\n      0x00\n        /* \"#utility.yul\":28008:28037   */\n      tag_593\n        /* \"#utility.yul\":28033:28036   */\n      dup4\n        /* \"#utility.yul\":28027:28031   */\n      dup4\n        /* \"#utility.yul\":28008:28037   */\n      tag_319\n      jump\t// in\n    tag_593:\n        /* \"#utility.yul\":28000:28037   */\n      swap2\n      pop\n        /* \"#utility.yul\":28070:28073   */\n      dup3\n        /* \"#utility.yul\":28067:28068   */\n      0x02\n        /* \"#utility.yul\":28063:28074   */\n      mul\n        /* \"#utility.yul\":28057:28061   */\n      dup3\n        /* \"#utility.yul\":28054:28075   */\n      or\n        /* \"#utility.yul\":28046:28075   */\n      swap1\n      pop\n        /* \"#utility.yul\":27786:28081   */\n      swap3\n      swap2\n      pop\n      pop\n      jump\t// out\n        /* \"#utility.yul\":28086:29481   */\n    tag_217:\n        /* \"#utility.yul\":28203:28240   */\n      tag_595\n        /* \"#utility.yul\":28236:28239   */\n      dup3\n        /* \"#utility.yul\":28203:28240   */\n      tag_265\n      jump\t// in\n    tag_595:\n        /* \"#utility.yul\":28305:28323   */\n      0xffffffffffffffff\n        /* \"#utility.yul\":28297:28303   */\n      dup2\n        /* \"#utility.yul\":28294:28324   */\n      gt\n        /* \"#utility.yul\":28291:28347   */\n      iszero\n      tag_596\n      jumpi\n        /* \"#utility.yul\":28327:28345   */\n      tag_597\n      tag_110\n      jump\t// in\n    tag_597:\n        /* \"#utility.yul\":28291:28347   */\n    tag_596:\n        /* \"#utility.yul\":28371:28409   */\n      tag_598\n        /* \"#utility.yul\":28403:28407   */\n      dup3\n        /* \"#utility.yul\":28397:28408   */\n      sload\n        /* \"#utility.yul\":28371:28409   */\n      tag_192\n      jump\t// in\n    tag_598:\n        /* \"#utility.yul\":28456:28523   */\n      tag_599\n        /* \"#utility.yul\":28516:28522   */\n      dup3\n        /* \"#utility.yul\":28508:28514   */\n      dup3\n        /* \"#utility.yul\":28502:28506   */\n      dup6\n        /* \"#utility.yul\":28456:28523   */\n      tag_317\n      jump\t// in\n    tag_599:\n        /* \"#utility.yul\":28550:28551   */\n      0x00\n        /* \"#utility.yul\":28574:28578   */\n      0x20\n        /* \"#utility.yul\":28561:28578   */\n      swap1\n      pop\n        /* \"#utility.yul\":28606:28608   */\n      0x1f\n        /* \"#utility.yul\":28598:28604   */\n      dup4\n        /* \"#utility.yul\":28595:28609   */\n      gt\n        /* \"#utility.yul\":28623:28624   */\n      0x01\n        /* \"#utility.yul\":28618:29236   */\n      dup2\n      eq\n      tag_601\n      jumpi\n        /* \"#utility.yul\":29280:29281   */\n      0x00\n        /* \"#utility.yul\":29297:29303   */\n      dup5\n        /* \"#utility.yul\":29294:29371   */\n      iszero\n      tag_602\n      jumpi\n        /* \"#utility.yul\":29346:29355   */\n      dup3\n        /* \"#utility.yul\":29341:29344   */\n      dup8\n        /* \"#utility.yul\":29337:29356   */\n      add\n        /* \"#utility.yul\":29331:29357   */\n      mload\n        /* \"#utility.yul\":29322:29357   */\n      swap1\n      pop\n        /* \"#utility.yul\":29294:29371   */\n    tag_602:\n        /* \"#utility.yul\":29397:29464   */\n      tag_603\n        /* \"#utility.yul\":29457:29463   */\n      dup6\n        /* \"#utility.yul\":29450:29455   */\n      dup3\n        /* \"#utility.yul\":29397:29464   */\n      tag_320\n      jump\t// in\n    tag_603:\n        /* \"#utility.yul\":29391:29395   */\n      dup7\n        /* \"#utility.yul\":29384:29465   */\n      sstore\n        /* \"#utility.yul\":29253:29475   */\n      pop\n        /* \"#utility.yul\":28588:29475   */\n      jump(tag_600)\n        /* \"#utility.yul\":28618:29236   */\n    tag_601:\n        /* \"#utility.yul\":28670:28674   */\n      0x1f\n        /* \"#utility.yul\":28666:28675   */\n      not\n        /* \"#utility.yul\":28658:28664   */\n      dup5\n        /* \"#utility.yul\":28654:28676   */\n      and\n        /* \"#utility.yul\":28704:28741   */\n      tag_604\n        /* \"#utility.yul\":28736:28740   */\n      dup7\n        /* \"#utility.yul\":28704:28741   */\n      tag_306\n      jump\t// in\n    tag_604:\n        /* \"#utility.yul\":28763:28764   */\n      0x00\n        /* \"#utility.yul\":28777:28985   */\n    tag_605:\n        /* \"#utility.yul\":28791:28798   */\n      dup3\n        /* \"#utility.yul\":28788:28789   */\n      dup2\n        /* \"#utility.yul\":28785:28799   */\n      lt\n        /* \"#utility.yul\":28777:28985   */\n      iszero\n      tag_607\n      jumpi\n        /* \"#utility.yul\":28870:28879   */\n      dup5\n        /* \"#utility.yul\":28865:28868   */\n      dup10\n        /* \"#utility.yul\":28861:28880   */\n      add\n        /* \"#utility.yul\":28855:28881   */\n      mload\n        /* \"#utility.yul\":28847:28853   */\n      dup3\n        /* \"#utility.yul\":28840:28882   */\n      sstore\n        /* \"#utility.yul\":28921:28922   */\n      0x01\n        /* \"#utility.yul\":28913:28919   */\n      dup3\n        /* \"#utility.yul\":28909:28923   */\n      add\n        /* \"#utility.yul\":28899:28923   */\n      swap2\n      pop\n        /* \"#utility.yul\":28968:28970   */\n      0x20\n        /* \"#utility.yul\":28957:28966   */\n      dup6\n        /* \"#utility.yul\":28953:28971   */\n      add\n        /* \"#utility.yul\":28940:28971   */\n      swap5\n      pop\n        /* \"#utility.yul\":28814:28818   */\n      0x20\n        /* \"#utility.yul\":28811:28812   */\n      dup2\n        /* \"#utility.yul\":28807:28819   */\n      add\n        /* \"#utility.yul\":28802:28819   */\n      swap1\n      pop\n        /* \"#utility.yul\":28777:28985   */\n      jump(tag_605)\n    tag_607:\n        /* \"#utility.yul\":29013:29019   */\n      dup7\n        /* \"#utility.yul\":29004:29011   */\n      dup4\n        /* \"#utility.yul\":29001:29020   */\n      lt\n        /* \"#utility.yul\":28998:29177   */\n      iszero\n      tag_608\n      jumpi\n        /* \"#utility.yul\":29071:29080   */\n      dup5\n        /* \"#utility.yul\":29066:29069   */\n      dup10\n        /* \"#utility.yul\":29062:29081   */\n      add\n        /* \"#utility.yul\":29056:29082   */\n      mload\n        /* \"#utility.yul\":29114:29162   */\n      tag_609\n        /* \"#utility.yul\":29156:29160   */\n      0x1f\n        /* \"#utility.yul\":29148:29154   */\n      dup10\n        /* \"#utility.yul\":29144:29161   */\n      and\n        /* \"#utility.yul\":29133:29142   */\n      dup3\n        /* \"#utility.yul\":29114:29162   */\n      tag_319\n      jump\t// in\n    tag_609:\n        /* \"#utility.yul\":29106:29112   */\n      dup4\n        /* \"#utility.yul\":29099:29163   */\n      sstore\n        /* \"#utility.yul\":29021:29177   */\n      pop\n        /* \"#utility.yul\":28998:29177   */\n    tag_608:\n        /* \"#utility.yul\":29223:29224   */\n      0x01\n        /* \"#utility.yul\":29219:29220   */\n      0x02\n        /* \"#utility.yul\":29211:29217   */\n      dup9\n        /* \"#utility.yul\":29207:29221   */\n      mul\n        /* \"#utility.yul\":29203:29225   */\n      add\n        /* \"#utility.yul\":29197:29201   */\n      dup9\n        /* \"#utility.yul\":29190:29226   */\n      sstore\n        /* \"#utility.yul\":28625:29236   */\n      pop\n      pop\n      pop\n        /* \"#utility.yul\":28588:29475   */\n    tag_600:\n      pop\n        /* \"#utility.yul\":28178:29481   */\n      pop\n      pop\n      pop\n        /* \"#utility.yul\":28086:29481   */\n      pop\n      pop\n      jump\t// out\n        /* \"#utility.yul\":29487:29678   */\n    tag_230:\n        /* \"#utility.yul\":29527:29530   */\n      0x00\n        /* \"#utility.yul\":29546:29566   */\n      tag_611\n        /* \"#utility.yul\":29564:29565   */\n      dup3\n        /* \"#utility.yul\":29546:29566   */\n      tag_253\n      jump\t// in\n    tag_611:\n        /* \"#utility.yul\":29541:29566   */\n      swap2\n      pop\n        /* \"#utility.yul\":29580:29600   */\n      tag_612\n        /* \"#utility.yul\":29598:29599   */\n      dup4\n        /* \"#utility.yul\":29580:29600   */\n      tag_253\n      jump\t// in\n    tag_612:\n        /* \"#utility.yul\":29575:29600   */\n      swap3\n      pop\n        /* \"#utility.yul\":29623:29624   */\n      dup3\n        /* \"#utility.yul\":29620:29621   */\n      dup3\n        /* \"#utility.yul\":29616:29625   */\n      add\n        /* \"#utility.yul\":29609:29625   */\n      swap1\n      pop\n        /* \"#utility.yul\":29644:29647   */\n      dup1\n        /* \"#utility.yul\":29641:29642   */\n      dup3\n        /* \"#utility.yul\":29638:29648   */\n      gt\n        /* \"#utility.yul\":29635:29671   */\n      iszero\n      tag_613\n      jumpi\n        /* \"#utility.yul\":29651:29669   */\n      tag_614\n      tag_277\n      jump\t// in\n    tag_614:\n        /* \"#utility.yul\":29635:29671   */\n    tag_613:\n        /* \"#utility.yul\":29487:29678   */\n      swap3\n      swap2\n      pop\n      pop\n      jump\t// out\n        /* \"#utility.yul\":29684:30094   */\n    tag_233:\n        /* \"#utility.yul\":29724:29731   */\n      0x00\n        /* \"#utility.yul\":29747:29767   */\n      tag_616\n        /* \"#utility.yul\":29765:29766   */\n      dup3\n        /* \"#utility.yul\":29747:29767   */\n      tag_253\n      jump\t// in\n    tag_616:\n        /* \"#utility.yul\":29742:29767   */\n      swap2\n      pop\n        /* \"#utility.yul\":29781:29801   */\n      tag_617\n        /* \"#utility.yul\":29799:29800   */\n      dup4\n        /* \"#utility.yul\":29781:29801   */\n      tag_253\n      jump\t// in\n    tag_617:\n        /* \"#utility.yul\":29776:29801   */\n      swap3\n      pop\n        /* \"#utility.yul\":29836:29837   */\n      dup3\n        /* \"#utility.yul\":29833:29834   */\n      dup3\n        /* \"#utility.yul\":29829:29838   */\n      mul\n        /* \"#utility.yul\":29858:29888   */\n      tag_618\n        /* \"#utility.yul\":29876:29887   */\n      dup2\n        /* \"#utility.yul\":29858:29888   */\n      tag_253\n      jump\t// in\n    tag_618:\n        /* \"#utility.yul\":29847:29888   */\n      swap2\n      pop\n        /* \"#utility.yul\":30037:30038   */\n      dup3\n        /* \"#utility.yul\":30028:30035   */\n      dup3\n        /* \"#utility.yul\":30024:30039   */\n      div\n        /* \"#utility.yul\":30021:30022   */\n      dup5\n        /* \"#utility.yul\":30018:30040   */\n      eq\n        /* \"#utility.yul\":29998:29999   */\n      dup4\n        /* \"#utility.yul\":29991:30000   */\n      iszero\n        /* \"#utility.yul\":29971:30054   */\n      or\n        /* \"#utility.yul\":29948:30087   */\n      tag_619\n      jumpi\n        /* \"#utility.yul\":30067:30085   */\n      tag_620\n      tag_277\n      jump\t// in\n    tag_620:\n        /* \"#utility.yul\":29948:30087   */\n    tag_619:\n        /* \"#utility.yul\":29732:30094   */\n      pop\n        /* \"#utility.yul\":29684:30094   */\n      swap3\n      swap2\n      pop\n      pop\n      jump\t// out\n        /* \"#utility.yul\":30100:30280   */\n    tag_321:\n        /* \"#utility.yul\":30148:30225   */\n      0x4e487b7100000000000000000000000000000000000000000000000000000000\n        /* \"#utility.yul\":30145:30146   */\n      0x00\n        /* \"#utility.yul\":30138:30226   */\n      mstore\n        /* \"#utility.yul\":30245:30249   */\n      0x12\n        /* \"#utility.yul\":30242:30243   */\n      0x04\n        /* \"#utility.yul\":30235:30250   */\n      mstore\n        /* \"#utility.yul\":30269:30273   */\n      0x24\n        /* \"#utility.yul\":30266:30267   */\n      0x00\n        /* \"#utility.yul\":30259:30274   */\n      revert\n        /* \"#utility.yul\":30286:30471   */\n    tag_236:\n        /* \"#utility.yul\":30326:30327   */\n      0x00\n        /* \"#utility.yul\":30343:30363   */\n      tag_623\n        /* \"#utility.yul\":30361:30362   */\n      dup3\n        /* \"#utility.yul\":30343:30363   */\n      tag_253\n      jump\t// in\n    tag_623:\n        /* \"#utility.yul\":30338:30363   */\n      swap2\n      pop\n        /* \"#utility.yul\":30377:30397   */\n      tag_624\n        /* \"#utility.yul\":30395:30396   */\n      dup4\n        /* \"#utility.yul\":30377:30397   */\n      tag_253\n      jump\t// in\n    tag_624:\n        /* \"#utility.yul\":30372:30397   */\n      swap3\n      pop\n        /* \"#utility.yul\":30416:30417   */\n      dup3\n        /* \"#utility.yul\":30406:30441   */\n      tag_625\n      jumpi\n        /* \"#utility.yul\":30421:30439   */\n      tag_626\n      tag_321\n      jump\t// in\n    tag_626:\n        /* \"#utility.yul\":30406:30441   */\n    tag_625:\n        /* \"#utility.yul\":30463:30464   */\n      dup3\n        /* \"#utility.yul\":30460:30461   */\n      dup3\n        /* \"#utility.yul\":30456:30465   */\n      div\n        /* \"#utility.yul\":30451:30465   */\n      swap1\n      pop\n        /* \"#utility.yul\":30286:30471   */\n      swap3\n      swap2\n      pop\n      pop\n      jump\t// out\n\n    auxdata: 0xa2646970667358221220cd3957b04c788f5925e6ea3dc4c687105ada4298ddf4718b3548107c073a9f3364736f6c63430008190033\n}\n",
				"bytecode": {
					"linkReferences": {},
					"object": "6080604052348015600e575f80fd5b503360055f6101000a81548173ffffffffffffffffffffffffffffffffffffffff021916908373ffffffffffffffffffffffffffffffffffffffff1602179055506121188061005c5f395ff3fe6080604052600436106100c1575f3560e01c8063884bf67c1161007e578063c81c7a5311610058578063c81c7a5314610262578063da0be86c1461027e578063e586a4f0146102a8578063eb770d0c146102d2576100c1565b8063884bf67c146101e4578063898812531461020e5780638da5cb5b14610238576100c1565b806347e8c560146100c557806364043cda146100ed578063669115bf1461012a5780636a4966b814610168578063719ce73e146101905780637b3888a7146101ba575b5f80fd5b3480156100d0575f80fd5b506100eb60048036038101906100e69190611401565b6102fa565b005b3480156100f8575f80fd5b50610113600480360381019061010e9190611527565b61097f565b60405161012192919061158c565b60405180910390f35b348015610135575f80fd5b50610150600480360381019061014b91906115b3565b610afd565b60405161015f9392919061163e565b60405180910390f35b348015610173575f80fd5b5061018e600480360381019061018991906115b3565b610c80565b005b34801561019b575f80fd5b506101a4610d52565b6040516101b1919061167a565b60405180910390f35b3480156101c5575f80fd5b506101ce610d58565b6040516101db919061167a565b60405180910390f35b3480156101ef575f80fd5b506101f8610d61565b604051610205919061167a565b60405180910390f35b348015610219575f80fd5b50610222610d6a565b60405161022f919061167a565b60405180910390f35b348015610243575f80fd5b5061024c610d76565b60405161025991906116b3565b60405180910390f35b61027c60048036038101906102779190611527565b610d9b565b005b348015610289575f80fd5b5061029261106e565b60405161029f919061167a565b60405180910390f35b3480156102b3575f80fd5b506102bc611074565b6040516102c9919061167a565b60405180910390f35b3480156102dd575f80fd5b506102f860048036038101906102f391906115b3565b61107c565b005b60055f9054906101000a900473ffffffffffffffffffffffffffffffffffffffff1673ffffffffffffffffffffffffffffffffffffffff163373ffffffffffffffffffffffffffffffffffffffff1614610389576040517f08c379a00000000000000000000000000000000000000000000000000000000081526004016103809061173c565b60405180910390fd5b60038251146103cd576040517f08c379a00000000000000000000000000000000000000000000000000000000081526004016103c4906117ca565b60405180910390fd5b6004815114610411576040517f08c379a000000000000000000000000000000000000000000000000000000000815260040161040890611832565b60405180910390fd5b5f805b82518110156104595761044a83828151811061043357610432611850565b5b60200260200101518361111490919063ffffffff16565b91508080600101915050610414565b505f61049d606461048f855f8151811061047657610475611850565b5b602002602001015160015461112990919063ffffffff16565b61113e90919063ffffffff16565b90505f6104e360646104d5866001815181106104bc576104bb611850565b5b602002602001015160015461112990919063ffffffff16565b61113e90919063ffffffff16565b905060055f9054906101000a900473ffffffffffffffffffffffffffffffffffffffff1673ffffffffffffffffffffffffffffffffffffffff166108fc8390811502906040515f60405180830381858888f19350505050158015610549573d5f803e3d5ffd5b505f600367ffffffffffffffff81111561056657610565611178565b5b6040519080825280602002602001820160405280156105945781602001602082028036833780820191505090505b5090505f600367ffffffffffffffff8111156105b3576105b2611178565b5b6040519080825280602002602001820160405280156105e15781602001602082028036833780820191505090505b509050865f815181106105f7576105f6611850565b5b6020026020010151825f8151811061061257610611611850565b5b602002602001019073ffffffffffffffffffffffffffffffffffffffff16908173ffffffffffffffffffffffffffffffffffffffff168152505061068d606461067f8860028151811061066857610667611850565b5b60200260200101518661112990919063ffffffff16565b61113e90919063ffffffff16565b815f815181106106a05761069f611850565b5b602002602001018181525050866001815181106106c0576106bf611850565b5b6020026020010151826001815181106106dc576106db611850565b5b602002602001019073ffffffffffffffffffffffffffffffffffffffff16908173ffffffffffffffffffffffffffffffffffffffff168152505061075760646107498860038151811061073257610731611850565b5b60200260200101518661112990919063ffffffff16565b61113e90919063ffffffff16565b8160018151811061076b5761076a611850565b5b6020026020010181815250508660028151811061078b5761078a611850565b5b6020026020010151826002815181106107a7576107a6611850565b5b602002602001019073ffffffffffffffffffffffffffffffffffffffff16908173ffffffffffffffffffffffffffffffffffffffff16815250506108546064610846886003815181106107fd576107fc611850565b5b60200260200101518960028151811061081957610818611850565b5b6020026020010151606461082d91906118aa565b61083791906118aa565b8661112990919063ffffffff16565b61113e90919063ffffffff16565b8160028151811061086857610867611850565b5b6020026020010181815250505f5b60038110156109045782818151811061089257610891611850565b5b602002602001015173ffffffffffffffffffffffffffffffffffffffff166108fc8383815181106108c6576108c5611850565b5b602002602001015190811502906040515f60405180830381858888f193505050501580156108f6573d5f803e3d5ffd5b508080600101915050610876565b5060055f9054906101000a900473ffffffffffffffffffffffffffffffffffffffff1673ffffffffffffffffffffffffffffffffffffffff167facea6060a5ae248721515200efc5c427ae94f53cdb0141c7dae477ac058589aa838360405161096e929190611a4b565b60405180910390a250505050505050565b5f806004836040516109919190611aba565b90815260200160405180910390205f9054906101000a900460ff166109eb576040517f08c379a00000000000000000000000000000000000000000000000000000000081526004016109e290611b1a565b60405180910390fd5b5f5b600380549050811015610abc57838051906020012060038281548110610a1657610a15611850565b5b905f5260205f2090600302015f01604051610a319190611c31565b604051809103902003610aaf5760038181548110610a5257610a51611850565b5b905f5260205f2090600302016001015460038281548110610a7657610a75611850565b5b905f5260205f2090600302016002015f9054906101000a900473ffffffffffffffffffffffffffffffffffffffff169250925050610af8565b80806001019150506109ed565b506040517f08c379a0000000000000000000000000000000000000000000000000000000008152600401610aef90611cb7565b60405180910390fd5b915091565b60605f806003805490508410610b48576040517f08c379a0000000000000000000000000000000000000000000000000000000008152600401610b3f90611d1f565b60405180910390fd5b5f60038581548110610b5d57610b5c611850565b5b905f5260205f2090600302016040518060600160405290815f82018054610b8390611b65565b80601f0160208091040260200160405190810160405280929190818152602001828054610baf90611b65565b8015610bfa5780601f10610bd157610100808354040283529160200191610bfa565b820191905f5260205f20905b815481529060010190602001808311610bdd57829003601f168201915b5050505050815260200160018201548152602001600282015f9054906101000a900473ffffffffffffffffffffffffffffffffffffffff1673ffffffffffffffffffffffffffffffffffffffff1673ffffffffffffffffffffffffffffffffffffffff16815250509050805f015181602001518260400151935093509350509193909250565b60055f9054906101000a900473ffffffffffffffffffffffffffffffffffffffff1673ffffffffffffffffffffffffffffffffffffffff163373ffffffffffffffffffffffffffffffffffffffff1614610d0f576040517f08c379a0000000000000000000000000000000000000000000000000000000008152600401610d069061173c565b60405180910390fd5b806001819055507f109cd21dc4e5e640485f5e7e7d11e3facf5b1ce3b4f327ef4751ee24a0af62ac600154604051610d47919061167a565b60405180910390a150565b60015481565b5f600254905090565b5f600154905090565b5f600380549050905090565b60055f9054906101000a900473ffffffffffffffffffffffffffffffffffffffff1681565b600481604051610dab9190611aba565b90815260200160405180910390205f9054906101000a900460ff1615610e06576040517f08c379a0000000000000000000000000000000000000000000000000000000008152600401610dfd90611d87565b60405180910390fd5b3460015f54610e1591906118aa565b108015610e2257505f5434105b15610e59576040517fbd4e069500000000000000000000000000000000000000000000000000000000815260040160405180910390fd5b60055f9054906101000a900473ffffffffffffffffffffffffffffffffffffffff1673ffffffffffffffffffffffffffffffffffffffff166108fc3490811502906040515f60405180830381858888f19350505050158015610ebd573d5f803e3d5ffd5b50600360405180606001604052808381526020014281526020013373ffffffffffffffffffffffffffffffffffffffff16815250908060018154018082558091505060019003905f5260205f2090600302015f909190919091505f820151815f019081610f2a9190611f42565b50602082015181600101556040820151816002015f6101000a81548173ffffffffffffffffffffffffffffffffffffffff021916908373ffffffffffffffffffffffffffffffffffffffff16021790555050503373ffffffffffffffffffffffffffffffffffffffff167fe13346e29c870b2b0d2aa3f5335a9cecd4044e700a0902f6543cea1c76d024ca34604051610fc3919061167a565b60405180910390a2610fe03460025461111490919063ffffffff16565b6002819055506001546002541115611035576002546001819055507f149086bfe57530c105768f33bd15ee9884e9b0f1d22a75fb8ac70ad89434107360015460405161102c919061167a565b60405180910390a15b60016004826040516110479190611aba565b90815260200160405180910390205f6101000a81548160ff02191690831515021790555050565b60025481565b5f8054905090565b60055f9054906101000a900473ffffffffffffffffffffffffffffffffffffffff1673ffffffffffffffffffffffffffffffffffffffff163373ffffffffffffffffffffffffffffffffffffffff161461110b576040517f08c379a00000000000000000000000000000000000000000000000000000000081526004016111029061173c565b60405180910390fd5b805f8190555050565b5f81836111219190612011565b905092915050565b5f81836111369190612044565b905092915050565b5f818361114b91906120b2565b905092915050565b5f604051905090565b5f80fd5b5f80fd5b5f80fd5b5f601f19601f8301169050919050565b7f4e487b71000000000000000000000000000000000000000000000000000000005f52604160045260245ffd5b6111ae82611168565b810181811067ffffffffffffffff821117156111cd576111cc611178565b5b80604052505050565b5f6111df611153565b90506111eb82826111a5565b919050565b5f67ffffffffffffffff82111561120a57611209611178565b5b602082029050602081019050919050565b5f80fd5b5f73ffffffffffffffffffffffffffffffffffffffff82169050919050565b5f6112488261121f565b9050919050565b6112588161123e565b8114611262575f80fd5b50565b5f813590506112738161124f565b92915050565b5f61128b611286846111f0565b6111d6565b905080838252602082019050602084028301858111156112ae576112ad61121b565b5b835b818110156112d757806112c38882611265565b8452602084019350506020810190506112b0565b5050509392505050565b5f82601f8301126112f5576112f4611164565b5b8135611305848260208601611279565b91505092915050565b5f67ffffffffffffffff82111561132857611327611178565b5b602082029050602081019050919050565b5f819050919050565b61134b81611339565b8114611355575f80fd5b50565b5f8135905061136681611342565b92915050565b5f61137e6113798461130e565b6111d6565b905080838252602082019050602084028301858111156113a1576113a061121b565b5b835b818110156113ca57806113b68882611358565b8452602084019350506020810190506113a3565b5050509392505050565b5f82601f8301126113e8576113e7611164565b5b81356113f884826020860161136c565b91505092915050565b5f80604083850312156114175761141661115c565b5b5f83013567ffffffffffffffff81111561143457611433611160565b5b611440858286016112e1565b925050602083013567ffffffffffffffff81111561146157611460611160565b5b61146d858286016113d4565b9150509250929050565b5f80fd5b5f67ffffffffffffffff82111561149557611494611178565b5b61149e82611168565b9050602081019050919050565b828183375f83830152505050565b5f6114cb6114c68461147b565b6111d6565b9050828152602081018484840111156114e7576114e6611477565b5b6114f28482856114ab565b509392505050565b5f82601f83011261150e5761150d611164565b5b813561151e8482602086016114b9565b91505092915050565b5f6020828403121561153c5761153b61115c565b5b5f82013567ffffffffffffffff81111561155957611558611160565b5b611565848285016114fa565b91505092915050565b61157781611339565b82525050565b6115868161123e565b82525050565b5f60408201905061159f5f83018561156e565b6115ac602083018461157d565b9392505050565b5f602082840312156115c8576115c761115c565b5b5f6115d584828501611358565b91505092915050565b5f81519050919050565b5f82825260208201905092915050565b8281835e5f83830152505050565b5f611610826115de565b61161a81856115e8565b935061162a8185602086016115f8565b61163381611168565b840191505092915050565b5f6060820190508181035f8301526116568186611606565b9050611665602083018561156e565b611672604083018461157d565b949350505050565b5f60208201905061168d5f83018461156e565b92915050565b5f61169d8261121f565b9050919050565b6116ad81611693565b82525050565b5f6020820190506116c65f8301846116a4565b92915050565b7f4f6e6c79206f776e65722063616e2063616c6c20746869732066756e6374696f5f8201527f6e00000000000000000000000000000000000000000000000000000000000000602082015250565b5f6117266021836115e8565b9150611731826116cc565b604082019050919050565b5f6020820190508181035f8301526117538161171a565b9050919050565b7f4d7573742070726f766964652065786163746c792033207061727469636970615f8201527f6e74730000000000000000000000000000000000000000000000000000000000602082015250565b5f6117b46023836115e8565b91506117bf8261175a565b604082019050919050565b5f6020820190508181035f8301526117e1816117a8565b9050919050565b7f4d7573742070726f76696465203420726174696f7300000000000000000000005f82015250565b5f61181c6015836115e8565b9150611827826117e8565b602082019050919050565b5f6020820190508181035f83015261184981611810565b9050919050565b7f4e487b71000000000000000000000000000000000000000000000000000000005f52603260045260245ffd5b7f4e487b71000000000000000000000000000000000000000000000000000000005f52601160045260245ffd5b5f6118b482611339565b91506118bf83611339565b92508282039050818111156118d7576118d661187d565b5b92915050565b5f81519050919050565b5f82825260208201905092915050565b5f819050602082019050919050565b61190f8161123e565b82525050565b5f6119208383611906565b60208301905092915050565b5f602082019050919050565b5f611942826118dd565b61194c81856118e7565b9350611957836118f7565b805f5b8381101561198757815161196e8882611915565b97506119798361192c565b92505060018101905061195a565b5085935050505092915050565b5f81519050919050565b5f82825260208201905092915050565b5f819050602082019050919050565b6119c681611339565b82525050565b5f6119d783836119bd565b60208301905092915050565b5f602082019050919050565b5f6119f982611994565b611a03818561199e565b9350611a0e836119ae565b805f5b83811015611a3e578151611a2588826119cc565b9750611a30836119e3565b925050600181019050611a11565b5085935050505092915050565b5f6040820190508181035f830152611a638185611938565b90508181036020830152611a7781846119ef565b90509392505050565b5f81905092915050565b5f611a94826115de565b611a9e8185611a80565b9350611aae8185602086016115f8565b80840191505092915050565b5f611ac58284611a8a565b915081905092915050565b7f4e616d65206e6f7420666f756e640000000000000000000000000000000000005f82015250565b5f611b04600e836115e8565b9150611b0f82611ad0565b602082019050919050565b5f6020820190508181035f830152611b3181611af8565b9050919050565b7f4e487b71000000000000000000000000000000000000000000000000000000005f52602260045260245ffd5b5f6002820490506001821680611b7c57607f821691505b602082108103611b8f57611b8e611b38565b5b50919050565b5f81905092915050565b5f819050815f5260205f209050919050565b5f8154611bbd81611b65565b611bc78186611b95565b9450600182165f8114611be15760018114611bf657611c28565b60ff1983168652811515820286019350611c28565b611bff85611b9f565b5f5b83811015611c2057815481890152600182019150602081019050611c01565b838801955050505b50505092915050565b5f611c3c8284611bb1565b915081905092915050565b7f5265636f7264206e6f7420666f756e6420666f72207468652070726f766964655f8201527f6420736561726368206e616d6500000000000000000000000000000000000000602082015250565b5f611ca1602d836115e8565b9150611cac82611c47565b604082019050919050565b5f6020820190508181035f830152611cce81611c95565b9050919050565b7f496e646578206f7574206f662072616e676500000000000000000000000000005f82015250565b5f611d096012836115e8565b9150611d1482611cd5565b602082019050919050565b5f6020820190508181035f830152611d3681611cfd565b9050919050565b7f5061727469636970616e7420697320616c726561647920656e726f6c6c6564005f82015250565b5f611d71601f836115e8565b9150611d7c82611d3d565b602082019050919050565b5f6020820190508181035f830152611d9e81611d65565b9050919050565b5f819050815f5260205f209050919050565b5f6020601f8301049050919050565b5f82821b905092915050565b5f60088302611e017fffffffffffffffffffffffffffffffffffffffffffffffffffffffffffffffff82611dc6565b611e0b8683611dc6565b95508019841693508086168417925050509392505050565b5f819050919050565b5f611e46611e41611e3c84611339565b611e23565b611339565b9050919050565b5f819050919050565b611e5f83611e2c565b611e73611e6b82611e4d565b848454611dd2565b825550505050565b5f90565b611e87611e7b565b611e92818484611e56565b505050565b5b81811015611eb557611eaa5f82611e7f565b600181019050611e98565b5050565b601f821115611efa57611ecb81611da5565b611ed484611db7565b81016020851015611ee3578190505b611ef7611eef85611db7565b830182611e97565b50505b505050565b5f82821c905092915050565b5f611f1a5f1984600802611eff565b1980831691505092915050565b5f611f328383611f0b565b9150826002028217905092915050565b611f4b826115de565b67ffffffffffffffff811115611f6457611f63611178565b5b611f6e8254611b65565b611f79828285611eb9565b5f60209050601f831160018114611faa575f8415611f98578287015190505b611fa28582611f27565b865550612009565b601f198416611fb886611da5565b5f5b82811015611fdf57848901518255600182019150602085019450602081019050611fba565b86831015611ffc5784890151611ff8601f891682611f0b565b8355505b6001600288020188555050505b505050505050565b5f61201b82611339565b915061202683611339565b925082820190508082111561203e5761203d61187d565b5b92915050565b5f61204e82611339565b915061205983611339565b925082820261206781611339565b9150828204841483151761207e5761207d61187d565b5b5092915050565b7f4e487b71000000000000000000000000000000000000000000000000000000005f52601260045260245ffd5b5f6120bc82611339565b91506120c783611339565b9250826120d7576120d6612085565b5b82820490509291505056fea2646970667358221220cd3957b04c788f5925e6ea3dc4c687105ada4298ddf4718b3548107c073a9f3364736f6c63430008190033",
					"opcodes": "PUSH1 0x80 PUSH1 0x40 MSTORE CALLVALUE DUP1 ISZERO PUSH1 0xE JUMPI PUSH0 DUP1 REVERT JUMPDEST POP CALLER PUSH1 0x5 PUSH0 PUSH2 0x100 EXP DUP2 SLOAD DUP2 PUSH20 0xFFFFFFFFFFFFFFFFFFFFFFFFFFFFFFFFFFFFFFFF MUL NOT AND SWAP1 DUP4 PUSH20 0xFFFFFFFFFFFFFFFFFFFFFFFFFFFFFFFFFFFFFFFF AND MUL OR SWAP1 SSTORE POP PUSH2 0x2118 DUP1 PUSH2 0x5C PUSH0 CODECOPY PUSH0 RETURN INVALID PUSH1 0x80 PUSH1 0x40 MSTORE PUSH1 0x4 CALLDATASIZE LT PUSH2 0xC1 JUMPI PUSH0 CALLDATALOAD PUSH1 0xE0 SHR DUP1 PUSH4 0x884BF67C GT PUSH2 0x7E JUMPI DUP1 PUSH4 0xC81C7A53 GT PUSH2 0x58 JUMPI DUP1 PUSH4 0xC81C7A53 EQ PUSH2 0x262 JUMPI DUP1 PUSH4 0xDA0BE86C EQ PUSH2 0x27E JUMPI DUP1 PUSH4 0xE586A4F0 EQ PUSH2 0x2A8 JUMPI DUP1 PUSH4 0xEB770D0C EQ PUSH2 0x2D2 JUMPI PUSH2 0xC1 JUMP JUMPDEST DUP1 PUSH4 0x884BF67C EQ PUSH2 0x1E4 JUMPI DUP1 PUSH4 0x89881253 EQ PUSH2 0x20E JUMPI DUP1 PUSH4 0x8DA5CB5B EQ PUSH2 0x238 JUMPI PUSH2 0xC1 JUMP JUMPDEST DUP1 PUSH4 0x47E8C560 EQ PUSH2 0xC5 JUMPI DUP1 PUSH4 0x64043CDA EQ PUSH2 0xED JUMPI DUP1 PUSH4 0x669115BF EQ PUSH2 0x12A JUMPI DUP1 PUSH4 0x6A4966B8 EQ PUSH2 0x168 JUMPI DUP1 PUSH4 0x719CE73E EQ PUSH2 0x190 JUMPI DUP1 PUSH4 0x7B3888A7 EQ PUSH2 0x1BA JUMPI JUMPDEST PUSH0 DUP1 REVERT JUMPDEST CALLVALUE DUP1 ISZERO PUSH2 0xD0 JUMPI PUSH0 DUP1 REVERT JUMPDEST POP PUSH2 0xEB PUSH1 0x4 DUP1 CALLDATASIZE SUB DUP2 ADD SWAP1 PUSH2 0xE6 SWAP2 SWAP1 PUSH2 0x1401 JUMP JUMPDEST PUSH2 0x2FA JUMP JUMPDEST STOP JUMPDEST CALLVALUE DUP1 ISZERO PUSH2 0xF8 JUMPI PUSH0 DUP1 REVERT JUMPDEST POP PUSH2 0x113 PUSH1 0x4 DUP1 CALLDATASIZE SUB DUP2 ADD SWAP1 PUSH2 0x10E SWAP2 SWAP1 PUSH2 0x1527 JUMP JUMPDEST PUSH2 0x97F JUMP JUMPDEST PUSH1 0x40 MLOAD PUSH2 0x121 SWAP3 SWAP2 SWAP1 PUSH2 0x158C JUMP JUMPDEST PUSH1 0x40 MLOAD DUP1 SWAP2 SUB SWAP1 RETURN JUMPDEST CALLVALUE DUP1 ISZERO PUSH2 0x135 JUMPI PUSH0 DUP1 REVERT JUMPDEST POP PUSH2 0x150 PUSH1 0x4 DUP1 CALLDATASIZE SUB DUP2 ADD SWAP1 PUSH2 0x14B SWAP2 SWAP1 PUSH2 0x15B3 JUMP JUMPDEST PUSH2 0xAFD JUMP JUMPDEST PUSH1 0x40 MLOAD PUSH2 0x15F SWAP4 SWAP3 SWAP2 SWAP1 PUSH2 0x163E JUMP JUMPDEST PUSH1 0x40 MLOAD DUP1 SWAP2 SUB SWAP1 RETURN JUMPDEST CALLVALUE DUP1 ISZERO PUSH2 0x173 JUMPI PUSH0 DUP1 REVERT JUMPDEST POP PUSH2 0x18E PUSH1 0x4 DUP1 CALLDATASIZE SUB DUP2 ADD SWAP1 PUSH2 0x189 SWAP2 SWAP1 PUSH2 0x15B3 JUMP JUMPDEST PUSH2 0xC80 JUMP JUMPDEST STOP JUMPDEST CALLVALUE DUP1 ISZERO PUSH2 0x19B JUMPI PUSH0 DUP1 REVERT JUMPDEST POP PUSH2 0x1A4 PUSH2 0xD52 JUMP JUMPDEST PUSH1 0x40 MLOAD PUSH2 0x1B1 SWAP2 SWAP1 PUSH2 0x167A JUMP JUMPDEST PUSH1 0x40 MLOAD DUP1 SWAP2 SUB SWAP1 RETURN JUMPDEST CALLVALUE DUP1 ISZERO PUSH2 0x1C5 JUMPI PUSH0 DUP1 REVERT JUMPDEST POP PUSH2 0x1CE PUSH2 0xD58 JUMP JUMPDEST PUSH1 0x40 MLOAD PUSH2 0x1DB SWAP2 SWAP1 PUSH2 0x167A JUMP JUMPDEST PUSH1 0x40 MLOAD DUP1 SWAP2 SUB SWAP1 RETURN JUMPDEST CALLVALUE DUP1 ISZERO PUSH2 0x1EF JUMPI PUSH0 DUP1 REVERT JUMPDEST POP PUSH2 0x1F8 PUSH2 0xD61 JUMP JUMPDEST PUSH1 0x40 MLOAD PUSH2 0x205 SWAP2 SWAP1 PUSH2 0x167A JUMP JUMPDEST PUSH1 0x40 MLOAD DUP1 SWAP2 SUB SWAP1 RETURN JUMPDEST CALLVALUE DUP1 ISZERO PUSH2 0x219 JUMPI PUSH0 DUP1 REVERT JUMPDEST POP PUSH2 0x222 PUSH2 0xD6A JUMP JUMPDEST PUSH1 0x40 MLOAD PUSH2 0x22F SWAP2 SWAP1 PUSH2 0x167A JUMP JUMPDEST PUSH1 0x40 MLOAD DUP1 SWAP2 SUB SWAP1 RETURN JUMPDEST CALLVALUE DUP1 ISZERO PUSH2 0x243 JUMPI PUSH0 DUP1 REVERT JUMPDEST POP PUSH2 0x24C PUSH2 0xD76 JUMP JUMPDEST PUSH1 0x40 MLOAD PUSH2 0x259 SWAP2 SWAP1 PUSH2 0x16B3 JUMP JUMPDEST PUSH1 0x40 MLOAD DUP1 SWAP2 SUB SWAP1 RETURN JUMPDEST PUSH2 0x27C PUSH1 0x4 DUP1 CALLDATASIZE SUB DUP2 ADD SWAP1 PUSH2 0x277 SWAP2 SWAP1 PUSH2 0x1527 JUMP JUMPDEST PUSH2 0xD9B JUMP JUMPDEST STOP JUMPDEST CALLVALUE DUP1 ISZERO PUSH2 0x289 JUMPI PUSH0 DUP1 REVERT JUMPDEST POP PUSH2 0x292 PUSH2 0x106E JUMP JUMPDEST PUSH1 0x40 MLOAD PUSH2 0x29F SWAP2 SWAP1 PUSH2 0x167A JUMP JUMPDEST PUSH1 0x40 MLOAD DUP1 SWAP2 SUB SWAP1 RETURN JUMPDEST CALLVALUE DUP1 ISZERO PUSH2 0x2B3 JUMPI PUSH0 DUP1 REVERT JUMPDEST POP PUSH2 0x2BC PUSH2 0x1074 JUMP JUMPDEST PUSH1 0x40 MLOAD PUSH2 0x2C9 SWAP2 SWAP1 PUSH2 0x167A JUMP JUMPDEST PUSH1 0x40 MLOAD DUP1 SWAP2 SUB SWAP1 RETURN JUMPDEST CALLVALUE DUP1 ISZERO PUSH2 0x2DD JUMPI PUSH0 DUP1 REVERT JUMPDEST POP PUSH2 0x2F8 PUSH1 0x4 DUP1 CALLDATASIZE SUB DUP2 ADD SWAP1 PUSH2 0x2F3 SWAP2 SWAP1 PUSH2 0x15B3 JUMP JUMPDEST PUSH2 0x107C JUMP JUMPDEST STOP JUMPDEST PUSH1 0x5 PUSH0 SWAP1 SLOAD SWAP1 PUSH2 0x100 EXP SWAP1 DIV PUSH20 0xFFFFFFFFFFFFFFFFFFFFFFFFFFFFFFFFFFFFFFFF AND PUSH20 0xFFFFFFFFFFFFFFFFFFFFFFFFFFFFFFFFFFFFFFFF AND CALLER PUSH20 0xFFFFFFFFFFFFFFFFFFFFFFFFFFFFFFFFFFFFFFFF AND EQ PUSH2 0x389 JUMPI PUSH1 0x40 MLOAD PUSH32 0x8C379A000000000000000000000000000000000000000000000000000000000 DUP2 MSTORE PUSH1 0x4 ADD PUSH2 0x380 SWAP1 PUSH2 0x173C JUMP JUMPDEST PUSH1 0x40 MLOAD DUP1 SWAP2 SUB SWAP1 REVERT JUMPDEST PUSH1 0x3 DUP3 MLOAD EQ PUSH2 0x3CD JUMPI PUSH1 0x40 MLOAD PUSH32 0x8C379A000000000000000000000000000000000000000000000000000000000 DUP2 MSTORE PUSH1 0x4 ADD PUSH2 0x3C4 SWAP1 PUSH2 0x17CA JUMP JUMPDEST PUSH1 0x40 MLOAD DUP1 SWAP2 SUB SWAP1 REVERT JUMPDEST PUSH1 0x4 DUP2 MLOAD EQ PUSH2 0x411 JUMPI PUSH1 0x40 MLOAD PUSH32 0x8C379A000000000000000000000000000000000000000000000000000000000 DUP2 MSTORE PUSH1 0x4 ADD PUSH2 0x408 SWAP1 PUSH2 0x1832 JUMP JUMPDEST PUSH1 0x40 MLOAD DUP1 SWAP2 SUB SWAP1 REVERT JUMPDEST PUSH0 DUP1 JUMPDEST DUP3 MLOAD DUP2 LT ISZERO PUSH2 0x459 JUMPI PUSH2 0x44A DUP4 DUP3 DUP2 MLOAD DUP2 LT PUSH2 0x433 JUMPI PUSH2 0x432 PUSH2 0x1850 JUMP JUMPDEST JUMPDEST PUSH1 0x20 MUL PUSH1 0x20 ADD ADD MLOAD DUP4 PUSH2 0x1114 SWAP1 SWAP2 SWAP1 PUSH4 0xFFFFFFFF AND JUMP JUMPDEST SWAP2 POP DUP1 DUP1 PUSH1 0x1 ADD SWAP2 POP POP PUSH2 0x414 JUMP JUMPDEST POP PUSH0 PUSH2 0x49D PUSH1 0x64 PUSH2 0x48F DUP6 PUSH0 DUP2 MLOAD DUP2 LT PUSH2 0x476 JUMPI PUSH2 0x475 PUSH2 0x1850 JUMP JUMPDEST JUMPDEST PUSH1 0x20 MUL PUSH1 0x20 ADD ADD MLOAD PUSH1 0x1 SLOAD PUSH2 0x1129 SWAP1 SWAP2 SWAP1 PUSH4 0xFFFFFFFF AND JUMP JUMPDEST PUSH2 0x113E SWAP1 SWAP2 SWAP1 PUSH4 0xFFFFFFFF AND JUMP JUMPDEST SWAP1 POP PUSH0 PUSH2 0x4E3 PUSH1 0x64 PUSH2 0x4D5 DUP7 PUSH1 0x1 DUP2 MLOAD DUP2 LT PUSH2 0x4BC JUMPI PUSH2 0x4BB PUSH2 0x1850 JUMP JUMPDEST JUMPDEST PUSH1 0x20 MUL PUSH1 0x20 ADD ADD MLOAD PUSH1 0x1 SLOAD PUSH2 0x1129 SWAP1 SWAP2 SWAP1 PUSH4 0xFFFFFFFF AND JUMP JUMPDEST PUSH2 0x113E SWAP1 SWAP2 SWAP1 PUSH4 0xFFFFFFFF AND JUMP JUMPDEST SWAP1 POP PUSH1 0x5 PUSH0 SWAP1 SLOAD SWAP1 PUSH2 0x100 EXP SWAP1 DIV PUSH20 0xFFFFFFFFFFFFFFFFFFFFFFFFFFFFFFFFFFFFFFFF AND PUSH20 0xFFFFFFFFFFFFFFFFFFFFFFFFFFFFFFFFFFFFFFFF AND PUSH2 0x8FC DUP4 SWAP1 DUP2 ISZERO MUL SWAP1 PUSH1 0x40 MLOAD PUSH0 PUSH1 0x40 MLOAD DUP1 DUP4 SUB DUP2 DUP6 DUP9 DUP9 CALL SWAP4 POP POP POP POP ISZERO DUP1 ISZERO PUSH2 0x549 JUMPI RETURNDATASIZE PUSH0 DUP1 RETURNDATACOPY RETURNDATASIZE PUSH0 REVERT JUMPDEST POP PUSH0 PUSH1 0x3 PUSH8 0xFFFFFFFFFFFFFFFF DUP2 GT ISZERO PUSH2 0x566 JUMPI PUSH2 0x565 PUSH2 0x1178 JUMP JUMPDEST JUMPDEST PUSH1 0x40 MLOAD SWAP1 DUP1 DUP3 MSTORE DUP1 PUSH1 0x20 MUL PUSH1 0x20 ADD DUP3 ADD PUSH1 0x40 MSTORE DUP1 ISZERO PUSH2 0x594 JUMPI DUP2 PUSH1 0x20 ADD PUSH1 0x20 DUP3 MUL DUP1 CALLDATASIZE DUP4 CALLDATACOPY DUP1 DUP3 ADD SWAP2 POP POP SWAP1 POP JUMPDEST POP SWAP1 POP PUSH0 PUSH1 0x3 PUSH8 0xFFFFFFFFFFFFFFFF DUP2 GT ISZERO PUSH2 0x5B3 JUMPI PUSH2 0x5B2 PUSH2 0x1178 JUMP JUMPDEST JUMPDEST PUSH1 0x40 MLOAD SWAP1 DUP1 DUP3 MSTORE DUP1 PUSH1 0x20 MUL PUSH1 0x20 ADD DUP3 ADD PUSH1 0x40 MSTORE DUP1 ISZERO PUSH2 0x5E1 JUMPI DUP2 PUSH1 0x20 ADD PUSH1 0x20 DUP3 MUL DUP1 CALLDATASIZE DUP4 CALLDATACOPY DUP1 DUP3 ADD SWAP2 POP POP SWAP1 POP JUMPDEST POP SWAP1 POP DUP7 PUSH0 DUP2 MLOAD DUP2 LT PUSH2 0x5F7 JUMPI PUSH2 0x5F6 PUSH2 0x1850 JUMP JUMPDEST JUMPDEST PUSH1 0x20 MUL PUSH1 0x20 ADD ADD MLOAD DUP3 PUSH0 DUP2 MLOAD DUP2 LT PUSH2 0x612 JUMPI PUSH2 0x611 PUSH2 0x1850 JUMP JUMPDEST JUMPDEST PUSH1 0x20 MUL PUSH1 0x20 ADD ADD SWAP1 PUSH20 0xFFFFFFFFFFFFFFFFFFFFFFFFFFFFFFFFFFFFFFFF AND SWAP1 DUP2 PUSH20 0xFFFFFFFFFFFFFFFFFFFFFFFFFFFFFFFFFFFFFFFF AND DUP2 MSTORE POP POP PUSH2 0x68D PUSH1 0x64 PUSH2 0x67F DUP9 PUSH1 0x2 DUP2 MLOAD DUP2 LT PUSH2 0x668 JUMPI PUSH2 0x667 PUSH2 0x1850 JUMP JUMPDEST JUMPDEST PUSH1 0x20 MUL PUSH1 0x20 ADD ADD MLOAD DUP7 PUSH2 0x1129 SWAP1 SWAP2 SWAP1 PUSH4 0xFFFFFFFF AND JUMP JUMPDEST PUSH2 0x113E SWAP1 SWAP2 SWAP1 PUSH4 0xFFFFFFFF AND JUMP JUMPDEST DUP2 PUSH0 DUP2 MLOAD DUP2 LT PUSH2 0x6A0 JUMPI PUSH2 0x69F PUSH2 0x1850 JUMP JUMPDEST JUMPDEST PUSH1 0x20 MUL PUSH1 0x20 ADD ADD DUP2 DUP2 MSTORE POP POP DUP7 PUSH1 0x1 DUP2 MLOAD DUP2 LT PUSH2 0x6C0 JUMPI PUSH2 0x6BF PUSH2 0x1850 JUMP JUMPDEST JUMPDEST PUSH1 0x20 MUL PUSH1 0x20 ADD ADD MLOAD DUP3 PUSH1 0x1 DUP2 MLOAD DUP2 LT PUSH2 0x6DC JUMPI PUSH2 0x6DB PUSH2 0x1850 JUMP JUMPDEST JUMPDEST PUSH1 0x20 MUL PUSH1 0x20 ADD ADD SWAP1 PUSH20 0xFFFFFFFFFFFFFFFFFFFFFFFFFFFFFFFFFFFFFFFF AND SWAP1 DUP2 PUSH20 0xFFFFFFFFFFFFFFFFFFFFFFFFFFFFFFFFFFFFFFFF AND DUP2 MSTORE POP POP PUSH2 0x757 PUSH1 0x64 PUSH2 0x749 DUP9 PUSH1 0x3 DUP2 MLOAD DUP2 LT PUSH2 0x732 JUMPI PUSH2 0x731 PUSH2 0x1850 JUMP JUMPDEST JUMPDEST PUSH1 0x20 MUL PUSH1 0x20 ADD ADD MLOAD DUP7 PUSH2 0x1129 SWAP1 SWAP2 SWAP1 PUSH4 0xFFFFFFFF AND JUMP JUMPDEST PUSH2 0x113E SWAP1 SWAP2 SWAP1 PUSH4 0xFFFFFFFF AND JUMP JUMPDEST DUP2 PUSH1 0x1 DUP2 MLOAD DUP2 LT PUSH2 0x76B JUMPI PUSH2 0x76A PUSH2 0x1850 JUMP JUMPDEST JUMPDEST PUSH1 0x20 MUL PUSH1 0x20 ADD ADD DUP2 DUP2 MSTORE POP POP DUP7 PUSH1 0x2 DUP2 MLOAD DUP2 LT PUSH2 0x78B JUMPI PUSH2 0x78A PUSH2 0x1850 JUMP JUMPDEST JUMPDEST PUSH1 0x20 MUL PUSH1 0x20 ADD ADD MLOAD DUP3 PUSH1 0x2 DUP2 MLOAD DUP2 LT PUSH2 0x7A7 JUMPI PUSH2 0x7A6 PUSH2 0x1850 JUMP JUMPDEST JUMPDEST PUSH1 0x20 MUL PUSH1 0x20 ADD ADD SWAP1 PUSH20 0xFFFFFFFFFFFFFFFFFFFFFFFFFFFFFFFFFFFFFFFF AND SWAP1 DUP2 PUSH20 0xFFFFFFFFFFFFFFFFFFFFFFFFFFFFFFFFFFFFFFFF AND DUP2 MSTORE POP POP PUSH2 0x854 PUSH1 0x64 PUSH2 0x846 DUP9 PUSH1 0x3 DUP2 MLOAD DUP2 LT PUSH2 0x7FD JUMPI PUSH2 0x7FC PUSH2 0x1850 JUMP JUMPDEST JUMPDEST PUSH1 0x20 MUL PUSH1 0x20 ADD ADD MLOAD DUP10 PUSH1 0x2 DUP2 MLOAD DUP2 LT PUSH2 0x819 JUMPI PUSH2 0x818 PUSH2 0x1850 JUMP JUMPDEST JUMPDEST PUSH1 0x20 MUL PUSH1 0x20 ADD ADD MLOAD PUSH1 0x64 PUSH2 0x82D SWAP2 SWAP1 PUSH2 0x18AA JUMP JUMPDEST PUSH2 0x837 SWAP2 SWAP1 PUSH2 0x18AA JUMP JUMPDEST DUP7 PUSH2 0x1129 SWAP1 SWAP2 SWAP1 PUSH4 0xFFFFFFFF AND JUMP JUMPDEST PUSH2 0x113E SWAP1 SWAP2 SWAP1 PUSH4 0xFFFFFFFF AND JUMP JUMPDEST DUP2 PUSH1 0x2 DUP2 MLOAD DUP2 LT PUSH2 0x868 JUMPI PUSH2 0x867 PUSH2 0x1850 JUMP JUMPDEST JUMPDEST PUSH1 0x20 MUL PUSH1 0x20 ADD ADD DUP2 DUP2 MSTORE POP POP PUSH0 JUMPDEST PUSH1 0x3 DUP2 LT ISZERO PUSH2 0x904 JUMPI DUP3 DUP2 DUP2 MLOAD DUP2 LT PUSH2 0x892 JUMPI PUSH2 0x891 PUSH2 0x1850 JUMP JUMPDEST JUMPDEST PUSH1 0x20 MUL PUSH1 0x20 ADD ADD MLOAD PUSH20 0xFFFFFFFFFFFFFFFFFFFFFFFFFFFFFFFFFFFFFFFF AND PUSH2 0x8FC DUP4 DUP4 DUP2 MLOAD DUP2 LT PUSH2 0x8C6 JUMPI PUSH2 0x8C5 PUSH2 0x1850 JUMP JUMPDEST JUMPDEST PUSH1 0x20 MUL PUSH1 0x20 ADD ADD MLOAD SWAP1 DUP2 ISZERO MUL SWAP1 PUSH1 0x40 MLOAD PUSH0 PUSH1 0x40 MLOAD DUP1 DUP4 SUB DUP2 DUP6 DUP9 DUP9 CALL SWAP4 POP POP POP POP ISZERO DUP1 ISZERO PUSH2 0x8F6 JUMPI RETURNDATASIZE PUSH0 DUP1 RETURNDATACOPY RETURNDATASIZE PUSH0 REVERT JUMPDEST POP DUP1 DUP1 PUSH1 0x1 ADD SWAP2 POP POP PUSH2 0x876 JUMP JUMPDEST POP PUSH1 0x5 PUSH0 SWAP1 SLOAD SWAP1 PUSH2 0x100 EXP SWAP1 DIV PUSH20 0xFFFFFFFFFFFFFFFFFFFFFFFFFFFFFFFFFFFFFFFF AND PUSH20 0xFFFFFFFFFFFFFFFFFFFFFFFFFFFFFFFFFFFFFFFF AND PUSH32 0xACEA6060A5AE248721515200EFC5C427AE94F53CDB0141C7DAE477AC058589AA DUP4 DUP4 PUSH1 0x40 MLOAD PUSH2 0x96E SWAP3 SWAP2 SWAP1 PUSH2 0x1A4B JUMP JUMPDEST PUSH1 0x40 MLOAD DUP1 SWAP2 SUB SWAP1 LOG2 POP POP POP POP POP POP POP JUMP JUMPDEST PUSH0 DUP1 PUSH1 0x4 DUP4 PUSH1 0x40 MLOAD PUSH2 0x991 SWAP2 SWAP1 PUSH2 0x1ABA JUMP JUMPDEST SWAP1 DUP2 MSTORE PUSH1 0x20 ADD PUSH1 0x40 MLOAD DUP1 SWAP2 SUB SWAP1 KECCAK256 PUSH0 SWAP1 SLOAD SWAP1 PUSH2 0x100 EXP SWAP1 DIV PUSH1 0xFF AND PUSH2 0x9EB JUMPI PUSH1 0x40 MLOAD PUSH32 0x8C379A000000000000000000000000000000000000000000000000000000000 DUP2 MSTORE PUSH1 0x4 ADD PUSH2 0x9E2 SWAP1 PUSH2 0x1B1A JUMP JUMPDEST PUSH1 0x40 MLOAD DUP1 SWAP2 SUB SWAP1 REVERT JUMPDEST PUSH0 JUMPDEST PUSH1 0x3 DUP1 SLOAD SWAP1 POP DUP2 LT ISZERO PUSH2 0xABC JUMPI DUP4 DUP1 MLOAD SWAP1 PUSH1 0x20 ADD KECCAK256 PUSH1 0x3 DUP3 DUP2 SLOAD DUP2 LT PUSH2 0xA16 JUMPI PUSH2 0xA15 PUSH2 0x1850 JUMP JUMPDEST JUMPDEST SWAP1 PUSH0 MSTORE PUSH1 0x20 PUSH0 KECCAK256 SWAP1 PUSH1 0x3 MUL ADD PUSH0 ADD PUSH1 0x40 MLOAD PUSH2 0xA31 SWAP2 SWAP1 PUSH2 0x1C31 JUMP JUMPDEST PUSH1 0x40 MLOAD DUP1 SWAP2 SUB SWAP1 KECCAK256 SUB PUSH2 0xAAF JUMPI PUSH1 0x3 DUP2 DUP2 SLOAD DUP2 LT PUSH2 0xA52 JUMPI PUSH2 0xA51 PUSH2 0x1850 JUMP JUMPDEST JUMPDEST SWAP1 PUSH0 MSTORE PUSH1 0x20 PUSH0 KECCAK256 SWAP1 PUSH1 0x3 MUL ADD PUSH1 0x1 ADD SLOAD PUSH1 0x3 DUP3 DUP2 SLOAD DUP2 LT PUSH2 0xA76 JUMPI PUSH2 0xA75 PUSH2 0x1850 JUMP JUMPDEST JUMPDEST SWAP1 PUSH0 MSTORE PUSH1 0x20 PUSH0 KECCAK256 SWAP1 PUSH1 0x3 MUL ADD PUSH1 0x2 ADD PUSH0 SWAP1 SLOAD SWAP1 PUSH2 0x100 EXP SWAP1 DIV PUSH20 0xFFFFFFFFFFFFFFFFFFFFFFFFFFFFFFFFFFFFFFFF AND SWAP3 POP SWAP3 POP POP PUSH2 0xAF8 JUMP JUMPDEST DUP1 DUP1 PUSH1 0x1 ADD SWAP2 POP POP PUSH2 0x9ED JUMP JUMPDEST POP PUSH1 0x40 MLOAD PUSH32 0x8C379A000000000000000000000000000000000000000000000000000000000 DUP2 MSTORE PUSH1 0x4 ADD PUSH2 0xAEF SWAP1 PUSH2 0x1CB7 JUMP JUMPDEST PUSH1 0x40 MLOAD DUP1 SWAP2 SUB SWAP1 REVERT JUMPDEST SWAP2 POP SWAP2 JUMP JUMPDEST PUSH1 0x60 PUSH0 DUP1 PUSH1 0x3 DUP1 SLOAD SWAP1 POP DUP5 LT PUSH2 0xB48 JUMPI PUSH1 0x40 MLOAD PUSH32 0x8C379A000000000000000000000000000000000000000000000000000000000 DUP2 MSTORE PUSH1 0x4 ADD PUSH2 0xB3F SWAP1 PUSH2 0x1D1F JUMP JUMPDEST PUSH1 0x40 MLOAD DUP1 SWAP2 SUB SWAP1 REVERT JUMPDEST PUSH0 PUSH1 0x3 DUP6 DUP2 SLOAD DUP2 LT PUSH2 0xB5D JUMPI PUSH2 0xB5C PUSH2 0x1850 JUMP JUMPDEST JUMPDEST SWAP1 PUSH0 MSTORE PUSH1 0x20 PUSH0 KECCAK256 SWAP1 PUSH1 0x3 MUL ADD PUSH1 0x40 MLOAD DUP1 PUSH1 0x60 ADD PUSH1 0x40 MSTORE SWAP1 DUP2 PUSH0 DUP3 ADD DUP1 SLOAD PUSH2 0xB83 SWAP1 PUSH2 0x1B65 JUMP JUMPDEST DUP1 PUSH1 0x1F ADD PUSH1 0x20 DUP1 SWAP2 DIV MUL PUSH1 0x20 ADD PUSH1 0x40 MLOAD SWAP1 DUP2 ADD PUSH1 0x40 MSTORE DUP1 SWAP3 SWAP2 SWAP1 DUP2 DUP2 MSTORE PUSH1 0x20 ADD DUP3 DUP1 SLOAD PUSH2 0xBAF SWAP1 PUSH2 0x1B65 JUMP JUMPDEST DUP1 ISZERO PUSH2 0xBFA JUMPI DUP1 PUSH1 0x1F LT PUSH2 0xBD1 JUMPI PUSH2 0x100 DUP1 DUP4 SLOAD DIV MUL DUP4 MSTORE SWAP2 PUSH1 0x20 ADD SWAP2 PUSH2 0xBFA JUMP JUMPDEST DUP3 ADD SWAP2 SWAP1 PUSH0 MSTORE PUSH1 0x20 PUSH0 KECCAK256 SWAP1 JUMPDEST DUP2 SLOAD DUP2 MSTORE SWAP1 PUSH1 0x1 ADD SWAP1 PUSH1 0x20 ADD DUP1 DUP4 GT PUSH2 0xBDD JUMPI DUP3 SWAP1 SUB PUSH1 0x1F AND DUP3 ADD SWAP2 JUMPDEST POP POP POP POP POP DUP2 MSTORE PUSH1 0x20 ADD PUSH1 0x1 DUP3 ADD SLOAD DUP2 MSTORE PUSH1 0x20 ADD PUSH1 0x2 DUP3 ADD PUSH0 SWAP1 SLOAD SWAP1 PUSH2 0x100 EXP SWAP1 DIV PUSH20 0xFFFFFFFFFFFFFFFFFFFFFFFFFFFFFFFFFFFFFFFF AND PUSH20 0xFFFFFFFFFFFFFFFFFFFFFFFFFFFFFFFFFFFFFFFF AND PUSH20 0xFFFFFFFFFFFFFFFFFFFFFFFFFFFFFFFFFFFFFFFF AND DUP2 MSTORE POP POP SWAP1 POP DUP1 PUSH0 ADD MLOAD DUP2 PUSH1 0x20 ADD MLOAD DUP3 PUSH1 0x40 ADD MLOAD SWAP4 POP SWAP4 POP SWAP4 POP POP SWAP2 SWAP4 SWAP1 SWAP3 POP JUMP JUMPDEST PUSH1 0x5 PUSH0 SWAP1 SLOAD SWAP1 PUSH2 0x100 EXP SWAP1 DIV PUSH20 0xFFFFFFFFFFFFFFFFFFFFFFFFFFFFFFFFFFFFFFFF AND PUSH20 0xFFFFFFFFFFFFFFFFFFFFFFFFFFFFFFFFFFFFFFFF AND CALLER PUSH20 0xFFFFFFFFFFFFFFFFFFFFFFFFFFFFFFFFFFFFFFFF AND EQ PUSH2 0xD0F JUMPI PUSH1 0x40 MLOAD PUSH32 0x8C379A000000000000000000000000000000000000000000000000000000000 DUP2 MSTORE PUSH1 0x4 ADD PUSH2 0xD06 SWAP1 PUSH2 0x173C JUMP JUMPDEST PUSH1 0x40 MLOAD DUP1 SWAP2 SUB SWAP1 REVERT JUMPDEST DUP1 PUSH1 0x1 DUP2 SWAP1 SSTORE POP PUSH32 0x109CD21DC4E5E640485F5E7E7D11E3FACF5B1CE3B4F327EF4751EE24A0AF62AC PUSH1 0x1 SLOAD PUSH1 0x40 MLOAD PUSH2 0xD47 SWAP2 SWAP1 PUSH2 0x167A JUMP JUMPDEST PUSH1 0x40 MLOAD DUP1 SWAP2 SUB SWAP1 LOG1 POP JUMP JUMPDEST PUSH1 0x1 SLOAD DUP2 JUMP JUMPDEST PUSH0 PUSH1 0x2 SLOAD SWAP1 POP SWAP1 JUMP JUMPDEST PUSH0 PUSH1 0x1 SLOAD SWAP1 POP SWAP1 JUMP JUMPDEST PUSH0 PUSH1 0x3 DUP1 SLOAD SWAP1 POP SWAP1 POP SWAP1 JUMP JUMPDEST PUSH1 0x5 PUSH0 SWAP1 SLOAD SWAP1 PUSH2 0x100 EXP SWAP1 DIV PUSH20 0xFFFFFFFFFFFFFFFFFFFFFFFFFFFFFFFFFFFFFFFF AND DUP2 JUMP JUMPDEST PUSH1 0x4 DUP2 PUSH1 0x40 MLOAD PUSH2 0xDAB SWAP2 SWAP1 PUSH2 0x1ABA JUMP JUMPDEST SWAP1 DUP2 MSTORE PUSH1 0x20 ADD PUSH1 0x40 MLOAD DUP1 SWAP2 SUB SWAP1 KECCAK256 PUSH0 SWAP1 SLOAD SWAP1 PUSH2 0x100 EXP SWAP1 DIV PUSH1 0xFF AND ISZERO PUSH2 0xE06 JUMPI PUSH1 0x40 MLOAD PUSH32 0x8C379A000000000000000000000000000000000000000000000000000000000 DUP2 MSTORE PUSH1 0x4 ADD PUSH2 0xDFD SWAP1 PUSH2 0x1D87 JUMP JUMPDEST PUSH1 0x40 MLOAD DUP1 SWAP2 SUB SWAP1 REVERT JUMPDEST CALLVALUE PUSH1 0x1 PUSH0 SLOAD PUSH2 0xE15 SWAP2 SWAP1 PUSH2 0x18AA JUMP JUMPDEST LT DUP1 ISZERO PUSH2 0xE22 JUMPI POP PUSH0 SLOAD CALLVALUE LT JUMPDEST ISZERO PUSH2 0xE59 JUMPI PUSH1 0x40 MLOAD PUSH32 0xBD4E069500000000000000000000000000000000000000000000000000000000 DUP2 MSTORE PUSH1 0x4 ADD PUSH1 0x40 MLOAD DUP1 SWAP2 SUB SWAP1 REVERT JUMPDEST PUSH1 0x5 PUSH0 SWAP1 SLOAD SWAP1 PUSH2 0x100 EXP SWAP1 DIV PUSH20 0xFFFFFFFFFFFFFFFFFFFFFFFFFFFFFFFFFFFFFFFF AND PUSH20 0xFFFFFFFFFFFFFFFFFFFFFFFFFFFFFFFFFFFFFFFF AND PUSH2 0x8FC CALLVALUE SWAP1 DUP2 ISZERO MUL SWAP1 PUSH1 0x40 MLOAD PUSH0 PUSH1 0x40 MLOAD DUP1 DUP4 SUB DUP2 DUP6 DUP9 DUP9 CALL SWAP4 POP POP POP POP ISZERO DUP1 ISZERO PUSH2 0xEBD JUMPI RETURNDATASIZE PUSH0 DUP1 RETURNDATACOPY RETURNDATASIZE PUSH0 REVERT JUMPDEST POP PUSH1 0x3 PUSH1 0x40 MLOAD DUP1 PUSH1 0x60 ADD PUSH1 0x40 MSTORE DUP1 DUP4 DUP2 MSTORE PUSH1 0x20 ADD TIMESTAMP DUP2 MSTORE PUSH1 0x20 ADD CALLER PUSH20 0xFFFFFFFFFFFFFFFFFFFFFFFFFFFFFFFFFFFFFFFF AND DUP2 MSTORE POP SWAP1 DUP1 PUSH1 0x1 DUP2 SLOAD ADD DUP1 DUP3 SSTORE DUP1 SWAP2 POP POP PUSH1 0x1 SWAP1 SUB SWAP1 PUSH0 MSTORE PUSH1 0x20 PUSH0 KECCAK256 SWAP1 PUSH1 0x3 MUL ADD PUSH0 SWAP1 SWAP2 SWAP1 SWAP2 SWAP1 SWAP2 POP PUSH0 DUP3 ADD MLOAD DUP2 PUSH0 ADD SWAP1 DUP2 PUSH2 0xF2A SWAP2 SWAP1 PUSH2 0x1F42 JUMP JUMPDEST POP PUSH1 0x20 DUP3 ADD MLOAD DUP2 PUSH1 0x1 ADD SSTORE PUSH1 0x40 DUP3 ADD MLOAD DUP2 PUSH1 0x2 ADD PUSH0 PUSH2 0x100 EXP DUP2 SLOAD DUP2 PUSH20 0xFFFFFFFFFFFFFFFFFFFFFFFFFFFFFFFFFFFFFFFF MUL NOT AND SWAP1 DUP4 PUSH20 0xFFFFFFFFFFFFFFFFFFFFFFFFFFFFFFFFFFFFFFFF AND MUL OR SWAP1 SSTORE POP POP POP CALLER PUSH20 0xFFFFFFFFFFFFFFFFFFFFFFFFFFFFFFFFFFFFFFFF AND PUSH32 0xE13346E29C870B2B0D2AA3F5335A9CECD4044E700A0902F6543CEA1C76D024CA CALLVALUE PUSH1 0x40 MLOAD PUSH2 0xFC3 SWAP2 SWAP1 PUSH2 0x167A JUMP JUMPDEST PUSH1 0x40 MLOAD DUP1 SWAP2 SUB SWAP1 LOG2 PUSH2 0xFE0 CALLVALUE PUSH1 0x2 SLOAD PUSH2 0x1114 SWAP1 SWAP2 SWAP1 PUSH4 0xFFFFFFFF AND JUMP JUMPDEST PUSH1 0x2 DUP2 SWAP1 SSTORE POP PUSH1 0x1 SLOAD PUSH1 0x2 SLOAD GT ISZERO PUSH2 0x1035 JUMPI PUSH1 0x2 SLOAD PUSH1 0x1 DUP2 SWAP1 SSTORE POP PUSH32 0x149086BFE57530C105768F33BD15EE9884E9B0F1D22A75FB8AC70AD894341073 PUSH1 0x1 SLOAD PUSH1 0x40 MLOAD PUSH2 0x102C SWAP2 SWAP1 PUSH2 0x167A JUMP JUMPDEST PUSH1 0x40 MLOAD DUP1 SWAP2 SUB SWAP1 LOG1 JUMPDEST PUSH1 0x1 PUSH1 0x4 DUP3 PUSH1 0x40 MLOAD PUSH2 0x1047 SWAP2 SWAP1 PUSH2 0x1ABA JUMP JUMPDEST SWAP1 DUP2 MSTORE PUSH1 0x20 ADD PUSH1 0x40 MLOAD DUP1 SWAP2 SUB SWAP1 KECCAK256 PUSH0 PUSH2 0x100 EXP DUP2 SLOAD DUP2 PUSH1 0xFF MUL NOT AND SWAP1 DUP4 ISZERO ISZERO MUL OR SWAP1 SSTORE POP POP JUMP JUMPDEST PUSH1 0x2 SLOAD DUP2 JUMP JUMPDEST PUSH0 DUP1 SLOAD SWAP1 POP SWAP1 JUMP JUMPDEST PUSH1 0x5 PUSH0 SWAP1 SLOAD SWAP1 PUSH2 0x100 EXP SWAP1 DIV PUSH20 0xFFFFFFFFFFFFFFFFFFFFFFFFFFFFFFFFFFFFFFFF AND PUSH20 0xFFFFFFFFFFFFFFFFFFFFFFFFFFFFFFFFFFFFFFFF AND CALLER PUSH20 0xFFFFFFFFFFFFFFFFFFFFFFFFFFFFFFFFFFFFFFFF AND EQ PUSH2 0x110B JUMPI PUSH1 0x40 MLOAD PUSH32 0x8C379A000000000000000000000000000000000000000000000000000000000 DUP2 MSTORE PUSH1 0x4 ADD PUSH2 0x1102 SWAP1 PUSH2 0x173C JUMP JUMPDEST PUSH1 0x40 MLOAD DUP1 SWAP2 SUB SWAP1 REVERT JUMPDEST DUP1 PUSH0 DUP2 SWAP1 SSTORE POP POP JUMP JUMPDEST PUSH0 DUP2 DUP4 PUSH2 0x1121 SWAP2 SWAP1 PUSH2 0x2011 JUMP JUMPDEST SWAP1 POP SWAP3 SWAP2 POP POP JUMP JUMPDEST PUSH0 DUP2 DUP4 PUSH2 0x1136 SWAP2 SWAP1 PUSH2 0x2044 JUMP JUMPDEST SWAP1 POP SWAP3 SWAP2 POP POP JUMP JUMPDEST PUSH0 DUP2 DUP4 PUSH2 0x114B SWAP2 SWAP1 PUSH2 0x20B2 JUMP JUMPDEST SWAP1 POP SWAP3 SWAP2 POP POP JUMP JUMPDEST PUSH0 PUSH1 0x40 MLOAD SWAP1 POP SWAP1 JUMP JUMPDEST PUSH0 DUP1 REVERT JUMPDEST PUSH0 DUP1 REVERT JUMPDEST PUSH0 DUP1 REVERT JUMPDEST PUSH0 PUSH1 0x1F NOT PUSH1 0x1F DUP4 ADD AND SWAP1 POP SWAP2 SWAP1 POP JUMP JUMPDEST PUSH32 0x4E487B7100000000000000000000000000000000000000000000000000000000 PUSH0 MSTORE PUSH1 0x41 PUSH1 0x4 MSTORE PUSH1 0x24 PUSH0 REVERT JUMPDEST PUSH2 0x11AE DUP3 PUSH2 0x1168 JUMP JUMPDEST DUP2 ADD DUP2 DUP2 LT PUSH8 0xFFFFFFFFFFFFFFFF DUP3 GT OR ISZERO PUSH2 0x11CD JUMPI PUSH2 0x11CC PUSH2 0x1178 JUMP JUMPDEST JUMPDEST DUP1 PUSH1 0x40 MSTORE POP POP POP JUMP JUMPDEST PUSH0 PUSH2 0x11DF PUSH2 0x1153 JUMP JUMPDEST SWAP1 POP PUSH2 0x11EB DUP3 DUP3 PUSH2 0x11A5 JUMP JUMPDEST SWAP2 SWAP1 POP JUMP JUMPDEST PUSH0 PUSH8 0xFFFFFFFFFFFFFFFF DUP3 GT ISZERO PUSH2 0x120A JUMPI PUSH2 0x1209 PUSH2 0x1178 JUMP JUMPDEST JUMPDEST PUSH1 0x20 DUP3 MUL SWAP1 POP PUSH1 0x20 DUP2 ADD SWAP1 POP SWAP2 SWAP1 POP JUMP JUMPDEST PUSH0 DUP1 REVERT JUMPDEST PUSH0 PUSH20 0xFFFFFFFFFFFFFFFFFFFFFFFFFFFFFFFFFFFFFFFF DUP3 AND SWAP1 POP SWAP2 SWAP1 POP JUMP JUMPDEST PUSH0 PUSH2 0x1248 DUP3 PUSH2 0x121F JUMP JUMPDEST SWAP1 POP SWAP2 SWAP1 POP JUMP JUMPDEST PUSH2 0x1258 DUP2 PUSH2 0x123E JUMP JUMPDEST DUP2 EQ PUSH2 0x1262 JUMPI PUSH0 DUP1 REVERT JUMPDEST POP JUMP JUMPDEST PUSH0 DUP2 CALLDATALOAD SWAP1 POP PUSH2 0x1273 DUP2 PUSH2 0x124F JUMP JUMPDEST SWAP3 SWAP2 POP POP JUMP JUMPDEST PUSH0 PUSH2 0x128B PUSH2 0x1286 DUP5 PUSH2 0x11F0 JUMP JUMPDEST PUSH2 0x11D6 JUMP JUMPDEST SWAP1 POP DUP1 DUP4 DUP3 MSTORE PUSH1 0x20 DUP3 ADD SWAP1 POP PUSH1 0x20 DUP5 MUL DUP4 ADD DUP6 DUP2 GT ISZERO PUSH2 0x12AE JUMPI PUSH2 0x12AD PUSH2 0x121B JUMP JUMPDEST JUMPDEST DUP4 JUMPDEST DUP2 DUP2 LT ISZERO PUSH2 0x12D7 JUMPI DUP1 PUSH2 0x12C3 DUP9 DUP3 PUSH2 0x1265 JUMP JUMPDEST DUP5 MSTORE PUSH1 0x20 DUP5 ADD SWAP4 POP POP PUSH1 0x20 DUP2 ADD SWAP1 POP PUSH2 0x12B0 JUMP JUMPDEST POP POP POP SWAP4 SWAP3 POP POP POP JUMP JUMPDEST PUSH0 DUP3 PUSH1 0x1F DUP4 ADD SLT PUSH2 0x12F5 JUMPI PUSH2 0x12F4 PUSH2 0x1164 JUMP JUMPDEST JUMPDEST DUP2 CALLDATALOAD PUSH2 0x1305 DUP5 DUP3 PUSH1 0x20 DUP7 ADD PUSH2 0x1279 JUMP JUMPDEST SWAP2 POP POP SWAP3 SWAP2 POP POP JUMP JUMPDEST PUSH0 PUSH8 0xFFFFFFFFFFFFFFFF DUP3 GT ISZERO PUSH2 0x1328 JUMPI PUSH2 0x1327 PUSH2 0x1178 JUMP JUMPDEST JUMPDEST PUSH1 0x20 DUP3 MUL SWAP1 POP PUSH1 0x20 DUP2 ADD SWAP1 POP SWAP2 SWAP1 POP JUMP JUMPDEST PUSH0 DUP2 SWAP1 POP SWAP2 SWAP1 POP JUMP JUMPDEST PUSH2 0x134B DUP2 PUSH2 0x1339 JUMP JUMPDEST DUP2 EQ PUSH2 0x1355 JUMPI PUSH0 DUP1 REVERT JUMPDEST POP JUMP JUMPDEST PUSH0 DUP2 CALLDATALOAD SWAP1 POP PUSH2 0x1366 DUP2 PUSH2 0x1342 JUMP JUMPDEST SWAP3 SWAP2 POP POP JUMP JUMPDEST PUSH0 PUSH2 0x137E PUSH2 0x1379 DUP5 PUSH2 0x130E JUMP JUMPDEST PUSH2 0x11D6 JUMP JUMPDEST SWAP1 POP DUP1 DUP4 DUP3 MSTORE PUSH1 0x20 DUP3 ADD SWAP1 POP PUSH1 0x20 DUP5 MUL DUP4 ADD DUP6 DUP2 GT ISZERO PUSH2 0x13A1 JUMPI PUSH2 0x13A0 PUSH2 0x121B JUMP JUMPDEST JUMPDEST DUP4 JUMPDEST DUP2 DUP2 LT ISZERO PUSH2 0x13CA JUMPI DUP1 PUSH2 0x13B6 DUP9 DUP3 PUSH2 0x1358 JUMP JUMPDEST DUP5 MSTORE PUSH1 0x20 DUP5 ADD SWAP4 POP POP PUSH1 0x20 DUP2 ADD SWAP1 POP PUSH2 0x13A3 JUMP JUMPDEST POP POP POP SWAP4 SWAP3 POP POP POP JUMP JUMPDEST PUSH0 DUP3 PUSH1 0x1F DUP4 ADD SLT PUSH2 0x13E8 JUMPI PUSH2 0x13E7 PUSH2 0x1164 JUMP JUMPDEST JUMPDEST DUP2 CALLDATALOAD PUSH2 0x13F8 DUP5 DUP3 PUSH1 0x20 DUP7 ADD PUSH2 0x136C JUMP JUMPDEST SWAP2 POP POP SWAP3 SWAP2 POP POP JUMP JUMPDEST PUSH0 DUP1 PUSH1 0x40 DUP4 DUP6 SUB SLT ISZERO PUSH2 0x1417 JUMPI PUSH2 0x1416 PUSH2 0x115C JUMP JUMPDEST JUMPDEST PUSH0 DUP4 ADD CALLDATALOAD PUSH8 0xFFFFFFFFFFFFFFFF DUP2 GT ISZERO PUSH2 0x1434 JUMPI PUSH2 0x1433 PUSH2 0x1160 JUMP JUMPDEST JUMPDEST PUSH2 0x1440 DUP6 DUP3 DUP7 ADD PUSH2 0x12E1 JUMP JUMPDEST SWAP3 POP POP PUSH1 0x20 DUP4 ADD CALLDATALOAD PUSH8 0xFFFFFFFFFFFFFFFF DUP2 GT ISZERO PUSH2 0x1461 JUMPI PUSH2 0x1460 PUSH2 0x1160 JUMP JUMPDEST JUMPDEST PUSH2 0x146D DUP6 DUP3 DUP7 ADD PUSH2 0x13D4 JUMP JUMPDEST SWAP2 POP POP SWAP3 POP SWAP3 SWAP1 POP JUMP JUMPDEST PUSH0 DUP1 REVERT JUMPDEST PUSH0 PUSH8 0xFFFFFFFFFFFFFFFF DUP3 GT ISZERO PUSH2 0x1495 JUMPI PUSH2 0x1494 PUSH2 0x1178 JUMP JUMPDEST JUMPDEST PUSH2 0x149E DUP3 PUSH2 0x1168 JUMP JUMPDEST SWAP1 POP PUSH1 0x20 DUP2 ADD SWAP1 POP SWAP2 SWAP1 POP JUMP JUMPDEST DUP3 DUP2 DUP4 CALLDATACOPY PUSH0 DUP4 DUP4 ADD MSTORE POP POP POP JUMP JUMPDEST PUSH0 PUSH2 0x14CB PUSH2 0x14C6 DUP5 PUSH2 0x147B JUMP JUMPDEST PUSH2 0x11D6 JUMP JUMPDEST SWAP1 POP DUP3 DUP2 MSTORE PUSH1 0x20 DUP2 ADD DUP5 DUP5 DUP5 ADD GT ISZERO PUSH2 0x14E7 JUMPI PUSH2 0x14E6 PUSH2 0x1477 JUMP JUMPDEST JUMPDEST PUSH2 0x14F2 DUP5 DUP3 DUP6 PUSH2 0x14AB JUMP JUMPDEST POP SWAP4 SWAP3 POP POP POP JUMP JUMPDEST PUSH0 DUP3 PUSH1 0x1F DUP4 ADD SLT PUSH2 0x150E JUMPI PUSH2 0x150D PUSH2 0x1164 JUMP JUMPDEST JUMPDEST DUP2 CALLDATALOAD PUSH2 0x151E DUP5 DUP3 PUSH1 0x20 DUP7 ADD PUSH2 0x14B9 JUMP JUMPDEST SWAP2 POP POP SWAP3 SWAP2 POP POP JUMP JUMPDEST PUSH0 PUSH1 0x20 DUP3 DUP5 SUB SLT ISZERO PUSH2 0x153C JUMPI PUSH2 0x153B PUSH2 0x115C JUMP JUMPDEST JUMPDEST PUSH0 DUP3 ADD CALLDATALOAD PUSH8 0xFFFFFFFFFFFFFFFF DUP2 GT ISZERO PUSH2 0x1559 JUMPI PUSH2 0x1558 PUSH2 0x1160 JUMP JUMPDEST JUMPDEST PUSH2 0x1565 DUP5 DUP3 DUP6 ADD PUSH2 0x14FA JUMP JUMPDEST SWAP2 POP POP SWAP3 SWAP2 POP POP JUMP JUMPDEST PUSH2 0x1577 DUP2 PUSH2 0x1339 JUMP JUMPDEST DUP3 MSTORE POP POP JUMP JUMPDEST PUSH2 0x1586 DUP2 PUSH2 0x123E JUMP JUMPDEST DUP3 MSTORE POP POP JUMP JUMPDEST PUSH0 PUSH1 0x40 DUP3 ADD SWAP1 POP PUSH2 0x159F PUSH0 DUP4 ADD DUP6 PUSH2 0x156E JUMP JUMPDEST PUSH2 0x15AC PUSH1 0x20 DUP4 ADD DUP5 PUSH2 0x157D JUMP JUMPDEST SWAP4 SWAP3 POP POP POP JUMP JUMPDEST PUSH0 PUSH1 0x20 DUP3 DUP5 SUB SLT ISZERO PUSH2 0x15C8 JUMPI PUSH2 0x15C7 PUSH2 0x115C JUMP JUMPDEST JUMPDEST PUSH0 PUSH2 0x15D5 DUP5 DUP3 DUP6 ADD PUSH2 0x1358 JUMP JUMPDEST SWAP2 POP POP SWAP3 SWAP2 POP POP JUMP JUMPDEST PUSH0 DUP2 MLOAD SWAP1 POP SWAP2 SWAP1 POP JUMP JUMPDEST PUSH0 DUP3 DUP3 MSTORE PUSH1 0x20 DUP3 ADD SWAP1 POP SWAP3 SWAP2 POP POP JUMP JUMPDEST DUP3 DUP2 DUP4 MCOPY PUSH0 DUP4 DUP4 ADD MSTORE POP POP POP JUMP JUMPDEST PUSH0 PUSH2 0x1610 DUP3 PUSH2 0x15DE JUMP JUMPDEST PUSH2 0x161A DUP2 DUP6 PUSH2 0x15E8 JUMP JUMPDEST SWAP4 POP PUSH2 0x162A DUP2 DUP6 PUSH1 0x20 DUP7 ADD PUSH2 0x15F8 JUMP JUMPDEST PUSH2 0x1633 DUP2 PUSH2 0x1168 JUMP JUMPDEST DUP5 ADD SWAP2 POP POP SWAP3 SWAP2 POP POP JUMP JUMPDEST PUSH0 PUSH1 0x60 DUP3 ADD SWAP1 POP DUP2 DUP2 SUB PUSH0 DUP4 ADD MSTORE PUSH2 0x1656 DUP2 DUP7 PUSH2 0x1606 JUMP JUMPDEST SWAP1 POP PUSH2 0x1665 PUSH1 0x20 DUP4 ADD DUP6 PUSH2 0x156E JUMP JUMPDEST PUSH2 0x1672 PUSH1 0x40 DUP4 ADD DUP5 PUSH2 0x157D JUMP JUMPDEST SWAP5 SWAP4 POP POP POP POP JUMP JUMPDEST PUSH0 PUSH1 0x20 DUP3 ADD SWAP1 POP PUSH2 0x168D PUSH0 DUP4 ADD DUP5 PUSH2 0x156E JUMP JUMPDEST SWAP3 SWAP2 POP POP JUMP JUMPDEST PUSH0 PUSH2 0x169D DUP3 PUSH2 0x121F JUMP JUMPDEST SWAP1 POP SWAP2 SWAP1 POP JUMP JUMPDEST PUSH2 0x16AD DUP2 PUSH2 0x1693 JUMP JUMPDEST DUP3 MSTORE POP POP JUMP JUMPDEST PUSH0 PUSH1 0x20 DUP3 ADD SWAP1 POP PUSH2 0x16C6 PUSH0 DUP4 ADD DUP5 PUSH2 0x16A4 JUMP JUMPDEST SWAP3 SWAP2 POP POP JUMP JUMPDEST PUSH32 0x4F6E6C79206F776E65722063616E2063616C6C20746869732066756E6374696F PUSH0 DUP3 ADD MSTORE PUSH32 0x6E00000000000000000000000000000000000000000000000000000000000000 PUSH1 0x20 DUP3 ADD MSTORE POP JUMP JUMPDEST PUSH0 PUSH2 0x1726 PUSH1 0x21 DUP4 PUSH2 0x15E8 JUMP JUMPDEST SWAP2 POP PUSH2 0x1731 DUP3 PUSH2 0x16CC JUMP JUMPDEST PUSH1 0x40 DUP3 ADD SWAP1 POP SWAP2 SWAP1 POP JUMP JUMPDEST PUSH0 PUSH1 0x20 DUP3 ADD SWAP1 POP DUP2 DUP2 SUB PUSH0 DUP4 ADD MSTORE PUSH2 0x1753 DUP2 PUSH2 0x171A JUMP JUMPDEST SWAP1 POP SWAP2 SWAP1 POP JUMP JUMPDEST PUSH32 0x4D7573742070726F766964652065786163746C79203320706172746963697061 PUSH0 DUP3 ADD MSTORE PUSH32 0x6E74730000000000000000000000000000000000000000000000000000000000 PUSH1 0x20 DUP3 ADD MSTORE POP JUMP JUMPDEST PUSH0 PUSH2 0x17B4 PUSH1 0x23 DUP4 PUSH2 0x15E8 JUMP JUMPDEST SWAP2 POP PUSH2 0x17BF DUP3 PUSH2 0x175A JUMP JUMPDEST PUSH1 0x40 DUP3 ADD SWAP1 POP SWAP2 SWAP1 POP JUMP JUMPDEST PUSH0 PUSH1 0x20 DUP3 ADD SWAP1 POP DUP2 DUP2 SUB PUSH0 DUP4 ADD MSTORE PUSH2 0x17E1 DUP2 PUSH2 0x17A8 JUMP JUMPDEST SWAP1 POP SWAP2 SWAP1 POP JUMP JUMPDEST PUSH32 0x4D7573742070726F76696465203420726174696F730000000000000000000000 PUSH0 DUP3 ADD MSTORE POP JUMP JUMPDEST PUSH0 PUSH2 0x181C PUSH1 0x15 DUP4 PUSH2 0x15E8 JUMP JUMPDEST SWAP2 POP PUSH2 0x1827 DUP3 PUSH2 0x17E8 JUMP JUMPDEST PUSH1 0x20 DUP3 ADD SWAP1 POP SWAP2 SWAP1 POP JUMP JUMPDEST PUSH0 PUSH1 0x20 DUP3 ADD SWAP1 POP DUP2 DUP2 SUB PUSH0 DUP4 ADD MSTORE PUSH2 0x1849 DUP2 PUSH2 0x1810 JUMP JUMPDEST SWAP1 POP SWAP2 SWAP1 POP JUMP JUMPDEST PUSH32 0x4E487B7100000000000000000000000000000000000000000000000000000000 PUSH0 MSTORE PUSH1 0x32 PUSH1 0x4 MSTORE PUSH1 0x24 PUSH0 REVERT JUMPDEST PUSH32 0x4E487B7100000000000000000000000000000000000000000000000000000000 PUSH0 MSTORE PUSH1 0x11 PUSH1 0x4 MSTORE PUSH1 0x24 PUSH0 REVERT JUMPDEST PUSH0 PUSH2 0x18B4 DUP3 PUSH2 0x1339 JUMP JUMPDEST SWAP2 POP PUSH2 0x18BF DUP4 PUSH2 0x1339 JUMP JUMPDEST SWAP3 POP DUP3 DUP3 SUB SWAP1 POP DUP2 DUP2 GT ISZERO PUSH2 0x18D7 JUMPI PUSH2 0x18D6 PUSH2 0x187D JUMP JUMPDEST JUMPDEST SWAP3 SWAP2 POP POP JUMP JUMPDEST PUSH0 DUP2 MLOAD SWAP1 POP SWAP2 SWAP1 POP JUMP JUMPDEST PUSH0 DUP3 DUP3 MSTORE PUSH1 0x20 DUP3 ADD SWAP1 POP SWAP3 SWAP2 POP POP JUMP JUMPDEST PUSH0 DUP2 SWAP1 POP PUSH1 0x20 DUP3 ADD SWAP1 POP SWAP2 SWAP1 POP JUMP JUMPDEST PUSH2 0x190F DUP2 PUSH2 0x123E JUMP JUMPDEST DUP3 MSTORE POP POP JUMP JUMPDEST PUSH0 PUSH2 0x1920 DUP4 DUP4 PUSH2 0x1906 JUMP JUMPDEST PUSH1 0x20 DUP4 ADD SWAP1 POP SWAP3 SWAP2 POP POP JUMP JUMPDEST PUSH0 PUSH1 0x20 DUP3 ADD SWAP1 POP SWAP2 SWAP1 POP JUMP JUMPDEST PUSH0 PUSH2 0x1942 DUP3 PUSH2 0x18DD JUMP JUMPDEST PUSH2 0x194C DUP2 DUP6 PUSH2 0x18E7 JUMP JUMPDEST SWAP4 POP PUSH2 0x1957 DUP4 PUSH2 0x18F7 JUMP JUMPDEST DUP1 PUSH0 JUMPDEST DUP4 DUP2 LT ISZERO PUSH2 0x1987 JUMPI DUP2 MLOAD PUSH2 0x196E DUP9 DUP3 PUSH2 0x1915 JUMP JUMPDEST SWAP8 POP PUSH2 0x1979 DUP4 PUSH2 0x192C JUMP JUMPDEST SWAP3 POP POP PUSH1 0x1 DUP2 ADD SWAP1 POP PUSH2 0x195A JUMP JUMPDEST POP DUP6 SWAP4 POP POP POP POP SWAP3 SWAP2 POP POP JUMP JUMPDEST PUSH0 DUP2 MLOAD SWAP1 POP SWAP2 SWAP1 POP JUMP JUMPDEST PUSH0 DUP3 DUP3 MSTORE PUSH1 0x20 DUP3 ADD SWAP1 POP SWAP3 SWAP2 POP POP JUMP JUMPDEST PUSH0 DUP2 SWAP1 POP PUSH1 0x20 DUP3 ADD SWAP1 POP SWAP2 SWAP1 POP JUMP JUMPDEST PUSH2 0x19C6 DUP2 PUSH2 0x1339 JUMP JUMPDEST DUP3 MSTORE POP POP JUMP JUMPDEST PUSH0 PUSH2 0x19D7 DUP4 DUP4 PUSH2 0x19BD JUMP JUMPDEST PUSH1 0x20 DUP4 ADD SWAP1 POP SWAP3 SWAP2 POP POP JUMP JUMPDEST PUSH0 PUSH1 0x20 DUP3 ADD SWAP1 POP SWAP2 SWAP1 POP JUMP JUMPDEST PUSH0 PUSH2 0x19F9 DUP3 PUSH2 0x1994 JUMP JUMPDEST PUSH2 0x1A03 DUP2 DUP6 PUSH2 0x199E JUMP JUMPDEST SWAP4 POP PUSH2 0x1A0E DUP4 PUSH2 0x19AE JUMP JUMPDEST DUP1 PUSH0 JUMPDEST DUP4 DUP2 LT ISZERO PUSH2 0x1A3E JUMPI DUP2 MLOAD PUSH2 0x1A25 DUP9 DUP3 PUSH2 0x19CC JUMP JUMPDEST SWAP8 POP PUSH2 0x1A30 DUP4 PUSH2 0x19E3 JUMP JUMPDEST SWAP3 POP POP PUSH1 0x1 DUP2 ADD SWAP1 POP PUSH2 0x1A11 JUMP JUMPDEST POP DUP6 SWAP4 POP POP POP POP SWAP3 SWAP2 POP POP JUMP JUMPDEST PUSH0 PUSH1 0x40 DUP3 ADD SWAP1 POP DUP2 DUP2 SUB PUSH0 DUP4 ADD MSTORE PUSH2 0x1A63 DUP2 DUP6 PUSH2 0x1938 JUMP JUMPDEST SWAP1 POP DUP2 DUP2 SUB PUSH1 0x20 DUP4 ADD MSTORE PUSH2 0x1A77 DUP2 DUP5 PUSH2 0x19EF JUMP JUMPDEST SWAP1 POP SWAP4 SWAP3 POP POP POP JUMP JUMPDEST PUSH0 DUP2 SWAP1 POP SWAP3 SWAP2 POP POP JUMP JUMPDEST PUSH0 PUSH2 0x1A94 DUP3 PUSH2 0x15DE JUMP JUMPDEST PUSH2 0x1A9E DUP2 DUP6 PUSH2 0x1A80 JUMP JUMPDEST SWAP4 POP PUSH2 0x1AAE DUP2 DUP6 PUSH1 0x20 DUP7 ADD PUSH2 0x15F8 JUMP JUMPDEST DUP1 DUP5 ADD SWAP2 POP POP SWAP3 SWAP2 POP POP JUMP JUMPDEST PUSH0 PUSH2 0x1AC5 DUP3 DUP5 PUSH2 0x1A8A JUMP JUMPDEST SWAP2 POP DUP2 SWAP1 POP SWAP3 SWAP2 POP POP JUMP JUMPDEST PUSH32 0x4E616D65206E6F7420666F756E64000000000000000000000000000000000000 PUSH0 DUP3 ADD MSTORE POP JUMP JUMPDEST PUSH0 PUSH2 0x1B04 PUSH1 0xE DUP4 PUSH2 0x15E8 JUMP JUMPDEST SWAP2 POP PUSH2 0x1B0F DUP3 PUSH2 0x1AD0 JUMP JUMPDEST PUSH1 0x20 DUP3 ADD SWAP1 POP SWAP2 SWAP1 POP JUMP JUMPDEST PUSH0 PUSH1 0x20 DUP3 ADD SWAP1 POP DUP2 DUP2 SUB PUSH0 DUP4 ADD MSTORE PUSH2 0x1B31 DUP2 PUSH2 0x1AF8 JUMP JUMPDEST SWAP1 POP SWAP2 SWAP1 POP JUMP JUMPDEST PUSH32 0x4E487B7100000000000000000000000000000000000000000000000000000000 PUSH0 MSTORE PUSH1 0x22 PUSH1 0x4 MSTORE PUSH1 0x24 PUSH0 REVERT JUMPDEST PUSH0 PUSH1 0x2 DUP3 DIV SWAP1 POP PUSH1 0x1 DUP3 AND DUP1 PUSH2 0x1B7C JUMPI PUSH1 0x7F DUP3 AND SWAP2 POP JUMPDEST PUSH1 0x20 DUP3 LT DUP2 SUB PUSH2 0x1B8F JUMPI PUSH2 0x1B8E PUSH2 0x1B38 JUMP JUMPDEST JUMPDEST POP SWAP2 SWAP1 POP JUMP JUMPDEST PUSH0 DUP2 SWAP1 POP SWAP3 SWAP2 POP POP JUMP JUMPDEST PUSH0 DUP2 SWAP1 POP DUP2 PUSH0 MSTORE PUSH1 0x20 PUSH0 KECCAK256 SWAP1 POP SWAP2 SWAP1 POP JUMP JUMPDEST PUSH0 DUP2 SLOAD PUSH2 0x1BBD DUP2 PUSH2 0x1B65 JUMP JUMPDEST PUSH2 0x1BC7 DUP2 DUP7 PUSH2 0x1B95 JUMP JUMPDEST SWAP5 POP PUSH1 0x1 DUP3 AND PUSH0 DUP2 EQ PUSH2 0x1BE1 JUMPI PUSH1 0x1 DUP2 EQ PUSH2 0x1BF6 JUMPI PUSH2 0x1C28 JUMP JUMPDEST PUSH1 0xFF NOT DUP4 AND DUP7 MSTORE DUP2 ISZERO ISZERO DUP3 MUL DUP7 ADD SWAP4 POP PUSH2 0x1C28 JUMP JUMPDEST PUSH2 0x1BFF DUP6 PUSH2 0x1B9F JUMP JUMPDEST PUSH0 JUMPDEST DUP4 DUP2 LT ISZERO PUSH2 0x1C20 JUMPI DUP2 SLOAD DUP2 DUP10 ADD MSTORE PUSH1 0x1 DUP3 ADD SWAP2 POP PUSH1 0x20 DUP2 ADD SWAP1 POP PUSH2 0x1C01 JUMP JUMPDEST DUP4 DUP9 ADD SWAP6 POP POP POP JUMPDEST POP POP POP SWAP3 SWAP2 POP POP JUMP JUMPDEST PUSH0 PUSH2 0x1C3C DUP3 DUP5 PUSH2 0x1BB1 JUMP JUMPDEST SWAP2 POP DUP2 SWAP1 POP SWAP3 SWAP2 POP POP JUMP JUMPDEST PUSH32 0x5265636F7264206E6F7420666F756E6420666F72207468652070726F76696465 PUSH0 DUP3 ADD MSTORE PUSH32 0x6420736561726368206E616D6500000000000000000000000000000000000000 PUSH1 0x20 DUP3 ADD MSTORE POP JUMP JUMPDEST PUSH0 PUSH2 0x1CA1 PUSH1 0x2D DUP4 PUSH2 0x15E8 JUMP JUMPDEST SWAP2 POP PUSH2 0x1CAC DUP3 PUSH2 0x1C47 JUMP JUMPDEST PUSH1 0x40 DUP3 ADD SWAP1 POP SWAP2 SWAP1 POP JUMP JUMPDEST PUSH0 PUSH1 0x20 DUP3 ADD SWAP1 POP DUP2 DUP2 SUB PUSH0 DUP4 ADD MSTORE PUSH2 0x1CCE DUP2 PUSH2 0x1C95 JUMP JUMPDEST SWAP1 POP SWAP2 SWAP1 POP JUMP JUMPDEST PUSH32 0x496E646578206F7574206F662072616E67650000000000000000000000000000 PUSH0 DUP3 ADD MSTORE POP JUMP JUMPDEST PUSH0 PUSH2 0x1D09 PUSH1 0x12 DUP4 PUSH2 0x15E8 JUMP JUMPDEST SWAP2 POP PUSH2 0x1D14 DUP3 PUSH2 0x1CD5 JUMP JUMPDEST PUSH1 0x20 DUP3 ADD SWAP1 POP SWAP2 SWAP1 POP JUMP JUMPDEST PUSH0 PUSH1 0x20 DUP3 ADD SWAP1 POP DUP2 DUP2 SUB PUSH0 DUP4 ADD MSTORE PUSH2 0x1D36 DUP2 PUSH2 0x1CFD JUMP JUMPDEST SWAP1 POP SWAP2 SWAP1 POP JUMP JUMPDEST PUSH32 0x5061727469636970616E7420697320616C726561647920656E726F6C6C656400 PUSH0 DUP3 ADD MSTORE POP JUMP JUMPDEST PUSH0 PUSH2 0x1D71 PUSH1 0x1F DUP4 PUSH2 0x15E8 JUMP JUMPDEST SWAP2 POP PUSH2 0x1D7C DUP3 PUSH2 0x1D3D JUMP JUMPDEST PUSH1 0x20 DUP3 ADD SWAP1 POP SWAP2 SWAP1 POP JUMP JUMPDEST PUSH0 PUSH1 0x20 DUP3 ADD SWAP1 POP DUP2 DUP2 SUB PUSH0 DUP4 ADD MSTORE PUSH2 0x1D9E DUP2 PUSH2 0x1D65 JUMP JUMPDEST SWAP1 POP SWAP2 SWAP1 POP JUMP JUMPDEST PUSH0 DUP2 SWAP1 POP DUP2 PUSH0 MSTORE PUSH1 0x20 PUSH0 KECCAK256 SWAP1 POP SWAP2 SWAP1 POP JUMP JUMPDEST PUSH0 PUSH1 0x20 PUSH1 0x1F DUP4 ADD DIV SWAP1 POP SWAP2 SWAP1 POP JUMP JUMPDEST PUSH0 DUP3 DUP3 SHL SWAP1 POP SWAP3 SWAP2 POP POP JUMP JUMPDEST PUSH0 PUSH1 0x8 DUP4 MUL PUSH2 0x1E01 PUSH32 0xFFFFFFFFFFFFFFFFFFFFFFFFFFFFFFFFFFFFFFFFFFFFFFFFFFFFFFFFFFFFFFFF DUP3 PUSH2 0x1DC6 JUMP JUMPDEST PUSH2 0x1E0B DUP7 DUP4 PUSH2 0x1DC6 JUMP JUMPDEST SWAP6 POP DUP1 NOT DUP5 AND SWAP4 POP DUP1 DUP7 AND DUP5 OR SWAP3 POP POP POP SWAP4 SWAP3 POP POP POP JUMP JUMPDEST PUSH0 DUP2 SWAP1 POP SWAP2 SWAP1 POP JUMP JUMPDEST PUSH0 PUSH2 0x1E46 PUSH2 0x1E41 PUSH2 0x1E3C DUP5 PUSH2 0x1339 JUMP JUMPDEST PUSH2 0x1E23 JUMP JUMPDEST PUSH2 0x1339 JUMP JUMPDEST SWAP1 POP SWAP2 SWAP1 POP JUMP JUMPDEST PUSH0 DUP2 SWAP1 POP SWAP2 SWAP1 POP JUMP JUMPDEST PUSH2 0x1E5F DUP4 PUSH2 0x1E2C JUMP JUMPDEST PUSH2 0x1E73 PUSH2 0x1E6B DUP3 PUSH2 0x1E4D JUMP JUMPDEST DUP5 DUP5 SLOAD PUSH2 0x1DD2 JUMP JUMPDEST DUP3 SSTORE POP POP POP POP JUMP JUMPDEST PUSH0 SWAP1 JUMP JUMPDEST PUSH2 0x1E87 PUSH2 0x1E7B JUMP JUMPDEST PUSH2 0x1E92 DUP2 DUP5 DUP5 PUSH2 0x1E56 JUMP JUMPDEST POP POP POP JUMP JUMPDEST JUMPDEST DUP2 DUP2 LT ISZERO PUSH2 0x1EB5 JUMPI PUSH2 0x1EAA PUSH0 DUP3 PUSH2 0x1E7F JUMP JUMPDEST PUSH1 0x1 DUP2 ADD SWAP1 POP PUSH2 0x1E98 JUMP JUMPDEST POP POP JUMP JUMPDEST PUSH1 0x1F DUP3 GT ISZERO PUSH2 0x1EFA JUMPI PUSH2 0x1ECB DUP2 PUSH2 0x1DA5 JUMP JUMPDEST PUSH2 0x1ED4 DUP5 PUSH2 0x1DB7 JUMP JUMPDEST DUP2 ADD PUSH1 0x20 DUP6 LT ISZERO PUSH2 0x1EE3 JUMPI DUP2 SWAP1 POP JUMPDEST PUSH2 0x1EF7 PUSH2 0x1EEF DUP6 PUSH2 0x1DB7 JUMP JUMPDEST DUP4 ADD DUP3 PUSH2 0x1E97 JUMP JUMPDEST POP POP JUMPDEST POP POP POP JUMP JUMPDEST PUSH0 DUP3 DUP3 SHR SWAP1 POP SWAP3 SWAP2 POP POP JUMP JUMPDEST PUSH0 PUSH2 0x1F1A PUSH0 NOT DUP5 PUSH1 0x8 MUL PUSH2 0x1EFF JUMP JUMPDEST NOT DUP1 DUP4 AND SWAP2 POP POP SWAP3 SWAP2 POP POP JUMP JUMPDEST PUSH0 PUSH2 0x1F32 DUP4 DUP4 PUSH2 0x1F0B JUMP JUMPDEST SWAP2 POP DUP3 PUSH1 0x2 MUL DUP3 OR SWAP1 POP SWAP3 SWAP2 POP POP JUMP JUMPDEST PUSH2 0x1F4B DUP3 PUSH2 0x15DE JUMP JUMPDEST PUSH8 0xFFFFFFFFFFFFFFFF DUP2 GT ISZERO PUSH2 0x1F64 JUMPI PUSH2 0x1F63 PUSH2 0x1178 JUMP JUMPDEST JUMPDEST PUSH2 0x1F6E DUP3 SLOAD PUSH2 0x1B65 JUMP JUMPDEST PUSH2 0x1F79 DUP3 DUP3 DUP6 PUSH2 0x1EB9 JUMP JUMPDEST PUSH0 PUSH1 0x20 SWAP1 POP PUSH1 0x1F DUP4 GT PUSH1 0x1 DUP2 EQ PUSH2 0x1FAA JUMPI PUSH0 DUP5 ISZERO PUSH2 0x1F98 JUMPI DUP3 DUP8 ADD MLOAD SWAP1 POP JUMPDEST PUSH2 0x1FA2 DUP6 DUP3 PUSH2 0x1F27 JUMP JUMPDEST DUP7 SSTORE POP PUSH2 0x2009 JUMP JUMPDEST PUSH1 0x1F NOT DUP5 AND PUSH2 0x1FB8 DUP7 PUSH2 0x1DA5 JUMP JUMPDEST PUSH0 JUMPDEST DUP3 DUP2 LT ISZERO PUSH2 0x1FDF JUMPI DUP5 DUP10 ADD MLOAD DUP3 SSTORE PUSH1 0x1 DUP3 ADD SWAP2 POP PUSH1 0x20 DUP6 ADD SWAP5 POP PUSH1 0x20 DUP2 ADD SWAP1 POP PUSH2 0x1FBA JUMP JUMPDEST DUP7 DUP4 LT ISZERO PUSH2 0x1FFC JUMPI DUP5 DUP10 ADD MLOAD PUSH2 0x1FF8 PUSH1 0x1F DUP10 AND DUP3 PUSH2 0x1F0B JUMP JUMPDEST DUP4 SSTORE POP JUMPDEST PUSH1 0x1 PUSH1 0x2 DUP9 MUL ADD DUP9 SSTORE POP POP POP JUMPDEST POP POP POP POP POP POP JUMP JUMPDEST PUSH0 PUSH2 0x201B DUP3 PUSH2 0x1339 JUMP JUMPDEST SWAP2 POP PUSH2 0x2026 DUP4 PUSH2 0x1339 JUMP JUMPDEST SWAP3 POP DUP3 DUP3 ADD SWAP1 POP DUP1 DUP3 GT ISZERO PUSH2 0x203E JUMPI PUSH2 0x203D PUSH2 0x187D JUMP JUMPDEST JUMPDEST SWAP3 SWAP2 POP POP JUMP JUMPDEST PUSH0 PUSH2 0x204E DUP3 PUSH2 0x1339 JUMP JUMPDEST SWAP2 POP PUSH2 0x2059 DUP4 PUSH2 0x1339 JUMP JUMPDEST SWAP3 POP DUP3 DUP3 MUL PUSH2 0x2067 DUP2 PUSH2 0x1339 JUMP JUMPDEST SWAP2 POP DUP3 DUP3 DIV DUP5 EQ DUP4 ISZERO OR PUSH2 0x207E JUMPI PUSH2 0x207D PUSH2 0x187D JUMP JUMPDEST JUMPDEST POP SWAP3 SWAP2 POP POP JUMP JUMPDEST PUSH32 0x4E487B7100000000000000000000000000000000000000000000000000000000 PUSH0 MSTORE PUSH1 0x12 PUSH1 0x4 MSTORE PUSH1 0x24 PUSH0 REVERT JUMPDEST PUSH0 PUSH2 0x20BC DUP3 PUSH2 0x1339 JUMP JUMPDEST SWAP2 POP PUSH2 0x20C7 DUP4 PUSH2 0x1339 JUMP JUMPDEST SWAP3 POP DUP3 PUSH2 0x20D7 JUMPI PUSH2 0x20D6 PUSH2 0x2085 JUMP JUMPDEST JUMPDEST DUP3 DUP3 DIV SWAP1 POP SWAP3 SWAP2 POP POP JUMP INVALID LOG2 PUSH5 0x6970667358 0x22 SLT KECCAK256 0xCD CODECOPY JUMPI 0xB0 0x4C PUSH25 0x8F5925E6EA3DC4C687105ADA4298DDF4718B3548107C073A9F CALLER PUSH5 0x736F6C6343 STOP ADDMOD NOT STOP CALLER "
				},
				"gasEstimates": {
					"creation": {
						"codeDepositCost": "1694400",
						"executionCost": "26041",
						"totalCost": "1720441"
					},
					"external": {
						"distributePrize(address[],uint256[])": "infinite",
						"getEntryFee()": "2498",
						"getMemoAtIndex(uint256)": "infinite",
						"getMemoDetailsByName(string)": "infinite",
						"getMemosLength()": "2485",
						"getPrizePool()": "2455",
						"getTotalEntryFees()": "2543",
						"owner()": "2575",
						"payEntryFee(string)": "infinite",
						"prizePool()": "2514",
						"setEntryFee(uint256)": "24771",
						"setPrizePool(uint256)": "infinite",
						"totalEntryFees()": "2469"
					}
				},
				"methodIdentifiers": {
					"distributePrize(address[],uint256[])": "47e8c560",
					"getEntryFee()": "e586a4f0",
					"getMemoAtIndex(uint256)": "669115bf",
					"getMemoDetailsByName(string)": "64043cda",
					"getMemosLength()": "89881253",
					"getPrizePool()": "884bf67c",
					"getTotalEntryFees()": "7b3888a7",
					"owner()": "8da5cb5b",
					"payEntryFee(string)": "c81c7a53",
					"prizePool()": "719ce73e",
					"setEntryFee(uint256)": "eb770d0c",
					"setPrizePool(uint256)": "6a4966b8",
					"totalEntryFees()": "da0be86c"
				}
			},
			"storageLayout": {
				"storage": [
					{
						"astId": 321,
						"contract": "contracts/Entry.sol:Entry",
						"label": "entryFee",
						"offset": 0,
						"slot": "0",
						"type": "t_uint256"
					},
					{
						"astId": 323,
						"contract": "contracts/Entry.sol:Entry",
						"label": "prizePool",
						"offset": 0,
						"slot": "1",
						"type": "t_uint256"
					},
					{
						"astId": 325,
						"contract": "contracts/Entry.sol:Entry",
						"label": "totalEntryFees",
						"offset": 0,
						"slot": "2",
						"type": "t_uint256"
					},
					{
						"astId": 360,
						"contract": "contracts/Entry.sol:Entry",
						"label": "memos",
						"offset": 0,
						"slot": "3",
						"type": "t_array(t_struct(Memo)356_storage)dyn_storage"
					},
					{
						"astId": 364,
						"contract": "contracts/Entry.sol:Entry",
						"label": "enrolled",
						"offset": 0,
						"slot": "4",
						"type": "t_mapping(t_string_memory_ptr,t_bool)"
					},
					{
						"astId": 366,
						"contract": "contracts/Entry.sol:Entry",
						"label": "owner",
						"offset": 0,
						"slot": "5",
						"type": "t_address_payable"
					}
				],
				"types": {
					"t_address": {
						"encoding": "inplace",
						"label": "address",
						"numberOfBytes": "20"
					},
					"t_address_payable": {
						"encoding": "inplace",
						"label": "address payable",
						"numberOfBytes": "20"
					},
					"t_array(t_struct(Memo)356_storage)dyn_storage": {
						"base": "t_struct(Memo)356_storage",
						"encoding": "dynamic_array",
						"label": "struct Entry.Memo[]",
						"numberOfBytes": "32"
					},
					"t_bool": {
						"encoding": "inplace",
						"label": "bool",
						"numberOfBytes": "1"
					},
					"t_mapping(t_string_memory_ptr,t_bool)": {
						"encoding": "mapping",
						"key": "t_string_memory_ptr",
						"label": "mapping(string => bool)",
						"numberOfBytes": "32",
						"value": "t_bool"
					},
					"t_string_memory_ptr": {
						"encoding": "bytes",
						"label": "string",
						"numberOfBytes": "32"
					},
					"t_string_storage": {
						"encoding": "bytes",
						"label": "string",
						"numberOfBytes": "32"
					},
					"t_struct(Memo)356_storage": {
						"encoding": "inplace",
						"label": "struct Entry.Memo",
						"members": [
							{
								"astId": 351,
								"contract": "contracts/Entry.sol:Entry",
								"label": "name",
								"offset": 0,
								"slot": "0",
								"type": "t_string_storage"
							},
							{
								"astId": 353,
								"contract": "contracts/Entry.sol:Entry",
								"label": "timestamp",
								"offset": 0,
								"slot": "1",
								"type": "t_uint256"
							},
							{
								"astId": 355,
								"contract": "contracts/Entry.sol:Entry",
								"label": "from",
								"offset": 0,
								"slot": "2",
								"type": "t_address"
							}
						],
						"numberOfBytes": "96"
					},
					"t_uint256": {
						"encoding": "inplace",
						"label": "uint256",
						"numberOfBytes": "32"
					}
				}
			},
			"userdoc": {
				"kind": "user",
				"methods": {},
				"version": 1
			}
		}
	}
}