{
	"data": {
		"bytecode": {
			"linkReferences": {},
			"object": "6080604052348015600e575f80fd5b503360055f6101000a81548173ffffffffffffffffffffffffffffffffffffffff021916908373ffffffffffffffffffffffffffffffffffffffff1602179055506121188061005c5f395ff3fe6080604052600436106100c1575f3560e01c8063884bf67c1161007e578063c81c7a5311610058578063c81c7a5314610262578063da0be86c1461027e578063e586a4f0146102a8578063eb770d0c146102d2576100c1565b8063884bf67c146101e4578063898812531461020e5780638da5cb5b14610238576100c1565b806347e8c560146100c557806364043cda146100ed578063669115bf1461012a5780636a4966b814610168578063719ce73e146101905780637b3888a7146101ba575b5f80fd5b3480156100d0575f80fd5b506100eb60048036038101906100e69190611401565b6102fa565b005b3480156100f8575f80fd5b50610113600480360381019061010e9190611527565b61097f565b60405161012192919061158c565b60405180910390f35b348015610135575f80fd5b50610150600480360381019061014b91906115b3565b610afd565b60405161015f9392919061163e565b60405180910390f35b348015610173575f80fd5b5061018e600480360381019061018991906115b3565b610c80565b005b34801561019b575f80fd5b506101a4610d52565b6040516101b1919061167a565b60405180910390f35b3480156101c5575f80fd5b506101ce610d58565b6040516101db919061167a565b60405180910390f35b3480156101ef575f80fd5b506101f8610d61565b604051610205919061167a565b60405180910390f35b348015610219575f80fd5b50610222610d6a565b60405161022f919061167a565b60405180910390f35b348015610243575f80fd5b5061024c610d76565b60405161025991906116b3565b60405180910390f35b61027c60048036038101906102779190611527565b610d9b565b005b348015610289575f80fd5b5061029261106e565b60405161029f919061167a565b60405180910390f35b3480156102b3575f80fd5b506102bc611074565b6040516102c9919061167a565b60405180910390f35b3480156102dd575f80fd5b506102f860048036038101906102f391906115b3565b61107c565b005b60055f9054906101000a900473ffffffffffffffffffffffffffffffffffffffff1673ffffffffffffffffffffffffffffffffffffffff163373ffffffffffffffffffffffffffffffffffffffff1614610389576040517f08c379a00000000000000000000000000000000000000000000000000000000081526004016103809061173c565b60405180910390fd5b60038251146103cd576040517f08c379a00000000000000000000000000000000000000000000000000000000081526004016103c4906117ca565b60405180910390fd5b6004815114610411576040517f08c379a000000000000000000000000000000000000000000000000000000000815260040161040890611832565b60405180910390fd5b5f805b82518110156104595761044a83828151811061043357610432611850565b5b60200260200101518361111490919063ffffffff16565b91508080600101915050610414565b505f61049d606461048f855f8151811061047657610475611850565b5b602002602001015160015461112990919063ffffffff16565b61113e90919063ffffffff16565b90505f6104e360646104d5866001815181106104bc576104bb611850565b5b602002602001015160015461112990919063ffffffff16565b61113e90919063ffffffff16565b905060055f9054906101000a900473ffffffffffffffffffffffffffffffffffffffff1673ffffffffffffffffffffffffffffffffffffffff166108fc8390811502906040515f60405180830381858888f19350505050158015610549573d5f803e3d5ffd5b505f600367ffffffffffffffff81111561056657610565611178565b5b6040519080825280602002602001820160405280156105945781602001602082028036833780820191505090505b5090505f600367ffffffffffffffff8111156105b3576105b2611178565b5b6040519080825280602002602001820160405280156105e15781602001602082028036833780820191505090505b509050865f815181106105f7576105f6611850565b5b6020026020010151825f8151811061061257610611611850565b5b602002602001019073ffffffffffffffffffffffffffffffffffffffff16908173ffffffffffffffffffffffffffffffffffffffff168152505061068d606461067f8860028151811061066857610667611850565b5b60200260200101518661112990919063ffffffff16565b61113e90919063ffffffff16565b815f815181106106a05761069f611850565b5b602002602001018181525050866001815181106106c0576106bf611850565b5b6020026020010151826001815181106106dc576106db611850565b5b602002602001019073ffffffffffffffffffffffffffffffffffffffff16908173ffffffffffffffffffffffffffffffffffffffff168152505061075760646107498860038151811061073257610731611850565b5b60200260200101518661112990919063ffffffff16565b61113e90919063ffffffff16565b8160018151811061076b5761076a611850565b5b6020026020010181815250508660028151811061078b5761078a611850565b5b6020026020010151826002815181106107a7576107a6611850565b5b602002602001019073ffffffffffffffffffffffffffffffffffffffff16908173ffffffffffffffffffffffffffffffffffffffff16815250506108546064610846886003815181106107fd576107fc611850565b5b60200260200101518960028151811061081957610818611850565b5b6020026020010151606461082d91906118aa565b61083791906118aa565b8661112990919063ffffffff16565b61113e90919063ffffffff16565b8160028151811061086857610867611850565b5b6020026020010181815250505f5b60038110156109045782818151811061089257610891611850565b5b602002602001015173ffffffffffffffffffffffffffffffffffffffff166108fc8383815181106108c6576108c5611850565b5b602002602001015190811502906040515f60405180830381858888f193505050501580156108f6573d5f803e3d5ffd5b508080600101915050610876565b5060055f9054906101000a900473ffffffffffffffffffffffffffffffffffffffff1673ffffffffffffffffffffffffffffffffffffffff167facea6060a5ae248721515200efc5c427ae94f53cdb0141c7dae477ac058589aa838360405161096e929190611a4b565b60405180910390a250505050505050565b5f806004836040516109919190611aba565b90815260200160405180910390205f9054906101000a900460ff166109eb576040517f08c379a00000000000000000000000000000000000000000000000000000000081526004016109e290611b1a565b60405180910390fd5b5f5b600380549050811015610abc57838051906020012060038281548110610a1657610a15611850565b5b905f5260205f2090600302015f01604051610a319190611c31565b604051809103902003610aaf5760038181548110610a5257610a51611850565b5b905f5260205f2090600302016001015460038281548110610a7657610a75611850565b5b905f5260205f2090600302016002015f9054906101000a900473ffffffffffffffffffffffffffffffffffffffff169250925050610af8565b80806001019150506109ed565b506040517f08c379a0000000000000000000000000000000000000000000000000000000008152600401610aef90611cb7565b60405180910390fd5b915091565b60605f806003805490508410610b48576040517f08c379a0000000000000000000000000000000000000000000000000000000008152600401610b3f90611d1f565b60405180910390fd5b5f60038581548110610b5d57610b5c611850565b5b905f5260205f2090600302016040518060600160405290815f82018054610b8390611b65565b80601f0160208091040260200160405190810160405280929190818152602001828054610baf90611b65565b8015610bfa5780601f10610bd157610100808354040283529160200191610bfa565b820191905f5260205f20905b815481529060010190602001808311610bdd57829003601f168201915b5050505050815260200160018201548152602001600282015f9054906101000a900473ffffffffffffffffffffffffffffffffffffffff1673ffffffffffffffffffffffffffffffffffffffff1673ffffffffffffffffffffffffffffffffffffffff16815250509050805f015181602001518260400151935093509350509193909250565b60055f9054906101000a900473ffffffffffffffffffffffffffffffffffffffff1673ffffffffffffffffffffffffffffffffffffffff163373ffffffffffffffffffffffffffffffffffffffff1614610d0f576040517f08c379a0000000000000000000000000000000000000000000000000000000008152600401610d069061173c565b60405180910390fd5b806001819055507f109cd21dc4e5e640485f5e7e7d11e3facf5b1ce3b4f327ef4751ee24a0af62ac600154604051610d47919061167a565b60405180910390a150565b60015481565b5f600254905090565b5f600154905090565b5f600380549050905090565b60055f9054906101000a900473ffffffffffffffffffffffffffffffffffffffff1681565b600481604051610dab9190611aba565b90815260200160405180910390205f9054906101000a900460ff1615610e06576040517f08c379a0000000000000000000000000000000000000000000000000000000008152600401610dfd90611d87565b60405180910390fd5b3460015f54610e1591906118aa565b108015610e2257505f5434105b15610e59576040517fbd4e069500000000000000000000000000000000000000000000000000000000815260040160405180910390fd5b60055f9054906101000a900473ffffffffffffffffffffffffffffffffffffffff1673ffffffffffffffffffffffffffffffffffffffff166108fc3490811502906040515f60405180830381858888f19350505050158015610ebd573d5f803e3d5ffd5b50600360405180606001604052808381526020014281526020013373ffffffffffffffffffffffffffffffffffffffff16815250908060018154018082558091505060019003905f5260205f2090600302015f909190919091505f820151815f019081610f2a9190611f42565b50602082015181600101556040820151816002015f6101000a81548173ffffffffffffffffffffffffffffffffffffffff021916908373ffffffffffffffffffffffffffffffffffffffff16021790555050503373ffffffffffffffffffffffffffffffffffffffff167fe13346e29c870b2b0d2aa3f5335a9cecd4044e700a0902f6543cea1c76d024ca34604051610fc3919061167a565b60405180910390a2610fe03460025461111490919063ffffffff16565b6002819055506001546002541115611035576002546001819055507f149086bfe57530c105768f33bd15ee9884e9b0f1d22a75fb8ac70ad89434107360015460405161102c919061167a565b60405180910390a15b60016004826040516110479190611aba565b90815260200160405180910390205f6101000a81548160ff02191690831515021790555050565b60025481565b5f8054905090565b60055f9054906101000a900473ffffffffffffffffffffffffffffffffffffffff1673ffffffffffffffffffffffffffffffffffffffff163373ffffffffffffffffffffffffffffffffffffffff161461110b576040517f08c379a00000000000000000000000000000000000000000000000000000000081526004016111029061173c565b60405180910390fd5b805f8190555050565b5f81836111219190612011565b905092915050565b5f81836111369190612044565b905092915050565b5f818361114b91906120b2565b905092915050565b5f604051905090565b5f80fd5b5f80fd5b5f80fd5b5f601f19601f8301169050919050565b7f4e487b71000000000000000000000000000000000000000000000000000000005f52604160045260245ffd5b6111ae82611168565b810181811067ffffffffffffffff821117156111cd576111cc611178565b5b80604052505050565b5f6111df611153565b90506111eb82826111a5565b919050565b5f67ffffffffffffffff82111561120a57611209611178565b5b602082029050602081019050919050565b5f80fd5b5f73ffffffffffffffffffffffffffffffffffffffff82169050919050565b5f6112488261121f565b9050919050565b6112588161123e565b8114611262575f80fd5b50565b5f813590506112738161124f565b92915050565b5f61128b611286846111f0565b6111d6565b905080838252602082019050602084028301858111156112ae576112ad61121b565b5b835b818110156112d757806112c38882611265565b8452602084019350506020810190506112b0565b5050509392505050565b5f82601f8301126112f5576112f4611164565b5b8135611305848260208601611279565b91505092915050565b5f67ffffffffffffffff82111561132857611327611178565b5b602082029050602081019050919050565b5f819050919050565b61134b81611339565b8114611355575f80fd5b50565b5f8135905061136681611342565b92915050565b5f61137e6113798461130e565b6111d6565b905080838252602082019050602084028301858111156113a1576113a061121b565b5b835b818110156113ca57806113b68882611358565b8452602084019350506020810190506113a3565b5050509392505050565b5f82601f8301126113e8576113e7611164565b5b81356113f884826020860161136c565b91505092915050565b5f80604083850312156114175761141661115c565b5b5f83013567ffffffffffffffff81111561143457611433611160565b5b611440858286016112e1565b925050602083013567ffffffffffffffff81111561146157611460611160565b5b61146d858286016113d4565b9150509250929050565b5f80fd5b5f67ffffffffffffffff82111561149557611494611178565b5b61149e82611168565b9050602081019050919050565b828183375f83830152505050565b5f6114cb6114c68461147b565b6111d6565b9050828152602081018484840111156114e7576114e6611477565b5b6114f28482856114ab565b509392505050565b5f82601f83011261150e5761150d611164565b5b813561151e8482602086016114b9565b91505092915050565b5f6020828403121561153c5761153b61115c565b5b5f82013567ffffffffffffffff81111561155957611558611160565b5b611565848285016114fa565b91505092915050565b61157781611339565b82525050565b6115868161123e565b82525050565b5f60408201905061159f5f83018561156e565b6115ac602083018461157d565b9392505050565b5f602082840312156115c8576115c761115c565b5b5f6115d584828501611358565b91505092915050565b5f81519050919050565b5f82825260208201905092915050565b8281835e5f83830152505050565b5f611610826115de565b61161a81856115e8565b935061162a8185602086016115f8565b61163381611168565b840191505092915050565b5f6060820190508181035f8301526116568186611606565b9050611665602083018561156e565b611672604083018461157d565b949350505050565b5f60208201905061168d5f83018461156e565b92915050565b5f61169d8261121f565b9050919050565b6116ad81611693565b82525050565b5f6020820190506116c65f8301846116a4565b92915050565b7f4f6e6c79206f776e65722063616e2063616c6c20746869732066756e6374696f5f8201527f6e00000000000000000000000000000000000000000000000000000000000000602082015250565b5f6117266021836115e8565b9150611731826116cc565b604082019050919050565b5f6020820190508181035f8301526117538161171a565b9050919050565b7f4d7573742070726f766964652065786163746c792033207061727469636970615f8201527f6e74730000000000000000000000000000000000000000000000000000000000602082015250565b5f6117b46023836115e8565b91506117bf8261175a565b604082019050919050565b5f6020820190508181035f8301526117e1816117a8565b9050919050565b7f4d7573742070726f76696465203420726174696f7300000000000000000000005f82015250565b5f61181c6015836115e8565b9150611827826117e8565b602082019050919050565b5f6020820190508181035f83015261184981611810565b9050919050565b7f4e487b71000000000000000000000000000000000000000000000000000000005f52603260045260245ffd5b7f4e487b71000000000000000000000000000000000000000000000000000000005f52601160045260245ffd5b5f6118b482611339565b91506118bf83611339565b92508282039050818111156118d7576118d661187d565b5b92915050565b5f81519050919050565b5f82825260208201905092915050565b5f819050602082019050919050565b61190f8161123e565b82525050565b5f6119208383611906565b60208301905092915050565b5f602082019050919050565b5f611942826118dd565b61194c81856118e7565b9350611957836118f7565b805f5b8381101561198757815161196e8882611915565b97506119798361192c565b92505060018101905061195a565b5085935050505092915050565b5f81519050919050565b5f82825260208201905092915050565b5f819050602082019050919050565b6119c681611339565b82525050565b5f6119d783836119bd565b60208301905092915050565b5f602082019050919050565b5f6119f982611994565b611a03818561199e565b9350611a0e836119ae565b805f5b83811015611a3e578151611a2588826119cc565b9750611a30836119e3565b925050600181019050611a11565b5085935050505092915050565b5f6040820190508181035f830152611a638185611938565b90508181036020830152611a7781846119ef565b90509392505050565b5f81905092915050565b5f611a94826115de565b611a9e8185611a80565b9350611aae8185602086016115f8565b80840191505092915050565b5f611ac58284611a8a565b915081905092915050565b7f4e616d65206e6f7420666f756e640000000000000000000000000000000000005f82015250565b5f611b04600e836115e8565b9150611b0f82611ad0565b602082019050919050565b5f6020820190508181035f830152611b3181611af8565b9050919050565b7f4e487b71000000000000000000000000000000000000000000000000000000005f52602260045260245ffd5b5f6002820490506001821680611b7c57607f821691505b602082108103611b8f57611b8e611b38565b5b50919050565b5f81905092915050565b5f819050815f5260205f209050919050565b5f8154611bbd81611b65565b611bc78186611b95565b9450600182165f8114611be15760018114611bf657611c28565b60ff1983168652811515820286019350611c28565b611bff85611b9f565b5f5b83811015611c2057815481890152600182019150602081019050611c01565b838801955050505b50505092915050565b5f611c3c8284611bb1565b915081905092915050565b7f5265636f7264206e6f7420666f756e6420666f72207468652070726f766964655f8201527f6420736561726368206e616d6500000000000000000000000000000000000000602082015250565b5f611ca1602d836115e8565b9150611cac82611c47565b604082019050919050565b5f6020820190508181035f830152611cce81611c95565b9050919050565b7f496e646578206f7574206f662072616e676500000000000000000000000000005f82015250565b5f611d096012836115e8565b9150611d1482611cd5565b602082019050919050565b5f6020820190508181035f830152611d3681611cfd565b9050919050565b7f5061727469636970616e7420697320616c726561647920656e726f6c6c6564005f82015250565b5f611d71601f836115e8565b9150611d7c82611d3d565b602082019050919050565b5f6020820190508181035f830152611d9e81611d65565b9050919050565b5f819050815f5260205f209050919050565b5f6020601f8301049050919050565b5f82821b905092915050565b5f60088302611e017fffffffffffffffffffffffffffffffffffffffffffffffffffffffffffffffff82611dc6565b611e0b8683611dc6565b95508019841693508086168417925050509392505050565b5f819050919050565b5f611e46611e41611e3c84611339565b611e23565b611339565b9050919050565b5f819050919050565b611e5f83611e2c565b611e73611e6b82611e4d565b848454611dd2565b825550505050565b5f90565b611e87611e7b565b611e92818484611e56565b505050565b5b81811015611eb557611eaa5f82611e7f565b600181019050611e98565b5050565b601f821115611efa57611ecb81611da5565b611ed484611db7565b81016020851015611ee3578190505b611ef7611eef85611db7565b830182611e97565b50505b505050565b5f82821c905092915050565b5f611f1a5f1984600802611eff565b1980831691505092915050565b5f611f328383611f0b565b9150826002028217905092915050565b611f4b826115de565b67ffffffffffffffff811115611f6457611f63611178565b5b611f6e8254611b65565b611f79828285611eb9565b5f60209050601f831160018114611faa575f8415611f98578287015190505b611fa28582611f27565b865550612009565b601f198416611fb886611da5565b5f5b82811015611fdf57848901518255600182019150602085019450602081019050611fba565b86831015611ffc5784890151611ff8601f891682611f0b565b8355505b6001600288020188555050505b505050505050565b5f61201b82611339565b915061202683611339565b925082820190508082111561203e5761203d61187d565b5b92915050565b5f61204e82611339565b915061205983611339565b925082820261206781611339565b9150828204841483151761207e5761207d61187d565b5b5092915050565b7f4e487b71000000000000000000000000000000000000000000000000000000005f52601260045260245ffd5b5f6120bc82611339565b91506120c783611339565b9250826120d7576120d6612085565b5b82820490509291505056fea2646970667358221220cd3957b04c788f5925e6ea3dc4c687105ada4298ddf4718b3548107c073a9f3364736f6c63430008190033",
			"opcodes": "PUSH1 0x80 PUSH1 0x40 MSTORE CALLVALUE DUP1 ISZERO PUSH1 0xE JUMPI PUSH0 DUP1 REVERT JUMPDEST POP CALLER PUSH1 0x5 PUSH0 PUSH2 0x100 EXP DUP2 SLOAD DUP2 PUSH20 0xFFFFFFFFFFFFFFFFFFFFFFFFFFFFFFFFFFFFFFFF MUL NOT AND SWAP1 DUP4 PUSH20 0xFFFFFFFFFFFFFFFFFFFFFFFFFFFFFFFFFFFFFFFF AND MUL OR SWAP1 SSTORE POP PUSH2 0x2118 DUP1 PUSH2 0x5C PUSH0 CODECOPY PUSH0 RETURN INVALID PUSH1 0x80 PUSH1 0x40 MSTORE PUSH1 0x4 CALLDATASIZE LT PUSH2 0xC1 JUMPI PUSH0 CALLDATALOAD PUSH1 0xE0 SHR DUP1 PUSH4 0x884BF67C GT PUSH2 0x7E JUMPI DUP1 PUSH4 0xC81C7A53 GT PUSH2 0x58 JUMPI DUP1 PUSH4 0xC81C7A53 EQ PUSH2 0x262 JUMPI DUP1 PUSH4 0xDA0BE86C EQ PUSH2 0x27E JUMPI DUP1 PUSH4 0xE586A4F0 EQ PUSH2 0x2A8 JUMPI DUP1 PUSH4 0xEB770D0C EQ PUSH2 0x2D2 JUMPI PUSH2 0xC1 JUMP JUMPDEST DUP1 PUSH4 0x884BF67C EQ PUSH2 0x1E4 JUMPI DUP1 PUSH4 0x89881253 EQ PUSH2 0x20E JUMPI DUP1 PUSH4 0x8DA5CB5B EQ PUSH2 0x238 JUMPI PUSH2 0xC1 JUMP JUMPDEST DUP1 PUSH4 0x47E8C560 EQ PUSH2 0xC5 JUMPI DUP1 PUSH4 0x64043CDA EQ PUSH2 0xED JUMPI DUP1 PUSH4 0x669115BF EQ PUSH2 0x12A JUMPI DUP1 PUSH4 0x6A4966B8 EQ PUSH2 0x168 JUMPI DUP1 PUSH4 0x719CE73E EQ PUSH2 0x190 JUMPI DUP1 PUSH4 0x7B3888A7 EQ PUSH2 0x1BA JUMPI JUMPDEST PUSH0 DUP1 REVERT JUMPDEST CALLVALUE DUP1 ISZERO PUSH2 0xD0 JUMPI PUSH0 DUP1 REVERT JUMPDEST POP PUSH2 0xEB PUSH1 0x4 DUP1 CALLDATASIZE SUB DUP2 ADD SWAP1 PUSH2 0xE6 SWAP2 SWAP1 PUSH2 0x1401 JUMP JUMPDEST PUSH2 0x2FA JUMP JUMPDEST STOP JUMPDEST CALLVALUE DUP1 ISZERO PUSH2 0xF8 JUMPI PUSH0 DUP1 REVERT JUMPDEST POP PUSH2 0x113 PUSH1 0x4 DUP1 CALLDATASIZE SUB DUP2 ADD SWAP1 PUSH2 0x10E SWAP2 SWAP1 PUSH2 0x1527 JUMP JUMPDEST PUSH2 0x97F JUMP JUMPDEST PUSH1 0x40 MLOAD PUSH2 0x121 SWAP3 SWAP2 SWAP1 PUSH2 0x158C JUMP JUMPDEST PUSH1 0x40 MLOAD DUP1 SWAP2 SUB SWAP1 RETURN JUMPDEST CALLVALUE DUP1 ISZERO PUSH2 0x135 JUMPI PUSH0 DUP1 REVERT JUMPDEST POP PUSH2 0x150 PUSH1 0x4 DUP1 CALLDATASIZE SUB DUP2 ADD SWAP1 PUSH2 0x14B SWAP2 SWAP1 PUSH2 0x15B3 JUMP JUMPDEST PUSH2 0xAFD JUMP JUMPDEST PUSH1 0x40 MLOAD PUSH2 0x15F SWAP4 SWAP3 SWAP2 SWAP1 PUSH2 0x163E JUMP JUMPDEST PUSH1 0x40 MLOAD DUP1 SWAP2 SUB SWAP1 RETURN JUMPDEST CALLVALUE DUP1 ISZERO PUSH2 0x173 JUMPI PUSH0 DUP1 REVERT JUMPDEST POP PUSH2 0x18E PUSH1 0x4 DUP1 CALLDATASIZE SUB DUP2 ADD SWAP1 PUSH2 0x189 SWAP2 SWAP1 PUSH2 0x15B3 JUMP JUMPDEST PUSH2 0xC80 JUMP JUMPDEST STOP JUMPDEST CALLVALUE DUP1 ISZERO PUSH2 0x19B JUMPI PUSH0 DUP1 REVERT JUMPDEST POP PUSH2 0x1A4 PUSH2 0xD52 JUMP JUMPDEST PUSH1 0x40 MLOAD PUSH2 0x1B1 SWAP2 SWAP1 PUSH2 0x167A JUMP JUMPDEST PUSH1 0x40 MLOAD DUP1 SWAP2 SUB SWAP1 RETURN JUMPDEST CALLVALUE DUP1 ISZERO PUSH2 0x1C5 JUMPI PUSH0 DUP1 REVERT JUMPDEST POP PUSH2 0x1CE PUSH2 0xD58 JUMP JUMPDEST PUSH1 0x40 MLOAD PUSH2 0x1DB SWAP2 SWAP1 PUSH2 0x167A JUMP JUMPDEST PUSH1 0x40 MLOAD DUP1 SWAP2 SUB SWAP1 RETURN JUMPDEST CALLVALUE DUP1 ISZERO PUSH2 0x1EF JUMPI PUSH0 DUP1 REVERT JUMPDEST POP PUSH2 0x1F8 PUSH2 0xD61 JUMP JUMPDEST PUSH1 0x40 MLOAD PUSH2 0x205 SWAP2 SWAP1 PUSH2 0x167A JUMP JUMPDEST PUSH1 0x40 MLOAD DUP1 SWAP2 SUB SWAP1 RETURN JUMPDEST CALLVALUE DUP1 ISZERO PUSH2 0x219 JUMPI PUSH0 DUP1 REVERT JUMPDEST POP PUSH2 0x222 PUSH2 0xD6A JUMP JUMPDEST PUSH1 0x40 MLOAD PUSH2 0x22F SWAP2 SWAP1 PUSH2 0x167A JUMP JUMPDEST PUSH1 0x40 MLOAD DUP1 SWAP2 SUB SWAP1 RETURN JUMPDEST CALLVALUE DUP1 ISZERO PUSH2 0x243 JUMPI PUSH0 DUP1 REVERT JUMPDEST POP PUSH2 0x24C PUSH2 0xD76 JUMP JUMPDEST PUSH1 0x40 MLOAD PUSH2 0x259 SWAP2 SWAP1 PUSH2 0x16B3 JUMP JUMPDEST PUSH1 0x40 MLOAD DUP1 SWAP2 SUB SWAP1 RETURN JUMPDEST PUSH2 0x27C PUSH1 0x4 DUP1 CALLDATASIZE SUB DUP2 ADD SWAP1 PUSH2 0x277 SWAP2 SWAP1 PUSH2 0x1527 JUMP JUMPDEST PUSH2 0xD9B JUMP JUMPDEST STOP JUMPDEST CALLVALUE DUP1 ISZERO PUSH2 0x289 JUMPI PUSH0 DUP1 REVERT JUMPDEST POP PUSH2 0x292 PUSH2 0x106E JUMP JUMPDEST PUSH1 0x40 MLOAD PUSH2 0x29F SWAP2 SWAP1 PUSH2 0x167A JUMP JUMPDEST PUSH1 0x40 MLOAD DUP1 SWAP2 SUB SWAP1 RETURN JUMPDEST CALLVALUE DUP1 ISZERO PUSH2 0x2B3 JUMPI PUSH0 DUP1 REVERT JUMPDEST POP PUSH2 0x2BC PUSH2 0x1074 JUMP JUMPDEST PUSH1 0x40 MLOAD PUSH2 0x2C9 SWAP2 SWAP1 PUSH2 0x167A JUMP JUMPDEST PUSH1 0x40 MLOAD DUP1 SWAP2 SUB SWAP1 RETURN JUMPDEST CALLVALUE DUP1 ISZERO PUSH2 0x2DD JUMPI PUSH0 DUP1 REVERT JUMPDEST POP PUSH2 0x2F8 PUSH1 0x4 DUP1 CALLDATASIZE SUB DUP2 ADD SWAP1 PUSH2 0x2F3 SWAP2 SWAP1 PUSH2 0x15B3 JUMP JUMPDEST PUSH2 0x107C JUMP JUMPDEST STOP JUMPDEST PUSH1 0x5 PUSH0 SWAP1 SLOAD SWAP1 PUSH2 0x100 EXP SWAP1 DIV PUSH20 0xFFFFFFFFFFFFFFFFFFFFFFFFFFFFFFFFFFFFFFFF AND PUSH20 0xFFFFFFFFFFFFFFFFFFFFFFFFFFFFFFFFFFFFFFFF AND CALLER PUSH20 0xFFFFFFFFFFFFFFFFFFFFFFFFFFFFFFFFFFFFFFFF AND EQ PUSH2 0x389 JUMPI PUSH1 0x40 MLOAD PUSH32 0x8C379A000000000000000000000000000000000000000000000000000000000 DUP2 MSTORE PUSH1 0x4 ADD PUSH2 0x380 SWAP1 PUSH2 0x173C JUMP JUMPDEST PUSH1 0x40 MLOAD DUP1 SWAP2 SUB SWAP1 REVERT JUMPDEST PUSH1 0x3 DUP3 MLOAD EQ PUSH2 0x3CD JUMPI PUSH1 0x40 MLOAD PUSH32 0x8C379A000000000000000000000000000000000000000000000000000000000 DUP2 MSTORE PUSH1 0x4 ADD PUSH2 0x3C4 SWAP1 PUSH2 0x17CA JUMP JUMPDEST PUSH1 0x40 MLOAD DUP1 SWAP2 SUB SWAP1 REVERT JUMPDEST PUSH1 0x4 DUP2 MLOAD EQ PUSH2 0x411 JUMPI PUSH1 0x40 MLOAD PUSH32 0x8C379A000000000000000000000000000000000000000000000000000000000 DUP2 MSTORE PUSH1 0x4 ADD PUSH2 0x408 SWAP1 PUSH2 0x1832 JUMP JUMPDEST PUSH1 0x40 MLOAD DUP1 SWAP2 SUB SWAP1 REVERT JUMPDEST PUSH0 DUP1 JUMPDEST DUP3 MLOAD DUP2 LT ISZERO PUSH2 0x459 JUMPI PUSH2 0x44A DUP4 DUP3 DUP2 MLOAD DUP2 LT PUSH2 0x433 JUMPI PUSH2 0x432 PUSH2 0x1850 JUMP JUMPDEST JUMPDEST PUSH1 0x20 MUL PUSH1 0x20 ADD ADD MLOAD DUP4 PUSH2 0x1114 SWAP1 SWAP2 SWAP1 PUSH4 0xFFFFFFFF AND JUMP JUMPDEST SWAP2 POP DUP1 DUP1 PUSH1 0x1 ADD SWAP2 POP POP PUSH2 0x414 JUMP JUMPDEST POP PUSH0 PUSH2 0x49D PUSH1 0x64 PUSH2 0x48F DUP6 PUSH0 DUP2 MLOAD DUP2 LT PUSH2 0x476 JUMPI PUSH2 0x475 PUSH2 0x1850 JUMP JUMPDEST JUMPDEST PUSH1 0x20 MUL PUSH1 0x20 ADD ADD MLOAD PUSH1 0x1 SLOAD PUSH2 0x1129 SWAP1 SWAP2 SWAP1 PUSH4 0xFFFFFFFF AND JUMP JUMPDEST PUSH2 0x113E SWAP1 SWAP2 SWAP1 PUSH4 0xFFFFFFFF AND JUMP JUMPDEST SWAP1 POP PUSH0 PUSH2 0x4E3 PUSH1 0x64 PUSH2 0x4D5 DUP7 PUSH1 0x1 DUP2 MLOAD DUP2 LT PUSH2 0x4BC JUMPI PUSH2 0x4BB PUSH2 0x1850 JUMP JUMPDEST JUMPDEST PUSH1 0x20 MUL PUSH1 0x20 ADD ADD MLOAD PUSH1 0x1 SLOAD PUSH2 0x1129 SWAP1 SWAP2 SWAP1 PUSH4 0xFFFFFFFF AND JUMP JUMPDEST PUSH2 0x113E SWAP1 SWAP2 SWAP1 PUSH4 0xFFFFFFFF AND JUMP JUMPDEST SWAP1 POP PUSH1 0x5 PUSH0 SWAP1 SLOAD SWAP1 PUSH2 0x100 EXP SWAP1 DIV PUSH20 0xFFFFFFFFFFFFFFFFFFFFFFFFFFFFFFFFFFFFFFFF AND PUSH20 0xFFFFFFFFFFFFFFFFFFFFFFFFFFFFFFFFFFFFFFFF AND PUSH2 0x8FC DUP4 SWAP1 DUP2 ISZERO MUL SWAP1 PUSH1 0x40 MLOAD PUSH0 PUSH1 0x40 MLOAD DUP1 DUP4 SUB DUP2 DUP6 DUP9 DUP9 CALL SWAP4 POP POP POP POP ISZERO DUP1 ISZERO PUSH2 0x549 JUMPI RETURNDATASIZE PUSH0 DUP1 RETURNDATACOPY RETURNDATASIZE PUSH0 REVERT JUMPDEST POP PUSH0 PUSH1 0x3 PUSH8 0xFFFFFFFFFFFFFFFF DUP2 GT ISZERO PUSH2 0x566 JUMPI PUSH2 0x565 PUSH2 0x1178 JUMP JUMPDEST JUMPDEST PUSH1 0x40 MLOAD SWAP1 DUP1 DUP3 MSTORE DUP1 PUSH1 0x20 MUL PUSH1 0x20 ADD DUP3 ADD PUSH1 0x40 MSTORE DUP1 ISZERO PUSH2 0x594 JUMPI DUP2 PUSH1 0x20 ADD PUSH1 0x20 DUP3 MUL DUP1 CALLDATASIZE DUP4 CALLDATACOPY DUP1 DUP3 ADD SWAP2 POP POP SWAP1 POP JUMPDEST POP SWAP1 POP PUSH0 PUSH1 0x3 PUSH8 0xFFFFFFFFFFFFFFFF DUP2 GT ISZERO PUSH2 0x5B3 JUMPI PUSH2 0x5B2 PUSH2 0x1178 JUMP JUMPDEST JUMPDEST PUSH1 0x40 MLOAD SWAP1 DUP1 DUP3 MSTORE DUP1 PUSH1 0x20 MUL PUSH1 0x20 ADD DUP3 ADD PUSH1 0x40 MSTORE DUP1 ISZERO PUSH2 0x5E1 JUMPI DUP2 PUSH1 0x20 ADD PUSH1 0x20 DUP3 MUL DUP1 CALLDATASIZE DUP4 CALLDATACOPY DUP1 DUP3 ADD SWAP2 POP POP SWAP1 POP JUMPDEST POP SWAP1 POP DUP7 PUSH0 DUP2 MLOAD DUP2 LT PUSH2 0x5F7 JUMPI PUSH2 0x5F6 PUSH2 0x1850 JUMP JUMPDEST JUMPDEST PUSH1 0x20 MUL PUSH1 0x20 ADD ADD MLOAD DUP3 PUSH0 DUP2 MLOAD DUP2 LT PUSH2 0x612 JUMPI PUSH2 0x611 PUSH2 0x1850 JUMP JUMPDEST JUMPDEST PUSH1 0x20 MUL PUSH1 0x20 ADD ADD SWAP1 PUSH20 0xFFFFFFFFFFFFFFFFFFFFFFFFFFFFFFFFFFFFFFFF AND SWAP1 DUP2 PUSH20 0xFFFFFFFFFFFFFFFFFFFFFFFFFFFFFFFFFFFFFFFF AND DUP2 MSTORE POP POP PUSH2 0x68D PUSH1 0x64 PUSH2 0x67F DUP9 PUSH1 0x2 DUP2 MLOAD DUP2 LT PUSH2 0x668 JUMPI PUSH2 0x667 PUSH2 0x1850 JUMP JUMPDEST JUMPDEST PUSH1 0x20 MUL PUSH1 0x20 ADD ADD MLOAD DUP7 PUSH2 0x1129 SWAP1 SWAP2 SWAP1 PUSH4 0xFFFFFFFF AND JUMP JUMPDEST PUSH2 0x113E SWAP1 SWAP2 SWAP1 PUSH4 0xFFFFFFFF AND JUMP JUMPDEST DUP2 PUSH0 DUP2 MLOAD DUP2 LT PUSH2 0x6A0 JUMPI PUSH2 0x69F PUSH2 0x1850 JUMP JUMPDEST JUMPDEST PUSH1 0x20 MUL PUSH1 0x20 ADD ADD DUP2 DUP2 MSTORE POP POP DUP7 PUSH1 0x1 DUP2 MLOAD DUP2 LT PUSH2 0x6C0 JUMPI PUSH2 0x6BF PUSH2 0x1850 JUMP JUMPDEST JUMPDEST PUSH1 0x20 MUL PUSH1 0x20 ADD ADD MLOAD DUP3 PUSH1 0x1 DUP2 MLOAD DUP2 LT PUSH2 0x6DC JUMPI PUSH2 0x6DB PUSH2 0x1850 JUMP JUMPDEST JUMPDEST PUSH1 0x20 MUL PUSH1 0x20 ADD ADD SWAP1 PUSH20 0xFFFFFFFFFFFFFFFFFFFFFFFFFFFFFFFFFFFFFFFF AND SWAP1 DUP2 PUSH20 0xFFFFFFFFFFFFFFFFFFFFFFFFFFFFFFFFFFFFFFFF AND DUP2 MSTORE POP POP PUSH2 0x757 PUSH1 0x64 PUSH2 0x749 DUP9 PUSH1 0x3 DUP2 MLOAD DUP2 LT PUSH2 0x732 JUMPI PUSH2 0x731 PUSH2 0x1850 JUMP JUMPDEST JUMPDEST PUSH1 0x20 MUL PUSH1 0x20 ADD ADD MLOAD DUP7 PUSH2 0x1129 SWAP1 SWAP2 SWAP1 PUSH4 0xFFFFFFFF AND JUMP JUMPDEST PUSH2 0x113E SWAP1 SWAP2 SWAP1 PUSH4 0xFFFFFFFF AND JUMP JUMPDEST DUP2 PUSH1 0x1 DUP2 MLOAD DUP2 LT PUSH2 0x76B JUMPI PUSH2 0x76A PUSH2 0x1850 JUMP JUMPDEST JUMPDEST PUSH1 0x20 MUL PUSH1 0x20 ADD ADD DUP2 DUP2 MSTORE POP POP DUP7 PUSH1 0x2 DUP2 MLOAD DUP2 LT PUSH2 0x78B JUMPI PUSH2 0x78A PUSH2 0x1850 JUMP JUMPDEST JUMPDEST PUSH1 0x20 MUL PUSH1 0x20 ADD ADD MLOAD DUP3 PUSH1 0x2 DUP2 MLOAD DUP2 LT PUSH2 0x7A7 JUMPI PUSH2 0x7A6 PUSH2 0x1850 JUMP JUMPDEST JUMPDEST PUSH1 0x20 MUL PUSH1 0x20 ADD ADD SWAP1 PUSH20 0xFFFFFFFFFFFFFFFFFFFFFFFFFFFFFFFFFFFFFFFF AND SWAP1 DUP2 PUSH20 0xFFFFFFFFFFFFFFFFFFFFFFFFFFFFFFFFFFFFFFFF AND DUP2 MSTORE POP POP PUSH2 0x854 PUSH1 0x64 PUSH2 0x846 DUP9 PUSH1 0x3 DUP2 MLOAD DUP2 LT PUSH2 0x7FD JUMPI PUSH2 0x7FC PUSH2 0x1850 JUMP JUMPDEST JUMPDEST PUSH1 0x20 MUL PUSH1 0x20 ADD ADD MLOAD DUP10 PUSH1 0x2 DUP2 MLOAD DUP2 LT PUSH2 0x819 JUMPI PUSH2 0x818 PUSH2 0x1850 JUMP JUMPDEST JUMPDEST PUSH1 0x20 MUL PUSH1 0x20 ADD ADD MLOAD PUSH1 0x64 PUSH2 0x82D SWAP2 SWAP1 PUSH2 0x18AA JUMP JUMPDEST PUSH2 0x837 SWAP2 SWAP1 PUSH2 0x18AA JUMP JUMPDEST DUP7 PUSH2 0x1129 SWAP1 SWAP2 SWAP1 PUSH4 0xFFFFFFFF AND JUMP JUMPDEST PUSH2 0x113E SWAP1 SWAP2 SWAP1 PUSH4 0xFFFFFFFF AND JUMP JUMPDEST DUP2 PUSH1 0x2 DUP2 MLOAD DUP2 LT PUSH2 0x868 JUMPI PUSH2 0x867 PUSH2 0x1850 JUMP JUMPDEST JUMPDEST PUSH1 0x20 MUL PUSH1 0x20 ADD ADD DUP2 DUP2 MSTORE POP POP PUSH0 JUMPDEST PUSH1 0x3 DUP2 LT ISZERO PUSH2 0x904 JUMPI DUP3 DUP2 DUP2 MLOAD DUP2 LT PUSH2 0x892 JUMPI PUSH2 0x891 PUSH2 0x1850 JUMP JUMPDEST JUMPDEST PUSH1 0x20 MUL PUSH1 0x20 ADD ADD MLOAD PUSH20 0xFFFFFFFFFFFFFFFFFFFFFFFFFFFFFFFFFFFFFFFF AND PUSH2 0x8FC DUP4 DUP4 DUP2 MLOAD DUP2 LT PUSH2 0x8C6 JUMPI PUSH2 0x8C5 PUSH2 0x1850 JUMP JUMPDEST JUMPDEST PUSH1 0x20 MUL PUSH1 0x20 ADD ADD MLOAD SWAP1 DUP2 ISZERO MUL SWAP1 PUSH1 0x40 MLOAD PUSH0 PUSH1 0x40 MLOAD DUP1 DUP4 SUB DUP2 DUP6 DUP9 DUP9 CALL SWAP4 POP POP POP POP ISZERO DUP1 ISZERO PUSH2 0x8F6 JUMPI RETURNDATASIZE PUSH0 DUP1 RETURNDATACOPY RETURNDATASIZE PUSH0 REVERT JUMPDEST POP DUP1 DUP1 PUSH1 0x1 ADD SWAP2 POP POP PUSH2 0x876 JUMP JUMPDEST POP PUSH1 0x5 PUSH0 SWAP1 SLOAD SWAP1 PUSH2 0x100 EXP SWAP1 DIV PUSH20 0xFFFFFFFFFFFFFFFFFFFFFFFFFFFFFFFFFFFFFFFF AND PUSH20 0xFFFFFFFFFFFFFFFFFFFFFFFFFFFFFFFFFFFFFFFF AND PUSH32 0xACEA6060A5AE248721515200EFC5C427AE94F53CDB0141C7DAE477AC058589AA DUP4 DUP4 PUSH1 0x40 MLOAD PUSH2 0x96E SWAP3 SWAP2 SWAP1 PUSH2 0x1A4B JUMP JUMPDEST PUSH1 0x40 MLOAD DUP1 SWAP2 SUB SWAP1 LOG2 POP POP POP POP POP POP POP JUMP JUMPDEST PUSH0 DUP1 PUSH1 0x4 DUP4 PUSH1 0x40 MLOAD PUSH2 0x991 SWAP2 SWAP1 PUSH2 0x1ABA JUMP JUMPDEST SWAP1 DUP2 MSTORE PUSH1 0x20 ADD PUSH1 0x40 MLOAD DUP1 SWAP2 SUB SWAP1 KECCAK256 PUSH0 SWAP1 SLOAD SWAP1 PUSH2 0x100 EXP SWAP1 DIV PUSH1 0xFF AND PUSH2 0x9EB JUMPI PUSH1 0x40 MLOAD PUSH32 0x8C379A000000000000000000000000000000000000000000000000000000000 DUP2 MSTORE PUSH1 0x4 ADD PUSH2 0x9E2 SWAP1 PUSH2 0x1B1A JUMP JUMPDEST PUSH1 0x40 MLOAD DUP1 SWAP2 SUB SWAP1 REVERT JUMPDEST PUSH0 JUMPDEST PUSH1 0x3 DUP1 SLOAD SWAP1 POP DUP2 LT ISZERO PUSH2 0xABC JUMPI DUP4 DUP1 MLOAD SWAP1 PUSH1 0x20 ADD KECCAK256 PUSH1 0x3 DUP3 DUP2 SLOAD DUP2 LT PUSH2 0xA16 JUMPI PUSH2 0xA15 PUSH2 0x1850 JUMP JUMPDEST JUMPDEST SWAP1 PUSH0 MSTORE PUSH1 0x20 PUSH0 KECCAK256 SWAP1 PUSH1 0x3 MUL ADD PUSH0 ADD PUSH1 0x40 MLOAD PUSH2 0xA31 SWAP2 SWAP1 PUSH2 0x1C31 JUMP JUMPDEST PUSH1 0x40 MLOAD DUP1 SWAP2 SUB SWAP1 KECCAK256 SUB PUSH2 0xAAF JUMPI PUSH1 0x3 DUP2 DUP2 SLOAD DUP2 LT PUSH2 0xA52 JUMPI PUSH2 0xA51 PUSH2 0x1850 JUMP JUMPDEST JUMPDEST SWAP1 PUSH0 MSTORE PUSH1 0x20 PUSH0 KECCAK256 SWAP1 PUSH1 0x3 MUL ADD PUSH1 0x1 ADD SLOAD PUSH1 0x3 DUP3 DUP2 SLOAD DUP2 LT PUSH2 0xA76 JUMPI PUSH2 0xA75 PUSH2 0x1850 JUMP JUMPDEST JUMPDEST SWAP1 PUSH0 MSTORE PUSH1 0x20 PUSH0 KECCAK256 SWAP1 PUSH1 0x3 MUL ADD PUSH1 0x2 ADD PUSH0 SWAP1 SLOAD SWAP1 PUSH2 0x100 EXP SWAP1 DIV PUSH20 0xFFFFFFFFFFFFFFFFFFFFFFFFFFFFFFFFFFFFFFFF AND SWAP3 POP SWAP3 POP POP PUSH2 0xAF8 JUMP JUMPDEST DUP1 DUP1 PUSH1 0x1 ADD SWAP2 POP POP PUSH2 0x9ED JUMP JUMPDEST POP PUSH1 0x40 MLOAD PUSH32 0x8C379A000000000000000000000000000000000000000000000000000000000 DUP2 MSTORE PUSH1 0x4 ADD PUSH2 0xAEF SWAP1 PUSH2 0x1CB7 JUMP JUMPDEST PUSH1 0x40 MLOAD DUP1 SWAP2 SUB SWAP1 REVERT JUMPDEST SWAP2 POP SWAP2 JUMP JUMPDEST PUSH1 0x60 PUSH0 DUP1 PUSH1 0x3 DUP1 SLOAD SWAP1 POP DUP5 LT PUSH2 0xB48 JUMPI PUSH1 0x40 MLOAD PUSH32 0x8C379A000000000000000000000000000000000000000000000000000000000 DUP2 MSTORE PUSH1 0x4 ADD PUSH2 0xB3F SWAP1 PUSH2 0x1D1F JUMP JUMPDEST PUSH1 0x40 MLOAD DUP1 SWAP2 SUB SWAP1 REVERT JUMPDEST PUSH0 PUSH1 0x3 DUP6 DUP2 SLOAD DUP2 LT PUSH2 0xB5D JUMPI PUSH2 0xB5C PUSH2 0x1850 JUMP JUMPDEST JUMPDEST SWAP1 PUSH0 MSTORE PUSH1 0x20 PUSH0 KECCAK256 SWAP1 PUSH1 0x3 MUL ADD PUSH1 0x40 MLOAD DUP1 PUSH1 0x60 ADD PUSH1 0x40 MSTORE SWAP1 DUP2 PUSH0 DUP3 ADD DUP1 SLOAD PUSH2 0xB83 SWAP1 PUSH2 0x1B65 JUMP JUMPDEST DUP1 PUSH1 0x1F ADD PUSH1 0x20 DUP1 SWAP2 DIV MUL PUSH1 0x20 ADD PUSH1 0x40 MLOAD SWAP1 DUP2 ADD PUSH1 0x40 MSTORE DUP1 SWAP3 SWAP2 SWAP1 DUP2 DUP2 MSTORE PUSH1 0x20 ADD DUP3 DUP1 SLOAD PUSH2 0xBAF SWAP1 PUSH2 0x1B65 JUMP JUMPDEST DUP1 ISZERO PUSH2 0xBFA JUMPI DUP1 PUSH1 0x1F LT PUSH2 0xBD1 JUMPI PUSH2 0x100 DUP1 DUP4 SLOAD DIV MUL DUP4 MSTORE SWAP2 PUSH1 0x20 ADD SWAP2 PUSH2 0xBFA JUMP JUMPDEST DUP3 ADD SWAP2 SWAP1 PUSH0 MSTORE PUSH1 0x20 PUSH0 KECCAK256 SWAP1 JUMPDEST DUP2 SLOAD DUP2 MSTORE SWAP1 PUSH1 0x1 ADD SWAP1 PUSH1 0x20 ADD DUP1 DUP4 GT PUSH2 0xBDD JUMPI DUP3 SWAP1 SUB PUSH1 0x1F AND DUP3 ADD SWAP2 JUMPDEST POP POP POP POP POP DUP2 MSTORE PUSH1 0x20 ADD PUSH1 0x1 DUP3 ADD SLOAD DUP2 MSTORE PUSH1 0x20 ADD PUSH1 0x2 DUP3 ADD PUSH0 SWAP1 SLOAD SWAP1 PUSH2 0x100 EXP SWAP1 DIV PUSH20 0xFFFFFFFFFFFFFFFFFFFFFFFFFFFFFFFFFFFFFFFF AND PUSH20 0xFFFFFFFFFFFFFFFFFFFFFFFFFFFFFFFFFFFFFFFF AND PUSH20 0xFFFFFFFFFFFFFFFFFFFFFFFFFFFFFFFFFFFFFFFF AND DUP2 MSTORE POP POP SWAP1 POP DUP1 PUSH0 ADD MLOAD DUP2 PUSH1 0x20 ADD MLOAD DUP3 PUSH1 0x40 ADD MLOAD SWAP4 POP SWAP4 POP SWAP4 POP POP SWAP2 SWAP4 SWAP1 SWAP3 POP JUMP JUMPDEST PUSH1 0x5 PUSH0 SWAP1 SLOAD SWAP1 PUSH2 0x100 EXP SWAP1 DIV PUSH20 0xFFFFFFFFFFFFFFFFFFFFFFFFFFFFFFFFFFFFFFFF AND PUSH20 0xFFFFFFFFFFFFFFFFFFFFFFFFFFFFFFFFFFFFFFFF AND CALLER PUSH20 0xFFFFFFFFFFFFFFFFFFFFFFFFFFFFFFFFFFFFFFFF AND EQ PUSH2 0xD0F JUMPI PUSH1 0x40 MLOAD PUSH32 0x8C379A000000000000000000000000000000000000000000000000000000000 DUP2 MSTORE PUSH1 0x4 ADD PUSH2 0xD06 SWAP1 PUSH2 0x173C JUMP JUMPDEST PUSH1 0x40 MLOAD DUP1 SWAP2 SUB SWAP1 REVERT JUMPDEST DUP1 PUSH1 0x1 DUP2 SWAP1 SSTORE POP PUSH32 0x109CD21DC4E5E640485F5E7E7D11E3FACF5B1CE3B4F327EF4751EE24A0AF62AC PUSH1 0x1 SLOAD PUSH1 0x40 MLOAD PUSH2 0xD47 SWAP2 SWAP1 PUSH2 0x167A JUMP JUMPDEST PUSH1 0x40 MLOAD DUP1 SWAP2 SUB SWAP1 LOG1 POP JUMP JUMPDEST PUSH1 0x1 SLOAD DUP2 JUMP JUMPDEST PUSH0 PUSH1 0x2 SLOAD SWAP1 POP SWAP1 JUMP JUMPDEST PUSH0 PUSH1 0x1 SLOAD SWAP1 POP SWAP1 JUMP JUMPDEST PUSH0 PUSH1 0x3 DUP1 SLOAD SWAP1 POP SWAP1 POP SWAP1 JUMP JUMPDEST PUSH1 0x5 PUSH0 SWAP1 SLOAD SWAP1 PUSH2 0x100 EXP SWAP1 DIV PUSH20 0xFFFFFFFFFFFFFFFFFFFFFFFFFFFFFFFFFFFFFFFF AND DUP2 JUMP JUMPDEST PUSH1 0x4 DUP2 PUSH1 0x40 MLOAD PUSH2 0xDAB SWAP2 SWAP1 PUSH2 0x1ABA JUMP JUMPDEST SWAP1 DUP2 MSTORE PUSH1 0x20 ADD PUSH1 0x40 MLOAD DUP1 SWAP2 SUB SWAP1 KECCAK256 PUSH0 SWAP1 SLOAD SWAP1 PUSH2 0x100 EXP SWAP1 DIV PUSH1 0xFF AND ISZERO PUSH2 0xE06 JUMPI PUSH1 0x40 MLOAD PUSH32 0x8C379A000000000000000000000000000000000000000000000000000000000 DUP2 MSTORE PUSH1 0x4 ADD PUSH2 0xDFD SWAP1 PUSH2 0x1D87 JUMP JUMPDEST PUSH1 0x40 MLOAD DUP1 SWAP2 SUB SWAP1 REVERT JUMPDEST CALLVALUE PUSH1 0x1 PUSH0 SLOAD PUSH2 0xE15 SWAP2 SWAP1 PUSH2 0x18AA JUMP JUMPDEST LT DUP1 ISZERO PUSH2 0xE22 JUMPI POP PUSH0 SLOAD CALLVALUE LT JUMPDEST ISZERO PUSH2 0xE59 JUMPI PUSH1 0x40 MLOAD PUSH32 0xBD4E069500000000000000000000000000000000000000000000000000000000 DUP2 MSTORE PUSH1 0x4 ADD PUSH1 0x40 MLOAD DUP1 SWAP2 SUB SWAP1 REVERT JUMPDEST PUSH1 0x5 PUSH0 SWAP1 SLOAD SWAP1 PUSH2 0x100 EXP SWAP1 DIV PUSH20 0xFFFFFFFFFFFFFFFFFFFFFFFFFFFFFFFFFFFFFFFF AND PUSH20 0xFFFFFFFFFFFFFFFFFFFFFFFFFFFFFFFFFFFFFFFF AND PUSH2 0x8FC CALLVALUE SWAP1 DUP2 ISZERO MUL SWAP1 PUSH1 0x40 MLOAD PUSH0 PUSH1 0x40 MLOAD DUP1 DUP4 SUB DUP2 DUP6 DUP9 DUP9 CALL SWAP4 POP POP POP POP ISZERO DUP1 ISZERO PUSH2 0xEBD JUMPI RETURNDATASIZE PUSH0 DUP1 RETURNDATACOPY RETURNDATASIZE PUSH0 REVERT JUMPDEST POP PUSH1 0x3 PUSH1 0x40 MLOAD DUP1 PUSH1 0x60 ADD PUSH1 0x40 MSTORE DUP1 DUP4 DUP2 MSTORE PUSH1 0x20 ADD TIMESTAMP DUP2 MSTORE PUSH1 0x20 ADD CALLER PUSH20 0xFFFFFFFFFFFFFFFFFFFFFFFFFFFFFFFFFFFFFFFF AND DUP2 MSTORE POP SWAP1 DUP1 PUSH1 0x1 DUP2 SLOAD ADD DUP1 DUP3 SSTORE DUP1 SWAP2 POP POP PUSH1 0x1 SWAP1 SUB SWAP1 PUSH0 MSTORE PUSH1 0x20 PUSH0 KECCAK256 SWAP1 PUSH1 0x3 MUL ADD PUSH0 SWAP1 SWAP2 SWAP1 SWAP2 SWAP1 SWAP2 POP PUSH0 DUP3 ADD MLOAD DUP2 PUSH0 ADD SWAP1 DUP2 PUSH2 0xF2A SWAP2 SWAP1 PUSH2 0x1F42 JUMP JUMPDEST POP PUSH1 0x20 DUP3 ADD MLOAD DUP2 PUSH1 0x1 ADD SSTORE PUSH1 0x40 DUP3 ADD MLOAD DUP2 PUSH1 0x2 ADD PUSH0 PUSH2 0x100 EXP DUP2 SLOAD DUP2 PUSH20 0xFFFFFFFFFFFFFFFFFFFFFFFFFFFFFFFFFFFFFFFF MUL NOT AND SWAP1 DUP4 PUSH20 0xFFFFFFFFFFFFFFFFFFFFFFFFFFFFFFFFFFFFFFFF AND MUL OR SWAP1 SSTORE POP POP POP CALLER PUSH20 0xFFFFFFFFFFFFFFFFFFFFFFFFFFFFFFFFFFFFFFFF AND PUSH32 0xE13346E29C870B2B0D2AA3F5335A9CECD4044E700A0902F6543CEA1C76D024CA CALLVALUE PUSH1 0x40 MLOAD PUSH2 0xFC3 SWAP2 SWAP1 PUSH2 0x167A JUMP JUMPDEST PUSH1 0x40 MLOAD DUP1 SWAP2 SUB SWAP1 LOG2 PUSH2 0xFE0 CALLVALUE PUSH1 0x2 SLOAD PUSH2 0x1114 SWAP1 SWAP2 SWAP1 PUSH4 0xFFFFFFFF AND JUMP JUMPDEST PUSH1 0x2 DUP2 SWAP1 SSTORE POP PUSH1 0x1 SLOAD PUSH1 0x2 SLOAD GT ISZERO PUSH2 0x1035 JUMPI PUSH1 0x2 SLOAD PUSH1 0x1 DUP2 SWAP1 SSTORE POP PUSH32 0x149086BFE57530C105768F33BD15EE9884E9B0F1D22A75FB8AC70AD894341073 PUSH1 0x1 SLOAD PUSH1 0x40 MLOAD PUSH2 0x102C SWAP2 SWAP1 PUSH2 0x167A JUMP JUMPDEST PUSH1 0x40 MLOAD DUP1 SWAP2 SUB SWAP1 LOG1 JUMPDEST PUSH1 0x1 PUSH1 0x4 DUP3 PUSH1 0x40 MLOAD PUSH2 0x1047 SWAP2 SWAP1 PUSH2 0x1ABA JUMP JUMPDEST SWAP1 DUP2 MSTORE PUSH1 0x20 ADD PUSH1 0x40 MLOAD DUP1 SWAP2 SUB SWAP1 KECCAK256 PUSH0 PUSH2 0x100 EXP DUP2 SLOAD DUP2 PUSH1 0xFF MUL NOT AND SWAP1 DUP4 ISZERO ISZERO MUL OR SWAP1 SSTORE POP POP JUMP JUMPDEST PUSH1 0x2 SLOAD DUP2 JUMP JUMPDEST PUSH0 DUP1 SLOAD SWAP1 POP SWAP1 JUMP JUMPDEST PUSH1 0x5 PUSH0 SWAP1 SLOAD SWAP1 PUSH2 0x100 EXP SWAP1 DIV PUSH20 0xFFFFFFFFFFFFFFFFFFFFFFFFFFFFFFFFFFFFFFFF AND PUSH20 0xFFFFFFFFFFFFFFFFFFFFFFFFFFFFFFFFFFFFFFFF AND CALLER PUSH20 0xFFFFFFFFFFFFFFFFFFFFFFFFFFFFFFFFFFFFFFFF AND EQ PUSH2 0x110B JUMPI PUSH1 0x40 MLOAD PUSH32 0x8C379A000000000000000000000000000000000000000000000000000000000 DUP2 MSTORE PUSH1 0x4 ADD PUSH2 0x1102 SWAP1 PUSH2 0x173C JUMP JUMPDEST PUSH1 0x40 MLOAD DUP1 SWAP2 SUB SWAP1 REVERT JUMPDEST DUP1 PUSH0 DUP2 SWAP1 SSTORE POP POP JUMP JUMPDEST PUSH0 DUP2 DUP4 PUSH2 0x1121 SWAP2 SWAP1 PUSH2 0x2011 JUMP JUMPDEST SWAP1 POP SWAP3 SWAP2 POP POP JUMP JUMPDEST PUSH0 DUP2 DUP4 PUSH2 0x1136 SWAP2 SWAP1 PUSH2 0x2044 JUMP JUMPDEST SWAP1 POP SWAP3 SWAP2 POP POP JUMP JUMPDEST PUSH0 DUP2 DUP4 PUSH2 0x114B SWAP2 SWAP1 PUSH2 0x20B2 JUMP JUMPDEST SWAP1 POP SWAP3 SWAP2 POP POP JUMP JUMPDEST PUSH0 PUSH1 0x40 MLOAD SWAP1 POP SWAP1 JUMP JUMPDEST PUSH0 DUP1 REVERT JUMPDEST PUSH0 DUP1 REVERT JUMPDEST PUSH0 DUP1 REVERT JUMPDEST PUSH0 PUSH1 0x1F NOT PUSH1 0x1F DUP4 ADD AND SWAP1 POP SWAP2 SWAP1 POP JUMP JUMPDEST PUSH32 0x4E487B7100000000000000000000000000000000000000000000000000000000 PUSH0 MSTORE PUSH1 0x41 PUSH1 0x4 MSTORE PUSH1 0x24 PUSH0 REVERT JUMPDEST PUSH2 0x11AE DUP3 PUSH2 0x1168 JUMP JUMPDEST DUP2 ADD DUP2 DUP2 LT PUSH8 0xFFFFFFFFFFFFFFFF DUP3 GT OR ISZERO PUSH2 0x11CD JUMPI PUSH2 0x11CC PUSH2 0x1178 JUMP JUMPDEST JUMPDEST DUP1 PUSH1 0x40 MSTORE POP POP POP JUMP JUMPDEST PUSH0 PUSH2 0x11DF PUSH2 0x1153 JUMP JUMPDEST SWAP1 POP PUSH2 0x11EB DUP3 DUP3 PUSH2 0x11A5 JUMP JUMPDEST SWAP2 SWAP1 POP JUMP JUMPDEST PUSH0 PUSH8 0xFFFFFFFFFFFFFFFF DUP3 GT ISZERO PUSH2 0x120A JUMPI PUSH2 0x1209 PUSH2 0x1178 JUMP JUMPDEST JUMPDEST PUSH1 0x20 DUP3 MUL SWAP1 POP PUSH1 0x20 DUP2 ADD SWAP1 POP SWAP2 SWAP1 POP JUMP JUMPDEST PUSH0 DUP1 REVERT JUMPDEST PUSH0 PUSH20 0xFFFFFFFFFFFFFFFFFFFFFFFFFFFFFFFFFFFFFFFF DUP3 AND SWAP1 POP SWAP2 SWAP1 POP JUMP JUMPDEST PUSH0 PUSH2 0x1248 DUP3 PUSH2 0x121F JUMP JUMPDEST SWAP1 POP SWAP2 SWAP1 POP JUMP JUMPDEST PUSH2 0x1258 DUP2 PUSH2 0x123E JUMP JUMPDEST DUP2 EQ PUSH2 0x1262 JUMPI PUSH0 DUP1 REVERT JUMPDEST POP JUMP JUMPDEST PUSH0 DUP2 CALLDATALOAD SWAP1 POP PUSH2 0x1273 DUP2 PUSH2 0x124F JUMP JUMPDEST SWAP3 SWAP2 POP POP JUMP JUMPDEST PUSH0 PUSH2 0x128B PUSH2 0x1286 DUP5 PUSH2 0x11F0 JUMP JUMPDEST PUSH2 0x11D6 JUMP JUMPDEST SWAP1 POP DUP1 DUP4 DUP3 MSTORE PUSH1 0x20 DUP3 ADD SWAP1 POP PUSH1 0x20 DUP5 MUL DUP4 ADD DUP6 DUP2 GT ISZERO PUSH2 0x12AE JUMPI PUSH2 0x12AD PUSH2 0x121B JUMP JUMPDEST JUMPDEST DUP4 JUMPDEST DUP2 DUP2 LT ISZERO PUSH2 0x12D7 JUMPI DUP1 PUSH2 0x12C3 DUP9 DUP3 PUSH2 0x1265 JUMP JUMPDEST DUP5 MSTORE PUSH1 0x20 DUP5 ADD SWAP4 POP POP PUSH1 0x20 DUP2 ADD SWAP1 POP PUSH2 0x12B0 JUMP JUMPDEST POP POP POP SWAP4 SWAP3 POP POP POP JUMP JUMPDEST PUSH0 DUP3 PUSH1 0x1F DUP4 ADD SLT PUSH2 0x12F5 JUMPI PUSH2 0x12F4 PUSH2 0x1164 JUMP JUMPDEST JUMPDEST DUP2 CALLDATALOAD PUSH2 0x1305 DUP5 DUP3 PUSH1 0x20 DUP7 ADD PUSH2 0x1279 JUMP JUMPDEST SWAP2 POP POP SWAP3 SWAP2 POP POP JUMP JUMPDEST PUSH0 PUSH8 0xFFFFFFFFFFFFFFFF DUP3 GT ISZERO PUSH2 0x1328 JUMPI PUSH2 0x1327 PUSH2 0x1178 JUMP JUMPDEST JUMPDEST PUSH1 0x20 DUP3 MUL SWAP1 POP PUSH1 0x20 DUP2 ADD SWAP1 POP SWAP2 SWAP1 POP JUMP JUMPDEST PUSH0 DUP2 SWAP1 POP SWAP2 SWAP1 POP JUMP JUMPDEST PUSH2 0x134B DUP2 PUSH2 0x1339 JUMP JUMPDEST DUP2 EQ PUSH2 0x1355 JUMPI PUSH0 DUP1 REVERT JUMPDEST POP JUMP JUMPDEST PUSH0 DUP2 CALLDATALOAD SWAP1 POP PUSH2 0x1366 DUP2 PUSH2 0x1342 JUMP JUMPDEST SWAP3 SWAP2 POP POP JUMP JUMPDEST PUSH0 PUSH2 0x137E PUSH2 0x1379 DUP5 PUSH2 0x130E JUMP JUMPDEST PUSH2 0x11D6 JUMP JUMPDEST SWAP1 POP DUP1 DUP4 DUP3 MSTORE PUSH1 0x20 DUP3 ADD SWAP1 POP PUSH1 0x20 DUP5 MUL DUP4 ADD DUP6 DUP2 GT ISZERO PUSH2 0x13A1 JUMPI PUSH2 0x13A0 PUSH2 0x121B JUMP JUMPDEST JUMPDEST DUP4 JUMPDEST DUP2 DUP2 LT ISZERO PUSH2 0x13CA JUMPI DUP1 PUSH2 0x13B6 DUP9 DUP3 PUSH2 0x1358 JUMP JUMPDEST DUP5 MSTORE PUSH1 0x20 DUP5 ADD SWAP4 POP POP PUSH1 0x20 DUP2 ADD SWAP1 POP PUSH2 0x13A3 JUMP JUMPDEST POP POP POP SWAP4 SWAP3 POP POP POP JUMP JUMPDEST PUSH0 DUP3 PUSH1 0x1F DUP4 ADD SLT PUSH2 0x13E8 JUMPI PUSH2 0x13E7 PUSH2 0x1164 JUMP JUMPDEST JUMPDEST DUP2 CALLDATALOAD PUSH2 0x13F8 DUP5 DUP3 PUSH1 0x20 DUP7 ADD PUSH2 0x136C JUMP JUMPDEST SWAP2 POP POP SWAP3 SWAP2 POP POP JUMP JUMPDEST PUSH0 DUP1 PUSH1 0x40 DUP4 DUP6 SUB SLT ISZERO PUSH2 0x1417 JUMPI PUSH2 0x1416 PUSH2 0x115C JUMP JUMPDEST JUMPDEST PUSH0 DUP4 ADD CALLDATALOAD PUSH8 0xFFFFFFFFFFFFFFFF DUP2 GT ISZERO PUSH2 0x1434 JUMPI PUSH2 0x1433 PUSH2 0x1160 JUMP JUMPDEST JUMPDEST PUSH2 0x1440 DUP6 DUP3 DUP7 ADD PUSH2 0x12E1 JUMP JUMPDEST SWAP3 POP POP PUSH1 0x20 DUP4 ADD CALLDATALOAD PUSH8 0xFFFFFFFFFFFFFFFF DUP2 GT ISZERO PUSH2 0x1461 JUMPI PUSH2 0x1460 PUSH2 0x1160 JUMP JUMPDEST JUMPDEST PUSH2 0x146D DUP6 DUP3 DUP7 ADD PUSH2 0x13D4 JUMP JUMPDEST SWAP2 POP POP SWAP3 POP SWAP3 SWAP1 POP JUMP JUMPDEST PUSH0 DUP1 REVERT JUMPDEST PUSH0 PUSH8 0xFFFFFFFFFFFFFFFF DUP3 GT ISZERO PUSH2 0x1495 JUMPI PUSH2 0x1494 PUSH2 0x1178 JUMP JUMPDEST JUMPDEST PUSH2 0x149E DUP3 PUSH2 0x1168 JUMP JUMPDEST SWAP1 POP PUSH1 0x20 DUP2 ADD SWAP1 POP SWAP2 SWAP1 POP JUMP JUMPDEST DUP3 DUP2 DUP4 CALLDATACOPY PUSH0 DUP4 DUP4 ADD MSTORE POP POP POP JUMP JUMPDEST PUSH0 PUSH2 0x14CB PUSH2 0x14C6 DUP5 PUSH2 0x147B JUMP JUMPDEST PUSH2 0x11D6 JUMP JUMPDEST SWAP1 POP DUP3 DUP2 MSTORE PUSH1 0x20 DUP2 ADD DUP5 DUP5 DUP5 ADD GT ISZERO PUSH2 0x14E7 JUMPI PUSH2 0x14E6 PUSH2 0x1477 JUMP JUMPDEST JUMPDEST PUSH2 0x14F2 DUP5 DUP3 DUP6 PUSH2 0x14AB JUMP JUMPDEST POP SWAP4 SWAP3 POP POP POP JUMP JUMPDEST PUSH0 DUP3 PUSH1 0x1F DUP4 ADD SLT PUSH2 0x150E JUMPI PUSH2 0x150D PUSH2 0x1164 JUMP JUMPDEST JUMPDEST DUP2 CALLDATALOAD PUSH2 0x151E DUP5 DUP3 PUSH1 0x20 DUP7 ADD PUSH2 0x14B9 JUMP JUMPDEST SWAP2 POP POP SWAP3 SWAP2 POP POP JUMP JUMPDEST PUSH0 PUSH1 0x20 DUP3 DUP5 SUB SLT ISZERO PUSH2 0x153C JUMPI PUSH2 0x153B PUSH2 0x115C JUMP JUMPDEST JUMPDEST PUSH0 DUP3 ADD CALLDATALOAD PUSH8 0xFFFFFFFFFFFFFFFF DUP2 GT ISZERO PUSH2 0x1559 JUMPI PUSH2 0x1558 PUSH2 0x1160 JUMP JUMPDEST JUMPDEST PUSH2 0x1565 DUP5 DUP3 DUP6 ADD PUSH2 0x14FA JUMP JUMPDEST SWAP2 POP POP SWAP3 SWAP2 POP POP JUMP JUMPDEST PUSH2 0x1577 DUP2 PUSH2 0x1339 JUMP JUMPDEST DUP3 MSTORE POP POP JUMP JUMPDEST PUSH2 0x1586 DUP2 PUSH2 0x123E JUMP JUMPDEST DUP3 MSTORE POP POP JUMP JUMPDEST PUSH0 PUSH1 0x40 DUP3 ADD SWAP1 POP PUSH2 0x159F PUSH0 DUP4 ADD DUP6 PUSH2 0x156E JUMP JUMPDEST PUSH2 0x15AC PUSH1 0x20 DUP4 ADD DUP5 PUSH2 0x157D JUMP JUMPDEST SWAP4 SWAP3 POP POP POP JUMP JUMPDEST PUSH0 PUSH1 0x20 DUP3 DUP5 SUB SLT ISZERO PUSH2 0x15C8 JUMPI PUSH2 0x15C7 PUSH2 0x115C JUMP JUMPDEST JUMPDEST PUSH0 PUSH2 0x15D5 DUP5 DUP3 DUP6 ADD PUSH2 0x1358 JUMP JUMPDEST SWAP2 POP POP SWAP3 SWAP2 POP POP JUMP JUMPDEST PUSH0 DUP2 MLOAD SWAP1 POP SWAP2 SWAP1 POP JUMP JUMPDEST PUSH0 DUP3 DUP3 MSTORE PUSH1 0x20 DUP3 ADD SWAP1 POP SWAP3 SWAP2 POP POP JUMP JUMPDEST DUP3 DUP2 DUP4 MCOPY PUSH0 DUP4 DUP4 ADD MSTORE POP POP POP JUMP JUMPDEST PUSH0 PUSH2 0x1610 DUP3 PUSH2 0x15DE JUMP JUMPDEST PUSH2 0x161A DUP2 DUP6 PUSH2 0x15E8 JUMP JUMPDEST SWAP4 POP PUSH2 0x162A DUP2 DUP6 PUSH1 0x20 DUP7 ADD PUSH2 0x15F8 JUMP JUMPDEST PUSH2 0x1633 DUP2 PUSH2 0x1168 JUMP JUMPDEST DUP5 ADD SWAP2 POP POP SWAP3 SWAP2 POP POP JUMP JUMPDEST PUSH0 PUSH1 0x60 DUP3 ADD SWAP1 POP DUP2 DUP2 SUB PUSH0 DUP4 ADD MSTORE PUSH2 0x1656 DUP2 DUP7 PUSH2 0x1606 JUMP JUMPDEST SWAP1 POP PUSH2 0x1665 PUSH1 0x20 DUP4 ADD DUP6 PUSH2 0x156E JUMP JUMPDEST PUSH2 0x1672 PUSH1 0x40 DUP4 ADD DUP5 PUSH2 0x157D JUMP JUMPDEST SWAP5 SWAP4 POP POP POP POP JUMP JUMPDEST PUSH0 PUSH1 0x20 DUP3 ADD SWAP1 POP PUSH2 0x168D PUSH0 DUP4 ADD DUP5 PUSH2 0x156E JUMP JUMPDEST SWAP3 SWAP2 POP POP JUMP JUMPDEST PUSH0 PUSH2 0x169D DUP3 PUSH2 0x121F JUMP JUMPDEST SWAP1 POP SWAP2 SWAP1 POP JUMP JUMPDEST PUSH2 0x16AD DUP2 PUSH2 0x1693 JUMP JUMPDEST DUP3 MSTORE POP POP JUMP JUMPDEST PUSH0 PUSH1 0x20 DUP3 ADD SWAP1 POP PUSH2 0x16C6 PUSH0 DUP4 ADD DUP5 PUSH2 0x16A4 JUMP JUMPDEST SWAP3 SWAP2 POP POP JUMP JUMPDEST PUSH32 0x4F6E6C79206F776E65722063616E2063616C6C20746869732066756E6374696F PUSH0 DUP3 ADD MSTORE PUSH32 0x6E00000000000000000000000000000000000000000000000000000000000000 PUSH1 0x20 DUP3 ADD MSTORE POP JUMP JUMPDEST PUSH0 PUSH2 0x1726 PUSH1 0x21 DUP4 PUSH2 0x15E8 JUMP JUMPDEST SWAP2 POP PUSH2 0x1731 DUP3 PUSH2 0x16CC JUMP JUMPDEST PUSH1 0x40 DUP3 ADD SWAP1 POP SWAP2 SWAP1 POP JUMP JUMPDEST PUSH0 PUSH1 0x20 DUP3 ADD SWAP1 POP DUP2 DUP2 SUB PUSH0 DUP4 ADD MSTORE PUSH2 0x1753 DUP2 PUSH2 0x171A JUMP JUMPDEST SWAP1 POP SWAP2 SWAP1 POP JUMP JUMPDEST PUSH32 0x4D7573742070726F766964652065786163746C79203320706172746963697061 PUSH0 DUP3 ADD MSTORE PUSH32 0x6E74730000000000000000000000000000000000000000000000000000000000 PUSH1 0x20 DUP3 ADD MSTORE POP JUMP JUMPDEST PUSH0 PUSH2 0x17B4 PUSH1 0x23 DUP4 PUSH2 0x15E8 JUMP JUMPDEST SWAP2 POP PUSH2 0x17BF DUP3 PUSH2 0x175A JUMP JUMPDEST PUSH1 0x40 DUP3 ADD SWAP1 POP SWAP2 SWAP1 POP JUMP JUMPDEST PUSH0 PUSH1 0x20 DUP3 ADD SWAP1 POP DUP2 DUP2 SUB PUSH0 DUP4 ADD MSTORE PUSH2 0x17E1 DUP2 PUSH2 0x17A8 JUMP JUMPDEST SWAP1 POP SWAP2 SWAP1 POP JUMP JUMPDEST PUSH32 0x4D7573742070726F76696465203420726174696F730000000000000000000000 PUSH0 DUP3 ADD MSTORE POP JUMP JUMPDEST PUSH0 PUSH2 0x181C PUSH1 0x15 DUP4 PUSH2 0x15E8 JUMP JUMPDEST SWAP2 POP PUSH2 0x1827 DUP3 PUSH2 0x17E8 JUMP JUMPDEST PUSH1 0x20 DUP3 ADD SWAP1 POP SWAP2 SWAP1 POP JUMP JUMPDEST PUSH0 PUSH1 0x20 DUP3 ADD SWAP1 POP DUP2 DUP2 SUB PUSH0 DUP4 ADD MSTORE PUSH2 0x1849 DUP2 PUSH2 0x1810 JUMP JUMPDEST SWAP1 POP SWAP2 SWAP1 POP JUMP JUMPDEST PUSH32 0x4E487B7100000000000000000000000000000000000000000000000000000000 PUSH0 MSTORE PUSH1 0x32 PUSH1 0x4 MSTORE PUSH1 0x24 PUSH0 REVERT JUMPDEST PUSH32 0x4E487B7100000000000000000000000000000000000000000000000000000000 PUSH0 MSTORE PUSH1 0x11 PUSH1 0x4 MSTORE PUSH1 0x24 PUSH0 REVERT JUMPDEST PUSH0 PUSH2 0x18B4 DUP3 PUSH2 0x1339 JUMP JUMPDEST SWAP2 POP PUSH2 0x18BF DUP4 PUSH2 0x1339 JUMP JUMPDEST SWAP3 POP DUP3 DUP3 SUB SWAP1 POP DUP2 DUP2 GT ISZERO PUSH2 0x18D7 JUMPI PUSH2 0x18D6 PUSH2 0x187D JUMP JUMPDEST JUMPDEST SWAP3 SWAP2 POP POP JUMP JUMPDEST PUSH0 DUP2 MLOAD SWAP1 POP SWAP2 SWAP1 POP JUMP JUMPDEST PUSH0 DUP3 DUP3 MSTORE PUSH1 0x20 DUP3 ADD SWAP1 POP SWAP3 SWAP2 POP POP JUMP JUMPDEST PUSH0 DUP2 SWAP1 POP PUSH1 0x20 DUP3 ADD SWAP1 POP SWAP2 SWAP1 POP JUMP JUMPDEST PUSH2 0x190F DUP2 PUSH2 0x123E JUMP JUMPDEST DUP3 MSTORE POP POP JUMP JUMPDEST PUSH0 PUSH2 0x1920 DUP4 DUP4 PUSH2 0x1906 JUMP JUMPDEST PUSH1 0x20 DUP4 ADD SWAP1 POP SWAP3 SWAP2 POP POP JUMP JUMPDEST PUSH0 PUSH1 0x20 DUP3 ADD SWAP1 POP SWAP2 SWAP1 POP JUMP JUMPDEST PUSH0 PUSH2 0x1942 DUP3 PUSH2 0x18DD JUMP JUMPDEST PUSH2 0x194C DUP2 DUP6 PUSH2 0x18E7 JUMP JUMPDEST SWAP4 POP PUSH2 0x1957 DUP4 PUSH2 0x18F7 JUMP JUMPDEST DUP1 PUSH0 JUMPDEST DUP4 DUP2 LT ISZERO PUSH2 0x1987 JUMPI DUP2 MLOAD PUSH2 0x196E DUP9 DUP3 PUSH2 0x1915 JUMP JUMPDEST SWAP8 POP PUSH2 0x1979 DUP4 PUSH2 0x192C JUMP JUMPDEST SWAP3 POP POP PUSH1 0x1 DUP2 ADD SWAP1 POP PUSH2 0x195A JUMP JUMPDEST POP DUP6 SWAP4 POP POP POP POP SWAP3 SWAP2 POP POP JUMP JUMPDEST PUSH0 DUP2 MLOAD SWAP1 POP SWAP2 SWAP1 POP JUMP JUMPDEST PUSH0 DUP3 DUP3 MSTORE PUSH1 0x20 DUP3 ADD SWAP1 POP SWAP3 SWAP2 POP POP JUMP JUMPDEST PUSH0 DUP2 SWAP1 POP PUSH1 0x20 DUP3 ADD SWAP1 POP SWAP2 SWAP1 POP JUMP JUMPDEST PUSH2 0x19C6 DUP2 PUSH2 0x1339 JUMP JUMPDEST DUP3 MSTORE POP POP JUMP JUMPDEST PUSH0 PUSH2 0x19D7 DUP4 DUP4 PUSH2 0x19BD JUMP JUMPDEST PUSH1 0x20 DUP4 ADD SWAP1 POP SWAP3 SWAP2 POP POP JUMP JUMPDEST PUSH0 PUSH1 0x20 DUP3 ADD SWAP1 POP SWAP2 SWAP1 POP JUMP JUMPDEST PUSH0 PUSH2 0x19F9 DUP3 PUSH2 0x1994 JUMP JUMPDEST PUSH2 0x1A03 DUP2 DUP6 PUSH2 0x199E JUMP JUMPDEST SWAP4 POP PUSH2 0x1A0E DUP4 PUSH2 0x19AE JUMP JUMPDEST DUP1 PUSH0 JUMPDEST DUP4 DUP2 LT ISZERO PUSH2 0x1A3E JUMPI DUP2 MLOAD PUSH2 0x1A25 DUP9 DUP3 PUSH2 0x19CC JUMP JUMPDEST SWAP8 POP PUSH2 0x1A30 DUP4 PUSH2 0x19E3 JUMP JUMPDEST SWAP3 POP POP PUSH1 0x1 DUP2 ADD SWAP1 POP PUSH2 0x1A11 JUMP JUMPDEST POP DUP6 SWAP4 POP POP POP POP SWAP3 SWAP2 POP POP JUMP JUMPDEST PUSH0 PUSH1 0x40 DUP3 ADD SWAP1 POP DUP2 DUP2 SUB PUSH0 DUP4 ADD MSTORE PUSH2 0x1A63 DUP2 DUP6 PUSH2 0x1938 JUMP JUMPDEST SWAP1 POP DUP2 DUP2 SUB PUSH1 0x20 DUP4 ADD MSTORE PUSH2 0x1A77 DUP2 DUP5 PUSH2 0x19EF JUMP JUMPDEST SWAP1 POP SWAP4 SWAP3 POP POP POP JUMP JUMPDEST PUSH0 DUP2 SWAP1 POP SWAP3 SWAP2 POP POP JUMP JUMPDEST PUSH0 PUSH2 0x1A94 DUP3 PUSH2 0x15DE JUMP JUMPDEST PUSH2 0x1A9E DUP2 DUP6 PUSH2 0x1A80 JUMP JUMPDEST SWAP4 POP PUSH2 0x1AAE DUP2 DUP6 PUSH1 0x20 DUP7 ADD PUSH2 0x15F8 JUMP JUMPDEST DUP1 DUP5 ADD SWAP2 POP POP SWAP3 SWAP2 POP POP JUMP JUMPDEST PUSH0 PUSH2 0x1AC5 DUP3 DUP5 PUSH2 0x1A8A JUMP JUMPDEST SWAP2 POP DUP2 SWAP1 POP SWAP3 SWAP2 POP POP JUMP JUMPDEST PUSH32 0x4E616D65206E6F7420666F756E64000000000000000000000000000000000000 PUSH0 DUP3 ADD MSTORE POP JUMP JUMPDEST PUSH0 PUSH2 0x1B04 PUSH1 0xE DUP4 PUSH2 0x15E8 JUMP JUMPDEST SWAP2 POP PUSH2 0x1B0F DUP3 PUSH2 0x1AD0 JUMP JUMPDEST PUSH1 0x20 DUP3 ADD SWAP1 POP SWAP2 SWAP1 POP JUMP JUMPDEST PUSH0 PUSH1 0x20 DUP3 ADD SWAP1 POP DUP2 DUP2 SUB PUSH0 DUP4 ADD MSTORE PUSH2 0x1B31 DUP2 PUSH2 0x1AF8 JUMP JUMPDEST SWAP1 POP SWAP2 SWAP1 POP JUMP JUMPDEST PUSH32 0x4E487B7100000000000000000000000000000000000000000000000000000000 PUSH0 MSTORE PUSH1 0x22 PUSH1 0x4 MSTORE PUSH1 0x24 PUSH0 REVERT JUMPDEST PUSH0 PUSH1 0x2 DUP3 DIV SWAP1 POP PUSH1 0x1 DUP3 AND DUP1 PUSH2 0x1B7C JUMPI PUSH1 0x7F DUP3 AND SWAP2 POP JUMPDEST PUSH1 0x20 DUP3 LT DUP2 SUB PUSH2 0x1B8F JUMPI PUSH2 0x1B8E PUSH2 0x1B38 JUMP JUMPDEST JUMPDEST POP SWAP2 SWAP1 POP JUMP JUMPDEST PUSH0 DUP2 SWAP1 POP SWAP3 SWAP2 POP POP JUMP JUMPDEST PUSH0 DUP2 SWAP1 POP DUP2 PUSH0 MSTORE PUSH1 0x20 PUSH0 KECCAK256 SWAP1 POP SWAP2 SWAP1 POP JUMP JUMPDEST PUSH0 DUP2 SLOAD PUSH2 0x1BBD DUP2 PUSH2 0x1B65 JUMP JUMPDEST PUSH2 0x1BC7 DUP2 DUP7 PUSH2 0x1B95 JUMP JUMPDEST SWAP5 POP PUSH1 0x1 DUP3 AND PUSH0 DUP2 EQ PUSH2 0x1BE1 JUMPI PUSH1 0x1 DUP2 EQ PUSH2 0x1BF6 JUMPI PUSH2 0x1C28 JUMP JUMPDEST PUSH1 0xFF NOT DUP4 AND DUP7 MSTORE DUP2 ISZERO ISZERO DUP3 MUL DUP7 ADD SWAP4 POP PUSH2 0x1C28 JUMP JUMPDEST PUSH2 0x1BFF DUP6 PUSH2 0x1B9F JUMP JUMPDEST PUSH0 JUMPDEST DUP4 DUP2 LT ISZERO PUSH2 0x1C20 JUMPI DUP2 SLOAD DUP2 DUP10 ADD MSTORE PUSH1 0x1 DUP3 ADD SWAP2 POP PUSH1 0x20 DUP2 ADD SWAP1 POP PUSH2 0x1C01 JUMP JUMPDEST DUP4 DUP9 ADD SWAP6 POP POP POP JUMPDEST POP POP POP SWAP3 SWAP2 POP POP JUMP JUMPDEST PUSH0 PUSH2 0x1C3C DUP3 DUP5 PUSH2 0x1BB1 JUMP JUMPDEST SWAP2 POP DUP2 SWAP1 POP SWAP3 SWAP2 POP POP JUMP JUMPDEST PUSH32 0x5265636F7264206E6F7420666F756E6420666F72207468652070726F76696465 PUSH0 DUP3 ADD MSTORE PUSH32 0x6420736561726368206E616D6500000000000000000000000000000000000000 PUSH1 0x20 DUP3 ADD MSTORE POP JUMP JUMPDEST PUSH0 PUSH2 0x1CA1 PUSH1 0x2D DUP4 PUSH2 0x15E8 JUMP JUMPDEST SWAP2 POP PUSH2 0x1CAC DUP3 PUSH2 0x1C47 JUMP JUMPDEST PUSH1 0x40 DUP3 ADD SWAP1 POP SWAP2 SWAP1 POP JUMP JUMPDEST PUSH0 PUSH1 0x20 DUP3 ADD SWAP1 POP DUP2 DUP2 SUB PUSH0 DUP4 ADD MSTORE PUSH2 0x1CCE DUP2 PUSH2 0x1C95 JUMP JUMPDEST SWAP1 POP SWAP2 SWAP1 POP JUMP JUMPDEST PUSH32 0x496E646578206F7574206F662072616E67650000000000000000000000000000 PUSH0 DUP3 ADD MSTORE POP JUMP JUMPDEST PUSH0 PUSH2 0x1D09 PUSH1 0x12 DUP4 PUSH2 0x15E8 JUMP JUMPDEST SWAP2 POP PUSH2 0x1D14 DUP3 PUSH2 0x1CD5 JUMP JUMPDEST PUSH1 0x20 DUP3 ADD SWAP1 POP SWAP2 SWAP1 POP JUMP JUMPDEST PUSH0 PUSH1 0x20 DUP3 ADD SWAP1 POP DUP2 DUP2 SUB PUSH0 DUP4 ADD MSTORE PUSH2 0x1D36 DUP2 PUSH2 0x1CFD JUMP JUMPDEST SWAP1 POP SWAP2 SWAP1 POP JUMP JUMPDEST PUSH32 0x5061727469636970616E7420697320616C726561647920656E726F6C6C656400 PUSH0 DUP3 ADD MSTORE POP JUMP JUMPDEST PUSH0 PUSH2 0x1D71 PUSH1 0x1F DUP4 PUSH2 0x15E8 JUMP JUMPDEST SWAP2 POP PUSH2 0x1D7C DUP3 PUSH2 0x1D3D JUMP JUMPDEST PUSH1 0x20 DUP3 ADD SWAP1 POP SWAP2 SWAP1 POP JUMP JUMPDEST PUSH0 PUSH1 0x20 DUP3 ADD SWAP1 POP DUP2 DUP2 SUB PUSH0 DUP4 ADD MSTORE PUSH2 0x1D9E DUP2 PUSH2 0x1D65 JUMP JUMPDEST SWAP1 POP SWAP2 SWAP1 POP JUMP JUMPDEST PUSH0 DUP2 SWAP1 POP DUP2 PUSH0 MSTORE PUSH1 0x20 PUSH0 KECCAK256 SWAP1 POP SWAP2 SWAP1 POP JUMP JUMPDEST PUSH0 PUSH1 0x20 PUSH1 0x1F DUP4 ADD DIV SWAP1 POP SWAP2 SWAP1 POP JUMP JUMPDEST PUSH0 DUP3 DUP3 SHL SWAP1 POP SWAP3 SWAP2 POP POP JUMP JUMPDEST PUSH0 PUSH1 0x8 DUP4 MUL PUSH2 0x1E01 PUSH32 0xFFFFFFFFFFFFFFFFFFFFFFFFFFFFFFFFFFFFFFFFFFFFFFFFFFFFFFFFFFFFFFFF DUP3 PUSH2 0x1DC6 JUMP JUMPDEST PUSH2 0x1E0B DUP7 DUP4 PUSH2 0x1DC6 JUMP JUMPDEST SWAP6 POP DUP1 NOT DUP5 AND SWAP4 POP DUP1 DUP7 AND DUP5 OR SWAP3 POP POP POP SWAP4 SWAP3 POP POP POP JUMP JUMPDEST PUSH0 DUP2 SWAP1 POP SWAP2 SWAP1 POP JUMP JUMPDEST PUSH0 PUSH2 0x1E46 PUSH2 0x1E41 PUSH2 0x1E3C DUP5 PUSH2 0x1339 JUMP JUMPDEST PUSH2 0x1E23 JUMP JUMPDEST PUSH2 0x1339 JUMP JUMPDEST SWAP1 POP SWAP2 SWAP1 POP JUMP JUMPDEST PUSH0 DUP2 SWAP1 POP SWAP2 SWAP1 POP JUMP JUMPDEST PUSH2 0x1E5F DUP4 PUSH2 0x1E2C JUMP JUMPDEST PUSH2 0x1E73 PUSH2 0x1E6B DUP3 PUSH2 0x1E4D JUMP JUMPDEST DUP5 DUP5 SLOAD PUSH2 0x1DD2 JUMP JUMPDEST DUP3 SSTORE POP POP POP POP JUMP JUMPDEST PUSH0 SWAP1 JUMP JUMPDEST PUSH2 0x1E87 PUSH2 0x1E7B JUMP JUMPDEST PUSH2 0x1E92 DUP2 DUP5 DUP5 PUSH2 0x1E56 JUMP JUMPDEST POP POP POP JUMP JUMPDEST JUMPDEST DUP2 DUP2 LT ISZERO PUSH2 0x1EB5 JUMPI PUSH2 0x1EAA PUSH0 DUP3 PUSH2 0x1E7F JUMP JUMPDEST PUSH1 0x1 DUP2 ADD SWAP1 POP PUSH2 0x1E98 JUMP JUMPDEST POP POP JUMP JUMPDEST PUSH1 0x1F DUP3 GT ISZERO PUSH2 0x1EFA JUMPI PUSH2 0x1ECB DUP2 PUSH2 0x1DA5 JUMP JUMPDEST PUSH2 0x1ED4 DUP5 PUSH2 0x1DB7 JUMP JUMPDEST DUP2 ADD PUSH1 0x20 DUP6 LT ISZERO PUSH2 0x1EE3 JUMPI DUP2 SWAP1 POP JUMPDEST PUSH2 0x1EF7 PUSH2 0x1EEF DUP6 PUSH2 0x1DB7 JUMP JUMPDEST DUP4 ADD DUP3 PUSH2 0x1E97 JUMP JUMPDEST POP POP JUMPDEST POP POP POP JUMP JUMPDEST PUSH0 DUP3 DUP3 SHR SWAP1 POP SWAP3 SWAP2 POP POP JUMP JUMPDEST PUSH0 PUSH2 0x1F1A PUSH0 NOT DUP5 PUSH1 0x8 MUL PUSH2 0x1EFF JUMP JUMPDEST NOT DUP1 DUP4 AND SWAP2 POP POP SWAP3 SWAP2 POP POP JUMP JUMPDEST PUSH0 PUSH2 0x1F32 DUP4 DUP4 PUSH2 0x1F0B JUMP JUMPDEST SWAP2 POP DUP3 PUSH1 0x2 MUL DUP3 OR SWAP1 POP SWAP3 SWAP2 POP POP JUMP JUMPDEST PUSH2 0x1F4B DUP3 PUSH2 0x15DE JUMP JUMPDEST PUSH8 0xFFFFFFFFFFFFFFFF DUP2 GT ISZERO PUSH2 0x1F64 JUMPI PUSH2 0x1F63 PUSH2 0x1178 JUMP JUMPDEST JUMPDEST PUSH2 0x1F6E DUP3 SLOAD PUSH2 0x1B65 JUMP JUMPDEST PUSH2 0x1F79 DUP3 DUP3 DUP6 PUSH2 0x1EB9 JUMP JUMPDEST PUSH0 PUSH1 0x20 SWAP1 POP PUSH1 0x1F DUP4 GT PUSH1 0x1 DUP2 EQ PUSH2 0x1FAA JUMPI PUSH0 DUP5 ISZERO PUSH2 0x1F98 JUMPI DUP3 DUP8 ADD MLOAD SWAP1 POP JUMPDEST PUSH2 0x1FA2 DUP6 DUP3 PUSH2 0x1F27 JUMP JUMPDEST DUP7 SSTORE POP PUSH2 0x2009 JUMP JUMPDEST PUSH1 0x1F NOT DUP5 AND PUSH2 0x1FB8 DUP7 PUSH2 0x1DA5 JUMP JUMPDEST PUSH0 JUMPDEST DUP3 DUP2 LT ISZERO PUSH2 0x1FDF JUMPI DUP5 DUP10 ADD MLOAD DUP3 SSTORE PUSH1 0x1 DUP3 ADD SWAP2 POP PUSH1 0x20 DUP6 ADD SWAP5 POP PUSH1 0x20 DUP2 ADD SWAP1 POP PUSH2 0x1FBA JUMP JUMPDEST DUP7 DUP4 LT ISZERO PUSH2 0x1FFC JUMPI DUP5 DUP10 ADD MLOAD PUSH2 0x1FF8 PUSH1 0x1F DUP10 AND DUP3 PUSH2 0x1F0B JUMP JUMPDEST DUP4 SSTORE POP JUMPDEST PUSH1 0x1 PUSH1 0x2 DUP9 MUL ADD DUP9 SSTORE POP POP POP JUMPDEST POP POP POP POP POP POP JUMP JUMPDEST PUSH0 PUSH2 0x201B DUP3 PUSH2 0x1339 JUMP JUMPDEST SWAP2 POP PUSH2 0x2026 DUP4 PUSH2 0x1339 JUMP JUMPDEST SWAP3 POP DUP3 DUP3 ADD SWAP1 POP DUP1 DUP3 GT ISZERO PUSH2 0x203E JUMPI PUSH2 0x203D PUSH2 0x187D JUMP JUMPDEST JUMPDEST SWAP3 SWAP2 POP POP JUMP JUMPDEST PUSH0 PUSH2 0x204E DUP3 PUSH2 0x1339 JUMP JUMPDEST SWAP2 POP PUSH2 0x2059 DUP4 PUSH2 0x1339 JUMP JUMPDEST SWAP3 POP DUP3 DUP3 MUL PUSH2 0x2067 DUP2 PUSH2 0x1339 JUMP JUMPDEST SWAP2 POP DUP3 DUP3 DIV DUP5 EQ DUP4 ISZERO OR PUSH2 0x207E JUMPI PUSH2 0x207D PUSH2 0x187D JUMP JUMPDEST JUMPDEST POP SWAP3 SWAP2 POP POP JUMP JUMPDEST PUSH32 0x4E487B7100000000000000000000000000000000000000000000000000000000 PUSH0 MSTORE PUSH1 0x12 PUSH1 0x4 MSTORE PUSH1 0x24 PUSH0 REVERT JUMPDEST PUSH0 PUSH2 0x20BC DUP3 PUSH2 0x1339 JUMP JUMPDEST SWAP2 POP PUSH2 0x20C7 DUP4 PUSH2 0x1339 JUMP JUMPDEST SWAP3 POP DUP3 PUSH2 0x20D7 JUMPI PUSH2 0x20D6 PUSH2 0x2085 JUMP JUMPDEST JUMPDEST DUP3 DUP3 DIV SWAP1 POP SWAP3 SWAP2 POP POP JUMP INVALID LOG2 PUSH5 0x6970667358 0x22 SLT KECCAK256 0xCD CODECOPY JUMPI 0xB0 0x4C PUSH25 0x8F5925E6EA3DC4C687105ADA4298DDF4718B3548107C073A9F CALLER PUSH5 0x736F6C6343 STOP ADDMOD NOT STOP CALLER "
		},
		"gasEstimates": {
			"creation": {
				"codeDepositCost": "1694400",
				"executionCost": "26041",
				"totalCost": "1720441"
			},
			"external": {
				"distributePrize(address[],uint256[])": "infinite",
				"getEntryFee()": "2498",
				"getMemoAtIndex(uint256)": "infinite",
				"getMemoDetailsByName(string)": "infinite",
				"getMemosLength()": "2485",
				"getPrizePool()": "2455",
				"getTotalEntryFees()": "2543",
				"owner()": "2575",
				"payEntryFee(string)": "infinite",
				"prizePool()": "2514",
				"setEntryFee(uint256)": "24771",
				"setPrizePool(uint256)": "infinite",
				"totalEntryFees()": "2469"
			}
		},
		"methodIdentifiers": {
			"distributePrize(address[],uint256[])": "47e8c560",
			"getEntryFee()": "e586a4f0",
			"getMemoAtIndex(uint256)": "669115bf",
			"getMemoDetailsByName(string)": "64043cda",
			"getMemosLength()": "89881253",
			"getPrizePool()": "884bf67c",
			"getTotalEntryFees()": "7b3888a7",
			"owner()": "8da5cb5b",
			"payEntryFee(string)": "c81c7a53",
			"prizePool()": "719ce73e",
			"setEntryFee(uint256)": "eb770d0c",
			"setPrizePool(uint256)": "6a4966b8",
			"totalEntryFees()": "da0be86c"
		}
	},
	"abi": [
		{
			"inputs": [],
			"stateMutability": "nonpayable",
			"type": "constructor"
		},
		{
			"inputs": [],
			"name": "Raffle__NotEnoughETHEntered",
			"type": "error"
		},
		{
			"anonymous": false,
			"inputs": [
				{
					"indexed": true,
					"internalType": "address",
					"name": "participant",
					"type": "address"
				},
				{
					"indexed": false,
					"internalType": "uint256",
					"name": "feeAmount",
					"type": "uint256"
				}
			],
			"name": "FeeEntry",
			"type": "event"
		},
		{
			"anonymous": false,
			"inputs": [
				{
					"indexed": true,
					"internalType": "address",
					"name": "host",
					"type": "address"
				},
				{
					"indexed": false,
					"internalType": "address[]",
					"name": "participants",
					"type": "address[]"
				},
				{
					"indexed": false,
					"internalType": "uint256[]",
					"name": "amounts",
					"type": "uint256[]"
				}
			],
			"name": "PrizeDistributed",
			"type": "event"
		},
		{
			"anonymous": false,
			"inputs": [
				{
					"indexed": false,
					"internalType": "uint256",
					"name": "newPrizePool",
					"type": "uint256"
				}
			],
			"name": "PrizeIncreased",
			"type": "event"
		},
		{
			"anonymous": false,
			"inputs": [
				{
					"indexed": false,
					"internalType": "uint256",
					"name": "prizePool",
					"type": "uint256"
				}
			],
			"name": "PrizePoolSet",
			"type": "event"
		},
		{
			"inputs": [
				{
					"internalType": "address[]",
					"name": "participants",
					"type": "address[]"
				},
				{
					"internalType": "uint256[]",
					"name": "ratios",
					"type": "uint256[]"
				}
			],
			"name": "distributePrize",
			"outputs": [],
			"stateMutability": "nonpayable",
			"type": "function"
		},
		{
			"inputs": [],
			"name": "getEntryFee",
			"outputs": [
				{
					"internalType": "uint256",
					"name": "",
					"type": "uint256"
				}
			],
			"stateMutability": "view",
			"type": "function"
		},
		{
			"inputs": [
				{
					"internalType": "uint256",
					"name": "index",
					"type": "uint256"
				}
			],
			"name": "getMemoAtIndex",
			"outputs": [
				{
					"internalType": "string",
					"name": "",
					"type": "string"
				},
				{
					"internalType": "uint256",
					"name": "",
					"type": "uint256"
				},
				{
					"internalType": "address",
					"name": "",
					"type": "address"
				}
			],
			"stateMutability": "view",
			"type": "function"
		},
		{
			"inputs": [
				{
					"internalType": "string",
					"name": "searchName",
					"type": "string"
				}
			],
			"name": "getMemoDetailsByName",
			"outputs": [
				{
					"internalType": "uint256",
					"name": "",
					"type": "uint256"
				},
				{
					"internalType": "address",
					"name": "",
					"type": "address"
				}
			],
			"stateMutability": "view",
			"type": "function"
		},
		{
			"inputs": [],
			"name": "getMemosLength",
			"outputs": [
				{
					"internalType": "uint256",
					"name": "",
					"type": "uint256"
				}
			],
			"stateMutability": "view",
			"type": "function"
		},
		{
			"inputs": [],
			"name": "getPrizePool",
			"outputs": [
				{
					"internalType": "uint256",
					"name": "",
					"type": "uint256"
				}
			],
			"stateMutability": "view",
			"type": "function"
		},
		{
			"inputs": [],
			"name": "getTotalEntryFees",
			"outputs": [
				{
					"internalType": "uint256",
					"name": "",
					"type": "uint256"
				}
			],
			"stateMutability": "view",
			"type": "function"
		},
		{
			"inputs": [],
			"name": "owner",
			"outputs": [
				{
					"internalType": "address payable",
					"name": "",
					"type": "address"
				}
			],
			"stateMutability": "view",
			"type": "function"
		},
		{
			"inputs": [
				{
					"internalType": "string",
					"name": "name",
					"type": "string"
				}
			],
			"name": "payEntryFee",
			"outputs": [],
			"stateMutability": "payable",
			"type": "function"
		},
		{
			"inputs": [],
			"name": "prizePool",
			"outputs": [
				{
					"internalType": "uint256",
					"name": "",
					"type": "uint256"
				}
			],
			"stateMutability": "view",
			"type": "function"
		},
		{
			"inputs": [
				{
					"internalType": "uint256",
					"name": "newEntryFee",
					"type": "uint256"
				}
			],
			"name": "setEntryFee",
			"outputs": [],
			"stateMutability": "nonpayable",
			"type": "function"
		},
		{
			"inputs": [
				{
					"internalType": "uint256",
					"name": "newPrizePool",
					"type": "uint256"
				}
			],
			"name": "setPrizePool",
			"outputs": [],
			"stateMutability": "nonpayable",
			"type": "function"
		},
		{
			"inputs": [],
			"name": "totalEntryFees",
			"outputs": [
				{
					"internalType": "uint256",
					"name": "",
					"type": "uint256"
				}
			],
			"stateMutability": "view",
			"type": "function"
		}
	]
}